{"contracts/fpis.sol":{"FPIS":{"abi":[{"inputs":[{"internalType":"string","name":"_id","type":"string"},{"internalType":"string","name":"_model","type":"string"},{"internalType":"string","name":"_description","type":"string"}],"name":"createProduct","outputs":[{"internalType":"bool","name":"","type":"bool"}],"stateMutability":"payable","type":"function"}],"evm":{"bytecode":{"linkReferences":{},"object":"608060405234801561001057600080fd5b506107f8806100206000396000f3fe60806040526004361061001e5760003560e01c8063d768468b14610023575b600080fd5b61003d60048036038101906100389190610375565b610053565b60405161004a9190610437565b60405180910390f35b600061005d610112565b8381600001819052508281602001819052508060008660405161008091906104c3565b908152602001604051809103902060008201518160000190816100a391906106f0565b5060208201518160010190816100b991906106f0565b5060408201518160020190816100cf91906106f0565b5060608201518160030190816100e591906106f0565b506080820151816004019080519060200190610102929190610141565b5090505060019150509392505050565b6040518060a0016040528060608152602001606081526020016060815260200160608152602001606081525090565b828054828255906000526020600020908101928215610189579160200282015b8281111561018857825182908161017891906106f0565b5091602001919060010190610161565b5b509050610196919061019a565b5090565b5b808211156101ba57600081816101b191906101be565b5060010161019b565b5090565b5080546101ca90610509565b6000825580601f106101dc57506101fb565b601f0160209004906000526020600020908101906101fa91906101fe565b5b50565b5b808211156102175760008160009055506001016101ff565b5090565b6000604051905090565b600080fd5b600080fd5b600080fd5b600080fd5b6000601f19601f8301169050919050565b7f4e487b7100000000000000000000000000000000000000000000000000000000600052604160045260246000fd5b61028282610239565b810181811067ffffffffffffffff821117156102a1576102a061024a565b5b80604052505050565b60006102b461021b565b90506102c08282610279565b919050565b600067ffffffffffffffff8211156102e0576102df61024a565b5b6102e982610239565b9050602081019050919050565b82818337600083830152505050565b6000610318610313846102c5565b6102aa565b90508281526020810184848401111561033457610333610234565b5b61033f8482856102f6565b509392505050565b600082601f83011261035c5761035b61022f565b5b813561036c848260208601610305565b91505092915050565b60008060006060848603121561038e5761038d610225565b5b600084013567ffffffffffffffff8111156103ac576103ab61022a565b5b6103b886828701610347565b935050602084013567ffffffffffffffff8111156103d9576103d861022a565b5b6103e586828701610347565b925050604084013567ffffffffffffffff8111156104065761040561022a565b5b61041286828701610347565b9150509250925092565b60008115159050919050565b6104318161041c565b82525050565b600060208201905061044c6000830184610428565b92915050565b600081519050919050565b600081905092915050565b60005b8381101561048657808201518184015260208101905061046b565b60008484015250505050565b600061049d82610452565b6104a7818561045d565b93506104b7818560208601610468565b80840191505092915050565b60006104cf8284610492565b915081905092915050565b7f4e487b7100000000000000000000000000000000000000000000000000000000600052602260045260246000fd5b6000600282049050600182168061052157607f821691505b602082108103610534576105336104da565b5b50919050565b60008190508160005260206000209050919050565b60006020601f8301049050919050565b600082821b905092915050565b60006008830261059c7fffffffffffffffffffffffffffffffffffffffffffffffffffffffffffffffff8261055f565b6105a6868361055f565b95508019841693508086168417925050509392505050565b6000819050919050565b6000819050919050565b60006105ed6105e86105e3846105be565b6105c8565b6105be565b9050919050565b6000819050919050565b610607836105d2565b61061b610613826105f4565b84845461056c565b825550505050565b600090565b610630610623565b61063b8184846105fe565b505050565b5b8181101561065f57610654600082610628565b600181019050610641565b5050565b601f8211156106a4576106758161053a565b61067e8461054f565b8101602085101561068d578190505b6106a16106998561054f565b830182610640565b50505b505050565b600082821c905092915050565b60006106c7600019846008026106a9565b1980831691505092915050565b60006106e083836106b6565b9150826002028217905092915050565b6106f982610452565b67ffffffffffffffff8111156107125761071161024a565b5b61071c8254610509565b610727828285610663565b600060209050601f83116001811461075a5760008415610748578287015190505b61075285826106d4565b8655506107ba565b601f1984166107688661053a565b60005b828110156107905784890151825560018201915060208501945060208101905061076b565b868310156107ad57848901516107a9601f8916826106b6565b8355505b6001600288020188555050505b50505050505056fea26469706673582212203902f7510f8867943893a8c0f0206a37f26ba6a74c1ad2931a6d36863b303cca64736f6c63430008130033","opcodes":"PUSH1 0x80 PUSH1 0x40 MSTORE CALLVALUE DUP1 ISZERO PUSH2 0x10 JUMPI PUSH1 0x0 DUP1 REVERT JUMPDEST POP PUSH2 0x7F8 DUP1 PUSH2 0x20 PUSH1 0x0 CODECOPY PUSH1 0x0 RETURN INVALID PUSH1 0x80 PUSH1 0x40 MSTORE PUSH1 0x4 CALLDATASIZE LT PUSH2 0x1E JUMPI PUSH1 0x0 CALLDATALOAD PUSH1 0xE0 SHR DUP1 PUSH4 0xD768468B EQ PUSH2 0x23 JUMPI JUMPDEST PUSH1 0x0 DUP1 REVERT JUMPDEST PUSH2 0x3D PUSH1 0x4 DUP1 CALLDATASIZE SUB DUP2 ADD SWAP1 PUSH2 0x38 SWAP2 SWAP1 PUSH2 0x375 JUMP JUMPDEST PUSH2 0x53 JUMP JUMPDEST PUSH1 0x40 MLOAD PUSH2 0x4A SWAP2 SWAP1 PUSH2 0x437 JUMP JUMPDEST PUSH1 0x40 MLOAD DUP1 SWAP2 SUB SWAP1 RETURN JUMPDEST PUSH1 0x0 PUSH2 0x5D PUSH2 0x112 JUMP JUMPDEST DUP4 DUP2 PUSH1 0x0 ADD DUP2 SWAP1 MSTORE POP DUP3 DUP2 PUSH1 0x20 ADD DUP2 SWAP1 MSTORE POP DUP1 PUSH1 0x0 DUP7 PUSH1 0x40 MLOAD PUSH2 0x80 SWAP2 SWAP1 PUSH2 0x4C3 JUMP JUMPDEST SWAP1 DUP2 MSTORE PUSH1 0x20 ADD PUSH1 0x40 MLOAD DUP1 SWAP2 SUB SWAP1 KECCAK256 PUSH1 0x0 DUP3 ADD MLOAD DUP2 PUSH1 0x0 ADD SWAP1 DUP2 PUSH2 0xA3 SWAP2 SWAP1 PUSH2 0x6F0 JUMP JUMPDEST POP PUSH1 0x20 DUP3 ADD MLOAD DUP2 PUSH1 0x1 ADD SWAP1 DUP2 PUSH2 0xB9 SWAP2 SWAP1 PUSH2 0x6F0 JUMP JUMPDEST POP PUSH1 0x40 DUP3 ADD MLOAD DUP2 PUSH1 0x2 ADD SWAP1 DUP2 PUSH2 0xCF SWAP2 SWAP1 PUSH2 0x6F0 JUMP JUMPDEST POP PUSH1 0x60 DUP3 ADD MLOAD DUP2 PUSH1 0x3 ADD SWAP1 DUP2 PUSH2 0xE5 SWAP2 SWAP1 PUSH2 0x6F0 JUMP JUMPDEST POP PUSH1 0x80 DUP3 ADD MLOAD DUP2 PUSH1 0x4 ADD SWAP1 DUP1 MLOAD SWAP1 PUSH1 0x20 ADD SWAP1 PUSH2 0x102 SWAP3 SWAP2 SWAP1 PUSH2 0x141 JUMP JUMPDEST POP SWAP1 POP POP PUSH1 0x1 SWAP2 POP POP SWAP4 SWAP3 POP POP POP JUMP JUMPDEST PUSH1 0x40 MLOAD DUP1 PUSH1 0xA0 ADD PUSH1 0x40 MSTORE DUP1 PUSH1 0x60 DUP2 MSTORE PUSH1 0x20 ADD PUSH1 0x60 DUP2 MSTORE PUSH1 0x20 ADD PUSH1 0x60 DUP2 MSTORE PUSH1 0x20 ADD PUSH1 0x60 DUP2 MSTORE PUSH1 0x20 ADD PUSH1 0x60 DUP2 MSTORE POP SWAP1 JUMP JUMPDEST DUP3 DUP1 SLOAD DUP3 DUP3 SSTORE SWAP1 PUSH1 0x0 MSTORE PUSH1 0x20 PUSH1 0x0 KECCAK256 SWAP1 DUP2 ADD SWAP3 DUP3 ISZERO PUSH2 0x189 JUMPI SWAP2 PUSH1 0x20 MUL DUP3 ADD JUMPDEST DUP3 DUP2 GT ISZERO PUSH2 0x188 JUMPI DUP3 MLOAD DUP3 SWAP1 DUP2 PUSH2 0x178 SWAP2 SWAP1 PUSH2 0x6F0 JUMP JUMPDEST POP SWAP2 PUSH1 0x20 ADD SWAP2 SWAP1 PUSH1 0x1 ADD SWAP1 PUSH2 0x161 JUMP JUMPDEST JUMPDEST POP SWAP1 POP PUSH2 0x196 SWAP2 SWAP1 PUSH2 0x19A JUMP JUMPDEST POP SWAP1 JUMP JUMPDEST JUMPDEST DUP1 DUP3 GT ISZERO PUSH2 0x1BA JUMPI PUSH1 0x0 DUP2 DUP2 PUSH2 0x1B1 SWAP2 SWAP1 PUSH2 0x1BE JUMP JUMPDEST POP PUSH1 0x1 ADD PUSH2 0x19B JUMP JUMPDEST POP SWAP1 JUMP JUMPDEST POP DUP1 SLOAD PUSH2 0x1CA SWAP1 PUSH2 0x509 JUMP JUMPDEST PUSH1 0x0 DUP3 SSTORE DUP1 PUSH1 0x1F LT PUSH2 0x1DC JUMPI POP PUSH2 0x1FB JUMP JUMPDEST PUSH1 0x1F ADD PUSH1 0x20 SWAP1 DIV SWAP1 PUSH1 0x0 MSTORE PUSH1 0x20 PUSH1 0x0 KECCAK256 SWAP1 DUP2 ADD SWAP1 PUSH2 0x1FA SWAP2 SWAP1 PUSH2 0x1FE JUMP JUMPDEST JUMPDEST POP JUMP JUMPDEST JUMPDEST DUP1 DUP3 GT ISZERO PUSH2 0x217 JUMPI PUSH1 0x0 DUP2 PUSH1 0x0 SWAP1 SSTORE POP PUSH1 0x1 ADD PUSH2 0x1FF JUMP JUMPDEST POP SWAP1 JUMP JUMPDEST PUSH1 0x0 PUSH1 0x40 MLOAD SWAP1 POP SWAP1 JUMP JUMPDEST PUSH1 0x0 DUP1 REVERT JUMPDEST PUSH1 0x0 DUP1 REVERT JUMPDEST PUSH1 0x0 DUP1 REVERT JUMPDEST PUSH1 0x0 DUP1 REVERT JUMPDEST PUSH1 0x0 PUSH1 0x1F NOT PUSH1 0x1F DUP4 ADD AND SWAP1 POP SWAP2 SWAP1 POP JUMP JUMPDEST PUSH32 0x4E487B7100000000000000000000000000000000000000000000000000000000 PUSH1 0x0 MSTORE PUSH1 0x41 PUSH1 0x4 MSTORE PUSH1 0x24 PUSH1 0x0 REVERT JUMPDEST PUSH2 0x282 DUP3 PUSH2 0x239 JUMP JUMPDEST DUP2 ADD DUP2 DUP2 LT PUSH8 0xFFFFFFFFFFFFFFFF DUP3 GT OR ISZERO PUSH2 0x2A1 JUMPI PUSH2 0x2A0 PUSH2 0x24A JUMP JUMPDEST JUMPDEST DUP1 PUSH1 0x40 MSTORE POP POP POP JUMP JUMPDEST PUSH1 0x0 PUSH2 0x2B4 PUSH2 0x21B JUMP JUMPDEST SWAP1 POP PUSH2 0x2C0 DUP3 DUP3 PUSH2 0x279 JUMP JUMPDEST SWAP2 SWAP1 POP JUMP JUMPDEST PUSH1 0x0 PUSH8 0xFFFFFFFFFFFFFFFF DUP3 GT ISZERO PUSH2 0x2E0 JUMPI PUSH2 0x2DF PUSH2 0x24A JUMP JUMPDEST JUMPDEST PUSH2 0x2E9 DUP3 PUSH2 0x239 JUMP JUMPDEST SWAP1 POP PUSH1 0x20 DUP2 ADD SWAP1 POP SWAP2 SWAP1 POP JUMP JUMPDEST DUP3 DUP2 DUP4 CALLDATACOPY PUSH1 0x0 DUP4 DUP4 ADD MSTORE POP POP POP JUMP JUMPDEST PUSH1 0x0 PUSH2 0x318 PUSH2 0x313 DUP5 PUSH2 0x2C5 JUMP JUMPDEST PUSH2 0x2AA JUMP JUMPDEST SWAP1 POP DUP3 DUP2 MSTORE PUSH1 0x20 DUP2 ADD DUP5 DUP5 DUP5 ADD GT ISZERO PUSH2 0x334 JUMPI PUSH2 0x333 PUSH2 0x234 JUMP JUMPDEST JUMPDEST PUSH2 0x33F DUP5 DUP3 DUP6 PUSH2 0x2F6 JUMP JUMPDEST POP SWAP4 SWAP3 POP POP POP JUMP JUMPDEST PUSH1 0x0 DUP3 PUSH1 0x1F DUP4 ADD SLT PUSH2 0x35C JUMPI PUSH2 0x35B PUSH2 0x22F JUMP JUMPDEST JUMPDEST DUP2 CALLDATALOAD PUSH2 0x36C DUP5 DUP3 PUSH1 0x20 DUP7 ADD PUSH2 0x305 JUMP JUMPDEST SWAP2 POP POP SWAP3 SWAP2 POP POP JUMP JUMPDEST PUSH1 0x0 DUP1 PUSH1 0x0 PUSH1 0x60 DUP5 DUP7 SUB SLT ISZERO PUSH2 0x38E JUMPI PUSH2 0x38D PUSH2 0x225 JUMP JUMPDEST JUMPDEST PUSH1 0x0 DUP5 ADD CALLDATALOAD PUSH8 0xFFFFFFFFFFFFFFFF DUP2 GT ISZERO PUSH2 0x3AC JUMPI PUSH2 0x3AB PUSH2 0x22A JUMP JUMPDEST JUMPDEST PUSH2 0x3B8 DUP7 DUP3 DUP8 ADD PUSH2 0x347 JUMP JUMPDEST SWAP4 POP POP PUSH1 0x20 DUP5 ADD CALLDATALOAD PUSH8 0xFFFFFFFFFFFFFFFF DUP2 GT ISZERO PUSH2 0x3D9 JUMPI PUSH2 0x3D8 PUSH2 0x22A JUMP JUMPDEST JUMPDEST PUSH2 0x3E5 DUP7 DUP3 DUP8 ADD PUSH2 0x347 JUMP JUMPDEST SWAP3 POP POP PUSH1 0x40 DUP5 ADD CALLDATALOAD PUSH8 0xFFFFFFFFFFFFFFFF DUP2 GT ISZERO PUSH2 0x406 JUMPI PUSH2 0x405 PUSH2 0x22A JUMP JUMPDEST JUMPDEST PUSH2 0x412 DUP7 DUP3 DUP8 ADD PUSH2 0x347 JUMP JUMPDEST SWAP2 POP POP SWAP3 POP SWAP3 POP SWAP3 JUMP JUMPDEST PUSH1 0x0 DUP2 ISZERO ISZERO SWAP1 POP SWAP2 SWAP1 POP JUMP JUMPDEST PUSH2 0x431 DUP2 PUSH2 0x41C JUMP JUMPDEST DUP3 MSTORE POP POP JUMP JUMPDEST PUSH1 0x0 PUSH1 0x20 DUP3 ADD SWAP1 POP PUSH2 0x44C PUSH1 0x0 DUP4 ADD DUP5 PUSH2 0x428 JUMP JUMPDEST SWAP3 SWAP2 POP POP JUMP JUMPDEST PUSH1 0x0 DUP2 MLOAD SWAP1 POP SWAP2 SWAP1 POP JUMP JUMPDEST PUSH1 0x0 DUP2 SWAP1 POP SWAP3 SWAP2 POP POP JUMP JUMPDEST PUSH1 0x0 JUMPDEST DUP4 DUP2 LT ISZERO PUSH2 0x486 JUMPI DUP1 DUP3 ADD MLOAD DUP2 DUP5 ADD MSTORE PUSH1 0x20 DUP2 ADD SWAP1 POP PUSH2 0x46B JUMP JUMPDEST PUSH1 0x0 DUP5 DUP5 ADD MSTORE POP POP POP POP JUMP JUMPDEST PUSH1 0x0 PUSH2 0x49D DUP3 PUSH2 0x452 JUMP JUMPDEST PUSH2 0x4A7 DUP2 DUP6 PUSH2 0x45D JUMP JUMPDEST SWAP4 POP PUSH2 0x4B7 DUP2 DUP6 PUSH1 0x20 DUP7 ADD PUSH2 0x468 JUMP JUMPDEST DUP1 DUP5 ADD SWAP2 POP POP SWAP3 SWAP2 POP POP JUMP JUMPDEST PUSH1 0x0 PUSH2 0x4CF DUP3 DUP5 PUSH2 0x492 JUMP JUMPDEST SWAP2 POP DUP2 SWAP1 POP SWAP3 SWAP2 POP POP JUMP JUMPDEST PUSH32 0x4E487B7100000000000000000000000000000000000000000000000000000000 PUSH1 0x0 MSTORE PUSH1 0x22 PUSH1 0x4 MSTORE PUSH1 0x24 PUSH1 0x0 REVERT JUMPDEST PUSH1 0x0 PUSH1 0x2 DUP3 DIV SWAP1 POP PUSH1 0x1 DUP3 AND DUP1 PUSH2 0x521 JUMPI PUSH1 0x7F DUP3 AND SWAP2 POP JUMPDEST PUSH1 0x20 DUP3 LT DUP2 SUB PUSH2 0x534 JUMPI PUSH2 0x533 PUSH2 0x4DA JUMP JUMPDEST JUMPDEST POP SWAP2 SWAP1 POP JUMP JUMPDEST PUSH1 0x0 DUP2 SWAP1 POP DUP2 PUSH1 0x0 MSTORE PUSH1 0x20 PUSH1 0x0 KECCAK256 SWAP1 POP SWAP2 SWAP1 POP JUMP JUMPDEST PUSH1 0x0 PUSH1 0x20 PUSH1 0x1F DUP4 ADD DIV SWAP1 POP SWAP2 SWAP1 POP JUMP JUMPDEST PUSH1 0x0 DUP3 DUP3 SHL SWAP1 POP SWAP3 SWAP2 POP POP JUMP JUMPDEST PUSH1 0x0 PUSH1 0x8 DUP4 MUL PUSH2 0x59C PUSH32 0xFFFFFFFFFFFFFFFFFFFFFFFFFFFFFFFFFFFFFFFFFFFFFFFFFFFFFFFFFFFFFFFF DUP3 PUSH2 0x55F JUMP JUMPDEST PUSH2 0x5A6 DUP7 DUP4 PUSH2 0x55F JUMP JUMPDEST SWAP6 POP DUP1 NOT DUP5 AND SWAP4 POP DUP1 DUP7 AND DUP5 OR SWAP3 POP POP POP SWAP4 SWAP3 POP POP POP JUMP JUMPDEST PUSH1 0x0 DUP2 SWAP1 POP SWAP2 SWAP1 POP JUMP JUMPDEST PUSH1 0x0 DUP2 SWAP1 POP SWAP2 SWAP1 POP JUMP JUMPDEST PUSH1 0x0 PUSH2 0x5ED PUSH2 0x5E8 PUSH2 0x5E3 DUP5 PUSH2 0x5BE JUMP JUMPDEST PUSH2 0x5C8 JUMP JUMPDEST PUSH2 0x5BE JUMP JUMPDEST SWAP1 POP SWAP2 SWAP1 POP JUMP JUMPDEST PUSH1 0x0 DUP2 SWAP1 POP SWAP2 SWAP1 POP JUMP JUMPDEST PUSH2 0x607 DUP4 PUSH2 0x5D2 JUMP JUMPDEST PUSH2 0x61B PUSH2 0x613 DUP3 PUSH2 0x5F4 JUMP JUMPDEST DUP5 DUP5 SLOAD PUSH2 0x56C JUMP JUMPDEST DUP3 SSTORE POP POP POP POP JUMP JUMPDEST PUSH1 0x0 SWAP1 JUMP JUMPDEST PUSH2 0x630 PUSH2 0x623 JUMP JUMPDEST PUSH2 0x63B DUP2 DUP5 DUP5 PUSH2 0x5FE JUMP JUMPDEST POP POP POP JUMP JUMPDEST JUMPDEST DUP2 DUP2 LT ISZERO PUSH2 0x65F JUMPI PUSH2 0x654 PUSH1 0x0 DUP3 PUSH2 0x628 JUMP JUMPDEST PUSH1 0x1 DUP2 ADD SWAP1 POP PUSH2 0x641 JUMP JUMPDEST POP POP JUMP JUMPDEST PUSH1 0x1F DUP3 GT ISZERO PUSH2 0x6A4 JUMPI PUSH2 0x675 DUP2 PUSH2 0x53A JUMP JUMPDEST PUSH2 0x67E DUP5 PUSH2 0x54F JUMP JUMPDEST DUP2 ADD PUSH1 0x20 DUP6 LT ISZERO PUSH2 0x68D JUMPI DUP2 SWAP1 POP JUMPDEST PUSH2 0x6A1 PUSH2 0x699 DUP6 PUSH2 0x54F JUMP JUMPDEST DUP4 ADD DUP3 PUSH2 0x640 JUMP JUMPDEST POP POP JUMPDEST POP POP POP JUMP JUMPDEST PUSH1 0x0 DUP3 DUP3 SHR SWAP1 POP SWAP3 SWAP2 POP POP JUMP JUMPDEST PUSH1 0x0 PUSH2 0x6C7 PUSH1 0x0 NOT DUP5 PUSH1 0x8 MUL PUSH2 0x6A9 JUMP JUMPDEST NOT DUP1 DUP4 AND SWAP2 POP POP SWAP3 SWAP2 POP POP JUMP JUMPDEST PUSH1 0x0 PUSH2 0x6E0 DUP4 DUP4 PUSH2 0x6B6 JUMP JUMPDEST SWAP2 POP DUP3 PUSH1 0x2 MUL DUP3 OR SWAP1 POP SWAP3 SWAP2 POP POP JUMP JUMPDEST PUSH2 0x6F9 DUP3 PUSH2 0x452 JUMP JUMPDEST PUSH8 0xFFFFFFFFFFFFFFFF DUP2 GT ISZERO PUSH2 0x712 JUMPI PUSH2 0x711 PUSH2 0x24A JUMP JUMPDEST JUMPDEST PUSH2 0x71C DUP3 SLOAD PUSH2 0x509 JUMP JUMPDEST PUSH2 0x727 DUP3 DUP3 DUP6 PUSH2 0x663 JUMP JUMPDEST PUSH1 0x0 PUSH1 0x20 SWAP1 POP PUSH1 0x1F DUP4 GT PUSH1 0x1 DUP2 EQ PUSH2 0x75A JUMPI PUSH1 0x0 DUP5 ISZERO PUSH2 0x748 JUMPI DUP3 DUP8 ADD MLOAD SWAP1 POP JUMPDEST PUSH2 0x752 DUP6 DUP3 PUSH2 0x6D4 JUMP JUMPDEST DUP7 SSTORE POP PUSH2 0x7BA JUMP JUMPDEST PUSH1 0x1F NOT DUP5 AND PUSH2 0x768 DUP7 PUSH2 0x53A JUMP JUMPDEST PUSH1 0x0 JUMPDEST DUP3 DUP2 LT ISZERO PUSH2 0x790 JUMPI DUP5 DUP10 ADD MLOAD DUP3 SSTORE PUSH1 0x1 DUP3 ADD SWAP2 POP PUSH1 0x20 DUP6 ADD SWAP5 POP PUSH1 0x20 DUP2 ADD SWAP1 POP PUSH2 0x76B JUMP JUMPDEST DUP7 DUP4 LT ISZERO PUSH2 0x7AD JUMPI DUP5 DUP10 ADD MLOAD PUSH2 0x7A9 PUSH1 0x1F DUP10 AND DUP3 PUSH2 0x6B6 JUMP JUMPDEST DUP4 SSTORE POP JUMPDEST PUSH1 0x1 PUSH1 0x2 DUP9 MUL ADD DUP9 SSTORE POP POP POP JUMPDEST POP POP POP POP POP POP JUMP INVALID LOG2 PUSH5 0x6970667358 0x22 SLT KECCAK256 CODECOPY MUL 0xF7 MLOAD 0xF DUP9 PUSH8 0x943893A8C0F0206A CALLDATACOPY CALLCODE PUSH12 0xA6A74C1AD2931A6D36863B30 EXTCODECOPY 0xCA PUSH5 0x736F6C6343 STOP ADDMOD SGT STOP CALLER "},"methodIdentifiers":{"createProduct(string,string,string)":"d768468b"}}}}}