{
  "_format": "hh-sol-artifact-1",
  "contractName": "FPIS",
  "sourceName": "contracts/fpis.sol",
  "abi": [
    {
      "inputs": [
        {
          "internalType": "string",
          "name": "_productID",
          "type": "string"
        },
        {
          "internalType": "string",
          "name": "_oldCustomerEmail",
          "type": "string"
        },
        {
          "internalType": "string",
          "name": "_newCustomerEmail",
          "type": "string"
        }
      ],
      "name": "changeCustomer",
      "outputs": [
        {
          "internalType": "bool",
          "name": "",
          "type": "bool"
        }
      ],
      "stateMutability": "payable",
      "type": "function"
    },
    {
      "inputs": [
        {
          "internalType": "string",
          "name": "_customerEmail",
          "type": "string"
        },
        {
          "internalType": "string",
          "name": "_name",
          "type": "string"
        },
        {
          "internalType": "string",
          "name": "_location",
          "type": "string"
        },
        {
          "internalType": "string",
          "name": "_phone_number",
          "type": "string"
        }
      ],
      "name": "createCustomer",
      "outputs": [
        {
          "internalType": "bool",
          "name": "",
          "type": "bool"
        }
      ],
      "stateMutability": "payable",
      "type": "function"
    },
    {
      "inputs": [
        {
          "internalType": "string",
          "name": "_manufactorEmail",
          "type": "string"
        },
        {
          "internalType": "string",
          "name": "_manufactorName",
          "type": "string"
        },
        {
          "internalType": "string",
          "name": "_manufactorLocation",
          "type": "string"
        }
      ],
      "name": "createManufactory",
      "outputs": [
        {
          "internalType": "bool",
          "name": "",
          "type": "bool"
        }
      ],
      "stateMutability": "payable",
      "type": "function"
    },
    {
      "inputs": [
        {
          "internalType": "string",
          "name": "_productID",
          "type": "string"
        },
        {
          "internalType": "string",
          "name": "_model",
          "type": "string"
        },
        {
          "internalType": "string",
          "name": "_description",
          "type": "string"
        },
        {
          "internalType": "string",
          "name": "_manufactoryEmail",
          "type": "string"
        }
      ],
      "name": "createProduct",
      "outputs": [
        {
          "internalType": "bool",
          "name": "",
          "type": "bool"
        }
      ],
      "stateMutability": "payable",
      "type": "function"
    },
    {
      "inputs": [
        {
          "internalType": "string",
          "name": "_retailerEmail",
          "type": "string"
        },
        {
          "internalType": "string",
          "name": "_retailerName",
          "type": "string"
        },
        {
          "internalType": "string",
          "name": "_retailerLocation",
          "type": "string"
        }
      ],
      "name": "createRetailer",
      "outputs": [
        {
          "internalType": "bool",
          "name": "",
          "type": "bool"
        }
      ],
      "stateMutability": "payable",
      "type": "function"
    },
    {
      "inputs": [
        {
          "internalType": "string",
          "name": "_customerEmail",
          "type": "string"
        }
      ],
      "name": "getCustomerDetail",
      "outputs": [
        {
          "internalType": "string",
          "name": "",
          "type": "string"
        },
        {
          "internalType": "string",
          "name": "",
          "type": "string"
        },
        {
          "internalType": "string",
          "name": "",
          "type": "string"
        }
      ],
      "stateMutability": "view",
      "type": "function"
    },
    {
      "inputs": [
        {
          "internalType": "string",
          "name": "_manufactorEmail",
          "type": "string"
        }
      ],
      "name": "getManafactorDetail",
      "outputs": [
        {
          "internalType": "string",
          "name": "",
          "type": "string"
        },
        {
          "internalType": "string",
          "name": "",
          "type": "string"
        }
      ],
      "stateMutability": "view",
      "type": "function"
    },
    {
      "inputs": [
        {
          "internalType": "string",
          "name": "_productID",
          "type": "string"
        }
      ],
      "name": "getProductDetail",
      "outputs": [
        {
          "internalType": "string",
          "name": "",
          "type": "string"
        },
        {
          "internalType": "string",
          "name": "",
          "type": "string"
        },
        {
          "internalType": "string",
          "name": "",
          "type": "string"
        },
        {
          "internalType": "string",
          "name": "",
          "type": "string"
        }
      ],
      "stateMutability": "view",
      "type": "function"
    },
    {
      "inputs": [
        {
          "internalType": "string",
          "name": "_customerEmail",
          "type": "string"
        }
      ],
      "name": "getProductsByCustomer",
      "outputs": [
        {
          "internalType": "string[]",
          "name": "",
          "type": "string[]"
        }
      ],
      "stateMutability": "view",
      "type": "function"
    },
    {
      "inputs": [
        {
          "internalType": "string",
          "name": "_retailerEmail",
          "type": "string"
        }
      ],
      "name": "getRetailerDetail",
      "outputs": [
        {
          "internalType": "string",
          "name": "",
          "type": "string"
        },
        {
          "internalType": "string",
          "name": "",
          "type": "string"
        }
      ],
      "stateMutability": "view",
      "type": "function"
    },
    {
      "inputs": [
        {
          "internalType": "string",
          "name": "_productID",
          "type": "string"
        },
        {
          "internalType": "string",
          "name": "_retailerEmail",
          "type": "string"
        }
      ],
      "name": "moveToRetailer",
      "outputs": [
        {
          "internalType": "bool",
          "name": "",
          "type": "bool"
        }
      ],
      "stateMutability": "payable",
      "type": "function"
    },
    {
      "inputs": [
        {
          "internalType": "string",
          "name": "_productID",
          "type": "string"
        },
        {
          "internalType": "string",
          "name": "_retailerEmail",
          "type": "string"
        },
        {
          "internalType": "string",
          "name": "_customerEmail",
          "type": "string"
        }
      ],
      "name": "sellToFirstCustomer",
      "outputs": [
        {
          "internalType": "bool",
          "name": "",
          "type": "bool"
        }
      ],
      "stateMutability": "payable",
      "type": "function"
    }
  ],
  "bytecode": "0x608060405234801561001057600080fd5b50612c89806100206000396000f3fe6080604052600436106100a75760003560e01c8063b5bd438b11610064578063b5bd438b146101e8578063bc26ec5314610218578063cc2306c914610257578063cee4a5e514610287578063eb51e3cd146102c4578063ee786260146102f4576100a7565b80630715b5f0146100ac57806321b35573146100dc5780633a7090c11461011a5780635a4005641461014a5780637c3851cd1461017a578063b51ca0af146101b8575b600080fd5b6100c660048036038101906100c191906121f1565b610334565b6040516100d391906122b3565b60405180910390f35b3480156100e857600080fd5b5061010360048036038101906100fe91906122ce565b610f89565b604051610111929190612396565b60405180910390f35b610134600480360381019061012f91906123cd565b6110ef565b60405161014191906122b3565b60405180910390f35b610164600480360381019061015f91906121f1565b61112a565b60405161017191906122b3565b60405180910390f35b34801561018657600080fd5b506101a1600480360381019061019c91906122ce565b6111b6565b6040516101af929190612396565b60405180910390f35b6101d260048036038101906101cd9190612445565b61131c565b6040516101df91906122b3565b60405180910390f35b61020260048036038101906101fd91906121f1565b611454565b60405161020f91906122b3565b60405180910390f35b34801561022457600080fd5b5061023f600480360381019061023a91906122ce565b6114e0565b60405161024e9392919061251c565b60405180910390f35b610271600480360381019061026c91906121f1565b6116f9565b60405161027e91906122b3565b60405180910390f35b34801561029357600080fd5b506102ae60048036038101906102a991906122ce565b6118a7565b6040516102bb9190612674565b60405180910390f35b6102de60048036038101906102d99190612445565b6119a1565b6040516102eb91906122b3565b60405180910390f35b34801561030057600080fd5b5061031b600480360381019061031691906122ce565b611a6d565b60405161032b9493929190612696565b60405180910390f35b6000610341848484611d36565b600080856040516103529190612733565b90815260200160405180910390206040518060c001604052908160008201805461037b90612779565b80601f01602080910402602001604051908101604052809291908181526020018280546103a790612779565b80156103f45780601f106103c9576101008083540402835291602001916103f4565b820191906000526020600020905b8154815290600101906020018083116103d757829003601f168201915b5050505050815260200160018201805461040d90612779565b80601f016020809104026020016040519081016040528092919081815260200182805461043990612779565b80156104865780601f1061045b57610100808354040283529160200191610486565b820191906000526020600020905b81548152906001019060200180831161046957829003601f168201915b5050505050815260200160028201805461049f90612779565b80601f01602080910402602001604051908101604052809291908181526020018280546104cb90612779565b80156105185780601f106104ed57610100808354040283529160200191610518565b820191906000526020600020905b8154815290600101906020018083116104fb57829003601f168201915b5050505050815260200160038201805461053190612779565b80601f016020809104026020016040519081016040528092919081815260200182805461055d90612779565b80156105aa5780601f1061057f576101008083540402835291602001916105aa565b820191906000526020600020905b81548152906001019060200180831161058d57829003601f168201915b505050505081526020016004820180546105c390612779565b80601f01602080910402602001604051908101604052809291908181526020018280546105ef90612779565b801561063c5780601f106106115761010080835404028352916020019161063c565b820191906000526020600020905b81548152906001019060200180831161061f57829003601f168201915b50505050508152602001600582015481525050905060006003856040516106639190612733565b90815260200160405180910390206040518060c001604052908160008201805461068c90612779565b80601f01602080910402602001604051908101604052809291908181526020018280546106b890612779565b80156107055780601f106106da57610100808354040283529160200191610705565b820191906000526020600020905b8154815290600101906020018083116106e857829003601f168201915b5050505050815260200160018201805461071e90612779565b80601f016020809104026020016040519081016040528092919081815260200182805461074a90612779565b80156107975780601f1061076c57610100808354040283529160200191610797565b820191906000526020600020905b81548152906001019060200180831161077a57829003601f168201915b505050505081526020016002820180546107b090612779565b80601f01602080910402602001604051908101604052809291908181526020018280546107dc90612779565b80156108295780601f106107fe57610100808354040283529160200191610829565b820191906000526020600020905b81548152906001019060200180831161080c57829003601f168201915b5050505050815260200160038201805461084290612779565b80601f016020809104026020016040519081016040528092919081815260200182805461086e90612779565b80156108bb5780601f10610890576101008083540402835291602001916108bb565b820191906000526020600020905b81548152906001019060200180831161089e57829003601f168201915b5050505050815260200160048201805480602002602001604051908101604052809291908181526020016000905b8282101561099557838290600052602060002001805461090890612779565b80601f016020809104026020016040519081016040528092919081815260200182805461093490612779565b80156109815780601f1061095657610100808354040283529160200191610981565b820191906000526020600020905b81548152906001019060200180831161096457829003601f168201915b5050505050815260200190600101906108e9565b5050505081526020016005820160009054906101000a900460ff161515151581525050905060006003866040516109cc9190612733565b908152602001604051809103902060040180549050905060006003866040516109f59190612733565b90815260200160405180910390206040518060c0016040529081600082018054610a1e90612779565b80601f0160208091040260200160405190810160405280929190818152602001828054610a4a90612779565b8015610a975780601f10610a6c57610100808354040283529160200191610a97565b820191906000526020600020905b815481529060010190602001808311610a7a57829003601f168201915b50505050508152602001600182018054610ab090612779565b80601f0160208091040260200160405190810160405280929190818152602001828054610adc90612779565b8015610b295780601f10610afe57610100808354040283529160200191610b29565b820191906000526020600020905b815481529060010190602001808311610b0c57829003601f168201915b50505050508152602001600282018054610b4290612779565b80601f0160208091040260200160405190810160405280929190818152602001828054610b6e90612779565b8015610bbb5780601f10610b9057610100808354040283529160200191610bbb565b820191906000526020600020905b815481529060010190602001808311610b9e57829003601f168201915b50505050508152602001600382018054610bd490612779565b80601f0160208091040260200160405190810160405280929190818152602001828054610c0090612779565b8015610c4d5780601f10610c2257610100808354040283529160200191610c4d565b820191906000526020600020905b815481529060010190602001808311610c3057829003601f168201915b5050505050815260200160048201805480602002602001604051908101604052809291908181526020016000905b82821015610d27578382906000526020600020018054610c9a90612779565b80601f0160208091040260200160405190810160405280929190818152602001828054610cc690612779565b8015610d135780601f10610ce857610100808354040283529160200191610d13565b820191906000526020600020905b815481529060010190602001808311610cf657829003601f168201915b505050505081526020019060010190610c7b565b5050505081526020016005820160009054906101000a900460ff16151515158152505090508260a001518015610d5e57508060a001515b15610f795760005b82811015610f7757610d9684608001518281518110610d8857610d876127aa565b5b60200260200101518a611dd5565b15610f6457610da9856080015189611dd5565b15610dde578660008a604051610dbf9190612733565b90815260200160405180910390206004019081610ddc919061298f565b505b60005b83811015610f5e57610eb860038a604051610dfc9190612733565b90815260200160405180910390206004018281548110610e1f57610e1e6127aa565b5b906000526020600020018054610e3490612779565b80601f0160208091040260200160405190810160405280929190818152602001828054610e6090612779565b8015610ead5780601f10610e8257610100808354040283529160200191610ead565b820191906000526020600020905b815481529060010190602001808311610e9057829003601f168201915b50505050508b611dd5565b15610f4b57610ee78160038b604051610ed19190612733565b9081526020016040518091039020600401611e2e565b50600388604051610ef89190612733565b90815260200160405180910390206004018a908060018154018082558091505060019003906000526020600020016000909190919091509081610f3b919061298f565b5060019650505050505050610f82565b8080610f5690612a90565b915050610de1565b50610f77565b8080610f6f90612a90565b915050610d66565b505b60009450505050505b9392505050565b606080600283604051610f9c9190612733565b9081526020016040518091039020600001600284604051610fbd9190612733565b9081526020016040518091039020600201818054610fda90612779565b80601f016020809104026020016040519081016040528092919081815260200182805461100690612779565b80156110535780601f1061102857610100808354040283529160200191611053565b820191906000526020600020905b81548152906001019060200180831161103657829003601f168201915b5050505050915080805461106690612779565b80601f016020809104026020016040519081016040528092919081815260200182805461109290612779565b80156110df5780601f106110b4576101008083540402835291602001916110df565b820191906000526020600020905b8154815290600101906020018083116110c257829003601f168201915b5050505050905091509150915091565b6000816000846040516111029190612733565b9081526020016040518091039020600301908161111f919061298f565b506001905092915050565b6000611134611f2e565b838160000181905250828160400181905250806002866040516111579190612733565b9081526020016040518091039020600082015181600001908161117a919061298f565b506020820151816001019081611190919061298f565b5060408201518160020190816111a6919061298f565b5090505060019150509392505050565b6060806002836040516111c99190612733565b90815260200160405180910390206000016002846040516111ea9190612733565b908152602001604051809103902060020181805461120790612779565b80601f016020809104026020016040519081016040528092919081815260200182805461123390612779565b80156112805780601f1061125557610100808354040283529160200191611280565b820191906000526020600020905b81548152906001019060200180831161126357829003601f168201915b5050505050915080805461129390612779565b80601f01602080910402602001604051908101604052809291908181526020018280546112bf90612779565b801561130c5780601f106112e15761010080835404028352916020019161130c565b820191906000526020600020905b8154815290600101906020018083116112ef57829003601f168201915b5050505050905091509150915091565b600060038560405161132e9190612733565b908152602001604051809103902060050160009054906101000a900460ff161561135b576000905061144c565b611363611f4f565b84816000018190525083816060018190525082816040018190525060018160a0019015159081151581525050806003876040516113a09190612733565b908152602001604051809103902060008201518160000190816113c3919061298f565b5060208201518160010190816113d9919061298f565b5060408201518160020190816113ef919061298f565b506060820151816003019081611405919061298f565b506080820151816004019080519060200190611422929190611f87565b5060a08201518160050160006101000a81548160ff02191690831515021790555090505060019150505b949350505050565b600061145e611f2e565b838160000181905250828160400181905250806002866040516114819190612733565b908152602001604051809103902060008201518160000190816114a4919061298f565b5060208201518160010190816114ba919061298f565b5060408201518160020190816114d0919061298f565b5090505060019150509392505050565b60608060606003846040516114f59190612733565b90815260200160405180910390206000016003856040516115169190612733565b90815260200160405180910390206002016003866040516115379190612733565b908152602001604051809103902060030182805461155490612779565b80601f016020809104026020016040519081016040528092919081815260200182805461158090612779565b80156115cd5780601f106115a2576101008083540402835291602001916115cd565b820191906000526020600020905b8154815290600101906020018083116115b057829003601f168201915b505050505092508180546115e090612779565b80601f016020809104026020016040519081016040528092919081815260200182805461160c90612779565b80156116595780601f1061162e57610100808354040283529160200191611659565b820191906000526020600020905b81548152906001019060200180831161163c57829003601f168201915b5050505050915080805461166c90612779565b80601f016020809104026020016040519081016040528092919081815260200182805461169890612779565b80156116e55780601f106116ba576101008083540402835291602001916116e5565b820191906000526020600020905b8154815290600101906020018083116116c857829003601f168201915b505050505090509250925092509193909250565b60006117ae60008560405161170e9190612733565b9081526020016040518091039020600301805461172a90612779565b80601f016020809104026020016040519081016040528092919081815260200182805461175690612779565b80156117a35780601f10611778576101008083540402835291602001916117a3565b820191906000526020600020905b81548152906001019060200180831161178657829003601f168201915b505050505084611dd5565b1561189b576003826040516117c39190612733565b908152602001604051809103902060050160009054906101000a900460ff161561189a57816000856040516117f89190612733565b90815260200160405180910390206004019081611815919061298f565b5060016000856040516118289190612733565b90815260200160405180910390206005018190555060038260405161184d9190612733565b908152602001604051809103902060040184908060018154018082558091505060019003906000526020600020016000909190919091509081611890919061298f565b50600190506118a0565b5b600090505b9392505050565b60606003826040516118b99190612733565b9081526020016040518091039020600401805480602002602001604051908101604052809291908181526020016000905b8282101561199657838290600052602060002001805461190990612779565b80601f016020809104026020016040519081016040528092919081815260200182805461193590612779565b80156119825780601f1061195757610100808354040283529160200191611982565b820191906000526020600020905b81548152906001019060200180831161196557829003601f168201915b5050505050815260200190600101906118ea565b505050509050919050565b60006119ab611fe0565b848160000181905250838160200181905250828160400181905250806000876040516119d79190612733565b908152602001604051809103902060008201518160000190816119fa919061298f565b506020820151816001019081611a10919061298f565b506040820151816002019081611a26919061298f565b506060820151816003019081611a3c919061298f565b506080820151816004019081611a52919061298f565b5060a082015181600501559050506001915050949350505050565b606080606080600085604051611a839190612733565b9081526020016040518091039020600001600086604051611aa49190612733565b9081526020016040518091039020600101600087604051611ac59190612733565b9081526020016040518091039020600301600088604051611ae69190612733565b9081526020016040518091039020600401838054611b0390612779565b80601f0160208091040260200160405190810160405280929190818152602001828054611b2f90612779565b8015611b7c5780601f10611b5157610100808354040283529160200191611b7c565b820191906000526020600020905b815481529060010190602001808311611b5f57829003601f168201915b50505050509350828054611b8f90612779565b80601f0160208091040260200160405190810160405280929190818152602001828054611bbb90612779565b8015611c085780601f10611bdd57610100808354040283529160200191611c08565b820191906000526020600020905b815481529060010190602001808311611beb57829003601f168201915b50505050509250818054611c1b90612779565b80601f0160208091040260200160405190810160405280929190818152602001828054611c4790612779565b8015611c945780601f10611c6957610100808354040283529160200191611c94565b820191906000526020600020905b815481529060010190602001808311611c7757829003601f168201915b50505050509150808054611ca790612779565b80601f0160208091040260200160405190810160405280929190818152602001828054611cd390612779565b8015611d205780601f10611cf557610100808354040283529160200191611d20565b820191906000526020600020905b815481529060010190602001808311611d0357829003601f168201915b5050505050905093509350935093509193509193565b611dd0838383604051602401611d4e9392919061251c565b6040516020818303038152906040527f2ced7cef000000000000000000000000000000000000000000000000000000007bffffffffffffffffffffffffffffffffffffffffffffffffffffffff19166020820180517bffffffffffffffffffffffffffffffffffffffffffffffffffffffff8381831617835250505050611f0d565b505050565b600081604051602001611de89190612733565b6040516020818303038152906040528051906020012083604051602001611e0f9190612733565b6040516020818303038152906040528051906020012014905092915050565b600081805490508310611e445760009050611f07565b60008390505b60018380549050611e5b9190612ad8565b811015611ec85782600182611e709190612b0c565b81548110611e8157611e806127aa565b5b90600052602060002001838281548110611e9e57611e9d6127aa565b5b906000526020600020019081611eb49190612b6b565b508080611ec090612a90565b915050611e4a565b508160018380549050611edb9190612ad8565b81548110611eec57611eeb6127aa565b5b906000526020600020016000611f029190612016565b600190505b92915050565b60006a636f6e736f6c652e6c6f679050600080835160208501845afa505050565b60405180606001604052806060815260200160608152602001606081525090565b6040518060c0016040528060608152602001606081526020016060815260200160608152602001606081526020016000151581525090565b828054828255906000526020600020908101928215611fcf579160200282015b82811115611fce578251829081611fbe919061298f565b5091602001919060010190611fa7565b5b509050611fdc9190612056565b5090565b6040518060c001604052806060815260200160608152602001606081526020016060815260200160608152602001600081525090565b50805461202290612779565b6000825580601f106120345750612053565b601f016020900490600052602060002090810190612052919061207a565b5b50565b5b80821115612076576000818161206d9190612016565b50600101612057565b5090565b5b8082111561209357600081600090555060010161207b565b5090565b6000604051905090565b600080fd5b600080fd5b600080fd5b600080fd5b6000601f19601f8301169050919050565b7f4e487b7100000000000000000000000000000000000000000000000000000000600052604160045260246000fd5b6120fe826120b5565b810181811067ffffffffffffffff8211171561211d5761211c6120c6565b5b80604052505050565b6000612130612097565b905061213c82826120f5565b919050565b600067ffffffffffffffff82111561215c5761215b6120c6565b5b612165826120b5565b9050602081019050919050565b82818337600083830152505050565b600061219461218f84612141565b612126565b9050828152602081018484840111156121b0576121af6120b0565b5b6121bb848285612172565b509392505050565b600082601f8301126121d8576121d76120ab565b5b81356121e8848260208601612181565b91505092915050565b60008060006060848603121561220a576122096120a1565b5b600084013567ffffffffffffffff811115612228576122276120a6565b5b612234868287016121c3565b935050602084013567ffffffffffffffff811115612255576122546120a6565b5b612261868287016121c3565b925050604084013567ffffffffffffffff811115612282576122816120a6565b5b61228e868287016121c3565b9150509250925092565b60008115159050919050565b6122ad81612298565b82525050565b60006020820190506122c860008301846122a4565b92915050565b6000602082840312156122e4576122e36120a1565b5b600082013567ffffffffffffffff811115612302576123016120a6565b5b61230e848285016121c3565b91505092915050565b600081519050919050565b600082825260208201905092915050565b60005b83811015612351578082015181840152602081019050612336565b60008484015250505050565b600061236882612317565b6123728185612322565b9350612382818560208601612333565b61238b816120b5565b840191505092915050565b600060408201905081810360008301526123b0818561235d565b905081810360208301526123c4818461235d565b90509392505050565b600080604083850312156123e4576123e36120a1565b5b600083013567ffffffffffffffff811115612402576124016120a6565b5b61240e858286016121c3565b925050602083013567ffffffffffffffff81111561242f5761242e6120a6565b5b61243b858286016121c3565b9150509250929050565b6000806000806080858703121561245f5761245e6120a1565b5b600085013567ffffffffffffffff81111561247d5761247c6120a6565b5b612489878288016121c3565b945050602085013567ffffffffffffffff8111156124aa576124a96120a6565b5b6124b6878288016121c3565b935050604085013567ffffffffffffffff8111156124d7576124d66120a6565b5b6124e3878288016121c3565b925050606085013567ffffffffffffffff811115612504576125036120a6565b5b612510878288016121c3565b91505092959194509250565b60006060820190508181036000830152612536818661235d565b9050818103602083015261254a818561235d565b9050818103604083015261255e818461235d565b9050949350505050565b600081519050919050565b600082825260208201905092915050565b6000819050602082019050919050565b600082825260208201905092915050565b60006125b082612317565b6125ba8185612594565b93506125ca818560208601612333565b6125d3816120b5565b840191505092915050565b60006125ea83836125a5565b905092915050565b6000602082019050919050565b600061260a82612568565b6126148185612573565b93508360208202850161262685612584565b8060005b85811015612662578484038952815161264385826125de565b945061264e836125f2565b925060208a0199505060018101905061262a565b50829750879550505050505092915050565b6000602082019050818103600083015261268e81846125ff565b905092915050565b600060808201905081810360008301526126b0818761235d565b905081810360208301526126c4818661235d565b905081810360408301526126d8818561235d565b905081810360608301526126ec818461235d565b905095945050505050565b600081905092915050565b600061270d82612317565b61271781856126f7565b9350612727818560208601612333565b80840191505092915050565b600061273f8284612702565b915081905092915050565b7f4e487b7100000000000000000000000000000000000000000000000000000000600052602260045260246000fd5b6000600282049050600182168061279157607f821691505b6020821081036127a4576127a361274a565b5b50919050565b7f4e487b7100000000000000000000000000000000000000000000000000000000600052603260045260246000fd5b60008190508160005260206000209050919050565b60006020601f8301049050919050565b600082821b905092915050565b60006008830261283b7fffffffffffffffffffffffffffffffffffffffffffffffffffffffffffffffff826127fe565b61284586836127fe565b95508019841693508086168417925050509392505050565b6000819050919050565b6000819050919050565b600061288c6128876128828461285d565b612867565b61285d565b9050919050565b6000819050919050565b6128a683612871565b6128ba6128b282612893565b84845461280b565b825550505050565b600090565b6128cf6128c2565b6128da81848461289d565b505050565b5b818110156128fe576128f36000826128c7565b6001810190506128e0565b5050565b601f82111561294357612914816127d9565b61291d846127ee565b8101602085101561292c578190505b612940612938856127ee565b8301826128df565b50505b505050565b600082821c905092915050565b600061296660001984600802612948565b1980831691505092915050565b600061297f8383612955565b9150826002028217905092915050565b61299882612317565b67ffffffffffffffff8111156129b1576129b06120c6565b5b6129bb8254612779565b6129c6828285612902565b600060209050601f8311600181146129f957600084156129e7578287015190505b6129f18582612973565b865550612a59565b601f198416612a07866127d9565b60005b82811015612a2f57848901518255600182019150602085019450602081019050612a0a565b86831015612a4c5784890151612a48601f891682612955565b8355505b6001600288020188555050505b505050505050565b7f4e487b7100000000000000000000000000000000000000000000000000000000600052601160045260246000fd5b6000612a9b8261285d565b91507fffffffffffffffffffffffffffffffffffffffffffffffffffffffffffffffff8203612acd57612acc612a61565b5b600182019050919050565b6000612ae38261285d565b9150612aee8361285d565b9250828203905081811115612b0657612b05612a61565b5b92915050565b6000612b178261285d565b9150612b228361285d565b9250828201905080821115612b3a57612b39612a61565b5b92915050565b600081549050612b4f81612779565b9050919050565b60008190508160005260206000209050919050565b818103612b79575050612c51565b612b8282612b40565b67ffffffffffffffff811115612b9b57612b9a6120c6565b5b612ba58254612779565b612bb0828285612902565b6000601f831160018114612bdf5760008415612bcd578287015490505b612bd78582612973565b865550612c4a565b601f198416612bed87612b56565b9650612bf8866127d9565b60005b82811015612c2057848901548255600182019150600185019450602081019050612bfb565b86831015612c3d5784890154612c39601f891682612955565b8355505b6001600288020188555050505b5050505050505b56fea26469706673582212201cbcc797d5a96340a4615fce82c0456f373df39047d701309826ad5dbf41d20464736f6c63430008130033",
  "linkReferences": {},
  "deployedLinkReferences": {}
}