{"contracts/fpis.sol":{"FPIS":{"abi":[{"inputs":[{"internalType":"string","name":"_productID","type":"string"},{"internalType":"string","name":"_oldCustomerEmail","type":"string"},{"internalType":"string","name":"_newCustomerEmail","type":"string"},{"internalType":"string","name":"_changeDate","type":"string"}],"name":"changeCustomer","outputs":[{"internalType":"bool","name":"","type":"bool"}],"stateMutability":"payable","type":"function"},{"inputs":[{"internalType":"string","name":"_customerEmail","type":"string"},{"internalType":"string","name":"_name","type":"string"},{"internalType":"string","name":"_location","type":"string"},{"internalType":"string","name":"_phone_number","type":"string"}],"name":"createCustomer","outputs":[{"internalType":"bool","name":"","type":"bool"}],"stateMutability":"payable","type":"function"},{"inputs":[{"internalType":"string","name":"_manufactorEmail","type":"string"},{"internalType":"string","name":"_manufactorName","type":"string"},{"internalType":"string","name":"_manufactorLocation","type":"string"}],"name":"createManufactory","outputs":[{"internalType":"bool","name":"","type":"bool"}],"stateMutability":"payable","type":"function"},{"inputs":[{"internalType":"string","name":"_productID","type":"string"},{"internalType":"string","name":"_model","type":"string"},{"internalType":"string","name":"_description","type":"string"},{"internalType":"string","name":"_manufactoryEmail","type":"string"},{"internalType":"string","name":"_manufactoryLocation","type":"string"},{"internalType":"string","name":"_productionDate","type":"string"}],"name":"createProduct","outputs":[{"internalType":"bool","name":"","type":"bool"}],"stateMutability":"payable","type":"function"},{"inputs":[{"internalType":"string","name":"_retailerEmail","type":"string"},{"internalType":"string","name":"_retailerName","type":"string"},{"internalType":"string","name":"_retailerLocation","type":"string"}],"name":"createRetailer","outputs":[{"internalType":"bool","name":"","type":"bool"}],"stateMutability":"payable","type":"function"},{"inputs":[],"name":"getAllProducts","outputs":[{"components":[{"internalType":"string","name":"model","type":"string"},{"internalType":"string","name":"description","type":"string"},{"internalType":"string","name":"manufactoryEmail","type":"string"},{"internalType":"string","name":"retailerEmail","type":"string"},{"internalType":"string","name":"customerEmail","type":"string"},{"internalType":"uint256","name":"status","type":"uint256"},{"components":[{"internalType":"uint256","name":"timestamp","type":"uint256"},{"internalType":"string","name":"action","type":"string"},{"internalType":"string","name":"details","type":"string"}],"internalType":"struct FPIS.HistoryItem[]","name":"history","type":"tuple[]"}],"internalType":"struct FPIS.Product[]","name":"","type":"tuple[]"},{"internalType":"string[]","name":"","type":"string[]"}],"stateMutability":"view","type":"function"},{"inputs":[{"internalType":"string","name":"_customerEmail","type":"string"}],"name":"getCustomerDetail","outputs":[{"internalType":"string","name":"","type":"string"},{"internalType":"string","name":"","type":"string"},{"internalType":"string","name":"","type":"string"}],"stateMutability":"view","type":"function"},{"inputs":[{"internalType":"string","name":"_manufactorEmail","type":"string"}],"name":"getManafactorDetail","outputs":[{"internalType":"string","name":"","type":"string"},{"internalType":"string","name":"","type":"string"}],"stateMutability":"view","type":"function"},{"inputs":[{"internalType":"string","name":"_productID","type":"string"}],"name":"getProductDetail","outputs":[{"internalType":"string","name":"","type":"string"},{"internalType":"string","name":"","type":"string"},{"internalType":"string","name":"","type":"string"},{"internalType":"string","name":"","type":"string"},{"internalType":"string","name":"","type":"string"},{"components":[{"internalType":"uint256","name":"timestamp","type":"uint256"},{"internalType":"string","name":"action","type":"string"},{"internalType":"string","name":"details","type":"string"}],"internalType":"struct FPIS.HistoryItem[]","name":"","type":"tuple[]"}],"stateMutability":"view","type":"function"},{"inputs":[{"internalType":"string","name":"_customerEmail","type":"string"}],"name":"getProductsByCustomer","outputs":[{"internalType":"string[]","name":"","type":"string[]"}],"stateMutability":"view","type":"function"},{"inputs":[{"internalType":"string","name":"_retailerEmail","type":"string"}],"name":"getRetailerDetail","outputs":[{"internalType":"string","name":"","type":"string"},{"internalType":"string","name":"","type":"string"}],"stateMutability":"view","type":"function"},{"inputs":[{"internalType":"string","name":"_productID","type":"string"},{"internalType":"string","name":"_retailerEmail","type":"string"},{"internalType":"string","name":"_retailLocation","type":"string"},{"internalType":"string","name":"_movingDate","type":"string"}],"name":"moveToRetailer","outputs":[{"internalType":"bool","name":"","type":"bool"}],"stateMutability":"payable","type":"function"},{"inputs":[{"internalType":"string","name":"_productID","type":"string"},{"internalType":"string","name":"_retailerEmail","type":"string"},{"internalType":"string","name":"_customerEmail","type":"string"},{"internalType":"string","name":"_saleDate","type":"string"}],"name":"sellToFirstCustomer","outputs":[{"internalType":"bool","name":"","type":"bool"}],"stateMutability":"payable","type":"function"}],"evm":{"bytecode":{"linkReferences":{},"object":"608060405234801561001057600080fd5b506139f0806100206000396000f3fe6080604052600436106100c25760003560e01c8063b51ca0af1161007f578063cee4a5e511610059578063cee4a5e51461029e578063e9e5b5a2146102db578063ee7862601461030b578063f1ef413b1461034d576100c2565b8063b51ca0af146101ff578063b5bd438b1461022f578063bc26ec531461025f576100c2565b806302ee3a52146100c757806321b35573146100f357806355a53f06146101315780635a400564146101615780637c3851cd14610191578063a603efe1146101cf575b600080fd5b3480156100d357600080fd5b506100dc61037d565b6040516100ea929190612872565b60405180910390f35b3480156100ff57600080fd5b5061011a600480360381019061011591906129f2565b6109b6565b604051610128929190612a85565b60405180910390f35b61014b60048036038101906101469190612abc565b610b1c565b6040516101589190612c0c565b60405180910390f35b61017b60048036038101906101769190612c27565b610d46565b6040516101889190612c0c565b60405180910390f35b34801561019d57600080fd5b506101b860048036038101906101b391906129f2565b610dd2565b6040516101c6929190612a85565b60405180910390f35b6101e960048036038101906101e49190612cce565b610f38565b6040516101f69190612c0c565b60405180910390f35b61021960048036038101906102149190612cce565b61123f565b6040516102269190612c0c565b60405180910390f35b61024960048036038101906102449190612c27565b611377565b6040516102569190612c0c565b60405180910390f35b34801561026b57600080fd5b50610286600480360381019061028191906129f2565b611403565b60405161029593929190612da5565b60405180910390f35b3480156102aa57600080fd5b506102c560048036038101906102c091906129f2565b61161c565b6040516102d29190612df1565b60405180910390f35b6102f560048036038101906102f09190612cce565b611716565b6040516103029190612c0c565b60405180910390f35b34801561031757600080fd5b50610332600480360381019061032d91906129f2565b611839565b60405161034496959493929190612e99565b60405180910390f35b61036760048036038101906103629190612cce565b611d60565b6040516103749190612c0c565b60405180910390f35b6060806000600480549050905060008167ffffffffffffffff8111156103a6576103a56128c7565b5b6040519080825280602002602001820160405280156103df57816020015b6103cc612211565b8152602001906001900390816103c45790505b50905060005b828110156108d55760006004828154811061040357610402612f24565b5b9060005260206000200160405161041a9190613056565b90815260200160405180910390206040518060e001604052908160008201805461044390612f82565b80601f016020809104026020016040519081016040528092919081815260200182805461046f90612f82565b80156104bc5780601f10610491576101008083540402835291602001916104bc565b820191906000526020600020905b81548152906001019060200180831161049f57829003601f168201915b505050505081526020016001820180546104d590612f82565b80601f016020809104026020016040519081016040528092919081815260200182805461050190612f82565b801561054e5780601f106105235761010080835404028352916020019161054e565b820191906000526020600020905b81548152906001019060200180831161053157829003601f168201915b5050505050815260200160028201805461056790612f82565b80601f016020809104026020016040519081016040528092919081815260200182805461059390612f82565b80156105e05780601f106105b5576101008083540402835291602001916105e0565b820191906000526020600020905b8154815290600101906020018083116105c357829003601f168201915b505050505081526020016003820180546105f990612f82565b80601f016020809104026020016040519081016040528092919081815260200182805461062590612f82565b80156106725780601f1061064757610100808354040283529160200191610672565b820191906000526020600020905b81548152906001019060200180831161065557829003601f168201915b5050505050815260200160048201805461068b90612f82565b80601f01602080910402602001604051908101604052809291908181526020018280546106b790612f82565b80156107045780601f106106d957610100808354040283529160200191610704565b820191906000526020600020905b8154815290600101906020018083116106e757829003601f168201915b505050505081526020016005820154815260200160068201805480602002602001604051908101604052809291908181526020016000905b8282101561089c57838290600052602060002090600302016040518060600160405290816000820154815260200160018201805461077990612f82565b80601f01602080910402602001604051908101604052809291908181526020018280546107a590612f82565b80156107f25780601f106107c7576101008083540402835291602001916107f2565b820191906000526020600020905b8154815290600101906020018083116107d557829003601f168201915b5050505050815260200160028201805461080b90612f82565b80601f016020809104026020016040519081016040528092919081815260200182805461083790612f82565b80156108845780601f1061085957610100808354040283529160200191610884565b820191906000526020600020905b81548152906001019060200180831161086757829003601f168201915b5050505050815250508152602001906001019061073c565b50505050815250508282815181106108b7576108b6612f24565b5b602002602001018190525080806108cd9061309c565b9150506103e5565b5080600480805480602002602001604051908101604052809291908181526020016000905b828210156109a657838290600052602060002001805461091990612f82565b80601f016020809104026020016040519081016040528092919081815260200182805461094590612f82565b80156109925780601f1061096757610100808354040283529160200191610992565b820191906000526020600020905b81548152906001019060200180831161097557829003601f168201915b5050505050815260200190600101906108fa565b5050505090509350935050509091565b6060806002836040516109c99190613115565b90815260200160405180910390206000016002846040516109ea9190613115565b9081526020016040518091039020600201818054610a0790612f82565b80601f0160208091040260200160405190810160405280929190818152602001828054610a3390612f82565b8015610a805780601f10610a5557610100808354040283529160200191610a80565b820191906000526020600020905b815481529060010190602001808311610a6357829003601f168201915b50505050509150808054610a9390612f82565b80601f0160208091040260200160405190810160405280929190818152602001828054610abf90612f82565b8015610b0c5780601f10610ae157610100808354040283529160200191610b0c565b820191906000526020600020905b815481529060010190602001808311610aef57829003601f168201915b5050505050905091509150915091565b600080600088604051610b2f9190613115565b9081526020016040518091039020905086816000019081610b5091906132c3565b5085816001019081610b6291906132c3565b5084816002019081610b7491906132c3565b50610b7d61224e565b428160000181815250506040518060400160405280600c81526020017f4d616e756661637475726564000000000000000000000000000000000000000081525081602001819052508484604051602001610bd892919061342d565b604051602081830303815290604052816040018190525081600601819080600181540180825580915050600190039060005260206000209060030201600090919091909150600082015181600001556020820151816001019081610c3c91906132c3565b506040820151816002019081610c5291906132c3565b5050508160008a604051610c669190613115565b908152602001604051809103902060008201816000019081610c88919061347d565b5060018201816001019081610c9d919061347d565b5060028201816002019081610cb2919061347d565b5060038201816003019081610cc7919061347d565b5060048201816004019081610cdc919061347d565b50600582015481600501556006820181600601908054610cfd92919061226f565b50905050600489908060018154018082558091505060019003906000526020600020016000909190919091509081610d3591906132c3565b506001925050509695505050505050565b6000610d506122fb565b83816000018190525082816040018190525080600286604051610d739190613115565b90815260200160405180910390206000820151816000019081610d9691906132c3565b506020820151816001019081610dac91906132c3565b506040820151816002019081610dc291906132c3565b5090505060019150509392505050565b606080600283604051610de59190613115565b9081526020016040518091039020600001600284604051610e069190613115565b9081526020016040518091039020600201818054610e2390612f82565b80601f0160208091040260200160405190810160405280929190818152602001828054610e4f90612f82565b8015610e9c5780601f10610e7157610100808354040283529160200191610e9c565b820191906000526020600020905b815481529060010190602001808311610e7f57829003601f168201915b50505050509150808054610eaf90612f82565b80601f0160208091040260200160405190810160405280929190818152602001828054610edb90612f82565b8015610f285780601f10610efd57610100808354040283529160200191610f28565b820191906000526020600020905b815481529060010190602001808311610f0b57829003601f168201915b5050505050905091509150915091565b600080600086604051610f4b9190613115565b90815260200160405180910390209050610ff1816003018054610f6d90612f82565b80601f0160208091040260200160405190810160405280929190818152602001828054610f9990612f82565b8015610fe65780601f10610fbb57610100808354040283529160200191610fe6565b820191906000526020600020905b815481529060010190602001808311610fc957829003601f168201915b5050505050866120d9565b156112315761109b81600401805461100890612f82565b80601f016020809104026020016040519081016040528092919081815260200182805461103490612f82565b80156110815780601f1061105657610100808354040283529160200191611081565b820191906000526020600020905b81548152906001019060200180831161106457829003601f168201915b5050505050604051806020016040528060008152506120d9565b15611230576003846040516110b09190613115565b908152602001604051809103902060050160009054906101000a900460ff161561122f57838160040190816110e591906132c3565b50600181600501819055506003846040516111009190613115565b90815260200160405180910390206004018690806001815401808255809150506001900390600052602060002001600090919091909150908161114391906132c3565b5061114c61224e565b428160000181815250506040518060400160405280601081526020017f536f6c6420746f20437573746f6d657200000000000000000000000000000000815250816020018190525084846040516020016111a79291906135fd565b60405160208183030381529060405281604001819052508160060181908060018154018082558091505060019003906000526020600020906003020160009091909190915060008201518160000155602082015181600101908161120b91906132c3565b50604082015181600201908161122191906132c3565b505050600192505050611237565b5b5b60009150505b949350505050565b60006003856040516112519190613115565b908152602001604051809103902060050160009054906101000a900460ff161561127e576000905061136f565b61128661231c565b84816000018190525083816060018190525082816040018190525060018160a0019015159081151581525050806003876040516112c39190613115565b908152602001604051809103902060008201518160000190816112e691906132c3565b5060208201518160010190816112fc91906132c3565b50604082015181600201908161131291906132c3565b50606082015181600301908161132891906132c3565b506080820151816004019080519060200190611345929190612354565b5060a08201518160050160006101000a81548160ff02191690831515021790555090505060019150505b949350505050565b60006113816122fb565b838160000181905250828160400181905250806002866040516113a49190613115565b908152602001604051809103902060008201518160000190816113c791906132c3565b5060208201518160010190816113dd91906132c3565b5060408201518160020190816113f391906132c3565b5090505060019150509392505050565b60608060606003846040516114189190613115565b90815260200160405180910390206000016003856040516114399190613115565b908152602001604051809103902060020160038660405161145a9190613115565b908152602001604051809103902060030182805461147790612f82565b80601f01602080910402602001604051908101604052809291908181526020018280546114a390612f82565b80156114f05780601f106114c5576101008083540402835291602001916114f0565b820191906000526020600020905b8154815290600101906020018083116114d357829003601f168201915b5050505050925081805461150390612f82565b80601f016020809104026020016040519081016040528092919081815260200182805461152f90612f82565b801561157c5780601f106115515761010080835404028352916020019161157c565b820191906000526020600020905b81548152906001019060200180831161155f57829003601f168201915b5050505050915080805461158f90612f82565b80601f01602080910402602001604051908101604052809291908181526020018280546115bb90612f82565b80156116085780601f106115dd57610100808354040283529160200191611608565b820191906000526020600020905b8154815290600101906020018083116115eb57829003601f168201915b505050505090509250925092509193909250565b606060038260405161162e9190613115565b9081526020016040518091039020600401805480602002602001604051908101604052809291908181526020016000905b8282101561170b57838290600052602060002001805461167e90612f82565b80601f01602080910402602001604051908101604052809291908181526020018280546116aa90612f82565b80156116f75780601f106116cc576101008083540402835291602001916116f7565b820191906000526020600020905b8154815290600101906020018083116116da57829003601f168201915b50505050508152602001906001019061165f565b505050509050919050565b6000806000866040516117299190613115565b908152602001604051809103902090508481600301908161174a91906132c3565b5061175361224e565b428160000181815250506040518060400160405280601181526020017f4d6f76656420746f2052657461696c6572000000000000000000000000000000815250816020018190525084846040516020016117ae9291906136cf565b60405160208183030381529060405281604001819052508160060181908060018154018082558091505060019003906000526020600020906003020160009091909190915060008201518160000155602082015181600101908161181291906132c3565b50604082015181600201908161182891906132c3565b505050600192505050949350505050565b6060806060806060806000876040516118529190613115565b90815260200160405180910390206000016000886040516118739190613115565b90815260200160405180910390206001016000896040516118949190613115565b908152602001604051809103902060020160008a6040516118b59190613115565b908152602001604051809103902060030160008b6040516118d69190613115565b908152602001604051809103902060040160008c6040516118f79190613115565b908152602001604051809103902060060185805461191490612f82565b80601f016020809104026020016040519081016040528092919081815260200182805461194090612f82565b801561198d5780601f106119625761010080835404028352916020019161198d565b820191906000526020600020905b81548152906001019060200180831161197057829003601f168201915b505050505095508480546119a090612f82565b80601f01602080910402602001604051908101604052809291908181526020018280546119cc90612f82565b8015611a195780601f106119ee57610100808354040283529160200191611a19565b820191906000526020600020905b8154815290600101906020018083116119fc57829003601f168201915b50505050509450838054611a2c90612f82565b80601f0160208091040260200160405190810160405280929190818152602001828054611a5890612f82565b8015611aa55780601f10611a7a57610100808354040283529160200191611aa5565b820191906000526020600020905b815481529060010190602001808311611a8857829003601f168201915b50505050509350828054611ab890612f82565b80601f0160208091040260200160405190810160405280929190818152602001828054611ae490612f82565b8015611b315780601f10611b0657610100808354040283529160200191611b31565b820191906000526020600020905b815481529060010190602001808311611b1457829003601f168201915b50505050509250818054611b4490612f82565b80601f0160208091040260200160405190810160405280929190818152602001828054611b7090612f82565b8015611bbd5780601f10611b9257610100808354040283529160200191611bbd565b820191906000526020600020905b815481529060010190602001808311611ba057829003601f168201915b5050505050915080805480602002602001604051908101604052809291908181526020016000905b82821015611d45578382906000526020600020906003020160405180606001604052908160008201548152602001600182018054611c2290612f82565b80601f0160208091040260200160405190810160405280929190818152602001828054611c4e90612f82565b8015611c9b5780601f10611c7057610100808354040283529160200191611c9b565b820191906000526020600020905b815481529060010190602001808311611c7e57829003601f168201915b50505050508152602001600282018054611cb490612f82565b80601f0160208091040260200160405190810160405280929190818152602001828054611ce090612f82565b8015611d2d5780601f10611d0257610100808354040283529160200191611d2d565b820191906000526020600020905b815481529060010190602001808311611d1057829003601f168201915b50505050508152505081526020019060010190611be5565b50505050905095509550955095509550955091939550919395565b600080600086604051611d739190613115565b908152602001604051809103902090506000600386604051611d959190613115565b908152602001604051809103902090506000600386604051611db79190613115565b9081526020016040518091039020905060018360050154148015611de957508160050160009054906101000a900460ff165b8015611e0357508060050160009054906101000a900460ff165b156120c95760005b82600401805490508110156120c757611ecc836004018281548110611e3357611e32612f24565b5b906000526020600020018054611e4890612f82565b80601f0160208091040260200160405190810160405280929190818152602001828054611e7490612f82565b8015611ec15780601f10611e9657610100808354040283529160200191611ec1565b820191906000526020600020905b815481529060010190602001808311611ea457829003601f168201915b50505050508a6120d9565b156120b457611f67846004018054611ee390612f82565b80601f0160208091040260200160405190810160405280929190818152602001828054611f0f90612f82565b8015611f5c5780601f10611f3157610100808354040283529160200191611f5c565b820191906000526020600020905b815481529060010190602001808311611f3f57829003601f168201915b5050505050896120d9565b15611f7f5786846004019081611f7d91906132c3565b505b611f8761224e565b428160000181815250506040518060400160405280601081526020017f4368616e67656420437573746f6d6572000000000000000000000000000000008152508160200181905250888888604051602001611fe4939291906137ed565b60405160208183030381529060405281604001819052508460060181908060018154018082558091505060019003906000526020600020906003020160009091909190915060008201518160000155602082015181600101908161204891906132c3565b50604082015181600201908161205e91906132c3565b50505061206e8285600401612132565b50826004018a9080600181540180825580915050600190039060005260206000200160009091909190915090816120a591906132c3565b506001955050505050506120d1565b80806120bf9061309c565b915050611e0b565b505b600093505050505b949350505050565b6000816040516020016120ec9190613115565b60405160208183030381529060405280519060200120836040516020016121139190613115565b6040516020818303038152906040528051906020012014905092915050565b600081805490508310612148576000905061220b565b60008390505b6001838054905061215f919061383f565b8110156121cc57826001826121749190613873565b8154811061218557612184612f24565b5b906000526020600020018382815481106121a2576121a1612f24565b5b9060005260206000200190816121b891906138d2565b5080806121c49061309c565b91505061214e565b5081600183805490506121df919061383f565b815481106121f0576121ef612f24565b5b90600052602060002001600061220691906123ad565b600190505b92915050565b6040518060e00160405280606081526020016060815260200160608152602001606081526020016060815260200160008152602001606081525090565b60405180606001604052806000815260200160608152602001606081525090565b8280548282559060005260206000209060030281019282156122ea5760005260206000209160030282015b828111156122e957828260008201548160000155600182018160010190816122c2919061347d565b50600282018160020190816122d7919061347d565b5050509160030191906003019061229a565b5b5090506122f791906123ed565b5090565b60405180606001604052806060815260200160608152602001606081525090565b6040518060c0016040528060608152602001606081526020016060815260200160608152602001606081526020016000151581525090565b82805482825590600052602060002090810192821561239c579160200282015b8281111561239b57825182908161238b91906132c3565b5091602001919060010190612374565b5b5090506123a9919061242c565b5090565b5080546123b990612f82565b6000825580601f106123cb57506123ea565b601f0160209004906000526020600020908101906123e99190612450565b5b50565b5b808211156124285760008082016000905560018201600061240f91906123ad565b60028201600061241f91906123ad565b506003016123ee565b5090565b5b8082111561244c576000818161244391906123ad565b5060010161242d565b5090565b5b80821115612469576000816000905550600101612451565b5090565b600081519050919050565b600082825260208201905092915050565b6000819050602082019050919050565b600081519050919050565b600082825260208201905092915050565b60005b838110156124d35780820151818401526020810190506124b8565b60008484015250505050565b6000601f19601f8301169050919050565b60006124fb82612499565b61250581856124a4565b93506125158185602086016124b5565b61251e816124df565b840191505092915050565b6000819050919050565b61253c81612529565b82525050565b600081519050919050565b600082825260208201905092915050565b6000819050602082019050919050565b60006060830160008301516125866000860182612533565b506020830151848203602086015261259e82826124f0565b915050604083015184820360408601526125b882826124f0565b9150508091505092915050565b60006125d1838361256e565b905092915050565b6000602082019050919050565b60006125f182612542565b6125fb818561254d565b93508360208202850161260d8561255e565b8060005b85811015612649578484038952815161262a85826125c5565b9450612635836125d9565b925060208a01995050600181019050612611565b50829750879550505050505092915050565b600060e083016000830151848203600086015261267882826124f0565b9150506020830151848203602086015261269282826124f0565b915050604083015184820360408601526126ac82826124f0565b915050606083015184820360608601526126c682826124f0565b915050608083015184820360808601526126e082826124f0565b91505060a08301516126f560a0860182612533565b5060c083015184820360c086015261270d82826125e6565b9150508091505092915050565b6000612726838361265b565b905092915050565b6000602082019050919050565b60006127468261246d565b6127508185612478565b93508360208202850161276285612489565b8060005b8581101561279e578484038952815161277f858261271a565b945061278a8361272e565b925060208a01995050600181019050612766565b50829750879550505050505092915050565b600081519050919050565b600082825260208201905092915050565b6000819050602082019050919050565b60006127e883836124f0565b905092915050565b6000602082019050919050565b6000612808826127b0565b61281281856127bb565b935083602082028501612824856127cc565b8060005b85811015612860578484038952815161284185826127dc565b945061284c836127f0565b925060208a01995050600181019050612828565b50829750879550505050505092915050565b6000604082019050818103600083015261288c818561273b565b905081810360208301526128a081846127fd565b90509392505050565b6000604051905090565b600080fd5b600080fd5b600080fd5b600080fd5b7f4e487b7100000000000000000000000000000000000000000000000000000000600052604160045260246000fd5b6128ff826124df565b810181811067ffffffffffffffff8211171561291e5761291d6128c7565b5b80604052505050565b60006129316128a9565b905061293d82826128f6565b919050565b600067ffffffffffffffff82111561295d5761295c6128c7565b5b612966826124df565b9050602081019050919050565b82818337600083830152505050565b600061299561299084612942565b612927565b9050828152602081018484840111156129b1576129b06128c2565b5b6129bc848285612973565b509392505050565b600082601f8301126129d9576129d86128bd565b5b81356129e9848260208601612982565b91505092915050565b600060208284031215612a0857612a076128b3565b5b600082013567ffffffffffffffff811115612a2657612a256128b8565b5b612a32848285016129c4565b91505092915050565b600082825260208201905092915050565b6000612a5782612499565b612a618185612a3b565b9350612a718185602086016124b5565b612a7a816124df565b840191505092915050565b60006040820190508181036000830152612a9f8185612a4c565b90508181036020830152612ab38184612a4c565b90509392505050565b60008060008060008060c08789031215612ad957612ad86128b3565b5b600087013567ffffffffffffffff811115612af757612af66128b8565b5b612b0389828a016129c4565b965050602087013567ffffffffffffffff811115612b2457612b236128b8565b5b612b3089828a016129c4565b955050604087013567ffffffffffffffff811115612b5157612b506128b8565b5b612b5d89828a016129c4565b945050606087013567ffffffffffffffff811115612b7e57612b7d6128b8565b5b612b8a89828a016129c4565b935050608087013567ffffffffffffffff811115612bab57612baa6128b8565b5b612bb789828a016129c4565b92505060a087013567ffffffffffffffff811115612bd857612bd76128b8565b5b612be489828a016129c4565b9150509295509295509295565b60008115159050919050565b612c0681612bf1565b82525050565b6000602082019050612c216000830184612bfd565b92915050565b600080600060608486031215612c4057612c3f6128b3565b5b600084013567ffffffffffffffff811115612c5e57612c5d6128b8565b5b612c6a868287016129c4565b935050602084013567ffffffffffffffff811115612c8b57612c8a6128b8565b5b612c97868287016129c4565b925050604084013567ffffffffffffffff811115612cb857612cb76128b8565b5b612cc4868287016129c4565b9150509250925092565b60008060008060808587031215612ce857612ce76128b3565b5b600085013567ffffffffffffffff811115612d0657612d056128b8565b5b612d12878288016129c4565b945050602085013567ffffffffffffffff811115612d3357612d326128b8565b5b612d3f878288016129c4565b935050604085013567ffffffffffffffff811115612d6057612d5f6128b8565b5b612d6c878288016129c4565b925050606085013567ffffffffffffffff811115612d8d57612d8c6128b8565b5b612d99878288016129c4565b91505092959194509250565b60006060820190508181036000830152612dbf8186612a4c565b90508181036020830152612dd38185612a4c565b90508181036040830152612de78184612a4c565b9050949350505050565b60006020820190508181036000830152612e0b81846127fd565b905092915050565b600082825260208201905092915050565b6000612e2f82612542565b612e398185612e13565b935083602082028501612e4b8561255e565b8060005b85811015612e875784840389528151612e6885826125c5565b9450612e73836125d9565b925060208a01995050600181019050612e4f565b50829750879550505050505092915050565b600060c0820190508181036000830152612eb38189612a4c565b90508181036020830152612ec78188612a4c565b90508181036040830152612edb8187612a4c565b90508181036060830152612eef8186612a4c565b90508181036080830152612f038185612a4c565b905081810360a0830152612f178184612e24565b9050979650505050505050565b7f4e487b7100000000000000000000000000000000000000000000000000000000600052603260045260246000fd5b7f4e487b7100000000000000000000000000000000000000000000000000000000600052602260045260246000fd5b60006002820490506001821680612f9a57607f821691505b602082108103612fad57612fac612f53565b5b50919050565b600081905092915050565b60008190508160005260206000209050919050565b60008154612fe081612f82565b612fea8186612fb3565b94506001821660008114613005576001811461301a5761304d565b60ff198316865281151582028601935061304d565b61302385612fbe565b60005b8381101561304557815481890152600182019150602081019050613026565b838801955050505b50505092915050565b60006130628284612fd3565b915081905092915050565b7f4e487b7100000000000000000000000000000000000000000000000000000000600052601160045260246000fd5b60006130a782612529565b91507fffffffffffffffffffffffffffffffffffffffffffffffffffffffffffffffff82036130d9576130d861306d565b5b600182019050919050565b60006130ef82612499565b6130f98185612fb3565b93506131098185602086016124b5565b80840191505092915050565b600061312182846130e4565b915081905092915050565b60006020601f8301049050919050565b600082821b905092915050565b6000600883026131797fffffffffffffffffffffffffffffffffffffffffffffffffffffffffffffffff8261313c565b613183868361313c565b95508019841693508086168417925050509392505050565b6000819050919050565b60006131c06131bb6131b684612529565b61319b565b612529565b9050919050565b6000819050919050565b6131da836131a5565b6131ee6131e6826131c7565b848454613149565b825550505050565b600090565b6132036131f6565b61320e8184846131d1565b505050565b5b81811015613232576132276000826131fb565b600181019050613214565b5050565b601f8211156132775761324881612fbe565b6132518461312c565b81016020851015613260578190505b61327461326c8561312c565b830182613213565b50505b505050565b600082821c905092915050565b600061329a6000198460080261327c565b1980831691505092915050565b60006132b38383613289565b9150826002028217905092915050565b6132cc82612499565b67ffffffffffffffff8111156132e5576132e46128c7565b5b6132ef8254612f82565b6132fa828285613236565b600060209050601f83116001811461332d576000841561331b578287015190505b61332585826132a7565b86555061338d565b601f19841661333b86612fbe565b60005b828110156133635784890151825560018201915060208501945060208101905061333e565b86831015613380578489015161337c601f891682613289565b8355505b6001600288020188555050505b505050505050565b7f4d616e75666163746f7279204c6f636174696f6e3a2000000000000000000000600082015250565b60006133cb601683612fb3565b91506133d682613395565b601682019050919050565b7f2c2050726f64756374696f6e20446174653a2000000000000000000000000000600082015250565b6000613417601383612fb3565b9150613422826133e1565b601382019050919050565b6000613438826133be565b915061344482856130e4565b915061344f8261340a565b915061345b82846130e4565b91508190509392505050565b60008154905061347681612f82565b9050919050565b81810361348b575050613563565b61349482613467565b67ffffffffffffffff8111156134ad576134ac6128c7565b5b6134b78254612f82565b6134c2828285613236565b6000601f8311600181146134f157600084156134df578287015490505b6134e985826132a7565b86555061355c565b601f1984166134ff87612fbe565b965061350a86612fbe565b60005b828110156135325784890154825560018201915060018501945060208101905061350d565b8683101561354f578489015461354b601f891682613289565b8355505b6001600288020188555050505b5050505050505b565b7f437573746f6d657220456d61696c3a2000000000000000000000000000000000600082015250565b600061359b601083612fb3565b91506135a682613565565b601082019050919050565b7f2c2053616c6520446174653a2000000000000000000000000000000000000000600082015250565b60006135e7600d83612fb3565b91506135f2826135b1565b600d82019050919050565b60006136088261358e565b915061361482856130e4565b915061361f826135da565b915061362b82846130e4565b91508190509392505050565b7f52657461696c204c6f636174696f6e3a20000000000000000000000000000000600082015250565b600061366d601183612fb3565b915061367882613637565b601182019050919050565b7f2c204d6f76696e6720446174653a200000000000000000000000000000000000600082015250565b60006136b9600f83612fb3565b91506136c482613683565b600f82019050919050565b60006136da82613660565b91506136e682856130e4565b91506136f1826136ac565b91506136fd82846130e4565b91508190509392505050565b7f4f6c6420437573746f6d65723a20000000000000000000000000000000000000600082015250565b600061373f600e83612fb3565b915061374a82613709565b600e82019050919050565b7f2c204e657720437573746f6d65723a2000000000000000000000000000000000600082015250565b600061378b601083612fb3565b915061379682613755565b601082019050919050565b7f2c204368616e676520446174653a200000000000000000000000000000000000600082015250565b60006137d7600f83612fb3565b91506137e2826137a1565b600f82019050919050565b60006137f882613732565b915061380482866130e4565b915061380f8261377e565b915061381b82856130e4565b9150613826826137ca565b915061383282846130e4565b9150819050949350505050565b600061384a82612529565b915061385583612529565b925082820390508181111561386d5761386c61306d565b5b92915050565b600061387e82612529565b915061388983612529565b92508282019050808211156138a1576138a061306d565b5b92915050565b6000815490506138b681612f82565b9050919050565b60008190508160005260206000209050919050565b8181036138e05750506139b8565b6138e9826138a7565b67ffffffffffffffff811115613902576139016128c7565b5b61390c8254612f82565b613917828285613236565b6000601f8311600181146139465760008415613934578287015490505b61393e85826132a7565b8655506139b1565b601f198416613954876138bd565b965061395f86612fbe565b60005b8281101561398757848901548255600182019150600185019450602081019050613962565b868310156139a457848901546139a0601f891682613289565b8355505b6001600288020188555050505b5050505050505b56fea26469706673582212207fdb2dad63405ce0becba0576c6ba313be672dd900426889bdbd4eaee76021e764736f6c63430008130033","opcodes":"PUSH1 0x80 PUSH1 0x40 MSTORE CALLVALUE DUP1 ISZERO PUSH2 0x10 JUMPI PUSH1 0x0 DUP1 REVERT JUMPDEST POP PUSH2 0x39F0 DUP1 PUSH2 0x20 PUSH1 0x0 CODECOPY PUSH1 0x0 RETURN INVALID PUSH1 0x80 PUSH1 0x40 MSTORE PUSH1 0x4 CALLDATASIZE LT PUSH2 0xC2 JUMPI PUSH1 0x0 CALLDATALOAD PUSH1 0xE0 SHR DUP1 PUSH4 0xB51CA0AF GT PUSH2 0x7F JUMPI DUP1 PUSH4 0xCEE4A5E5 GT PUSH2 0x59 JUMPI DUP1 PUSH4 0xCEE4A5E5 EQ PUSH2 0x29E JUMPI DUP1 PUSH4 0xE9E5B5A2 EQ PUSH2 0x2DB JUMPI DUP1 PUSH4 0xEE786260 EQ PUSH2 0x30B JUMPI DUP1 PUSH4 0xF1EF413B EQ PUSH2 0x34D JUMPI PUSH2 0xC2 JUMP JUMPDEST DUP1 PUSH4 0xB51CA0AF EQ PUSH2 0x1FF JUMPI DUP1 PUSH4 0xB5BD438B EQ PUSH2 0x22F JUMPI DUP1 PUSH4 0xBC26EC53 EQ PUSH2 0x25F JUMPI PUSH2 0xC2 JUMP JUMPDEST DUP1 PUSH4 0x2EE3A52 EQ PUSH2 0xC7 JUMPI DUP1 PUSH4 0x21B35573 EQ PUSH2 0xF3 JUMPI DUP1 PUSH4 0x55A53F06 EQ PUSH2 0x131 JUMPI DUP1 PUSH4 0x5A400564 EQ PUSH2 0x161 JUMPI DUP1 PUSH4 0x7C3851CD EQ PUSH2 0x191 JUMPI DUP1 PUSH4 0xA603EFE1 EQ PUSH2 0x1CF JUMPI JUMPDEST PUSH1 0x0 DUP1 REVERT JUMPDEST CALLVALUE DUP1 ISZERO PUSH2 0xD3 JUMPI PUSH1 0x0 DUP1 REVERT JUMPDEST POP PUSH2 0xDC PUSH2 0x37D JUMP JUMPDEST PUSH1 0x40 MLOAD PUSH2 0xEA SWAP3 SWAP2 SWAP1 PUSH2 0x2872 JUMP JUMPDEST PUSH1 0x40 MLOAD DUP1 SWAP2 SUB SWAP1 RETURN JUMPDEST CALLVALUE DUP1 ISZERO PUSH2 0xFF JUMPI PUSH1 0x0 DUP1 REVERT JUMPDEST POP PUSH2 0x11A PUSH1 0x4 DUP1 CALLDATASIZE SUB DUP2 ADD SWAP1 PUSH2 0x115 SWAP2 SWAP1 PUSH2 0x29F2 JUMP JUMPDEST PUSH2 0x9B6 JUMP JUMPDEST PUSH1 0x40 MLOAD PUSH2 0x128 SWAP3 SWAP2 SWAP1 PUSH2 0x2A85 JUMP JUMPDEST PUSH1 0x40 MLOAD DUP1 SWAP2 SUB SWAP1 RETURN JUMPDEST PUSH2 0x14B PUSH1 0x4 DUP1 CALLDATASIZE SUB DUP2 ADD SWAP1 PUSH2 0x146 SWAP2 SWAP1 PUSH2 0x2ABC JUMP JUMPDEST PUSH2 0xB1C JUMP JUMPDEST PUSH1 0x40 MLOAD PUSH2 0x158 SWAP2 SWAP1 PUSH2 0x2C0C JUMP JUMPDEST PUSH1 0x40 MLOAD DUP1 SWAP2 SUB SWAP1 RETURN JUMPDEST PUSH2 0x17B PUSH1 0x4 DUP1 CALLDATASIZE SUB DUP2 ADD SWAP1 PUSH2 0x176 SWAP2 SWAP1 PUSH2 0x2C27 JUMP JUMPDEST PUSH2 0xD46 JUMP JUMPDEST PUSH1 0x40 MLOAD PUSH2 0x188 SWAP2 SWAP1 PUSH2 0x2C0C JUMP JUMPDEST PUSH1 0x40 MLOAD DUP1 SWAP2 SUB SWAP1 RETURN JUMPDEST CALLVALUE DUP1 ISZERO PUSH2 0x19D JUMPI PUSH1 0x0 DUP1 REVERT JUMPDEST POP PUSH2 0x1B8 PUSH1 0x4 DUP1 CALLDATASIZE SUB DUP2 ADD SWAP1 PUSH2 0x1B3 SWAP2 SWAP1 PUSH2 0x29F2 JUMP JUMPDEST PUSH2 0xDD2 JUMP JUMPDEST PUSH1 0x40 MLOAD PUSH2 0x1C6 SWAP3 SWAP2 SWAP1 PUSH2 0x2A85 JUMP JUMPDEST PUSH1 0x40 MLOAD DUP1 SWAP2 SUB SWAP1 RETURN JUMPDEST PUSH2 0x1E9 PUSH1 0x4 DUP1 CALLDATASIZE SUB DUP2 ADD SWAP1 PUSH2 0x1E4 SWAP2 SWAP1 PUSH2 0x2CCE JUMP JUMPDEST PUSH2 0xF38 JUMP JUMPDEST PUSH1 0x40 MLOAD PUSH2 0x1F6 SWAP2 SWAP1 PUSH2 0x2C0C JUMP JUMPDEST PUSH1 0x40 MLOAD DUP1 SWAP2 SUB SWAP1 RETURN JUMPDEST PUSH2 0x219 PUSH1 0x4 DUP1 CALLDATASIZE SUB DUP2 ADD SWAP1 PUSH2 0x214 SWAP2 SWAP1 PUSH2 0x2CCE JUMP JUMPDEST PUSH2 0x123F JUMP JUMPDEST PUSH1 0x40 MLOAD PUSH2 0x226 SWAP2 SWAP1 PUSH2 0x2C0C JUMP JUMPDEST PUSH1 0x40 MLOAD DUP1 SWAP2 SUB SWAP1 RETURN JUMPDEST PUSH2 0x249 PUSH1 0x4 DUP1 CALLDATASIZE SUB DUP2 ADD SWAP1 PUSH2 0x244 SWAP2 SWAP1 PUSH2 0x2C27 JUMP JUMPDEST PUSH2 0x1377 JUMP JUMPDEST PUSH1 0x40 MLOAD PUSH2 0x256 SWAP2 SWAP1 PUSH2 0x2C0C JUMP JUMPDEST PUSH1 0x40 MLOAD DUP1 SWAP2 SUB SWAP1 RETURN JUMPDEST CALLVALUE DUP1 ISZERO PUSH2 0x26B JUMPI PUSH1 0x0 DUP1 REVERT JUMPDEST POP PUSH2 0x286 PUSH1 0x4 DUP1 CALLDATASIZE SUB DUP2 ADD SWAP1 PUSH2 0x281 SWAP2 SWAP1 PUSH2 0x29F2 JUMP JUMPDEST PUSH2 0x1403 JUMP JUMPDEST PUSH1 0x40 MLOAD PUSH2 0x295 SWAP4 SWAP3 SWAP2 SWAP1 PUSH2 0x2DA5 JUMP JUMPDEST PUSH1 0x40 MLOAD DUP1 SWAP2 SUB SWAP1 RETURN JUMPDEST CALLVALUE DUP1 ISZERO PUSH2 0x2AA JUMPI PUSH1 0x0 DUP1 REVERT JUMPDEST POP PUSH2 0x2C5 PUSH1 0x4 DUP1 CALLDATASIZE SUB DUP2 ADD SWAP1 PUSH2 0x2C0 SWAP2 SWAP1 PUSH2 0x29F2 JUMP JUMPDEST PUSH2 0x161C JUMP JUMPDEST PUSH1 0x40 MLOAD PUSH2 0x2D2 SWAP2 SWAP1 PUSH2 0x2DF1 JUMP JUMPDEST PUSH1 0x40 MLOAD DUP1 SWAP2 SUB SWAP1 RETURN JUMPDEST PUSH2 0x2F5 PUSH1 0x4 DUP1 CALLDATASIZE SUB DUP2 ADD SWAP1 PUSH2 0x2F0 SWAP2 SWAP1 PUSH2 0x2CCE JUMP JUMPDEST PUSH2 0x1716 JUMP JUMPDEST PUSH1 0x40 MLOAD PUSH2 0x302 SWAP2 SWAP1 PUSH2 0x2C0C JUMP JUMPDEST PUSH1 0x40 MLOAD DUP1 SWAP2 SUB SWAP1 RETURN JUMPDEST CALLVALUE DUP1 ISZERO PUSH2 0x317 JUMPI PUSH1 0x0 DUP1 REVERT JUMPDEST POP PUSH2 0x332 PUSH1 0x4 DUP1 CALLDATASIZE SUB DUP2 ADD SWAP1 PUSH2 0x32D SWAP2 SWAP1 PUSH2 0x29F2 JUMP JUMPDEST PUSH2 0x1839 JUMP JUMPDEST PUSH1 0x40 MLOAD PUSH2 0x344 SWAP7 SWAP6 SWAP5 SWAP4 SWAP3 SWAP2 SWAP1 PUSH2 0x2E99 JUMP JUMPDEST PUSH1 0x40 MLOAD DUP1 SWAP2 SUB SWAP1 RETURN JUMPDEST PUSH2 0x367 PUSH1 0x4 DUP1 CALLDATASIZE SUB DUP2 ADD SWAP1 PUSH2 0x362 SWAP2 SWAP1 PUSH2 0x2CCE JUMP JUMPDEST PUSH2 0x1D60 JUMP JUMPDEST PUSH1 0x40 MLOAD PUSH2 0x374 SWAP2 SWAP1 PUSH2 0x2C0C JUMP JUMPDEST PUSH1 0x40 MLOAD DUP1 SWAP2 SUB SWAP1 RETURN JUMPDEST PUSH1 0x60 DUP1 PUSH1 0x0 PUSH1 0x4 DUP1 SLOAD SWAP1 POP SWAP1 POP PUSH1 0x0 DUP2 PUSH8 0xFFFFFFFFFFFFFFFF DUP2 GT ISZERO PUSH2 0x3A6 JUMPI PUSH2 0x3A5 PUSH2 0x28C7 JUMP JUMPDEST JUMPDEST PUSH1 0x40 MLOAD SWAP1 DUP1 DUP3 MSTORE DUP1 PUSH1 0x20 MUL PUSH1 0x20 ADD DUP3 ADD PUSH1 0x40 MSTORE DUP1 ISZERO PUSH2 0x3DF JUMPI DUP2 PUSH1 0x20 ADD JUMPDEST PUSH2 0x3CC PUSH2 0x2211 JUMP JUMPDEST DUP2 MSTORE PUSH1 0x20 ADD SWAP1 PUSH1 0x1 SWAP1 SUB SWAP1 DUP2 PUSH2 0x3C4 JUMPI SWAP1 POP JUMPDEST POP SWAP1 POP PUSH1 0x0 JUMPDEST DUP3 DUP2 LT ISZERO PUSH2 0x8D5 JUMPI PUSH1 0x0 PUSH1 0x4 DUP3 DUP2 SLOAD DUP2 LT PUSH2 0x403 JUMPI PUSH2 0x402 PUSH2 0x2F24 JUMP JUMPDEST JUMPDEST SWAP1 PUSH1 0x0 MSTORE PUSH1 0x20 PUSH1 0x0 KECCAK256 ADD PUSH1 0x40 MLOAD PUSH2 0x41A SWAP2 SWAP1 PUSH2 0x3056 JUMP JUMPDEST SWAP1 DUP2 MSTORE PUSH1 0x20 ADD PUSH1 0x40 MLOAD DUP1 SWAP2 SUB SWAP1 KECCAK256 PUSH1 0x40 MLOAD DUP1 PUSH1 0xE0 ADD PUSH1 0x40 MSTORE SWAP1 DUP2 PUSH1 0x0 DUP3 ADD DUP1 SLOAD PUSH2 0x443 SWAP1 PUSH2 0x2F82 JUMP JUMPDEST DUP1 PUSH1 0x1F ADD PUSH1 0x20 DUP1 SWAP2 DIV MUL PUSH1 0x20 ADD PUSH1 0x40 MLOAD SWAP1 DUP2 ADD PUSH1 0x40 MSTORE DUP1 SWAP3 SWAP2 SWAP1 DUP2 DUP2 MSTORE PUSH1 0x20 ADD DUP3 DUP1 SLOAD PUSH2 0x46F SWAP1 PUSH2 0x2F82 JUMP JUMPDEST DUP1 ISZERO PUSH2 0x4BC JUMPI DUP1 PUSH1 0x1F LT PUSH2 0x491 JUMPI PUSH2 0x100 DUP1 DUP4 SLOAD DIV MUL DUP4 MSTORE SWAP2 PUSH1 0x20 ADD SWAP2 PUSH2 0x4BC JUMP JUMPDEST DUP3 ADD SWAP2 SWAP1 PUSH1 0x0 MSTORE PUSH1 0x20 PUSH1 0x0 KECCAK256 SWAP1 JUMPDEST DUP2 SLOAD DUP2 MSTORE SWAP1 PUSH1 0x1 ADD SWAP1 PUSH1 0x20 ADD DUP1 DUP4 GT PUSH2 0x49F JUMPI DUP3 SWAP1 SUB PUSH1 0x1F AND DUP3 ADD SWAP2 JUMPDEST POP POP POP POP POP DUP2 MSTORE PUSH1 0x20 ADD PUSH1 0x1 DUP3 ADD DUP1 SLOAD PUSH2 0x4D5 SWAP1 PUSH2 0x2F82 JUMP JUMPDEST DUP1 PUSH1 0x1F ADD PUSH1 0x20 DUP1 SWAP2 DIV MUL PUSH1 0x20 ADD PUSH1 0x40 MLOAD SWAP1 DUP2 ADD PUSH1 0x40 MSTORE DUP1 SWAP3 SWAP2 SWAP1 DUP2 DUP2 MSTORE PUSH1 0x20 ADD DUP3 DUP1 SLOAD PUSH2 0x501 SWAP1 PUSH2 0x2F82 JUMP JUMPDEST DUP1 ISZERO PUSH2 0x54E JUMPI DUP1 PUSH1 0x1F LT PUSH2 0x523 JUMPI PUSH2 0x100 DUP1 DUP4 SLOAD DIV MUL DUP4 MSTORE SWAP2 PUSH1 0x20 ADD SWAP2 PUSH2 0x54E JUMP JUMPDEST DUP3 ADD SWAP2 SWAP1 PUSH1 0x0 MSTORE PUSH1 0x20 PUSH1 0x0 KECCAK256 SWAP1 JUMPDEST DUP2 SLOAD DUP2 MSTORE SWAP1 PUSH1 0x1 ADD SWAP1 PUSH1 0x20 ADD DUP1 DUP4 GT PUSH2 0x531 JUMPI DUP3 SWAP1 SUB PUSH1 0x1F AND DUP3 ADD SWAP2 JUMPDEST POP POP POP POP POP DUP2 MSTORE PUSH1 0x20 ADD PUSH1 0x2 DUP3 ADD DUP1 SLOAD PUSH2 0x567 SWAP1 PUSH2 0x2F82 JUMP JUMPDEST DUP1 PUSH1 0x1F ADD PUSH1 0x20 DUP1 SWAP2 DIV MUL PUSH1 0x20 ADD PUSH1 0x40 MLOAD SWAP1 DUP2 ADD PUSH1 0x40 MSTORE DUP1 SWAP3 SWAP2 SWAP1 DUP2 DUP2 MSTORE PUSH1 0x20 ADD DUP3 DUP1 SLOAD PUSH2 0x593 SWAP1 PUSH2 0x2F82 JUMP JUMPDEST DUP1 ISZERO PUSH2 0x5E0 JUMPI DUP1 PUSH1 0x1F LT PUSH2 0x5B5 JUMPI PUSH2 0x100 DUP1 DUP4 SLOAD DIV MUL DUP4 MSTORE SWAP2 PUSH1 0x20 ADD SWAP2 PUSH2 0x5E0 JUMP JUMPDEST DUP3 ADD SWAP2 SWAP1 PUSH1 0x0 MSTORE PUSH1 0x20 PUSH1 0x0 KECCAK256 SWAP1 JUMPDEST DUP2 SLOAD DUP2 MSTORE SWAP1 PUSH1 0x1 ADD SWAP1 PUSH1 0x20 ADD DUP1 DUP4 GT PUSH2 0x5C3 JUMPI DUP3 SWAP1 SUB PUSH1 0x1F AND DUP3 ADD SWAP2 JUMPDEST POP POP POP POP POP DUP2 MSTORE PUSH1 0x20 ADD PUSH1 0x3 DUP3 ADD DUP1 SLOAD PUSH2 0x5F9 SWAP1 PUSH2 0x2F82 JUMP JUMPDEST DUP1 PUSH1 0x1F ADD PUSH1 0x20 DUP1 SWAP2 DIV MUL PUSH1 0x20 ADD PUSH1 0x40 MLOAD SWAP1 DUP2 ADD PUSH1 0x40 MSTORE DUP1 SWAP3 SWAP2 SWAP1 DUP2 DUP2 MSTORE PUSH1 0x20 ADD DUP3 DUP1 SLOAD PUSH2 0x625 SWAP1 PUSH2 0x2F82 JUMP JUMPDEST DUP1 ISZERO PUSH2 0x672 JUMPI DUP1 PUSH1 0x1F LT PUSH2 0x647 JUMPI PUSH2 0x100 DUP1 DUP4 SLOAD DIV MUL DUP4 MSTORE SWAP2 PUSH1 0x20 ADD SWAP2 PUSH2 0x672 JUMP JUMPDEST DUP3 ADD SWAP2 SWAP1 PUSH1 0x0 MSTORE PUSH1 0x20 PUSH1 0x0 KECCAK256 SWAP1 JUMPDEST DUP2 SLOAD DUP2 MSTORE SWAP1 PUSH1 0x1 ADD SWAP1 PUSH1 0x20 ADD DUP1 DUP4 GT PUSH2 0x655 JUMPI DUP3 SWAP1 SUB PUSH1 0x1F AND DUP3 ADD SWAP2 JUMPDEST POP POP POP POP POP DUP2 MSTORE PUSH1 0x20 ADD PUSH1 0x4 DUP3 ADD DUP1 SLOAD PUSH2 0x68B SWAP1 PUSH2 0x2F82 JUMP JUMPDEST DUP1 PUSH1 0x1F ADD PUSH1 0x20 DUP1 SWAP2 DIV MUL PUSH1 0x20 ADD PUSH1 0x40 MLOAD SWAP1 DUP2 ADD PUSH1 0x40 MSTORE DUP1 SWAP3 SWAP2 SWAP1 DUP2 DUP2 MSTORE PUSH1 0x20 ADD DUP3 DUP1 SLOAD PUSH2 0x6B7 SWAP1 PUSH2 0x2F82 JUMP JUMPDEST DUP1 ISZERO PUSH2 0x704 JUMPI DUP1 PUSH1 0x1F LT PUSH2 0x6D9 JUMPI PUSH2 0x100 DUP1 DUP4 SLOAD DIV MUL DUP4 MSTORE SWAP2 PUSH1 0x20 ADD SWAP2 PUSH2 0x704 JUMP JUMPDEST DUP3 ADD SWAP2 SWAP1 PUSH1 0x0 MSTORE PUSH1 0x20 PUSH1 0x0 KECCAK256 SWAP1 JUMPDEST DUP2 SLOAD DUP2 MSTORE SWAP1 PUSH1 0x1 ADD SWAP1 PUSH1 0x20 ADD DUP1 DUP4 GT PUSH2 0x6E7 JUMPI DUP3 SWAP1 SUB PUSH1 0x1F AND DUP3 ADD SWAP2 JUMPDEST POP POP POP POP POP DUP2 MSTORE PUSH1 0x20 ADD PUSH1 0x5 DUP3 ADD SLOAD DUP2 MSTORE PUSH1 0x20 ADD PUSH1 0x6 DUP3 ADD DUP1 SLOAD DUP1 PUSH1 0x20 MUL PUSH1 0x20 ADD PUSH1 0x40 MLOAD SWAP1 DUP2 ADD PUSH1 0x40 MSTORE DUP1 SWAP3 SWAP2 SWAP1 DUP2 DUP2 MSTORE PUSH1 0x20 ADD PUSH1 0x0 SWAP1 JUMPDEST DUP3 DUP3 LT ISZERO PUSH2 0x89C JUMPI DUP4 DUP3 SWAP1 PUSH1 0x0 MSTORE PUSH1 0x20 PUSH1 0x0 KECCAK256 SWAP1 PUSH1 0x3 MUL ADD PUSH1 0x40 MLOAD DUP1 PUSH1 0x60 ADD PUSH1 0x40 MSTORE SWAP1 DUP2 PUSH1 0x0 DUP3 ADD SLOAD DUP2 MSTORE PUSH1 0x20 ADD PUSH1 0x1 DUP3 ADD DUP1 SLOAD PUSH2 0x779 SWAP1 PUSH2 0x2F82 JUMP JUMPDEST DUP1 PUSH1 0x1F ADD PUSH1 0x20 DUP1 SWAP2 DIV MUL PUSH1 0x20 ADD PUSH1 0x40 MLOAD SWAP1 DUP2 ADD PUSH1 0x40 MSTORE DUP1 SWAP3 SWAP2 SWAP1 DUP2 DUP2 MSTORE PUSH1 0x20 ADD DUP3 DUP1 SLOAD PUSH2 0x7A5 SWAP1 PUSH2 0x2F82 JUMP JUMPDEST DUP1 ISZERO PUSH2 0x7F2 JUMPI DUP1 PUSH1 0x1F LT PUSH2 0x7C7 JUMPI PUSH2 0x100 DUP1 DUP4 SLOAD DIV MUL DUP4 MSTORE SWAP2 PUSH1 0x20 ADD SWAP2 PUSH2 0x7F2 JUMP JUMPDEST DUP3 ADD SWAP2 SWAP1 PUSH1 0x0 MSTORE PUSH1 0x20 PUSH1 0x0 KECCAK256 SWAP1 JUMPDEST DUP2 SLOAD DUP2 MSTORE SWAP1 PUSH1 0x1 ADD SWAP1 PUSH1 0x20 ADD DUP1 DUP4 GT PUSH2 0x7D5 JUMPI DUP3 SWAP1 SUB PUSH1 0x1F AND DUP3 ADD SWAP2 JUMPDEST POP POP POP POP POP DUP2 MSTORE PUSH1 0x20 ADD PUSH1 0x2 DUP3 ADD DUP1 SLOAD PUSH2 0x80B SWAP1 PUSH2 0x2F82 JUMP JUMPDEST DUP1 PUSH1 0x1F ADD PUSH1 0x20 DUP1 SWAP2 DIV MUL PUSH1 0x20 ADD PUSH1 0x40 MLOAD SWAP1 DUP2 ADD PUSH1 0x40 MSTORE DUP1 SWAP3 SWAP2 SWAP1 DUP2 DUP2 MSTORE PUSH1 0x20 ADD DUP3 DUP1 SLOAD PUSH2 0x837 SWAP1 PUSH2 0x2F82 JUMP JUMPDEST DUP1 ISZERO PUSH2 0x884 JUMPI DUP1 PUSH1 0x1F LT PUSH2 0x859 JUMPI PUSH2 0x100 DUP1 DUP4 SLOAD DIV MUL DUP4 MSTORE SWAP2 PUSH1 0x20 ADD SWAP2 PUSH2 0x884 JUMP JUMPDEST DUP3 ADD SWAP2 SWAP1 PUSH1 0x0 MSTORE PUSH1 0x20 PUSH1 0x0 KECCAK256 SWAP1 JUMPDEST DUP2 SLOAD DUP2 MSTORE SWAP1 PUSH1 0x1 ADD SWAP1 PUSH1 0x20 ADD DUP1 DUP4 GT PUSH2 0x867 JUMPI DUP3 SWAP1 SUB PUSH1 0x1F AND DUP3 ADD SWAP2 JUMPDEST POP POP POP POP POP DUP2 MSTORE POP POP DUP2 MSTORE PUSH1 0x20 ADD SWAP1 PUSH1 0x1 ADD SWAP1 PUSH2 0x73C JUMP JUMPDEST POP POP POP POP DUP2 MSTORE POP POP DUP3 DUP3 DUP2 MLOAD DUP2 LT PUSH2 0x8B7 JUMPI PUSH2 0x8B6 PUSH2 0x2F24 JUMP JUMPDEST JUMPDEST PUSH1 0x20 MUL PUSH1 0x20 ADD ADD DUP2 SWAP1 MSTORE POP DUP1 DUP1 PUSH2 0x8CD SWAP1 PUSH2 0x309C JUMP JUMPDEST SWAP2 POP POP PUSH2 0x3E5 JUMP JUMPDEST POP DUP1 PUSH1 0x4 DUP1 DUP1 SLOAD DUP1 PUSH1 0x20 MUL PUSH1 0x20 ADD PUSH1 0x40 MLOAD SWAP1 DUP2 ADD PUSH1 0x40 MSTORE DUP1 SWAP3 SWAP2 SWAP1 DUP2 DUP2 MSTORE PUSH1 0x20 ADD PUSH1 0x0 SWAP1 JUMPDEST DUP3 DUP3 LT ISZERO PUSH2 0x9A6 JUMPI DUP4 DUP3 SWAP1 PUSH1 0x0 MSTORE PUSH1 0x20 PUSH1 0x0 KECCAK256 ADD DUP1 SLOAD PUSH2 0x919 SWAP1 PUSH2 0x2F82 JUMP JUMPDEST DUP1 PUSH1 0x1F ADD PUSH1 0x20 DUP1 SWAP2 DIV MUL PUSH1 0x20 ADD PUSH1 0x40 MLOAD SWAP1 DUP2 ADD PUSH1 0x40 MSTORE DUP1 SWAP3 SWAP2 SWAP1 DUP2 DUP2 MSTORE PUSH1 0x20 ADD DUP3 DUP1 SLOAD PUSH2 0x945 SWAP1 PUSH2 0x2F82 JUMP JUMPDEST DUP1 ISZERO PUSH2 0x992 JUMPI DUP1 PUSH1 0x1F LT PUSH2 0x967 JUMPI PUSH2 0x100 DUP1 DUP4 SLOAD DIV MUL DUP4 MSTORE SWAP2 PUSH1 0x20 ADD SWAP2 PUSH2 0x992 JUMP JUMPDEST DUP3 ADD SWAP2 SWAP1 PUSH1 0x0 MSTORE PUSH1 0x20 PUSH1 0x0 KECCAK256 SWAP1 JUMPDEST DUP2 SLOAD DUP2 MSTORE SWAP1 PUSH1 0x1 ADD SWAP1 PUSH1 0x20 ADD DUP1 DUP4 GT PUSH2 0x975 JUMPI DUP3 SWAP1 SUB PUSH1 0x1F AND DUP3 ADD SWAP2 JUMPDEST POP POP POP POP POP DUP2 MSTORE PUSH1 0x20 ADD SWAP1 PUSH1 0x1 ADD SWAP1 PUSH2 0x8FA JUMP JUMPDEST POP POP POP POP SWAP1 POP SWAP4 POP SWAP4 POP POP POP SWAP1 SWAP2 JUMP JUMPDEST PUSH1 0x60 DUP1 PUSH1 0x2 DUP4 PUSH1 0x40 MLOAD PUSH2 0x9C9 SWAP2 SWAP1 PUSH2 0x3115 JUMP JUMPDEST SWAP1 DUP2 MSTORE PUSH1 0x20 ADD PUSH1 0x40 MLOAD DUP1 SWAP2 SUB SWAP1 KECCAK256 PUSH1 0x0 ADD PUSH1 0x2 DUP5 PUSH1 0x40 MLOAD PUSH2 0x9EA SWAP2 SWAP1 PUSH2 0x3115 JUMP JUMPDEST SWAP1 DUP2 MSTORE PUSH1 0x20 ADD PUSH1 0x40 MLOAD DUP1 SWAP2 SUB SWAP1 KECCAK256 PUSH1 0x2 ADD DUP2 DUP1 SLOAD PUSH2 0xA07 SWAP1 PUSH2 0x2F82 JUMP JUMPDEST DUP1 PUSH1 0x1F ADD PUSH1 0x20 DUP1 SWAP2 DIV MUL PUSH1 0x20 ADD PUSH1 0x40 MLOAD SWAP1 DUP2 ADD PUSH1 0x40 MSTORE DUP1 SWAP3 SWAP2 SWAP1 DUP2 DUP2 MSTORE PUSH1 0x20 ADD DUP3 DUP1 SLOAD PUSH2 0xA33 SWAP1 PUSH2 0x2F82 JUMP JUMPDEST DUP1 ISZERO PUSH2 0xA80 JUMPI DUP1 PUSH1 0x1F LT PUSH2 0xA55 JUMPI PUSH2 0x100 DUP1 DUP4 SLOAD DIV MUL DUP4 MSTORE SWAP2 PUSH1 0x20 ADD SWAP2 PUSH2 0xA80 JUMP JUMPDEST DUP3 ADD SWAP2 SWAP1 PUSH1 0x0 MSTORE PUSH1 0x20 PUSH1 0x0 KECCAK256 SWAP1 JUMPDEST DUP2 SLOAD DUP2 MSTORE SWAP1 PUSH1 0x1 ADD SWAP1 PUSH1 0x20 ADD DUP1 DUP4 GT PUSH2 0xA63 JUMPI DUP3 SWAP1 SUB PUSH1 0x1F AND DUP3 ADD SWAP2 JUMPDEST POP POP POP POP POP SWAP2 POP DUP1 DUP1 SLOAD PUSH2 0xA93 SWAP1 PUSH2 0x2F82 JUMP JUMPDEST DUP1 PUSH1 0x1F ADD PUSH1 0x20 DUP1 SWAP2 DIV MUL PUSH1 0x20 ADD PUSH1 0x40 MLOAD SWAP1 DUP2 ADD PUSH1 0x40 MSTORE DUP1 SWAP3 SWAP2 SWAP1 DUP2 DUP2 MSTORE PUSH1 0x20 ADD DUP3 DUP1 SLOAD PUSH2 0xABF SWAP1 PUSH2 0x2F82 JUMP JUMPDEST DUP1 ISZERO PUSH2 0xB0C JUMPI DUP1 PUSH1 0x1F LT PUSH2 0xAE1 JUMPI PUSH2 0x100 DUP1 DUP4 SLOAD DIV MUL DUP4 MSTORE SWAP2 PUSH1 0x20 ADD SWAP2 PUSH2 0xB0C JUMP JUMPDEST DUP3 ADD SWAP2 SWAP1 PUSH1 0x0 MSTORE PUSH1 0x20 PUSH1 0x0 KECCAK256 SWAP1 JUMPDEST DUP2 SLOAD DUP2 MSTORE SWAP1 PUSH1 0x1 ADD SWAP1 PUSH1 0x20 ADD DUP1 DUP4 GT PUSH2 0xAEF JUMPI DUP3 SWAP1 SUB PUSH1 0x1F AND DUP3 ADD SWAP2 JUMPDEST POP POP POP POP POP SWAP1 POP SWAP2 POP SWAP2 POP SWAP2 POP SWAP2 JUMP JUMPDEST PUSH1 0x0 DUP1 PUSH1 0x0 DUP9 PUSH1 0x40 MLOAD PUSH2 0xB2F SWAP2 SWAP1 PUSH2 0x3115 JUMP JUMPDEST SWAP1 DUP2 MSTORE PUSH1 0x20 ADD PUSH1 0x40 MLOAD DUP1 SWAP2 SUB SWAP1 KECCAK256 SWAP1 POP DUP7 DUP2 PUSH1 0x0 ADD SWAP1 DUP2 PUSH2 0xB50 SWAP2 SWAP1 PUSH2 0x32C3 JUMP JUMPDEST POP DUP6 DUP2 PUSH1 0x1 ADD SWAP1 DUP2 PUSH2 0xB62 SWAP2 SWAP1 PUSH2 0x32C3 JUMP JUMPDEST POP DUP5 DUP2 PUSH1 0x2 ADD SWAP1 DUP2 PUSH2 0xB74 SWAP2 SWAP1 PUSH2 0x32C3 JUMP JUMPDEST POP PUSH2 0xB7D PUSH2 0x224E JUMP JUMPDEST TIMESTAMP DUP2 PUSH1 0x0 ADD DUP2 DUP2 MSTORE POP POP PUSH1 0x40 MLOAD DUP1 PUSH1 0x40 ADD PUSH1 0x40 MSTORE DUP1 PUSH1 0xC DUP2 MSTORE PUSH1 0x20 ADD PUSH32 0x4D616E7566616374757265640000000000000000000000000000000000000000 DUP2 MSTORE POP DUP2 PUSH1 0x20 ADD DUP2 SWAP1 MSTORE POP DUP5 DUP5 PUSH1 0x40 MLOAD PUSH1 0x20 ADD PUSH2 0xBD8 SWAP3 SWAP2 SWAP1 PUSH2 0x342D JUMP JUMPDEST PUSH1 0x40 MLOAD PUSH1 0x20 DUP2 DUP4 SUB SUB DUP2 MSTORE SWAP1 PUSH1 0x40 MSTORE DUP2 PUSH1 0x40 ADD DUP2 SWAP1 MSTORE POP DUP2 PUSH1 0x6 ADD DUP2 SWAP1 DUP1 PUSH1 0x1 DUP2 SLOAD ADD DUP1 DUP3 SSTORE DUP1 SWAP2 POP POP PUSH1 0x1 SWAP1 SUB SWAP1 PUSH1 0x0 MSTORE PUSH1 0x20 PUSH1 0x0 KECCAK256 SWAP1 PUSH1 0x3 MUL ADD PUSH1 0x0 SWAP1 SWAP2 SWAP1 SWAP2 SWAP1 SWAP2 POP PUSH1 0x0 DUP3 ADD MLOAD DUP2 PUSH1 0x0 ADD SSTORE PUSH1 0x20 DUP3 ADD MLOAD DUP2 PUSH1 0x1 ADD SWAP1 DUP2 PUSH2 0xC3C SWAP2 SWAP1 PUSH2 0x32C3 JUMP JUMPDEST POP PUSH1 0x40 DUP3 ADD MLOAD DUP2 PUSH1 0x2 ADD SWAP1 DUP2 PUSH2 0xC52 SWAP2 SWAP1 PUSH2 0x32C3 JUMP JUMPDEST POP POP POP DUP2 PUSH1 0x0 DUP11 PUSH1 0x40 MLOAD PUSH2 0xC66 SWAP2 SWAP1 PUSH2 0x3115 JUMP JUMPDEST SWAP1 DUP2 MSTORE PUSH1 0x20 ADD PUSH1 0x40 MLOAD DUP1 SWAP2 SUB SWAP1 KECCAK256 PUSH1 0x0 DUP3 ADD DUP2 PUSH1 0x0 ADD SWAP1 DUP2 PUSH2 0xC88 SWAP2 SWAP1 PUSH2 0x347D JUMP JUMPDEST POP PUSH1 0x1 DUP3 ADD DUP2 PUSH1 0x1 ADD SWAP1 DUP2 PUSH2 0xC9D SWAP2 SWAP1 PUSH2 0x347D JUMP JUMPDEST POP PUSH1 0x2 DUP3 ADD DUP2 PUSH1 0x2 ADD SWAP1 DUP2 PUSH2 0xCB2 SWAP2 SWAP1 PUSH2 0x347D JUMP JUMPDEST POP PUSH1 0x3 DUP3 ADD DUP2 PUSH1 0x3 ADD SWAP1 DUP2 PUSH2 0xCC7 SWAP2 SWAP1 PUSH2 0x347D JUMP JUMPDEST POP PUSH1 0x4 DUP3 ADD DUP2 PUSH1 0x4 ADD SWAP1 DUP2 PUSH2 0xCDC SWAP2 SWAP1 PUSH2 0x347D JUMP JUMPDEST POP PUSH1 0x5 DUP3 ADD SLOAD DUP2 PUSH1 0x5 ADD SSTORE PUSH1 0x6 DUP3 ADD DUP2 PUSH1 0x6 ADD SWAP1 DUP1 SLOAD PUSH2 0xCFD SWAP3 SWAP2 SWAP1 PUSH2 0x226F JUMP JUMPDEST POP SWAP1 POP POP PUSH1 0x4 DUP10 SWAP1 DUP1 PUSH1 0x1 DUP2 SLOAD ADD DUP1 DUP3 SSTORE DUP1 SWAP2 POP POP PUSH1 0x1 SWAP1 SUB SWAP1 PUSH1 0x0 MSTORE PUSH1 0x20 PUSH1 0x0 KECCAK256 ADD PUSH1 0x0 SWAP1 SWAP2 SWAP1 SWAP2 SWAP1 SWAP2 POP SWAP1 DUP2 PUSH2 0xD35 SWAP2 SWAP1 PUSH2 0x32C3 JUMP JUMPDEST POP PUSH1 0x1 SWAP3 POP POP POP SWAP7 SWAP6 POP POP POP POP POP POP JUMP JUMPDEST PUSH1 0x0 PUSH2 0xD50 PUSH2 0x22FB JUMP JUMPDEST DUP4 DUP2 PUSH1 0x0 ADD DUP2 SWAP1 MSTORE POP DUP3 DUP2 PUSH1 0x40 ADD DUP2 SWAP1 MSTORE POP DUP1 PUSH1 0x2 DUP7 PUSH1 0x40 MLOAD PUSH2 0xD73 SWAP2 SWAP1 PUSH2 0x3115 JUMP JUMPDEST SWAP1 DUP2 MSTORE PUSH1 0x20 ADD PUSH1 0x40 MLOAD DUP1 SWAP2 SUB SWAP1 KECCAK256 PUSH1 0x0 DUP3 ADD MLOAD DUP2 PUSH1 0x0 ADD SWAP1 DUP2 PUSH2 0xD96 SWAP2 SWAP1 PUSH2 0x32C3 JUMP JUMPDEST POP PUSH1 0x20 DUP3 ADD MLOAD DUP2 PUSH1 0x1 ADD SWAP1 DUP2 PUSH2 0xDAC SWAP2 SWAP1 PUSH2 0x32C3 JUMP JUMPDEST POP PUSH1 0x40 DUP3 ADD MLOAD DUP2 PUSH1 0x2 ADD SWAP1 DUP2 PUSH2 0xDC2 SWAP2 SWAP1 PUSH2 0x32C3 JUMP JUMPDEST POP SWAP1 POP POP PUSH1 0x1 SWAP2 POP POP SWAP4 SWAP3 POP POP POP JUMP JUMPDEST PUSH1 0x60 DUP1 PUSH1 0x2 DUP4 PUSH1 0x40 MLOAD PUSH2 0xDE5 SWAP2 SWAP1 PUSH2 0x3115 JUMP JUMPDEST SWAP1 DUP2 MSTORE PUSH1 0x20 ADD PUSH1 0x40 MLOAD DUP1 SWAP2 SUB SWAP1 KECCAK256 PUSH1 0x0 ADD PUSH1 0x2 DUP5 PUSH1 0x40 MLOAD PUSH2 0xE06 SWAP2 SWAP1 PUSH2 0x3115 JUMP JUMPDEST SWAP1 DUP2 MSTORE PUSH1 0x20 ADD PUSH1 0x40 MLOAD DUP1 SWAP2 SUB SWAP1 KECCAK256 PUSH1 0x2 ADD DUP2 DUP1 SLOAD PUSH2 0xE23 SWAP1 PUSH2 0x2F82 JUMP JUMPDEST DUP1 PUSH1 0x1F ADD PUSH1 0x20 DUP1 SWAP2 DIV MUL PUSH1 0x20 ADD PUSH1 0x40 MLOAD SWAP1 DUP2 ADD PUSH1 0x40 MSTORE DUP1 SWAP3 SWAP2 SWAP1 DUP2 DUP2 MSTORE PUSH1 0x20 ADD DUP3 DUP1 SLOAD PUSH2 0xE4F SWAP1 PUSH2 0x2F82 JUMP JUMPDEST DUP1 ISZERO PUSH2 0xE9C JUMPI DUP1 PUSH1 0x1F LT PUSH2 0xE71 JUMPI PUSH2 0x100 DUP1 DUP4 SLOAD DIV MUL DUP4 MSTORE SWAP2 PUSH1 0x20 ADD SWAP2 PUSH2 0xE9C JUMP JUMPDEST DUP3 ADD SWAP2 SWAP1 PUSH1 0x0 MSTORE PUSH1 0x20 PUSH1 0x0 KECCAK256 SWAP1 JUMPDEST DUP2 SLOAD DUP2 MSTORE SWAP1 PUSH1 0x1 ADD SWAP1 PUSH1 0x20 ADD DUP1 DUP4 GT PUSH2 0xE7F JUMPI DUP3 SWAP1 SUB PUSH1 0x1F AND DUP3 ADD SWAP2 JUMPDEST POP POP POP POP POP SWAP2 POP DUP1 DUP1 SLOAD PUSH2 0xEAF SWAP1 PUSH2 0x2F82 JUMP JUMPDEST DUP1 PUSH1 0x1F ADD PUSH1 0x20 DUP1 SWAP2 DIV MUL PUSH1 0x20 ADD PUSH1 0x40 MLOAD SWAP1 DUP2 ADD PUSH1 0x40 MSTORE DUP1 SWAP3 SWAP2 SWAP1 DUP2 DUP2 MSTORE PUSH1 0x20 ADD DUP3 DUP1 SLOAD PUSH2 0xEDB SWAP1 PUSH2 0x2F82 JUMP JUMPDEST DUP1 ISZERO PUSH2 0xF28 JUMPI DUP1 PUSH1 0x1F LT PUSH2 0xEFD JUMPI PUSH2 0x100 DUP1 DUP4 SLOAD DIV MUL DUP4 MSTORE SWAP2 PUSH1 0x20 ADD SWAP2 PUSH2 0xF28 JUMP JUMPDEST DUP3 ADD SWAP2 SWAP1 PUSH1 0x0 MSTORE PUSH1 0x20 PUSH1 0x0 KECCAK256 SWAP1 JUMPDEST DUP2 SLOAD DUP2 MSTORE SWAP1 PUSH1 0x1 ADD SWAP1 PUSH1 0x20 ADD DUP1 DUP4 GT PUSH2 0xF0B JUMPI DUP3 SWAP1 SUB PUSH1 0x1F AND DUP3 ADD SWAP2 JUMPDEST POP POP POP POP POP SWAP1 POP SWAP2 POP SWAP2 POP SWAP2 POP SWAP2 JUMP JUMPDEST PUSH1 0x0 DUP1 PUSH1 0x0 DUP7 PUSH1 0x40 MLOAD PUSH2 0xF4B SWAP2 SWAP1 PUSH2 0x3115 JUMP JUMPDEST SWAP1 DUP2 MSTORE PUSH1 0x20 ADD PUSH1 0x40 MLOAD DUP1 SWAP2 SUB SWAP1 KECCAK256 SWAP1 POP PUSH2 0xFF1 DUP2 PUSH1 0x3 ADD DUP1 SLOAD PUSH2 0xF6D SWAP1 PUSH2 0x2F82 JUMP JUMPDEST DUP1 PUSH1 0x1F ADD PUSH1 0x20 DUP1 SWAP2 DIV MUL PUSH1 0x20 ADD PUSH1 0x40 MLOAD SWAP1 DUP2 ADD PUSH1 0x40 MSTORE DUP1 SWAP3 SWAP2 SWAP1 DUP2 DUP2 MSTORE PUSH1 0x20 ADD DUP3 DUP1 SLOAD PUSH2 0xF99 SWAP1 PUSH2 0x2F82 JUMP JUMPDEST DUP1 ISZERO PUSH2 0xFE6 JUMPI DUP1 PUSH1 0x1F LT PUSH2 0xFBB JUMPI PUSH2 0x100 DUP1 DUP4 SLOAD DIV MUL DUP4 MSTORE SWAP2 PUSH1 0x20 ADD SWAP2 PUSH2 0xFE6 JUMP JUMPDEST DUP3 ADD SWAP2 SWAP1 PUSH1 0x0 MSTORE PUSH1 0x20 PUSH1 0x0 KECCAK256 SWAP1 JUMPDEST DUP2 SLOAD DUP2 MSTORE SWAP1 PUSH1 0x1 ADD SWAP1 PUSH1 0x20 ADD DUP1 DUP4 GT PUSH2 0xFC9 JUMPI DUP3 SWAP1 SUB PUSH1 0x1F AND DUP3 ADD SWAP2 JUMPDEST POP POP POP POP POP DUP7 PUSH2 0x20D9 JUMP JUMPDEST ISZERO PUSH2 0x1231 JUMPI PUSH2 0x109B DUP2 PUSH1 0x4 ADD DUP1 SLOAD PUSH2 0x1008 SWAP1 PUSH2 0x2F82 JUMP JUMPDEST DUP1 PUSH1 0x1F ADD PUSH1 0x20 DUP1 SWAP2 DIV MUL PUSH1 0x20 ADD PUSH1 0x40 MLOAD SWAP1 DUP2 ADD PUSH1 0x40 MSTORE DUP1 SWAP3 SWAP2 SWAP1 DUP2 DUP2 MSTORE PUSH1 0x20 ADD DUP3 DUP1 SLOAD PUSH2 0x1034 SWAP1 PUSH2 0x2F82 JUMP JUMPDEST DUP1 ISZERO PUSH2 0x1081 JUMPI DUP1 PUSH1 0x1F LT PUSH2 0x1056 JUMPI PUSH2 0x100 DUP1 DUP4 SLOAD DIV MUL DUP4 MSTORE SWAP2 PUSH1 0x20 ADD SWAP2 PUSH2 0x1081 JUMP JUMPDEST DUP3 ADD SWAP2 SWAP1 PUSH1 0x0 MSTORE PUSH1 0x20 PUSH1 0x0 KECCAK256 SWAP1 JUMPDEST DUP2 SLOAD DUP2 MSTORE SWAP1 PUSH1 0x1 ADD SWAP1 PUSH1 0x20 ADD DUP1 DUP4 GT PUSH2 0x1064 JUMPI DUP3 SWAP1 SUB PUSH1 0x1F AND DUP3 ADD SWAP2 JUMPDEST POP POP POP POP POP PUSH1 0x40 MLOAD DUP1 PUSH1 0x20 ADD PUSH1 0x40 MSTORE DUP1 PUSH1 0x0 DUP2 MSTORE POP PUSH2 0x20D9 JUMP JUMPDEST ISZERO PUSH2 0x1230 JUMPI PUSH1 0x3 DUP5 PUSH1 0x40 MLOAD PUSH2 0x10B0 SWAP2 SWAP1 PUSH2 0x3115 JUMP JUMPDEST SWAP1 DUP2 MSTORE PUSH1 0x20 ADD PUSH1 0x40 MLOAD DUP1 SWAP2 SUB SWAP1 KECCAK256 PUSH1 0x5 ADD PUSH1 0x0 SWAP1 SLOAD SWAP1 PUSH2 0x100 EXP SWAP1 DIV PUSH1 0xFF AND ISZERO PUSH2 0x122F JUMPI DUP4 DUP2 PUSH1 0x4 ADD SWAP1 DUP2 PUSH2 0x10E5 SWAP2 SWAP1 PUSH2 0x32C3 JUMP JUMPDEST POP PUSH1 0x1 DUP2 PUSH1 0x5 ADD DUP2 SWAP1 SSTORE POP PUSH1 0x3 DUP5 PUSH1 0x40 MLOAD PUSH2 0x1100 SWAP2 SWAP1 PUSH2 0x3115 JUMP JUMPDEST SWAP1 DUP2 MSTORE PUSH1 0x20 ADD PUSH1 0x40 MLOAD DUP1 SWAP2 SUB SWAP1 KECCAK256 PUSH1 0x4 ADD DUP7 SWAP1 DUP1 PUSH1 0x1 DUP2 SLOAD ADD DUP1 DUP3 SSTORE DUP1 SWAP2 POP POP PUSH1 0x1 SWAP1 SUB SWAP1 PUSH1 0x0 MSTORE PUSH1 0x20 PUSH1 0x0 KECCAK256 ADD PUSH1 0x0 SWAP1 SWAP2 SWAP1 SWAP2 SWAP1 SWAP2 POP SWAP1 DUP2 PUSH2 0x1143 SWAP2 SWAP1 PUSH2 0x32C3 JUMP JUMPDEST POP PUSH2 0x114C PUSH2 0x224E JUMP JUMPDEST TIMESTAMP DUP2 PUSH1 0x0 ADD DUP2 DUP2 MSTORE POP POP PUSH1 0x40 MLOAD DUP1 PUSH1 0x40 ADD PUSH1 0x40 MSTORE DUP1 PUSH1 0x10 DUP2 MSTORE PUSH1 0x20 ADD PUSH32 0x536F6C6420746F20437573746F6D657200000000000000000000000000000000 DUP2 MSTORE POP DUP2 PUSH1 0x20 ADD DUP2 SWAP1 MSTORE POP DUP5 DUP5 PUSH1 0x40 MLOAD PUSH1 0x20 ADD PUSH2 0x11A7 SWAP3 SWAP2 SWAP1 PUSH2 0x35FD JUMP JUMPDEST PUSH1 0x40 MLOAD PUSH1 0x20 DUP2 DUP4 SUB SUB DUP2 MSTORE SWAP1 PUSH1 0x40 MSTORE DUP2 PUSH1 0x40 ADD DUP2 SWAP1 MSTORE POP DUP2 PUSH1 0x6 ADD DUP2 SWAP1 DUP1 PUSH1 0x1 DUP2 SLOAD ADD DUP1 DUP3 SSTORE DUP1 SWAP2 POP POP PUSH1 0x1 SWAP1 SUB SWAP1 PUSH1 0x0 MSTORE PUSH1 0x20 PUSH1 0x0 KECCAK256 SWAP1 PUSH1 0x3 MUL ADD PUSH1 0x0 SWAP1 SWAP2 SWAP1 SWAP2 SWAP1 SWAP2 POP PUSH1 0x0 DUP3 ADD MLOAD DUP2 PUSH1 0x0 ADD SSTORE PUSH1 0x20 DUP3 ADD MLOAD DUP2 PUSH1 0x1 ADD SWAP1 DUP2 PUSH2 0x120B SWAP2 SWAP1 PUSH2 0x32C3 JUMP JUMPDEST POP PUSH1 0x40 DUP3 ADD MLOAD DUP2 PUSH1 0x2 ADD SWAP1 DUP2 PUSH2 0x1221 SWAP2 SWAP1 PUSH2 0x32C3 JUMP JUMPDEST POP POP POP PUSH1 0x1 SWAP3 POP POP POP PUSH2 0x1237 JUMP JUMPDEST JUMPDEST JUMPDEST PUSH1 0x0 SWAP2 POP POP JUMPDEST SWAP5 SWAP4 POP POP POP POP JUMP JUMPDEST PUSH1 0x0 PUSH1 0x3 DUP6 PUSH1 0x40 MLOAD PUSH2 0x1251 SWAP2 SWAP1 PUSH2 0x3115 JUMP JUMPDEST SWAP1 DUP2 MSTORE PUSH1 0x20 ADD PUSH1 0x40 MLOAD DUP1 SWAP2 SUB SWAP1 KECCAK256 PUSH1 0x5 ADD PUSH1 0x0 SWAP1 SLOAD SWAP1 PUSH2 0x100 EXP SWAP1 DIV PUSH1 0xFF AND ISZERO PUSH2 0x127E JUMPI PUSH1 0x0 SWAP1 POP PUSH2 0x136F JUMP JUMPDEST PUSH2 0x1286 PUSH2 0x231C JUMP JUMPDEST DUP5 DUP2 PUSH1 0x0 ADD DUP2 SWAP1 MSTORE POP DUP4 DUP2 PUSH1 0x60 ADD DUP2 SWAP1 MSTORE POP DUP3 DUP2 PUSH1 0x40 ADD DUP2 SWAP1 MSTORE POP PUSH1 0x1 DUP2 PUSH1 0xA0 ADD SWAP1 ISZERO ISZERO SWAP1 DUP2 ISZERO ISZERO DUP2 MSTORE POP POP DUP1 PUSH1 0x3 DUP8 PUSH1 0x40 MLOAD PUSH2 0x12C3 SWAP2 SWAP1 PUSH2 0x3115 JUMP JUMPDEST SWAP1 DUP2 MSTORE PUSH1 0x20 ADD PUSH1 0x40 MLOAD DUP1 SWAP2 SUB SWAP1 KECCAK256 PUSH1 0x0 DUP3 ADD MLOAD DUP2 PUSH1 0x0 ADD SWAP1 DUP2 PUSH2 0x12E6 SWAP2 SWAP1 PUSH2 0x32C3 JUMP JUMPDEST POP PUSH1 0x20 DUP3 ADD MLOAD DUP2 PUSH1 0x1 ADD SWAP1 DUP2 PUSH2 0x12FC SWAP2 SWAP1 PUSH2 0x32C3 JUMP JUMPDEST POP PUSH1 0x40 DUP3 ADD MLOAD DUP2 PUSH1 0x2 ADD SWAP1 DUP2 PUSH2 0x1312 SWAP2 SWAP1 PUSH2 0x32C3 JUMP JUMPDEST POP PUSH1 0x60 DUP3 ADD MLOAD DUP2 PUSH1 0x3 ADD SWAP1 DUP2 PUSH2 0x1328 SWAP2 SWAP1 PUSH2 0x32C3 JUMP JUMPDEST POP PUSH1 0x80 DUP3 ADD MLOAD DUP2 PUSH1 0x4 ADD SWAP1 DUP1 MLOAD SWAP1 PUSH1 0x20 ADD SWAP1 PUSH2 0x1345 SWAP3 SWAP2 SWAP1 PUSH2 0x2354 JUMP JUMPDEST POP PUSH1 0xA0 DUP3 ADD MLOAD DUP2 PUSH1 0x5 ADD PUSH1 0x0 PUSH2 0x100 EXP DUP2 SLOAD DUP2 PUSH1 0xFF MUL NOT AND SWAP1 DUP4 ISZERO ISZERO MUL OR SWAP1 SSTORE POP SWAP1 POP POP PUSH1 0x1 SWAP2 POP POP JUMPDEST SWAP5 SWAP4 POP POP POP POP JUMP JUMPDEST PUSH1 0x0 PUSH2 0x1381 PUSH2 0x22FB JUMP JUMPDEST DUP4 DUP2 PUSH1 0x0 ADD DUP2 SWAP1 MSTORE POP DUP3 DUP2 PUSH1 0x40 ADD DUP2 SWAP1 MSTORE POP DUP1 PUSH1 0x2 DUP7 PUSH1 0x40 MLOAD PUSH2 0x13A4 SWAP2 SWAP1 PUSH2 0x3115 JUMP JUMPDEST SWAP1 DUP2 MSTORE PUSH1 0x20 ADD PUSH1 0x40 MLOAD DUP1 SWAP2 SUB SWAP1 KECCAK256 PUSH1 0x0 DUP3 ADD MLOAD DUP2 PUSH1 0x0 ADD SWAP1 DUP2 PUSH2 0x13C7 SWAP2 SWAP1 PUSH2 0x32C3 JUMP JUMPDEST POP PUSH1 0x20 DUP3 ADD MLOAD DUP2 PUSH1 0x1 ADD SWAP1 DUP2 PUSH2 0x13DD SWAP2 SWAP1 PUSH2 0x32C3 JUMP JUMPDEST POP PUSH1 0x40 DUP3 ADD MLOAD DUP2 PUSH1 0x2 ADD SWAP1 DUP2 PUSH2 0x13F3 SWAP2 SWAP1 PUSH2 0x32C3 JUMP JUMPDEST POP SWAP1 POP POP PUSH1 0x1 SWAP2 POP POP SWAP4 SWAP3 POP POP POP JUMP JUMPDEST PUSH1 0x60 DUP1 PUSH1 0x60 PUSH1 0x3 DUP5 PUSH1 0x40 MLOAD PUSH2 0x1418 SWAP2 SWAP1 PUSH2 0x3115 JUMP JUMPDEST SWAP1 DUP2 MSTORE PUSH1 0x20 ADD PUSH1 0x40 MLOAD DUP1 SWAP2 SUB SWAP1 KECCAK256 PUSH1 0x0 ADD PUSH1 0x3 DUP6 PUSH1 0x40 MLOAD PUSH2 0x1439 SWAP2 SWAP1 PUSH2 0x3115 JUMP JUMPDEST SWAP1 DUP2 MSTORE PUSH1 0x20 ADD PUSH1 0x40 MLOAD DUP1 SWAP2 SUB SWAP1 KECCAK256 PUSH1 0x2 ADD PUSH1 0x3 DUP7 PUSH1 0x40 MLOAD PUSH2 0x145A SWAP2 SWAP1 PUSH2 0x3115 JUMP JUMPDEST SWAP1 DUP2 MSTORE PUSH1 0x20 ADD PUSH1 0x40 MLOAD DUP1 SWAP2 SUB SWAP1 KECCAK256 PUSH1 0x3 ADD DUP3 DUP1 SLOAD PUSH2 0x1477 SWAP1 PUSH2 0x2F82 JUMP JUMPDEST DUP1 PUSH1 0x1F ADD PUSH1 0x20 DUP1 SWAP2 DIV MUL PUSH1 0x20 ADD PUSH1 0x40 MLOAD SWAP1 DUP2 ADD PUSH1 0x40 MSTORE DUP1 SWAP3 SWAP2 SWAP1 DUP2 DUP2 MSTORE PUSH1 0x20 ADD DUP3 DUP1 SLOAD PUSH2 0x14A3 SWAP1 PUSH2 0x2F82 JUMP JUMPDEST DUP1 ISZERO PUSH2 0x14F0 JUMPI DUP1 PUSH1 0x1F LT PUSH2 0x14C5 JUMPI PUSH2 0x100 DUP1 DUP4 SLOAD DIV MUL DUP4 MSTORE SWAP2 PUSH1 0x20 ADD SWAP2 PUSH2 0x14F0 JUMP JUMPDEST DUP3 ADD SWAP2 SWAP1 PUSH1 0x0 MSTORE PUSH1 0x20 PUSH1 0x0 KECCAK256 SWAP1 JUMPDEST DUP2 SLOAD DUP2 MSTORE SWAP1 PUSH1 0x1 ADD SWAP1 PUSH1 0x20 ADD DUP1 DUP4 GT PUSH2 0x14D3 JUMPI DUP3 SWAP1 SUB PUSH1 0x1F AND DUP3 ADD SWAP2 JUMPDEST POP POP POP POP POP SWAP3 POP DUP2 DUP1 SLOAD PUSH2 0x1503 SWAP1 PUSH2 0x2F82 JUMP JUMPDEST DUP1 PUSH1 0x1F ADD PUSH1 0x20 DUP1 SWAP2 DIV MUL PUSH1 0x20 ADD PUSH1 0x40 MLOAD SWAP1 DUP2 ADD PUSH1 0x40 MSTORE DUP1 SWAP3 SWAP2 SWAP1 DUP2 DUP2 MSTORE PUSH1 0x20 ADD DUP3 DUP1 SLOAD PUSH2 0x152F SWAP1 PUSH2 0x2F82 JUMP JUMPDEST DUP1 ISZERO PUSH2 0x157C JUMPI DUP1 PUSH1 0x1F LT PUSH2 0x1551 JUMPI PUSH2 0x100 DUP1 DUP4 SLOAD DIV MUL DUP4 MSTORE SWAP2 PUSH1 0x20 ADD SWAP2 PUSH2 0x157C JUMP JUMPDEST DUP3 ADD SWAP2 SWAP1 PUSH1 0x0 MSTORE PUSH1 0x20 PUSH1 0x0 KECCAK256 SWAP1 JUMPDEST DUP2 SLOAD DUP2 MSTORE SWAP1 PUSH1 0x1 ADD SWAP1 PUSH1 0x20 ADD DUP1 DUP4 GT PUSH2 0x155F JUMPI DUP3 SWAP1 SUB PUSH1 0x1F AND DUP3 ADD SWAP2 JUMPDEST POP POP POP POP POP SWAP2 POP DUP1 DUP1 SLOAD PUSH2 0x158F SWAP1 PUSH2 0x2F82 JUMP JUMPDEST DUP1 PUSH1 0x1F ADD PUSH1 0x20 DUP1 SWAP2 DIV MUL PUSH1 0x20 ADD PUSH1 0x40 MLOAD SWAP1 DUP2 ADD PUSH1 0x40 MSTORE DUP1 SWAP3 SWAP2 SWAP1 DUP2 DUP2 MSTORE PUSH1 0x20 ADD DUP3 DUP1 SLOAD PUSH2 0x15BB SWAP1 PUSH2 0x2F82 JUMP JUMPDEST DUP1 ISZERO PUSH2 0x1608 JUMPI DUP1 PUSH1 0x1F LT PUSH2 0x15DD JUMPI PUSH2 0x100 DUP1 DUP4 SLOAD DIV MUL DUP4 MSTORE SWAP2 PUSH1 0x20 ADD SWAP2 PUSH2 0x1608 JUMP JUMPDEST DUP3 ADD SWAP2 SWAP1 PUSH1 0x0 MSTORE PUSH1 0x20 PUSH1 0x0 KECCAK256 SWAP1 JUMPDEST DUP2 SLOAD DUP2 MSTORE SWAP1 PUSH1 0x1 ADD SWAP1 PUSH1 0x20 ADD DUP1 DUP4 GT PUSH2 0x15EB JUMPI DUP3 SWAP1 SUB PUSH1 0x1F AND DUP3 ADD SWAP2 JUMPDEST POP POP POP POP POP SWAP1 POP SWAP3 POP SWAP3 POP SWAP3 POP SWAP2 SWAP4 SWAP1 SWAP3 POP JUMP JUMPDEST PUSH1 0x60 PUSH1 0x3 DUP3 PUSH1 0x40 MLOAD PUSH2 0x162E SWAP2 SWAP1 PUSH2 0x3115 JUMP JUMPDEST SWAP1 DUP2 MSTORE PUSH1 0x20 ADD PUSH1 0x40 MLOAD DUP1 SWAP2 SUB SWAP1 KECCAK256 PUSH1 0x4 ADD DUP1 SLOAD DUP1 PUSH1 0x20 MUL PUSH1 0x20 ADD PUSH1 0x40 MLOAD SWAP1 DUP2 ADD PUSH1 0x40 MSTORE DUP1 SWAP3 SWAP2 SWAP1 DUP2 DUP2 MSTORE PUSH1 0x20 ADD PUSH1 0x0 SWAP1 JUMPDEST DUP3 DUP3 LT ISZERO PUSH2 0x170B JUMPI DUP4 DUP3 SWAP1 PUSH1 0x0 MSTORE PUSH1 0x20 PUSH1 0x0 KECCAK256 ADD DUP1 SLOAD PUSH2 0x167E SWAP1 PUSH2 0x2F82 JUMP JUMPDEST DUP1 PUSH1 0x1F ADD PUSH1 0x20 DUP1 SWAP2 DIV MUL PUSH1 0x20 ADD PUSH1 0x40 MLOAD SWAP1 DUP2 ADD PUSH1 0x40 MSTORE DUP1 SWAP3 SWAP2 SWAP1 DUP2 DUP2 MSTORE PUSH1 0x20 ADD DUP3 DUP1 SLOAD PUSH2 0x16AA SWAP1 PUSH2 0x2F82 JUMP JUMPDEST DUP1 ISZERO PUSH2 0x16F7 JUMPI DUP1 PUSH1 0x1F LT PUSH2 0x16CC JUMPI PUSH2 0x100 DUP1 DUP4 SLOAD DIV MUL DUP4 MSTORE SWAP2 PUSH1 0x20 ADD SWAP2 PUSH2 0x16F7 JUMP JUMPDEST DUP3 ADD SWAP2 SWAP1 PUSH1 0x0 MSTORE PUSH1 0x20 PUSH1 0x0 KECCAK256 SWAP1 JUMPDEST DUP2 SLOAD DUP2 MSTORE SWAP1 PUSH1 0x1 ADD SWAP1 PUSH1 0x20 ADD DUP1 DUP4 GT PUSH2 0x16DA JUMPI DUP3 SWAP1 SUB PUSH1 0x1F AND DUP3 ADD SWAP2 JUMPDEST POP POP POP POP POP DUP2 MSTORE PUSH1 0x20 ADD SWAP1 PUSH1 0x1 ADD SWAP1 PUSH2 0x165F JUMP JUMPDEST POP POP POP POP SWAP1 POP SWAP2 SWAP1 POP JUMP JUMPDEST PUSH1 0x0 DUP1 PUSH1 0x0 DUP7 PUSH1 0x40 MLOAD PUSH2 0x1729 SWAP2 SWAP1 PUSH2 0x3115 JUMP JUMPDEST SWAP1 DUP2 MSTORE PUSH1 0x20 ADD PUSH1 0x40 MLOAD DUP1 SWAP2 SUB SWAP1 KECCAK256 SWAP1 POP DUP5 DUP2 PUSH1 0x3 ADD SWAP1 DUP2 PUSH2 0x174A SWAP2 SWAP1 PUSH2 0x32C3 JUMP JUMPDEST POP PUSH2 0x1753 PUSH2 0x224E JUMP JUMPDEST TIMESTAMP DUP2 PUSH1 0x0 ADD DUP2 DUP2 MSTORE POP POP PUSH1 0x40 MLOAD DUP1 PUSH1 0x40 ADD PUSH1 0x40 MSTORE DUP1 PUSH1 0x11 DUP2 MSTORE PUSH1 0x20 ADD PUSH32 0x4D6F76656420746F2052657461696C6572000000000000000000000000000000 DUP2 MSTORE POP DUP2 PUSH1 0x20 ADD DUP2 SWAP1 MSTORE POP DUP5 DUP5 PUSH1 0x40 MLOAD PUSH1 0x20 ADD PUSH2 0x17AE SWAP3 SWAP2 SWAP1 PUSH2 0x36CF JUMP JUMPDEST PUSH1 0x40 MLOAD PUSH1 0x20 DUP2 DUP4 SUB SUB DUP2 MSTORE SWAP1 PUSH1 0x40 MSTORE DUP2 PUSH1 0x40 ADD DUP2 SWAP1 MSTORE POP DUP2 PUSH1 0x6 ADD DUP2 SWAP1 DUP1 PUSH1 0x1 DUP2 SLOAD ADD DUP1 DUP3 SSTORE DUP1 SWAP2 POP POP PUSH1 0x1 SWAP1 SUB SWAP1 PUSH1 0x0 MSTORE PUSH1 0x20 PUSH1 0x0 KECCAK256 SWAP1 PUSH1 0x3 MUL ADD PUSH1 0x0 SWAP1 SWAP2 SWAP1 SWAP2 SWAP1 SWAP2 POP PUSH1 0x0 DUP3 ADD MLOAD DUP2 PUSH1 0x0 ADD SSTORE PUSH1 0x20 DUP3 ADD MLOAD DUP2 PUSH1 0x1 ADD SWAP1 DUP2 PUSH2 0x1812 SWAP2 SWAP1 PUSH2 0x32C3 JUMP JUMPDEST POP PUSH1 0x40 DUP3 ADD MLOAD DUP2 PUSH1 0x2 ADD SWAP1 DUP2 PUSH2 0x1828 SWAP2 SWAP1 PUSH2 0x32C3 JUMP JUMPDEST POP POP POP PUSH1 0x1 SWAP3 POP POP POP SWAP5 SWAP4 POP POP POP POP JUMP JUMPDEST PUSH1 0x60 DUP1 PUSH1 0x60 DUP1 PUSH1 0x60 DUP1 PUSH1 0x0 DUP8 PUSH1 0x40 MLOAD PUSH2 0x1852 SWAP2 SWAP1 PUSH2 0x3115 JUMP JUMPDEST SWAP1 DUP2 MSTORE PUSH1 0x20 ADD PUSH1 0x40 MLOAD DUP1 SWAP2 SUB SWAP1 KECCAK256 PUSH1 0x0 ADD PUSH1 0x0 DUP9 PUSH1 0x40 MLOAD PUSH2 0x1873 SWAP2 SWAP1 PUSH2 0x3115 JUMP JUMPDEST SWAP1 DUP2 MSTORE PUSH1 0x20 ADD PUSH1 0x40 MLOAD DUP1 SWAP2 SUB SWAP1 KECCAK256 PUSH1 0x1 ADD PUSH1 0x0 DUP10 PUSH1 0x40 MLOAD PUSH2 0x1894 SWAP2 SWAP1 PUSH2 0x3115 JUMP JUMPDEST SWAP1 DUP2 MSTORE PUSH1 0x20 ADD PUSH1 0x40 MLOAD DUP1 SWAP2 SUB SWAP1 KECCAK256 PUSH1 0x2 ADD PUSH1 0x0 DUP11 PUSH1 0x40 MLOAD PUSH2 0x18B5 SWAP2 SWAP1 PUSH2 0x3115 JUMP JUMPDEST SWAP1 DUP2 MSTORE PUSH1 0x20 ADD PUSH1 0x40 MLOAD DUP1 SWAP2 SUB SWAP1 KECCAK256 PUSH1 0x3 ADD PUSH1 0x0 DUP12 PUSH1 0x40 MLOAD PUSH2 0x18D6 SWAP2 SWAP1 PUSH2 0x3115 JUMP JUMPDEST SWAP1 DUP2 MSTORE PUSH1 0x20 ADD PUSH1 0x40 MLOAD DUP1 SWAP2 SUB SWAP1 KECCAK256 PUSH1 0x4 ADD PUSH1 0x0 DUP13 PUSH1 0x40 MLOAD PUSH2 0x18F7 SWAP2 SWAP1 PUSH2 0x3115 JUMP JUMPDEST SWAP1 DUP2 MSTORE PUSH1 0x20 ADD PUSH1 0x40 MLOAD DUP1 SWAP2 SUB SWAP1 KECCAK256 PUSH1 0x6 ADD DUP6 DUP1 SLOAD PUSH2 0x1914 SWAP1 PUSH2 0x2F82 JUMP JUMPDEST DUP1 PUSH1 0x1F ADD PUSH1 0x20 DUP1 SWAP2 DIV MUL PUSH1 0x20 ADD PUSH1 0x40 MLOAD SWAP1 DUP2 ADD PUSH1 0x40 MSTORE DUP1 SWAP3 SWAP2 SWAP1 DUP2 DUP2 MSTORE PUSH1 0x20 ADD DUP3 DUP1 SLOAD PUSH2 0x1940 SWAP1 PUSH2 0x2F82 JUMP JUMPDEST DUP1 ISZERO PUSH2 0x198D JUMPI DUP1 PUSH1 0x1F LT PUSH2 0x1962 JUMPI PUSH2 0x100 DUP1 DUP4 SLOAD DIV MUL DUP4 MSTORE SWAP2 PUSH1 0x20 ADD SWAP2 PUSH2 0x198D JUMP JUMPDEST DUP3 ADD SWAP2 SWAP1 PUSH1 0x0 MSTORE PUSH1 0x20 PUSH1 0x0 KECCAK256 SWAP1 JUMPDEST DUP2 SLOAD DUP2 MSTORE SWAP1 PUSH1 0x1 ADD SWAP1 PUSH1 0x20 ADD DUP1 DUP4 GT PUSH2 0x1970 JUMPI DUP3 SWAP1 SUB PUSH1 0x1F AND DUP3 ADD SWAP2 JUMPDEST POP POP POP POP POP SWAP6 POP DUP5 DUP1 SLOAD PUSH2 0x19A0 SWAP1 PUSH2 0x2F82 JUMP JUMPDEST DUP1 PUSH1 0x1F ADD PUSH1 0x20 DUP1 SWAP2 DIV MUL PUSH1 0x20 ADD PUSH1 0x40 MLOAD SWAP1 DUP2 ADD PUSH1 0x40 MSTORE DUP1 SWAP3 SWAP2 SWAP1 DUP2 DUP2 MSTORE PUSH1 0x20 ADD DUP3 DUP1 SLOAD PUSH2 0x19CC SWAP1 PUSH2 0x2F82 JUMP JUMPDEST DUP1 ISZERO PUSH2 0x1A19 JUMPI DUP1 PUSH1 0x1F LT PUSH2 0x19EE JUMPI PUSH2 0x100 DUP1 DUP4 SLOAD DIV MUL DUP4 MSTORE SWAP2 PUSH1 0x20 ADD SWAP2 PUSH2 0x1A19 JUMP JUMPDEST DUP3 ADD SWAP2 SWAP1 PUSH1 0x0 MSTORE PUSH1 0x20 PUSH1 0x0 KECCAK256 SWAP1 JUMPDEST DUP2 SLOAD DUP2 MSTORE SWAP1 PUSH1 0x1 ADD SWAP1 PUSH1 0x20 ADD DUP1 DUP4 GT PUSH2 0x19FC JUMPI DUP3 SWAP1 SUB PUSH1 0x1F AND DUP3 ADD SWAP2 JUMPDEST POP POP POP POP POP SWAP5 POP DUP4 DUP1 SLOAD PUSH2 0x1A2C SWAP1 PUSH2 0x2F82 JUMP JUMPDEST DUP1 PUSH1 0x1F ADD PUSH1 0x20 DUP1 SWAP2 DIV MUL PUSH1 0x20 ADD PUSH1 0x40 MLOAD SWAP1 DUP2 ADD PUSH1 0x40 MSTORE DUP1 SWAP3 SWAP2 SWAP1 DUP2 DUP2 MSTORE PUSH1 0x20 ADD DUP3 DUP1 SLOAD PUSH2 0x1A58 SWAP1 PUSH2 0x2F82 JUMP JUMPDEST DUP1 ISZERO PUSH2 0x1AA5 JUMPI DUP1 PUSH1 0x1F LT PUSH2 0x1A7A JUMPI PUSH2 0x100 DUP1 DUP4 SLOAD DIV MUL DUP4 MSTORE SWAP2 PUSH1 0x20 ADD SWAP2 PUSH2 0x1AA5 JUMP JUMPDEST DUP3 ADD SWAP2 SWAP1 PUSH1 0x0 MSTORE PUSH1 0x20 PUSH1 0x0 KECCAK256 SWAP1 JUMPDEST DUP2 SLOAD DUP2 MSTORE SWAP1 PUSH1 0x1 ADD SWAP1 PUSH1 0x20 ADD DUP1 DUP4 GT PUSH2 0x1A88 JUMPI DUP3 SWAP1 SUB PUSH1 0x1F AND DUP3 ADD SWAP2 JUMPDEST POP POP POP POP POP SWAP4 POP DUP3 DUP1 SLOAD PUSH2 0x1AB8 SWAP1 PUSH2 0x2F82 JUMP JUMPDEST DUP1 PUSH1 0x1F ADD PUSH1 0x20 DUP1 SWAP2 DIV MUL PUSH1 0x20 ADD PUSH1 0x40 MLOAD SWAP1 DUP2 ADD PUSH1 0x40 MSTORE DUP1 SWAP3 SWAP2 SWAP1 DUP2 DUP2 MSTORE PUSH1 0x20 ADD DUP3 DUP1 SLOAD PUSH2 0x1AE4 SWAP1 PUSH2 0x2F82 JUMP JUMPDEST DUP1 ISZERO PUSH2 0x1B31 JUMPI DUP1 PUSH1 0x1F LT PUSH2 0x1B06 JUMPI PUSH2 0x100 DUP1 DUP4 SLOAD DIV MUL DUP4 MSTORE SWAP2 PUSH1 0x20 ADD SWAP2 PUSH2 0x1B31 JUMP JUMPDEST DUP3 ADD SWAP2 SWAP1 PUSH1 0x0 MSTORE PUSH1 0x20 PUSH1 0x0 KECCAK256 SWAP1 JUMPDEST DUP2 SLOAD DUP2 MSTORE SWAP1 PUSH1 0x1 ADD SWAP1 PUSH1 0x20 ADD DUP1 DUP4 GT PUSH2 0x1B14 JUMPI DUP3 SWAP1 SUB PUSH1 0x1F AND DUP3 ADD SWAP2 JUMPDEST POP POP POP POP POP SWAP3 POP DUP2 DUP1 SLOAD PUSH2 0x1B44 SWAP1 PUSH2 0x2F82 JUMP JUMPDEST DUP1 PUSH1 0x1F ADD PUSH1 0x20 DUP1 SWAP2 DIV MUL PUSH1 0x20 ADD PUSH1 0x40 MLOAD SWAP1 DUP2 ADD PUSH1 0x40 MSTORE DUP1 SWAP3 SWAP2 SWAP1 DUP2 DUP2 MSTORE PUSH1 0x20 ADD DUP3 DUP1 SLOAD PUSH2 0x1B70 SWAP1 PUSH2 0x2F82 JUMP JUMPDEST DUP1 ISZERO PUSH2 0x1BBD JUMPI DUP1 PUSH1 0x1F LT PUSH2 0x1B92 JUMPI PUSH2 0x100 DUP1 DUP4 SLOAD DIV MUL DUP4 MSTORE SWAP2 PUSH1 0x20 ADD SWAP2 PUSH2 0x1BBD JUMP JUMPDEST DUP3 ADD SWAP2 SWAP1 PUSH1 0x0 MSTORE PUSH1 0x20 PUSH1 0x0 KECCAK256 SWAP1 JUMPDEST DUP2 SLOAD DUP2 MSTORE SWAP1 PUSH1 0x1 ADD SWAP1 PUSH1 0x20 ADD DUP1 DUP4 GT PUSH2 0x1BA0 JUMPI DUP3 SWAP1 SUB PUSH1 0x1F AND DUP3 ADD SWAP2 JUMPDEST POP POP POP POP POP SWAP2 POP DUP1 DUP1 SLOAD DUP1 PUSH1 0x20 MUL PUSH1 0x20 ADD PUSH1 0x40 MLOAD SWAP1 DUP2 ADD PUSH1 0x40 MSTORE DUP1 SWAP3 SWAP2 SWAP1 DUP2 DUP2 MSTORE PUSH1 0x20 ADD PUSH1 0x0 SWAP1 JUMPDEST DUP3 DUP3 LT ISZERO PUSH2 0x1D45 JUMPI DUP4 DUP3 SWAP1 PUSH1 0x0 MSTORE PUSH1 0x20 PUSH1 0x0 KECCAK256 SWAP1 PUSH1 0x3 MUL ADD PUSH1 0x40 MLOAD DUP1 PUSH1 0x60 ADD PUSH1 0x40 MSTORE SWAP1 DUP2 PUSH1 0x0 DUP3 ADD SLOAD DUP2 MSTORE PUSH1 0x20 ADD PUSH1 0x1 DUP3 ADD DUP1 SLOAD PUSH2 0x1C22 SWAP1 PUSH2 0x2F82 JUMP JUMPDEST DUP1 PUSH1 0x1F ADD PUSH1 0x20 DUP1 SWAP2 DIV MUL PUSH1 0x20 ADD PUSH1 0x40 MLOAD SWAP1 DUP2 ADD PUSH1 0x40 MSTORE DUP1 SWAP3 SWAP2 SWAP1 DUP2 DUP2 MSTORE PUSH1 0x20 ADD DUP3 DUP1 SLOAD PUSH2 0x1C4E SWAP1 PUSH2 0x2F82 JUMP JUMPDEST DUP1 ISZERO PUSH2 0x1C9B JUMPI DUP1 PUSH1 0x1F LT PUSH2 0x1C70 JUMPI PUSH2 0x100 DUP1 DUP4 SLOAD DIV MUL DUP4 MSTORE SWAP2 PUSH1 0x20 ADD SWAP2 PUSH2 0x1C9B JUMP JUMPDEST DUP3 ADD SWAP2 SWAP1 PUSH1 0x0 MSTORE PUSH1 0x20 PUSH1 0x0 KECCAK256 SWAP1 JUMPDEST DUP2 SLOAD DUP2 MSTORE SWAP1 PUSH1 0x1 ADD SWAP1 PUSH1 0x20 ADD DUP1 DUP4 GT PUSH2 0x1C7E JUMPI DUP3 SWAP1 SUB PUSH1 0x1F AND DUP3 ADD SWAP2 JUMPDEST POP POP POP POP POP DUP2 MSTORE PUSH1 0x20 ADD PUSH1 0x2 DUP3 ADD DUP1 SLOAD PUSH2 0x1CB4 SWAP1 PUSH2 0x2F82 JUMP JUMPDEST DUP1 PUSH1 0x1F ADD PUSH1 0x20 DUP1 SWAP2 DIV MUL PUSH1 0x20 ADD PUSH1 0x40 MLOAD SWAP1 DUP2 ADD PUSH1 0x40 MSTORE DUP1 SWAP3 SWAP2 SWAP1 DUP2 DUP2 MSTORE PUSH1 0x20 ADD DUP3 DUP1 SLOAD PUSH2 0x1CE0 SWAP1 PUSH2 0x2F82 JUMP JUMPDEST DUP1 ISZERO PUSH2 0x1D2D JUMPI DUP1 PUSH1 0x1F LT PUSH2 0x1D02 JUMPI PUSH2 0x100 DUP1 DUP4 SLOAD DIV MUL DUP4 MSTORE SWAP2 PUSH1 0x20 ADD SWAP2 PUSH2 0x1D2D JUMP JUMPDEST DUP3 ADD SWAP2 SWAP1 PUSH1 0x0 MSTORE PUSH1 0x20 PUSH1 0x0 KECCAK256 SWAP1 JUMPDEST DUP2 SLOAD DUP2 MSTORE SWAP1 PUSH1 0x1 ADD SWAP1 PUSH1 0x20 ADD DUP1 DUP4 GT PUSH2 0x1D10 JUMPI DUP3 SWAP1 SUB PUSH1 0x1F AND DUP3 ADD SWAP2 JUMPDEST POP POP POP POP POP DUP2 MSTORE POP POP DUP2 MSTORE PUSH1 0x20 ADD SWAP1 PUSH1 0x1 ADD SWAP1 PUSH2 0x1BE5 JUMP JUMPDEST POP POP POP POP SWAP1 POP SWAP6 POP SWAP6 POP SWAP6 POP SWAP6 POP SWAP6 POP SWAP6 POP SWAP2 SWAP4 SWAP6 POP SWAP2 SWAP4 SWAP6 JUMP JUMPDEST PUSH1 0x0 DUP1 PUSH1 0x0 DUP7 PUSH1 0x40 MLOAD PUSH2 0x1D73 SWAP2 SWAP1 PUSH2 0x3115 JUMP JUMPDEST SWAP1 DUP2 MSTORE PUSH1 0x20 ADD PUSH1 0x40 MLOAD DUP1 SWAP2 SUB SWAP1 KECCAK256 SWAP1 POP PUSH1 0x0 PUSH1 0x3 DUP7 PUSH1 0x40 MLOAD PUSH2 0x1D95 SWAP2 SWAP1 PUSH2 0x3115 JUMP JUMPDEST SWAP1 DUP2 MSTORE PUSH1 0x20 ADD PUSH1 0x40 MLOAD DUP1 SWAP2 SUB SWAP1 KECCAK256 SWAP1 POP PUSH1 0x0 PUSH1 0x3 DUP7 PUSH1 0x40 MLOAD PUSH2 0x1DB7 SWAP2 SWAP1 PUSH2 0x3115 JUMP JUMPDEST SWAP1 DUP2 MSTORE PUSH1 0x20 ADD PUSH1 0x40 MLOAD DUP1 SWAP2 SUB SWAP1 KECCAK256 SWAP1 POP PUSH1 0x1 DUP4 PUSH1 0x5 ADD SLOAD EQ DUP1 ISZERO PUSH2 0x1DE9 JUMPI POP DUP2 PUSH1 0x5 ADD PUSH1 0x0 SWAP1 SLOAD SWAP1 PUSH2 0x100 EXP SWAP1 DIV PUSH1 0xFF AND JUMPDEST DUP1 ISZERO PUSH2 0x1E03 JUMPI POP DUP1 PUSH1 0x5 ADD PUSH1 0x0 SWAP1 SLOAD SWAP1 PUSH2 0x100 EXP SWAP1 DIV PUSH1 0xFF AND JUMPDEST ISZERO PUSH2 0x20C9 JUMPI PUSH1 0x0 JUMPDEST DUP3 PUSH1 0x4 ADD DUP1 SLOAD SWAP1 POP DUP2 LT ISZERO PUSH2 0x20C7 JUMPI PUSH2 0x1ECC DUP4 PUSH1 0x4 ADD DUP3 DUP2 SLOAD DUP2 LT PUSH2 0x1E33 JUMPI PUSH2 0x1E32 PUSH2 0x2F24 JUMP JUMPDEST JUMPDEST SWAP1 PUSH1 0x0 MSTORE PUSH1 0x20 PUSH1 0x0 KECCAK256 ADD DUP1 SLOAD PUSH2 0x1E48 SWAP1 PUSH2 0x2F82 JUMP JUMPDEST DUP1 PUSH1 0x1F ADD PUSH1 0x20 DUP1 SWAP2 DIV MUL PUSH1 0x20 ADD PUSH1 0x40 MLOAD SWAP1 DUP2 ADD PUSH1 0x40 MSTORE DUP1 SWAP3 SWAP2 SWAP1 DUP2 DUP2 MSTORE PUSH1 0x20 ADD DUP3 DUP1 SLOAD PUSH2 0x1E74 SWAP1 PUSH2 0x2F82 JUMP JUMPDEST DUP1 ISZERO PUSH2 0x1EC1 JUMPI DUP1 PUSH1 0x1F LT PUSH2 0x1E96 JUMPI PUSH2 0x100 DUP1 DUP4 SLOAD DIV MUL DUP4 MSTORE SWAP2 PUSH1 0x20 ADD SWAP2 PUSH2 0x1EC1 JUMP JUMPDEST DUP3 ADD SWAP2 SWAP1 PUSH1 0x0 MSTORE PUSH1 0x20 PUSH1 0x0 KECCAK256 SWAP1 JUMPDEST DUP2 SLOAD DUP2 MSTORE SWAP1 PUSH1 0x1 ADD SWAP1 PUSH1 0x20 ADD DUP1 DUP4 GT PUSH2 0x1EA4 JUMPI DUP3 SWAP1 SUB PUSH1 0x1F AND DUP3 ADD SWAP2 JUMPDEST POP POP POP POP POP DUP11 PUSH2 0x20D9 JUMP JUMPDEST ISZERO PUSH2 0x20B4 JUMPI PUSH2 0x1F67 DUP5 PUSH1 0x4 ADD DUP1 SLOAD PUSH2 0x1EE3 SWAP1 PUSH2 0x2F82 JUMP JUMPDEST DUP1 PUSH1 0x1F ADD PUSH1 0x20 DUP1 SWAP2 DIV MUL PUSH1 0x20 ADD PUSH1 0x40 MLOAD SWAP1 DUP2 ADD PUSH1 0x40 MSTORE DUP1 SWAP3 SWAP2 SWAP1 DUP2 DUP2 MSTORE PUSH1 0x20 ADD DUP3 DUP1 SLOAD PUSH2 0x1F0F SWAP1 PUSH2 0x2F82 JUMP JUMPDEST DUP1 ISZERO PUSH2 0x1F5C JUMPI DUP1 PUSH1 0x1F LT PUSH2 0x1F31 JUMPI PUSH2 0x100 DUP1 DUP4 SLOAD DIV MUL DUP4 MSTORE SWAP2 PUSH1 0x20 ADD SWAP2 PUSH2 0x1F5C JUMP JUMPDEST DUP3 ADD SWAP2 SWAP1 PUSH1 0x0 MSTORE PUSH1 0x20 PUSH1 0x0 KECCAK256 SWAP1 JUMPDEST DUP2 SLOAD DUP2 MSTORE SWAP1 PUSH1 0x1 ADD SWAP1 PUSH1 0x20 ADD DUP1 DUP4 GT PUSH2 0x1F3F JUMPI DUP3 SWAP1 SUB PUSH1 0x1F AND DUP3 ADD SWAP2 JUMPDEST POP POP POP POP POP DUP10 PUSH2 0x20D9 JUMP JUMPDEST ISZERO PUSH2 0x1F7F JUMPI DUP7 DUP5 PUSH1 0x4 ADD SWAP1 DUP2 PUSH2 0x1F7D SWAP2 SWAP1 PUSH2 0x32C3 JUMP JUMPDEST POP JUMPDEST PUSH2 0x1F87 PUSH2 0x224E JUMP JUMPDEST TIMESTAMP DUP2 PUSH1 0x0 ADD DUP2 DUP2 MSTORE POP POP PUSH1 0x40 MLOAD DUP1 PUSH1 0x40 ADD PUSH1 0x40 MSTORE DUP1 PUSH1 0x10 DUP2 MSTORE PUSH1 0x20 ADD PUSH32 0x4368616E67656420437573746F6D657200000000000000000000000000000000 DUP2 MSTORE POP DUP2 PUSH1 0x20 ADD DUP2 SWAP1 MSTORE POP DUP9 DUP9 DUP9 PUSH1 0x40 MLOAD PUSH1 0x20 ADD PUSH2 0x1FE4 SWAP4 SWAP3 SWAP2 SWAP1 PUSH2 0x37ED JUMP JUMPDEST PUSH1 0x40 MLOAD PUSH1 0x20 DUP2 DUP4 SUB SUB DUP2 MSTORE SWAP1 PUSH1 0x40 MSTORE DUP2 PUSH1 0x40 ADD DUP2 SWAP1 MSTORE POP DUP5 PUSH1 0x6 ADD DUP2 SWAP1 DUP1 PUSH1 0x1 DUP2 SLOAD ADD DUP1 DUP3 SSTORE DUP1 SWAP2 POP POP PUSH1 0x1 SWAP1 SUB SWAP1 PUSH1 0x0 MSTORE PUSH1 0x20 PUSH1 0x0 KECCAK256 SWAP1 PUSH1 0x3 MUL ADD PUSH1 0x0 SWAP1 SWAP2 SWAP1 SWAP2 SWAP1 SWAP2 POP PUSH1 0x0 DUP3 ADD MLOAD DUP2 PUSH1 0x0 ADD SSTORE PUSH1 0x20 DUP3 ADD MLOAD DUP2 PUSH1 0x1 ADD SWAP1 DUP2 PUSH2 0x2048 SWAP2 SWAP1 PUSH2 0x32C3 JUMP JUMPDEST POP PUSH1 0x40 DUP3 ADD MLOAD DUP2 PUSH1 0x2 ADD SWAP1 DUP2 PUSH2 0x205E SWAP2 SWAP1 PUSH2 0x32C3 JUMP JUMPDEST POP POP POP PUSH2 0x206E DUP3 DUP6 PUSH1 0x4 ADD PUSH2 0x2132 JUMP JUMPDEST POP DUP3 PUSH1 0x4 ADD DUP11 SWAP1 DUP1 PUSH1 0x1 DUP2 SLOAD ADD DUP1 DUP3 SSTORE DUP1 SWAP2 POP POP PUSH1 0x1 SWAP1 SUB SWAP1 PUSH1 0x0 MSTORE PUSH1 0x20 PUSH1 0x0 KECCAK256 ADD PUSH1 0x0 SWAP1 SWAP2 SWAP1 SWAP2 SWAP1 SWAP2 POP SWAP1 DUP2 PUSH2 0x20A5 SWAP2 SWAP1 PUSH2 0x32C3 JUMP JUMPDEST POP PUSH1 0x1 SWAP6 POP POP POP POP POP POP PUSH2 0x20D1 JUMP JUMPDEST DUP1 DUP1 PUSH2 0x20BF SWAP1 PUSH2 0x309C JUMP JUMPDEST SWAP2 POP POP PUSH2 0x1E0B JUMP JUMPDEST POP JUMPDEST PUSH1 0x0 SWAP4 POP POP POP POP JUMPDEST SWAP5 SWAP4 POP POP POP POP JUMP JUMPDEST PUSH1 0x0 DUP2 PUSH1 0x40 MLOAD PUSH1 0x20 ADD PUSH2 0x20EC SWAP2 SWAP1 PUSH2 0x3115 JUMP JUMPDEST PUSH1 0x40 MLOAD PUSH1 0x20 DUP2 DUP4 SUB SUB DUP2 MSTORE SWAP1 PUSH1 0x40 MSTORE DUP1 MLOAD SWAP1 PUSH1 0x20 ADD KECCAK256 DUP4 PUSH1 0x40 MLOAD PUSH1 0x20 ADD PUSH2 0x2113 SWAP2 SWAP1 PUSH2 0x3115 JUMP JUMPDEST PUSH1 0x40 MLOAD PUSH1 0x20 DUP2 DUP4 SUB SUB DUP2 MSTORE SWAP1 PUSH1 0x40 MSTORE DUP1 MLOAD SWAP1 PUSH1 0x20 ADD KECCAK256 EQ SWAP1 POP SWAP3 SWAP2 POP POP JUMP JUMPDEST PUSH1 0x0 DUP2 DUP1 SLOAD SWAP1 POP DUP4 LT PUSH2 0x2148 JUMPI PUSH1 0x0 SWAP1 POP PUSH2 0x220B JUMP JUMPDEST PUSH1 0x0 DUP4 SWAP1 POP JUMPDEST PUSH1 0x1 DUP4 DUP1 SLOAD SWAP1 POP PUSH2 0x215F SWAP2 SWAP1 PUSH2 0x383F JUMP JUMPDEST DUP2 LT ISZERO PUSH2 0x21CC JUMPI DUP3 PUSH1 0x1 DUP3 PUSH2 0x2174 SWAP2 SWAP1 PUSH2 0x3873 JUMP JUMPDEST DUP2 SLOAD DUP2 LT PUSH2 0x2185 JUMPI PUSH2 0x2184 PUSH2 0x2F24 JUMP JUMPDEST JUMPDEST SWAP1 PUSH1 0x0 MSTORE PUSH1 0x20 PUSH1 0x0 KECCAK256 ADD DUP4 DUP3 DUP2 SLOAD DUP2 LT PUSH2 0x21A2 JUMPI PUSH2 0x21A1 PUSH2 0x2F24 JUMP JUMPDEST JUMPDEST SWAP1 PUSH1 0x0 MSTORE PUSH1 0x20 PUSH1 0x0 KECCAK256 ADD SWAP1 DUP2 PUSH2 0x21B8 SWAP2 SWAP1 PUSH2 0x38D2 JUMP JUMPDEST POP DUP1 DUP1 PUSH2 0x21C4 SWAP1 PUSH2 0x309C JUMP JUMPDEST SWAP2 POP POP PUSH2 0x214E JUMP JUMPDEST POP DUP2 PUSH1 0x1 DUP4 DUP1 SLOAD SWAP1 POP PUSH2 0x21DF SWAP2 SWAP1 PUSH2 0x383F JUMP JUMPDEST DUP2 SLOAD DUP2 LT PUSH2 0x21F0 JUMPI PUSH2 0x21EF PUSH2 0x2F24 JUMP JUMPDEST JUMPDEST SWAP1 PUSH1 0x0 MSTORE PUSH1 0x20 PUSH1 0x0 KECCAK256 ADD PUSH1 0x0 PUSH2 0x2206 SWAP2 SWAP1 PUSH2 0x23AD JUMP JUMPDEST PUSH1 0x1 SWAP1 POP JUMPDEST SWAP3 SWAP2 POP POP JUMP JUMPDEST PUSH1 0x40 MLOAD DUP1 PUSH1 0xE0 ADD PUSH1 0x40 MSTORE DUP1 PUSH1 0x60 DUP2 MSTORE PUSH1 0x20 ADD PUSH1 0x60 DUP2 MSTORE PUSH1 0x20 ADD PUSH1 0x60 DUP2 MSTORE PUSH1 0x20 ADD PUSH1 0x60 DUP2 MSTORE PUSH1 0x20 ADD PUSH1 0x60 DUP2 MSTORE PUSH1 0x20 ADD PUSH1 0x0 DUP2 MSTORE PUSH1 0x20 ADD PUSH1 0x60 DUP2 MSTORE POP SWAP1 JUMP JUMPDEST PUSH1 0x40 MLOAD DUP1 PUSH1 0x60 ADD PUSH1 0x40 MSTORE DUP1 PUSH1 0x0 DUP2 MSTORE PUSH1 0x20 ADD PUSH1 0x60 DUP2 MSTORE PUSH1 0x20 ADD PUSH1 0x60 DUP2 MSTORE POP SWAP1 JUMP JUMPDEST DUP3 DUP1 SLOAD DUP3 DUP3 SSTORE SWAP1 PUSH1 0x0 MSTORE PUSH1 0x20 PUSH1 0x0 KECCAK256 SWAP1 PUSH1 0x3 MUL DUP2 ADD SWAP3 DUP3 ISZERO PUSH2 0x22EA JUMPI PUSH1 0x0 MSTORE PUSH1 0x20 PUSH1 0x0 KECCAK256 SWAP2 PUSH1 0x3 MUL DUP3 ADD JUMPDEST DUP3 DUP2 GT ISZERO PUSH2 0x22E9 JUMPI DUP3 DUP3 PUSH1 0x0 DUP3 ADD SLOAD DUP2 PUSH1 0x0 ADD SSTORE PUSH1 0x1 DUP3 ADD DUP2 PUSH1 0x1 ADD SWAP1 DUP2 PUSH2 0x22C2 SWAP2 SWAP1 PUSH2 0x347D JUMP JUMPDEST POP PUSH1 0x2 DUP3 ADD DUP2 PUSH1 0x2 ADD SWAP1 DUP2 PUSH2 0x22D7 SWAP2 SWAP1 PUSH2 0x347D JUMP JUMPDEST POP POP POP SWAP2 PUSH1 0x3 ADD SWAP2 SWAP1 PUSH1 0x3 ADD SWAP1 PUSH2 0x229A JUMP JUMPDEST JUMPDEST POP SWAP1 POP PUSH2 0x22F7 SWAP2 SWAP1 PUSH2 0x23ED JUMP JUMPDEST POP SWAP1 JUMP JUMPDEST PUSH1 0x40 MLOAD DUP1 PUSH1 0x60 ADD PUSH1 0x40 MSTORE DUP1 PUSH1 0x60 DUP2 MSTORE PUSH1 0x20 ADD PUSH1 0x60 DUP2 MSTORE PUSH1 0x20 ADD PUSH1 0x60 DUP2 MSTORE POP SWAP1 JUMP JUMPDEST PUSH1 0x40 MLOAD DUP1 PUSH1 0xC0 ADD PUSH1 0x40 MSTORE DUP1 PUSH1 0x60 DUP2 MSTORE PUSH1 0x20 ADD PUSH1 0x60 DUP2 MSTORE PUSH1 0x20 ADD PUSH1 0x60 DUP2 MSTORE PUSH1 0x20 ADD PUSH1 0x60 DUP2 MSTORE PUSH1 0x20 ADD PUSH1 0x60 DUP2 MSTORE PUSH1 0x20 ADD PUSH1 0x0 ISZERO ISZERO DUP2 MSTORE POP SWAP1 JUMP JUMPDEST DUP3 DUP1 SLOAD DUP3 DUP3 SSTORE SWAP1 PUSH1 0x0 MSTORE PUSH1 0x20 PUSH1 0x0 KECCAK256 SWAP1 DUP2 ADD SWAP3 DUP3 ISZERO PUSH2 0x239C JUMPI SWAP2 PUSH1 0x20 MUL DUP3 ADD JUMPDEST DUP3 DUP2 GT ISZERO PUSH2 0x239B JUMPI DUP3 MLOAD DUP3 SWAP1 DUP2 PUSH2 0x238B SWAP2 SWAP1 PUSH2 0x32C3 JUMP JUMPDEST POP SWAP2 PUSH1 0x20 ADD SWAP2 SWAP1 PUSH1 0x1 ADD SWAP1 PUSH2 0x2374 JUMP JUMPDEST JUMPDEST POP SWAP1 POP PUSH2 0x23A9 SWAP2 SWAP1 PUSH2 0x242C JUMP JUMPDEST POP SWAP1 JUMP JUMPDEST POP DUP1 SLOAD PUSH2 0x23B9 SWAP1 PUSH2 0x2F82 JUMP JUMPDEST PUSH1 0x0 DUP3 SSTORE DUP1 PUSH1 0x1F LT PUSH2 0x23CB JUMPI POP PUSH2 0x23EA JUMP JUMPDEST PUSH1 0x1F ADD PUSH1 0x20 SWAP1 DIV SWAP1 PUSH1 0x0 MSTORE PUSH1 0x20 PUSH1 0x0 KECCAK256 SWAP1 DUP2 ADD SWAP1 PUSH2 0x23E9 SWAP2 SWAP1 PUSH2 0x2450 JUMP JUMPDEST JUMPDEST POP JUMP JUMPDEST JUMPDEST DUP1 DUP3 GT ISZERO PUSH2 0x2428 JUMPI PUSH1 0x0 DUP1 DUP3 ADD PUSH1 0x0 SWAP1 SSTORE PUSH1 0x1 DUP3 ADD PUSH1 0x0 PUSH2 0x240F SWAP2 SWAP1 PUSH2 0x23AD JUMP JUMPDEST PUSH1 0x2 DUP3 ADD PUSH1 0x0 PUSH2 0x241F SWAP2 SWAP1 PUSH2 0x23AD JUMP JUMPDEST POP PUSH1 0x3 ADD PUSH2 0x23EE JUMP JUMPDEST POP SWAP1 JUMP JUMPDEST JUMPDEST DUP1 DUP3 GT ISZERO PUSH2 0x244C JUMPI PUSH1 0x0 DUP2 DUP2 PUSH2 0x2443 SWAP2 SWAP1 PUSH2 0x23AD JUMP JUMPDEST POP PUSH1 0x1 ADD PUSH2 0x242D JUMP JUMPDEST POP SWAP1 JUMP JUMPDEST JUMPDEST DUP1 DUP3 GT ISZERO PUSH2 0x2469 JUMPI PUSH1 0x0 DUP2 PUSH1 0x0 SWAP1 SSTORE POP PUSH1 0x1 ADD PUSH2 0x2451 JUMP JUMPDEST POP SWAP1 JUMP JUMPDEST PUSH1 0x0 DUP2 MLOAD SWAP1 POP SWAP2 SWAP1 POP JUMP JUMPDEST PUSH1 0x0 DUP3 DUP3 MSTORE PUSH1 0x20 DUP3 ADD SWAP1 POP SWAP3 SWAP2 POP POP JUMP JUMPDEST PUSH1 0x0 DUP2 SWAP1 POP PUSH1 0x20 DUP3 ADD SWAP1 POP SWAP2 SWAP1 POP JUMP JUMPDEST PUSH1 0x0 DUP2 MLOAD SWAP1 POP SWAP2 SWAP1 POP JUMP JUMPDEST PUSH1 0x0 DUP3 DUP3 MSTORE PUSH1 0x20 DUP3 ADD SWAP1 POP SWAP3 SWAP2 POP POP JUMP JUMPDEST PUSH1 0x0 JUMPDEST DUP4 DUP2 LT ISZERO PUSH2 0x24D3 JUMPI DUP1 DUP3 ADD MLOAD DUP2 DUP5 ADD MSTORE PUSH1 0x20 DUP2 ADD SWAP1 POP PUSH2 0x24B8 JUMP JUMPDEST PUSH1 0x0 DUP5 DUP5 ADD MSTORE POP POP POP POP JUMP JUMPDEST PUSH1 0x0 PUSH1 0x1F NOT PUSH1 0x1F DUP4 ADD AND SWAP1 POP SWAP2 SWAP1 POP JUMP JUMPDEST PUSH1 0x0 PUSH2 0x24FB DUP3 PUSH2 0x2499 JUMP JUMPDEST PUSH2 0x2505 DUP2 DUP6 PUSH2 0x24A4 JUMP JUMPDEST SWAP4 POP PUSH2 0x2515 DUP2 DUP6 PUSH1 0x20 DUP7 ADD PUSH2 0x24B5 JUMP JUMPDEST PUSH2 0x251E DUP2 PUSH2 0x24DF JUMP JUMPDEST DUP5 ADD SWAP2 POP POP SWAP3 SWAP2 POP POP JUMP JUMPDEST PUSH1 0x0 DUP2 SWAP1 POP SWAP2 SWAP1 POP JUMP JUMPDEST PUSH2 0x253C DUP2 PUSH2 0x2529 JUMP JUMPDEST DUP3 MSTORE POP POP JUMP JUMPDEST PUSH1 0x0 DUP2 MLOAD SWAP1 POP SWAP2 SWAP1 POP JUMP JUMPDEST PUSH1 0x0 DUP3 DUP3 MSTORE PUSH1 0x20 DUP3 ADD SWAP1 POP SWAP3 SWAP2 POP POP JUMP JUMPDEST PUSH1 0x0 DUP2 SWAP1 POP PUSH1 0x20 DUP3 ADD SWAP1 POP SWAP2 SWAP1 POP JUMP JUMPDEST PUSH1 0x0 PUSH1 0x60 DUP4 ADD PUSH1 0x0 DUP4 ADD MLOAD PUSH2 0x2586 PUSH1 0x0 DUP7 ADD DUP3 PUSH2 0x2533 JUMP JUMPDEST POP PUSH1 0x20 DUP4 ADD MLOAD DUP5 DUP3 SUB PUSH1 0x20 DUP7 ADD MSTORE PUSH2 0x259E DUP3 DUP3 PUSH2 0x24F0 JUMP JUMPDEST SWAP2 POP POP PUSH1 0x40 DUP4 ADD MLOAD DUP5 DUP3 SUB PUSH1 0x40 DUP7 ADD MSTORE PUSH2 0x25B8 DUP3 DUP3 PUSH2 0x24F0 JUMP JUMPDEST SWAP2 POP POP DUP1 SWAP2 POP POP SWAP3 SWAP2 POP POP JUMP JUMPDEST PUSH1 0x0 PUSH2 0x25D1 DUP4 DUP4 PUSH2 0x256E JUMP JUMPDEST SWAP1 POP SWAP3 SWAP2 POP POP JUMP JUMPDEST PUSH1 0x0 PUSH1 0x20 DUP3 ADD SWAP1 POP SWAP2 SWAP1 POP JUMP JUMPDEST PUSH1 0x0 PUSH2 0x25F1 DUP3 PUSH2 0x2542 JUMP JUMPDEST PUSH2 0x25FB DUP2 DUP6 PUSH2 0x254D JUMP JUMPDEST SWAP4 POP DUP4 PUSH1 0x20 DUP3 MUL DUP6 ADD PUSH2 0x260D DUP6 PUSH2 0x255E JUMP JUMPDEST DUP1 PUSH1 0x0 JUMPDEST DUP6 DUP2 LT ISZERO PUSH2 0x2649 JUMPI DUP5 DUP5 SUB DUP10 MSTORE DUP2 MLOAD PUSH2 0x262A DUP6 DUP3 PUSH2 0x25C5 JUMP JUMPDEST SWAP5 POP PUSH2 0x2635 DUP4 PUSH2 0x25D9 JUMP JUMPDEST SWAP3 POP PUSH1 0x20 DUP11 ADD SWAP10 POP POP PUSH1 0x1 DUP2 ADD SWAP1 POP PUSH2 0x2611 JUMP JUMPDEST POP DUP3 SWAP8 POP DUP8 SWAP6 POP POP POP POP POP POP SWAP3 SWAP2 POP POP JUMP JUMPDEST PUSH1 0x0 PUSH1 0xE0 DUP4 ADD PUSH1 0x0 DUP4 ADD MLOAD DUP5 DUP3 SUB PUSH1 0x0 DUP7 ADD MSTORE PUSH2 0x2678 DUP3 DUP3 PUSH2 0x24F0 JUMP JUMPDEST SWAP2 POP POP PUSH1 0x20 DUP4 ADD MLOAD DUP5 DUP3 SUB PUSH1 0x20 DUP7 ADD MSTORE PUSH2 0x2692 DUP3 DUP3 PUSH2 0x24F0 JUMP JUMPDEST SWAP2 POP POP PUSH1 0x40 DUP4 ADD MLOAD DUP5 DUP3 SUB PUSH1 0x40 DUP7 ADD MSTORE PUSH2 0x26AC DUP3 DUP3 PUSH2 0x24F0 JUMP JUMPDEST SWAP2 POP POP PUSH1 0x60 DUP4 ADD MLOAD DUP5 DUP3 SUB PUSH1 0x60 DUP7 ADD MSTORE PUSH2 0x26C6 DUP3 DUP3 PUSH2 0x24F0 JUMP JUMPDEST SWAP2 POP POP PUSH1 0x80 DUP4 ADD MLOAD DUP5 DUP3 SUB PUSH1 0x80 DUP7 ADD MSTORE PUSH2 0x26E0 DUP3 DUP3 PUSH2 0x24F0 JUMP JUMPDEST SWAP2 POP POP PUSH1 0xA0 DUP4 ADD MLOAD PUSH2 0x26F5 PUSH1 0xA0 DUP7 ADD DUP3 PUSH2 0x2533 JUMP JUMPDEST POP PUSH1 0xC0 DUP4 ADD MLOAD DUP5 DUP3 SUB PUSH1 0xC0 DUP7 ADD MSTORE PUSH2 0x270D DUP3 DUP3 PUSH2 0x25E6 JUMP JUMPDEST SWAP2 POP POP DUP1 SWAP2 POP POP SWAP3 SWAP2 POP POP JUMP JUMPDEST PUSH1 0x0 PUSH2 0x2726 DUP4 DUP4 PUSH2 0x265B JUMP JUMPDEST SWAP1 POP SWAP3 SWAP2 POP POP JUMP JUMPDEST PUSH1 0x0 PUSH1 0x20 DUP3 ADD SWAP1 POP SWAP2 SWAP1 POP JUMP JUMPDEST PUSH1 0x0 PUSH2 0x2746 DUP3 PUSH2 0x246D JUMP JUMPDEST PUSH2 0x2750 DUP2 DUP6 PUSH2 0x2478 JUMP JUMPDEST SWAP4 POP DUP4 PUSH1 0x20 DUP3 MUL DUP6 ADD PUSH2 0x2762 DUP6 PUSH2 0x2489 JUMP JUMPDEST DUP1 PUSH1 0x0 JUMPDEST DUP6 DUP2 LT ISZERO PUSH2 0x279E JUMPI DUP5 DUP5 SUB DUP10 MSTORE DUP2 MLOAD PUSH2 0x277F DUP6 DUP3 PUSH2 0x271A JUMP JUMPDEST SWAP5 POP PUSH2 0x278A DUP4 PUSH2 0x272E JUMP JUMPDEST SWAP3 POP PUSH1 0x20 DUP11 ADD SWAP10 POP POP PUSH1 0x1 DUP2 ADD SWAP1 POP PUSH2 0x2766 JUMP JUMPDEST POP DUP3 SWAP8 POP DUP8 SWAP6 POP POP POP POP POP POP SWAP3 SWAP2 POP POP JUMP JUMPDEST PUSH1 0x0 DUP2 MLOAD SWAP1 POP SWAP2 SWAP1 POP JUMP JUMPDEST PUSH1 0x0 DUP3 DUP3 MSTORE PUSH1 0x20 DUP3 ADD SWAP1 POP SWAP3 SWAP2 POP POP JUMP JUMPDEST PUSH1 0x0 DUP2 SWAP1 POP PUSH1 0x20 DUP3 ADD SWAP1 POP SWAP2 SWAP1 POP JUMP JUMPDEST PUSH1 0x0 PUSH2 0x27E8 DUP4 DUP4 PUSH2 0x24F0 JUMP JUMPDEST SWAP1 POP SWAP3 SWAP2 POP POP JUMP JUMPDEST PUSH1 0x0 PUSH1 0x20 DUP3 ADD SWAP1 POP SWAP2 SWAP1 POP JUMP JUMPDEST PUSH1 0x0 PUSH2 0x2808 DUP3 PUSH2 0x27B0 JUMP JUMPDEST PUSH2 0x2812 DUP2 DUP6 PUSH2 0x27BB JUMP JUMPDEST SWAP4 POP DUP4 PUSH1 0x20 DUP3 MUL DUP6 ADD PUSH2 0x2824 DUP6 PUSH2 0x27CC JUMP JUMPDEST DUP1 PUSH1 0x0 JUMPDEST DUP6 DUP2 LT ISZERO PUSH2 0x2860 JUMPI DUP5 DUP5 SUB DUP10 MSTORE DUP2 MLOAD PUSH2 0x2841 DUP6 DUP3 PUSH2 0x27DC JUMP JUMPDEST SWAP5 POP PUSH2 0x284C DUP4 PUSH2 0x27F0 JUMP JUMPDEST SWAP3 POP PUSH1 0x20 DUP11 ADD SWAP10 POP POP PUSH1 0x1 DUP2 ADD SWAP1 POP PUSH2 0x2828 JUMP JUMPDEST POP DUP3 SWAP8 POP DUP8 SWAP6 POP POP POP POP POP POP SWAP3 SWAP2 POP POP JUMP JUMPDEST PUSH1 0x0 PUSH1 0x40 DUP3 ADD SWAP1 POP DUP2 DUP2 SUB PUSH1 0x0 DUP4 ADD MSTORE PUSH2 0x288C DUP2 DUP6 PUSH2 0x273B JUMP JUMPDEST SWAP1 POP DUP2 DUP2 SUB PUSH1 0x20 DUP4 ADD MSTORE PUSH2 0x28A0 DUP2 DUP5 PUSH2 0x27FD JUMP JUMPDEST SWAP1 POP SWAP4 SWAP3 POP POP POP JUMP JUMPDEST PUSH1 0x0 PUSH1 0x40 MLOAD SWAP1 POP SWAP1 JUMP JUMPDEST PUSH1 0x0 DUP1 REVERT JUMPDEST PUSH1 0x0 DUP1 REVERT JUMPDEST PUSH1 0x0 DUP1 REVERT JUMPDEST PUSH1 0x0 DUP1 REVERT JUMPDEST PUSH32 0x4E487B7100000000000000000000000000000000000000000000000000000000 PUSH1 0x0 MSTORE PUSH1 0x41 PUSH1 0x4 MSTORE PUSH1 0x24 PUSH1 0x0 REVERT JUMPDEST PUSH2 0x28FF DUP3 PUSH2 0x24DF JUMP JUMPDEST DUP2 ADD DUP2 DUP2 LT PUSH8 0xFFFFFFFFFFFFFFFF DUP3 GT OR ISZERO PUSH2 0x291E JUMPI PUSH2 0x291D PUSH2 0x28C7 JUMP JUMPDEST JUMPDEST DUP1 PUSH1 0x40 MSTORE POP POP POP JUMP JUMPDEST PUSH1 0x0 PUSH2 0x2931 PUSH2 0x28A9 JUMP JUMPDEST SWAP1 POP PUSH2 0x293D DUP3 DUP3 PUSH2 0x28F6 JUMP JUMPDEST SWAP2 SWAP1 POP JUMP JUMPDEST PUSH1 0x0 PUSH8 0xFFFFFFFFFFFFFFFF DUP3 GT ISZERO PUSH2 0x295D JUMPI PUSH2 0x295C PUSH2 0x28C7 JUMP JUMPDEST JUMPDEST PUSH2 0x2966 DUP3 PUSH2 0x24DF JUMP JUMPDEST SWAP1 POP PUSH1 0x20 DUP2 ADD SWAP1 POP SWAP2 SWAP1 POP JUMP JUMPDEST DUP3 DUP2 DUP4 CALLDATACOPY PUSH1 0x0 DUP4 DUP4 ADD MSTORE POP POP POP JUMP JUMPDEST PUSH1 0x0 PUSH2 0x2995 PUSH2 0x2990 DUP5 PUSH2 0x2942 JUMP JUMPDEST PUSH2 0x2927 JUMP JUMPDEST SWAP1 POP DUP3 DUP2 MSTORE PUSH1 0x20 DUP2 ADD DUP5 DUP5 DUP5 ADD GT ISZERO PUSH2 0x29B1 JUMPI PUSH2 0x29B0 PUSH2 0x28C2 JUMP JUMPDEST JUMPDEST PUSH2 0x29BC DUP5 DUP3 DUP6 PUSH2 0x2973 JUMP JUMPDEST POP SWAP4 SWAP3 POP POP POP JUMP JUMPDEST PUSH1 0x0 DUP3 PUSH1 0x1F DUP4 ADD SLT PUSH2 0x29D9 JUMPI PUSH2 0x29D8 PUSH2 0x28BD JUMP JUMPDEST JUMPDEST DUP2 CALLDATALOAD PUSH2 0x29E9 DUP5 DUP3 PUSH1 0x20 DUP7 ADD PUSH2 0x2982 JUMP JUMPDEST SWAP2 POP POP SWAP3 SWAP2 POP POP JUMP JUMPDEST PUSH1 0x0 PUSH1 0x20 DUP3 DUP5 SUB SLT ISZERO PUSH2 0x2A08 JUMPI PUSH2 0x2A07 PUSH2 0x28B3 JUMP JUMPDEST JUMPDEST PUSH1 0x0 DUP3 ADD CALLDATALOAD PUSH8 0xFFFFFFFFFFFFFFFF DUP2 GT ISZERO PUSH2 0x2A26 JUMPI PUSH2 0x2A25 PUSH2 0x28B8 JUMP JUMPDEST JUMPDEST PUSH2 0x2A32 DUP5 DUP3 DUP6 ADD PUSH2 0x29C4 JUMP JUMPDEST SWAP2 POP POP SWAP3 SWAP2 POP POP JUMP JUMPDEST PUSH1 0x0 DUP3 DUP3 MSTORE PUSH1 0x20 DUP3 ADD SWAP1 POP SWAP3 SWAP2 POP POP JUMP JUMPDEST PUSH1 0x0 PUSH2 0x2A57 DUP3 PUSH2 0x2499 JUMP JUMPDEST PUSH2 0x2A61 DUP2 DUP6 PUSH2 0x2A3B JUMP JUMPDEST SWAP4 POP PUSH2 0x2A71 DUP2 DUP6 PUSH1 0x20 DUP7 ADD PUSH2 0x24B5 JUMP JUMPDEST PUSH2 0x2A7A DUP2 PUSH2 0x24DF JUMP JUMPDEST DUP5 ADD SWAP2 POP POP SWAP3 SWAP2 POP POP JUMP JUMPDEST PUSH1 0x0 PUSH1 0x40 DUP3 ADD SWAP1 POP DUP2 DUP2 SUB PUSH1 0x0 DUP4 ADD MSTORE PUSH2 0x2A9F DUP2 DUP6 PUSH2 0x2A4C JUMP JUMPDEST SWAP1 POP DUP2 DUP2 SUB PUSH1 0x20 DUP4 ADD MSTORE PUSH2 0x2AB3 DUP2 DUP5 PUSH2 0x2A4C JUMP JUMPDEST SWAP1 POP SWAP4 SWAP3 POP POP POP JUMP JUMPDEST PUSH1 0x0 DUP1 PUSH1 0x0 DUP1 PUSH1 0x0 DUP1 PUSH1 0xC0 DUP8 DUP10 SUB SLT ISZERO PUSH2 0x2AD9 JUMPI PUSH2 0x2AD8 PUSH2 0x28B3 JUMP JUMPDEST JUMPDEST PUSH1 0x0 DUP8 ADD CALLDATALOAD PUSH8 0xFFFFFFFFFFFFFFFF DUP2 GT ISZERO PUSH2 0x2AF7 JUMPI PUSH2 0x2AF6 PUSH2 0x28B8 JUMP JUMPDEST JUMPDEST PUSH2 0x2B03 DUP10 DUP3 DUP11 ADD PUSH2 0x29C4 JUMP JUMPDEST SWAP7 POP POP PUSH1 0x20 DUP8 ADD CALLDATALOAD PUSH8 0xFFFFFFFFFFFFFFFF DUP2 GT ISZERO PUSH2 0x2B24 JUMPI PUSH2 0x2B23 PUSH2 0x28B8 JUMP JUMPDEST JUMPDEST PUSH2 0x2B30 DUP10 DUP3 DUP11 ADD PUSH2 0x29C4 JUMP JUMPDEST SWAP6 POP POP PUSH1 0x40 DUP8 ADD CALLDATALOAD PUSH8 0xFFFFFFFFFFFFFFFF DUP2 GT ISZERO PUSH2 0x2B51 JUMPI PUSH2 0x2B50 PUSH2 0x28B8 JUMP JUMPDEST JUMPDEST PUSH2 0x2B5D DUP10 DUP3 DUP11 ADD PUSH2 0x29C4 JUMP JUMPDEST SWAP5 POP POP PUSH1 0x60 DUP8 ADD CALLDATALOAD PUSH8 0xFFFFFFFFFFFFFFFF DUP2 GT ISZERO PUSH2 0x2B7E JUMPI PUSH2 0x2B7D PUSH2 0x28B8 JUMP JUMPDEST JUMPDEST PUSH2 0x2B8A DUP10 DUP3 DUP11 ADD PUSH2 0x29C4 JUMP JUMPDEST SWAP4 POP POP PUSH1 0x80 DUP8 ADD CALLDATALOAD PUSH8 0xFFFFFFFFFFFFFFFF DUP2 GT ISZERO PUSH2 0x2BAB JUMPI PUSH2 0x2BAA PUSH2 0x28B8 JUMP JUMPDEST JUMPDEST PUSH2 0x2BB7 DUP10 DUP3 DUP11 ADD PUSH2 0x29C4 JUMP JUMPDEST SWAP3 POP POP PUSH1 0xA0 DUP8 ADD CALLDATALOAD PUSH8 0xFFFFFFFFFFFFFFFF DUP2 GT ISZERO PUSH2 0x2BD8 JUMPI PUSH2 0x2BD7 PUSH2 0x28B8 JUMP JUMPDEST JUMPDEST PUSH2 0x2BE4 DUP10 DUP3 DUP11 ADD PUSH2 0x29C4 JUMP JUMPDEST SWAP2 POP POP SWAP3 SWAP6 POP SWAP3 SWAP6 POP SWAP3 SWAP6 JUMP JUMPDEST PUSH1 0x0 DUP2 ISZERO ISZERO SWAP1 POP SWAP2 SWAP1 POP JUMP JUMPDEST PUSH2 0x2C06 DUP2 PUSH2 0x2BF1 JUMP JUMPDEST DUP3 MSTORE POP POP JUMP JUMPDEST PUSH1 0x0 PUSH1 0x20 DUP3 ADD SWAP1 POP PUSH2 0x2C21 PUSH1 0x0 DUP4 ADD DUP5 PUSH2 0x2BFD JUMP JUMPDEST SWAP3 SWAP2 POP POP JUMP JUMPDEST PUSH1 0x0 DUP1 PUSH1 0x0 PUSH1 0x60 DUP5 DUP7 SUB SLT ISZERO PUSH2 0x2C40 JUMPI PUSH2 0x2C3F PUSH2 0x28B3 JUMP JUMPDEST JUMPDEST PUSH1 0x0 DUP5 ADD CALLDATALOAD PUSH8 0xFFFFFFFFFFFFFFFF DUP2 GT ISZERO PUSH2 0x2C5E JUMPI PUSH2 0x2C5D PUSH2 0x28B8 JUMP JUMPDEST JUMPDEST PUSH2 0x2C6A DUP7 DUP3 DUP8 ADD PUSH2 0x29C4 JUMP JUMPDEST SWAP4 POP POP PUSH1 0x20 DUP5 ADD CALLDATALOAD PUSH8 0xFFFFFFFFFFFFFFFF DUP2 GT ISZERO PUSH2 0x2C8B JUMPI PUSH2 0x2C8A PUSH2 0x28B8 JUMP JUMPDEST JUMPDEST PUSH2 0x2C97 DUP7 DUP3 DUP8 ADD PUSH2 0x29C4 JUMP JUMPDEST SWAP3 POP POP PUSH1 0x40 DUP5 ADD CALLDATALOAD PUSH8 0xFFFFFFFFFFFFFFFF DUP2 GT ISZERO PUSH2 0x2CB8 JUMPI PUSH2 0x2CB7 PUSH2 0x28B8 JUMP JUMPDEST JUMPDEST PUSH2 0x2CC4 DUP7 DUP3 DUP8 ADD PUSH2 0x29C4 JUMP JUMPDEST SWAP2 POP POP SWAP3 POP SWAP3 POP SWAP3 JUMP JUMPDEST PUSH1 0x0 DUP1 PUSH1 0x0 DUP1 PUSH1 0x80 DUP6 DUP8 SUB SLT ISZERO PUSH2 0x2CE8 JUMPI PUSH2 0x2CE7 PUSH2 0x28B3 JUMP JUMPDEST JUMPDEST PUSH1 0x0 DUP6 ADD CALLDATALOAD PUSH8 0xFFFFFFFFFFFFFFFF DUP2 GT ISZERO PUSH2 0x2D06 JUMPI PUSH2 0x2D05 PUSH2 0x28B8 JUMP JUMPDEST JUMPDEST PUSH2 0x2D12 DUP8 DUP3 DUP9 ADD PUSH2 0x29C4 JUMP JUMPDEST SWAP5 POP POP PUSH1 0x20 DUP6 ADD CALLDATALOAD PUSH8 0xFFFFFFFFFFFFFFFF DUP2 GT ISZERO PUSH2 0x2D33 JUMPI PUSH2 0x2D32 PUSH2 0x28B8 JUMP JUMPDEST JUMPDEST PUSH2 0x2D3F DUP8 DUP3 DUP9 ADD PUSH2 0x29C4 JUMP JUMPDEST SWAP4 POP POP PUSH1 0x40 DUP6 ADD CALLDATALOAD PUSH8 0xFFFFFFFFFFFFFFFF DUP2 GT ISZERO PUSH2 0x2D60 JUMPI PUSH2 0x2D5F PUSH2 0x28B8 JUMP JUMPDEST JUMPDEST PUSH2 0x2D6C DUP8 DUP3 DUP9 ADD PUSH2 0x29C4 JUMP JUMPDEST SWAP3 POP POP PUSH1 0x60 DUP6 ADD CALLDATALOAD PUSH8 0xFFFFFFFFFFFFFFFF DUP2 GT ISZERO PUSH2 0x2D8D JUMPI PUSH2 0x2D8C PUSH2 0x28B8 JUMP JUMPDEST JUMPDEST PUSH2 0x2D99 DUP8 DUP3 DUP9 ADD PUSH2 0x29C4 JUMP JUMPDEST SWAP2 POP POP SWAP3 SWAP6 SWAP2 SWAP5 POP SWAP3 POP JUMP JUMPDEST PUSH1 0x0 PUSH1 0x60 DUP3 ADD SWAP1 POP DUP2 DUP2 SUB PUSH1 0x0 DUP4 ADD MSTORE PUSH2 0x2DBF DUP2 DUP7 PUSH2 0x2A4C JUMP JUMPDEST SWAP1 POP DUP2 DUP2 SUB PUSH1 0x20 DUP4 ADD MSTORE PUSH2 0x2DD3 DUP2 DUP6 PUSH2 0x2A4C JUMP JUMPDEST SWAP1 POP DUP2 DUP2 SUB PUSH1 0x40 DUP4 ADD MSTORE PUSH2 0x2DE7 DUP2 DUP5 PUSH2 0x2A4C JUMP JUMPDEST SWAP1 POP SWAP5 SWAP4 POP POP POP POP JUMP JUMPDEST PUSH1 0x0 PUSH1 0x20 DUP3 ADD SWAP1 POP DUP2 DUP2 SUB PUSH1 0x0 DUP4 ADD MSTORE PUSH2 0x2E0B DUP2 DUP5 PUSH2 0x27FD JUMP JUMPDEST SWAP1 POP SWAP3 SWAP2 POP POP JUMP JUMPDEST PUSH1 0x0 DUP3 DUP3 MSTORE PUSH1 0x20 DUP3 ADD SWAP1 POP SWAP3 SWAP2 POP POP JUMP JUMPDEST PUSH1 0x0 PUSH2 0x2E2F DUP3 PUSH2 0x2542 JUMP JUMPDEST PUSH2 0x2E39 DUP2 DUP6 PUSH2 0x2E13 JUMP JUMPDEST SWAP4 POP DUP4 PUSH1 0x20 DUP3 MUL DUP6 ADD PUSH2 0x2E4B DUP6 PUSH2 0x255E JUMP JUMPDEST DUP1 PUSH1 0x0 JUMPDEST DUP6 DUP2 LT ISZERO PUSH2 0x2E87 JUMPI DUP5 DUP5 SUB DUP10 MSTORE DUP2 MLOAD PUSH2 0x2E68 DUP6 DUP3 PUSH2 0x25C5 JUMP JUMPDEST SWAP5 POP PUSH2 0x2E73 DUP4 PUSH2 0x25D9 JUMP JUMPDEST SWAP3 POP PUSH1 0x20 DUP11 ADD SWAP10 POP POP PUSH1 0x1 DUP2 ADD SWAP1 POP PUSH2 0x2E4F JUMP JUMPDEST POP DUP3 SWAP8 POP DUP8 SWAP6 POP POP POP POP POP POP SWAP3 SWAP2 POP POP JUMP JUMPDEST PUSH1 0x0 PUSH1 0xC0 DUP3 ADD SWAP1 POP DUP2 DUP2 SUB PUSH1 0x0 DUP4 ADD MSTORE PUSH2 0x2EB3 DUP2 DUP10 PUSH2 0x2A4C JUMP JUMPDEST SWAP1 POP DUP2 DUP2 SUB PUSH1 0x20 DUP4 ADD MSTORE PUSH2 0x2EC7 DUP2 DUP9 PUSH2 0x2A4C JUMP JUMPDEST SWAP1 POP DUP2 DUP2 SUB PUSH1 0x40 DUP4 ADD MSTORE PUSH2 0x2EDB DUP2 DUP8 PUSH2 0x2A4C JUMP JUMPDEST SWAP1 POP DUP2 DUP2 SUB PUSH1 0x60 DUP4 ADD MSTORE PUSH2 0x2EEF DUP2 DUP7 PUSH2 0x2A4C JUMP JUMPDEST SWAP1 POP DUP2 DUP2 SUB PUSH1 0x80 DUP4 ADD MSTORE PUSH2 0x2F03 DUP2 DUP6 PUSH2 0x2A4C JUMP JUMPDEST SWAP1 POP DUP2 DUP2 SUB PUSH1 0xA0 DUP4 ADD MSTORE PUSH2 0x2F17 DUP2 DUP5 PUSH2 0x2E24 JUMP JUMPDEST SWAP1 POP SWAP8 SWAP7 POP POP POP POP POP POP POP JUMP JUMPDEST PUSH32 0x4E487B7100000000000000000000000000000000000000000000000000000000 PUSH1 0x0 MSTORE PUSH1 0x32 PUSH1 0x4 MSTORE PUSH1 0x24 PUSH1 0x0 REVERT JUMPDEST PUSH32 0x4E487B7100000000000000000000000000000000000000000000000000000000 PUSH1 0x0 MSTORE PUSH1 0x22 PUSH1 0x4 MSTORE PUSH1 0x24 PUSH1 0x0 REVERT JUMPDEST PUSH1 0x0 PUSH1 0x2 DUP3 DIV SWAP1 POP PUSH1 0x1 DUP3 AND DUP1 PUSH2 0x2F9A JUMPI PUSH1 0x7F DUP3 AND SWAP2 POP JUMPDEST PUSH1 0x20 DUP3 LT DUP2 SUB PUSH2 0x2FAD JUMPI PUSH2 0x2FAC PUSH2 0x2F53 JUMP JUMPDEST JUMPDEST POP SWAP2 SWAP1 POP JUMP JUMPDEST PUSH1 0x0 DUP2 SWAP1 POP SWAP3 SWAP2 POP POP JUMP JUMPDEST PUSH1 0x0 DUP2 SWAP1 POP DUP2 PUSH1 0x0 MSTORE PUSH1 0x20 PUSH1 0x0 KECCAK256 SWAP1 POP SWAP2 SWAP1 POP JUMP JUMPDEST PUSH1 0x0 DUP2 SLOAD PUSH2 0x2FE0 DUP2 PUSH2 0x2F82 JUMP JUMPDEST PUSH2 0x2FEA DUP2 DUP7 PUSH2 0x2FB3 JUMP JUMPDEST SWAP5 POP PUSH1 0x1 DUP3 AND PUSH1 0x0 DUP2 EQ PUSH2 0x3005 JUMPI PUSH1 0x1 DUP2 EQ PUSH2 0x301A JUMPI PUSH2 0x304D JUMP JUMPDEST PUSH1 0xFF NOT DUP4 AND DUP7 MSTORE DUP2 ISZERO ISZERO DUP3 MUL DUP7 ADD SWAP4 POP PUSH2 0x304D JUMP JUMPDEST PUSH2 0x3023 DUP6 PUSH2 0x2FBE JUMP JUMPDEST PUSH1 0x0 JUMPDEST DUP4 DUP2 LT ISZERO PUSH2 0x3045 JUMPI DUP2 SLOAD DUP2 DUP10 ADD MSTORE PUSH1 0x1 DUP3 ADD SWAP2 POP PUSH1 0x20 DUP2 ADD SWAP1 POP PUSH2 0x3026 JUMP JUMPDEST DUP4 DUP9 ADD SWAP6 POP POP POP JUMPDEST POP POP POP SWAP3 SWAP2 POP POP JUMP JUMPDEST PUSH1 0x0 PUSH2 0x3062 DUP3 DUP5 PUSH2 0x2FD3 JUMP JUMPDEST SWAP2 POP DUP2 SWAP1 POP SWAP3 SWAP2 POP POP JUMP JUMPDEST PUSH32 0x4E487B7100000000000000000000000000000000000000000000000000000000 PUSH1 0x0 MSTORE PUSH1 0x11 PUSH1 0x4 MSTORE PUSH1 0x24 PUSH1 0x0 REVERT JUMPDEST PUSH1 0x0 PUSH2 0x30A7 DUP3 PUSH2 0x2529 JUMP JUMPDEST SWAP2 POP PUSH32 0xFFFFFFFFFFFFFFFFFFFFFFFFFFFFFFFFFFFFFFFFFFFFFFFFFFFFFFFFFFFFFFFF DUP3 SUB PUSH2 0x30D9 JUMPI PUSH2 0x30D8 PUSH2 0x306D JUMP JUMPDEST JUMPDEST PUSH1 0x1 DUP3 ADD SWAP1 POP SWAP2 SWAP1 POP JUMP JUMPDEST PUSH1 0x0 PUSH2 0x30EF DUP3 PUSH2 0x2499 JUMP JUMPDEST PUSH2 0x30F9 DUP2 DUP6 PUSH2 0x2FB3 JUMP JUMPDEST SWAP4 POP PUSH2 0x3109 DUP2 DUP6 PUSH1 0x20 DUP7 ADD PUSH2 0x24B5 JUMP JUMPDEST DUP1 DUP5 ADD SWAP2 POP POP SWAP3 SWAP2 POP POP JUMP JUMPDEST PUSH1 0x0 PUSH2 0x3121 DUP3 DUP5 PUSH2 0x30E4 JUMP JUMPDEST SWAP2 POP DUP2 SWAP1 POP SWAP3 SWAP2 POP POP JUMP JUMPDEST PUSH1 0x0 PUSH1 0x20 PUSH1 0x1F DUP4 ADD DIV SWAP1 POP SWAP2 SWAP1 POP JUMP JUMPDEST PUSH1 0x0 DUP3 DUP3 SHL SWAP1 POP SWAP3 SWAP2 POP POP JUMP JUMPDEST PUSH1 0x0 PUSH1 0x8 DUP4 MUL PUSH2 0x3179 PUSH32 0xFFFFFFFFFFFFFFFFFFFFFFFFFFFFFFFFFFFFFFFFFFFFFFFFFFFFFFFFFFFFFFFF DUP3 PUSH2 0x313C JUMP JUMPDEST PUSH2 0x3183 DUP7 DUP4 PUSH2 0x313C JUMP JUMPDEST SWAP6 POP DUP1 NOT DUP5 AND SWAP4 POP DUP1 DUP7 AND DUP5 OR SWAP3 POP POP POP SWAP4 SWAP3 POP POP POP JUMP JUMPDEST PUSH1 0x0 DUP2 SWAP1 POP SWAP2 SWAP1 POP JUMP JUMPDEST PUSH1 0x0 PUSH2 0x31C0 PUSH2 0x31BB PUSH2 0x31B6 DUP5 PUSH2 0x2529 JUMP JUMPDEST PUSH2 0x319B JUMP JUMPDEST PUSH2 0x2529 JUMP JUMPDEST SWAP1 POP SWAP2 SWAP1 POP JUMP JUMPDEST PUSH1 0x0 DUP2 SWAP1 POP SWAP2 SWAP1 POP JUMP JUMPDEST PUSH2 0x31DA DUP4 PUSH2 0x31A5 JUMP JUMPDEST PUSH2 0x31EE PUSH2 0x31E6 DUP3 PUSH2 0x31C7 JUMP JUMPDEST DUP5 DUP5 SLOAD PUSH2 0x3149 JUMP JUMPDEST DUP3 SSTORE POP POP POP POP JUMP JUMPDEST PUSH1 0x0 SWAP1 JUMP JUMPDEST PUSH2 0x3203 PUSH2 0x31F6 JUMP JUMPDEST PUSH2 0x320E DUP2 DUP5 DUP5 PUSH2 0x31D1 JUMP JUMPDEST POP POP POP JUMP JUMPDEST JUMPDEST DUP2 DUP2 LT ISZERO PUSH2 0x3232 JUMPI PUSH2 0x3227 PUSH1 0x0 DUP3 PUSH2 0x31FB JUMP JUMPDEST PUSH1 0x1 DUP2 ADD SWAP1 POP PUSH2 0x3214 JUMP JUMPDEST POP POP JUMP JUMPDEST PUSH1 0x1F DUP3 GT ISZERO PUSH2 0x3277 JUMPI PUSH2 0x3248 DUP2 PUSH2 0x2FBE JUMP JUMPDEST PUSH2 0x3251 DUP5 PUSH2 0x312C JUMP JUMPDEST DUP2 ADD PUSH1 0x20 DUP6 LT ISZERO PUSH2 0x3260 JUMPI DUP2 SWAP1 POP JUMPDEST PUSH2 0x3274 PUSH2 0x326C DUP6 PUSH2 0x312C JUMP JUMPDEST DUP4 ADD DUP3 PUSH2 0x3213 JUMP JUMPDEST POP POP JUMPDEST POP POP POP JUMP JUMPDEST PUSH1 0x0 DUP3 DUP3 SHR SWAP1 POP SWAP3 SWAP2 POP POP JUMP JUMPDEST PUSH1 0x0 PUSH2 0x329A PUSH1 0x0 NOT DUP5 PUSH1 0x8 MUL PUSH2 0x327C JUMP JUMPDEST NOT DUP1 DUP4 AND SWAP2 POP POP SWAP3 SWAP2 POP POP JUMP JUMPDEST PUSH1 0x0 PUSH2 0x32B3 DUP4 DUP4 PUSH2 0x3289 JUMP JUMPDEST SWAP2 POP DUP3 PUSH1 0x2 MUL DUP3 OR SWAP1 POP SWAP3 SWAP2 POP POP JUMP JUMPDEST PUSH2 0x32CC DUP3 PUSH2 0x2499 JUMP JUMPDEST PUSH8 0xFFFFFFFFFFFFFFFF DUP2 GT ISZERO PUSH2 0x32E5 JUMPI PUSH2 0x32E4 PUSH2 0x28C7 JUMP JUMPDEST JUMPDEST PUSH2 0x32EF DUP3 SLOAD PUSH2 0x2F82 JUMP JUMPDEST PUSH2 0x32FA DUP3 DUP3 DUP6 PUSH2 0x3236 JUMP JUMPDEST PUSH1 0x0 PUSH1 0x20 SWAP1 POP PUSH1 0x1F DUP4 GT PUSH1 0x1 DUP2 EQ PUSH2 0x332D JUMPI PUSH1 0x0 DUP5 ISZERO PUSH2 0x331B JUMPI DUP3 DUP8 ADD MLOAD SWAP1 POP JUMPDEST PUSH2 0x3325 DUP6 DUP3 PUSH2 0x32A7 JUMP JUMPDEST DUP7 SSTORE POP PUSH2 0x338D JUMP JUMPDEST PUSH1 0x1F NOT DUP5 AND PUSH2 0x333B DUP7 PUSH2 0x2FBE JUMP JUMPDEST PUSH1 0x0 JUMPDEST DUP3 DUP2 LT ISZERO PUSH2 0x3363 JUMPI DUP5 DUP10 ADD MLOAD DUP3 SSTORE PUSH1 0x1 DUP3 ADD SWAP2 POP PUSH1 0x20 DUP6 ADD SWAP5 POP PUSH1 0x20 DUP2 ADD SWAP1 POP PUSH2 0x333E JUMP JUMPDEST DUP7 DUP4 LT ISZERO PUSH2 0x3380 JUMPI DUP5 DUP10 ADD MLOAD PUSH2 0x337C PUSH1 0x1F DUP10 AND DUP3 PUSH2 0x3289 JUMP JUMPDEST DUP4 SSTORE POP JUMPDEST PUSH1 0x1 PUSH1 0x2 DUP9 MUL ADD DUP9 SSTORE POP POP POP JUMPDEST POP POP POP POP POP POP JUMP JUMPDEST PUSH32 0x4D616E75666163746F7279204C6F636174696F6E3A2000000000000000000000 PUSH1 0x0 DUP3 ADD MSTORE POP JUMP JUMPDEST PUSH1 0x0 PUSH2 0x33CB PUSH1 0x16 DUP4 PUSH2 0x2FB3 JUMP JUMPDEST SWAP2 POP PUSH2 0x33D6 DUP3 PUSH2 0x3395 JUMP JUMPDEST PUSH1 0x16 DUP3 ADD SWAP1 POP SWAP2 SWAP1 POP JUMP JUMPDEST PUSH32 0x2C2050726F64756374696F6E20446174653A2000000000000000000000000000 PUSH1 0x0 DUP3 ADD MSTORE POP JUMP JUMPDEST PUSH1 0x0 PUSH2 0x3417 PUSH1 0x13 DUP4 PUSH2 0x2FB3 JUMP JUMPDEST SWAP2 POP PUSH2 0x3422 DUP3 PUSH2 0x33E1 JUMP JUMPDEST PUSH1 0x13 DUP3 ADD SWAP1 POP SWAP2 SWAP1 POP JUMP JUMPDEST PUSH1 0x0 PUSH2 0x3438 DUP3 PUSH2 0x33BE JUMP JUMPDEST SWAP2 POP PUSH2 0x3444 DUP3 DUP6 PUSH2 0x30E4 JUMP JUMPDEST SWAP2 POP PUSH2 0x344F DUP3 PUSH2 0x340A JUMP JUMPDEST SWAP2 POP PUSH2 0x345B DUP3 DUP5 PUSH2 0x30E4 JUMP JUMPDEST SWAP2 POP DUP2 SWAP1 POP SWAP4 SWAP3 POP POP POP JUMP JUMPDEST PUSH1 0x0 DUP2 SLOAD SWAP1 POP PUSH2 0x3476 DUP2 PUSH2 0x2F82 JUMP JUMPDEST SWAP1 POP SWAP2 SWAP1 POP JUMP JUMPDEST DUP2 DUP2 SUB PUSH2 0x348B JUMPI POP POP PUSH2 0x3563 JUMP JUMPDEST PUSH2 0x3494 DUP3 PUSH2 0x3467 JUMP JUMPDEST PUSH8 0xFFFFFFFFFFFFFFFF DUP2 GT ISZERO PUSH2 0x34AD JUMPI PUSH2 0x34AC PUSH2 0x28C7 JUMP JUMPDEST JUMPDEST PUSH2 0x34B7 DUP3 SLOAD PUSH2 0x2F82 JUMP JUMPDEST PUSH2 0x34C2 DUP3 DUP3 DUP6 PUSH2 0x3236 JUMP JUMPDEST PUSH1 0x0 PUSH1 0x1F DUP4 GT PUSH1 0x1 DUP2 EQ PUSH2 0x34F1 JUMPI PUSH1 0x0 DUP5 ISZERO PUSH2 0x34DF JUMPI DUP3 DUP8 ADD SLOAD SWAP1 POP JUMPDEST PUSH2 0x34E9 DUP6 DUP3 PUSH2 0x32A7 JUMP JUMPDEST DUP7 SSTORE POP PUSH2 0x355C JUMP JUMPDEST PUSH1 0x1F NOT DUP5 AND PUSH2 0x34FF DUP8 PUSH2 0x2FBE JUMP JUMPDEST SWAP7 POP PUSH2 0x350A DUP7 PUSH2 0x2FBE JUMP JUMPDEST PUSH1 0x0 JUMPDEST DUP3 DUP2 LT ISZERO PUSH2 0x3532 JUMPI DUP5 DUP10 ADD SLOAD DUP3 SSTORE PUSH1 0x1 DUP3 ADD SWAP2 POP PUSH1 0x1 DUP6 ADD SWAP5 POP PUSH1 0x20 DUP2 ADD SWAP1 POP PUSH2 0x350D JUMP JUMPDEST DUP7 DUP4 LT ISZERO PUSH2 0x354F JUMPI DUP5 DUP10 ADD SLOAD PUSH2 0x354B PUSH1 0x1F DUP10 AND DUP3 PUSH2 0x3289 JUMP JUMPDEST DUP4 SSTORE POP JUMPDEST PUSH1 0x1 PUSH1 0x2 DUP9 MUL ADD DUP9 SSTORE POP POP POP JUMPDEST POP POP POP POP POP POP JUMPDEST JUMP JUMPDEST PUSH32 0x437573746F6D657220456D61696C3A2000000000000000000000000000000000 PUSH1 0x0 DUP3 ADD MSTORE POP JUMP JUMPDEST PUSH1 0x0 PUSH2 0x359B PUSH1 0x10 DUP4 PUSH2 0x2FB3 JUMP JUMPDEST SWAP2 POP PUSH2 0x35A6 DUP3 PUSH2 0x3565 JUMP JUMPDEST PUSH1 0x10 DUP3 ADD SWAP1 POP SWAP2 SWAP1 POP JUMP JUMPDEST PUSH32 0x2C2053616C6520446174653A2000000000000000000000000000000000000000 PUSH1 0x0 DUP3 ADD MSTORE POP JUMP JUMPDEST PUSH1 0x0 PUSH2 0x35E7 PUSH1 0xD DUP4 PUSH2 0x2FB3 JUMP JUMPDEST SWAP2 POP PUSH2 0x35F2 DUP3 PUSH2 0x35B1 JUMP JUMPDEST PUSH1 0xD DUP3 ADD SWAP1 POP SWAP2 SWAP1 POP JUMP JUMPDEST PUSH1 0x0 PUSH2 0x3608 DUP3 PUSH2 0x358E JUMP JUMPDEST SWAP2 POP PUSH2 0x3614 DUP3 DUP6 PUSH2 0x30E4 JUMP JUMPDEST SWAP2 POP PUSH2 0x361F DUP3 PUSH2 0x35DA JUMP JUMPDEST SWAP2 POP PUSH2 0x362B DUP3 DUP5 PUSH2 0x30E4 JUMP JUMPDEST SWAP2 POP DUP2 SWAP1 POP SWAP4 SWAP3 POP POP POP JUMP JUMPDEST PUSH32 0x52657461696C204C6F636174696F6E3A20000000000000000000000000000000 PUSH1 0x0 DUP3 ADD MSTORE POP JUMP JUMPDEST PUSH1 0x0 PUSH2 0x366D PUSH1 0x11 DUP4 PUSH2 0x2FB3 JUMP JUMPDEST SWAP2 POP PUSH2 0x3678 DUP3 PUSH2 0x3637 JUMP JUMPDEST PUSH1 0x11 DUP3 ADD SWAP1 POP SWAP2 SWAP1 POP JUMP JUMPDEST PUSH32 0x2C204D6F76696E6720446174653A200000000000000000000000000000000000 PUSH1 0x0 DUP3 ADD MSTORE POP JUMP JUMPDEST PUSH1 0x0 PUSH2 0x36B9 PUSH1 0xF DUP4 PUSH2 0x2FB3 JUMP JUMPDEST SWAP2 POP PUSH2 0x36C4 DUP3 PUSH2 0x3683 JUMP JUMPDEST PUSH1 0xF DUP3 ADD SWAP1 POP SWAP2 SWAP1 POP JUMP JUMPDEST PUSH1 0x0 PUSH2 0x36DA DUP3 PUSH2 0x3660 JUMP JUMPDEST SWAP2 POP PUSH2 0x36E6 DUP3 DUP6 PUSH2 0x30E4 JUMP JUMPDEST SWAP2 POP PUSH2 0x36F1 DUP3 PUSH2 0x36AC JUMP JUMPDEST SWAP2 POP PUSH2 0x36FD DUP3 DUP5 PUSH2 0x30E4 JUMP JUMPDEST SWAP2 POP DUP2 SWAP1 POP SWAP4 SWAP3 POP POP POP JUMP JUMPDEST PUSH32 0x4F6C6420437573746F6D65723A20000000000000000000000000000000000000 PUSH1 0x0 DUP3 ADD MSTORE POP JUMP JUMPDEST PUSH1 0x0 PUSH2 0x373F PUSH1 0xE DUP4 PUSH2 0x2FB3 JUMP JUMPDEST SWAP2 POP PUSH2 0x374A DUP3 PUSH2 0x3709 JUMP JUMPDEST PUSH1 0xE DUP3 ADD SWAP1 POP SWAP2 SWAP1 POP JUMP JUMPDEST PUSH32 0x2C204E657720437573746F6D65723A2000000000000000000000000000000000 PUSH1 0x0 DUP3 ADD MSTORE POP JUMP JUMPDEST PUSH1 0x0 PUSH2 0x378B PUSH1 0x10 DUP4 PUSH2 0x2FB3 JUMP JUMPDEST SWAP2 POP PUSH2 0x3796 DUP3 PUSH2 0x3755 JUMP JUMPDEST PUSH1 0x10 DUP3 ADD SWAP1 POP SWAP2 SWAP1 POP JUMP JUMPDEST PUSH32 0x2C204368616E676520446174653A200000000000000000000000000000000000 PUSH1 0x0 DUP3 ADD MSTORE POP JUMP JUMPDEST PUSH1 0x0 PUSH2 0x37D7 PUSH1 0xF DUP4 PUSH2 0x2FB3 JUMP JUMPDEST SWAP2 POP PUSH2 0x37E2 DUP3 PUSH2 0x37A1 JUMP JUMPDEST PUSH1 0xF DUP3 ADD SWAP1 POP SWAP2 SWAP1 POP JUMP JUMPDEST PUSH1 0x0 PUSH2 0x37F8 DUP3 PUSH2 0x3732 JUMP JUMPDEST SWAP2 POP PUSH2 0x3804 DUP3 DUP7 PUSH2 0x30E4 JUMP JUMPDEST SWAP2 POP PUSH2 0x380F DUP3 PUSH2 0x377E JUMP JUMPDEST SWAP2 POP PUSH2 0x381B DUP3 DUP6 PUSH2 0x30E4 JUMP JUMPDEST SWAP2 POP PUSH2 0x3826 DUP3 PUSH2 0x37CA JUMP JUMPDEST SWAP2 POP PUSH2 0x3832 DUP3 DUP5 PUSH2 0x30E4 JUMP JUMPDEST SWAP2 POP DUP2 SWAP1 POP SWAP5 SWAP4 POP POP POP POP JUMP JUMPDEST PUSH1 0x0 PUSH2 0x384A DUP3 PUSH2 0x2529 JUMP JUMPDEST SWAP2 POP PUSH2 0x3855 DUP4 PUSH2 0x2529 JUMP JUMPDEST SWAP3 POP DUP3 DUP3 SUB SWAP1 POP DUP2 DUP2 GT ISZERO PUSH2 0x386D JUMPI PUSH2 0x386C PUSH2 0x306D JUMP JUMPDEST JUMPDEST SWAP3 SWAP2 POP POP JUMP JUMPDEST PUSH1 0x0 PUSH2 0x387E DUP3 PUSH2 0x2529 JUMP JUMPDEST SWAP2 POP PUSH2 0x3889 DUP4 PUSH2 0x2529 JUMP JUMPDEST SWAP3 POP DUP3 DUP3 ADD SWAP1 POP DUP1 DUP3 GT ISZERO PUSH2 0x38A1 JUMPI PUSH2 0x38A0 PUSH2 0x306D JUMP JUMPDEST JUMPDEST SWAP3 SWAP2 POP POP JUMP JUMPDEST PUSH1 0x0 DUP2 SLOAD SWAP1 POP PUSH2 0x38B6 DUP2 PUSH2 0x2F82 JUMP JUMPDEST SWAP1 POP SWAP2 SWAP1 POP JUMP JUMPDEST PUSH1 0x0 DUP2 SWAP1 POP DUP2 PUSH1 0x0 MSTORE PUSH1 0x20 PUSH1 0x0 KECCAK256 SWAP1 POP SWAP2 SWAP1 POP JUMP JUMPDEST DUP2 DUP2 SUB PUSH2 0x38E0 JUMPI POP POP PUSH2 0x39B8 JUMP JUMPDEST PUSH2 0x38E9 DUP3 PUSH2 0x38A7 JUMP JUMPDEST PUSH8 0xFFFFFFFFFFFFFFFF DUP2 GT ISZERO PUSH2 0x3902 JUMPI PUSH2 0x3901 PUSH2 0x28C7 JUMP JUMPDEST JUMPDEST PUSH2 0x390C DUP3 SLOAD PUSH2 0x2F82 JUMP JUMPDEST PUSH2 0x3917 DUP3 DUP3 DUP6 PUSH2 0x3236 JUMP JUMPDEST PUSH1 0x0 PUSH1 0x1F DUP4 GT PUSH1 0x1 DUP2 EQ PUSH2 0x3946 JUMPI PUSH1 0x0 DUP5 ISZERO PUSH2 0x3934 JUMPI DUP3 DUP8 ADD SLOAD SWAP1 POP JUMPDEST PUSH2 0x393E DUP6 DUP3 PUSH2 0x32A7 JUMP JUMPDEST DUP7 SSTORE POP PUSH2 0x39B1 JUMP JUMPDEST PUSH1 0x1F NOT DUP5 AND PUSH2 0x3954 DUP8 PUSH2 0x38BD JUMP JUMPDEST SWAP7 POP PUSH2 0x395F DUP7 PUSH2 0x2FBE JUMP JUMPDEST PUSH1 0x0 JUMPDEST DUP3 DUP2 LT ISZERO PUSH2 0x3987 JUMPI DUP5 DUP10 ADD SLOAD DUP3 SSTORE PUSH1 0x1 DUP3 ADD SWAP2 POP PUSH1 0x1 DUP6 ADD SWAP5 POP PUSH1 0x20 DUP2 ADD SWAP1 POP PUSH2 0x3962 JUMP JUMPDEST DUP7 DUP4 LT ISZERO PUSH2 0x39A4 JUMPI DUP5 DUP10 ADD SLOAD PUSH2 0x39A0 PUSH1 0x1F DUP10 AND DUP3 PUSH2 0x3289 JUMP JUMPDEST DUP4 SSTORE POP JUMPDEST PUSH1 0x1 PUSH1 0x2 DUP9 MUL ADD DUP9 SSTORE POP POP POP JUMPDEST POP POP POP POP POP POP JUMPDEST JUMP INVALID LOG2 PUSH5 0x6970667358 0x22 SLT KECCAK256 PUSH32 0xDB2DAD63405CE0BECBA0576C6BA313BE672DD900426889BDBD4EAEE76021E764 PUSH20 0x6F6C634300081300330000000000000000000000 "},"methodIdentifiers":{"changeCustomer(string,string,string,string)":"f1ef413b","createCustomer(string,string,string,string)":"b51ca0af","createManufactory(string,string,string)":"5a400564","createProduct(string,string,string,string,string,string)":"55a53f06","createRetailer(string,string,string)":"b5bd438b","getAllProducts()":"02ee3a52","getCustomerDetail(string)":"bc26ec53","getManafactorDetail(string)":"21b35573","getProductDetail(string)":"ee786260","getProductsByCustomer(string)":"cee4a5e5","getRetailerDetail(string)":"7c3851cd","moveToRetailer(string,string,string,string)":"e9e5b5a2","sellToFirstCustomer(string,string,string,string)":"a603efe1"}}}}}