{"contracts/fpis.sol":{"FPIS":{"abi":[{"inputs":[{"internalType":"string","name":"_productID","type":"string"},{"internalType":"string","name":"_oldCustomerEmail","type":"string"},{"internalType":"string","name":"_newCustomerEmail","type":"string"}],"name":"changeCustomer","outputs":[{"internalType":"bool","name":"","type":"bool"}],"stateMutability":"payable","type":"function"},{"inputs":[{"internalType":"string","name":"_customerEmail","type":"string"},{"internalType":"string","name":"_name","type":"string"},{"internalType":"string","name":"_location","type":"string"},{"internalType":"string","name":"_phone_number","type":"string"}],"name":"createCustomer","outputs":[{"internalType":"bool","name":"","type":"bool"}],"stateMutability":"payable","type":"function"},{"inputs":[{"internalType":"string","name":"_manufactorEmail","type":"string"},{"internalType":"string","name":"_manufactorName","type":"string"},{"internalType":"string","name":"_manufactorLocation","type":"string"}],"name":"createManufactory","outputs":[{"internalType":"bool","name":"","type":"bool"}],"stateMutability":"payable","type":"function"},{"inputs":[{"internalType":"string","name":"_productID","type":"string"},{"internalType":"string","name":"_model","type":"string"},{"internalType":"string","name":"_description","type":"string"},{"internalType":"string","name":"_manufactoryEmail","type":"string"}],"name":"createProduct","outputs":[{"internalType":"bool","name":"","type":"bool"}],"stateMutability":"payable","type":"function"},{"inputs":[{"internalType":"string","name":"_retailerEmail","type":"string"},{"internalType":"string","name":"_retailerName","type":"string"},{"internalType":"string","name":"_retailerLocation","type":"string"}],"name":"createRetailer","outputs":[{"internalType":"bool","name":"","type":"bool"}],"stateMutability":"payable","type":"function"},{"inputs":[{"internalType":"string","name":"_customerEmail","type":"string"}],"name":"getCustomerDetail","outputs":[{"internalType":"string","name":"","type":"string"},{"internalType":"string","name":"","type":"string"},{"internalType":"string","name":"","type":"string"}],"stateMutability":"view","type":"function"},{"inputs":[{"internalType":"string","name":"_manufactorEmail","type":"string"}],"name":"getManafactorDetail","outputs":[{"internalType":"string","name":"","type":"string"},{"internalType":"string","name":"","type":"string"}],"stateMutability":"view","type":"function"},{"inputs":[{"internalType":"string","name":"_productID","type":"string"}],"name":"getProductDetail","outputs":[{"internalType":"string","name":"","type":"string"},{"internalType":"string","name":"","type":"string"},{"internalType":"string","name":"","type":"string"},{"internalType":"string","name":"","type":"string"}],"stateMutability":"view","type":"function"},{"inputs":[{"internalType":"string","name":"_customerEmail","type":"string"}],"name":"getProductsByCustomer","outputs":[{"internalType":"string[]","name":"","type":"string[]"}],"stateMutability":"view","type":"function"},{"inputs":[{"internalType":"string","name":"_retailerEmail","type":"string"}],"name":"getRetailerDetail","outputs":[{"internalType":"string","name":"","type":"string"},{"internalType":"string","name":"","type":"string"}],"stateMutability":"view","type":"function"},{"inputs":[{"internalType":"string","name":"_productID","type":"string"},{"internalType":"string","name":"_retailerEmail","type":"string"}],"name":"moveToRetailer","outputs":[{"internalType":"bool","name":"","type":"bool"}],"stateMutability":"payable","type":"function"},{"inputs":[{"internalType":"string","name":"_productID","type":"string"},{"internalType":"string","name":"_retailerEmail","type":"string"},{"internalType":"string","name":"_customerEmail","type":"string"}],"name":"sellToFirstCustomer","outputs":[{"internalType":"bool","name":"","type":"bool"}],"stateMutability":"payable","type":"function"}],"evm":{"bytecode":{"linkReferences":{},"object":"608060405234801561001057600080fd5b50612c89806100206000396000f3fe6080604052600436106100a75760003560e01c8063b5bd438b11610064578063b5bd438b146101e8578063bc26ec5314610218578063cc2306c914610257578063cee4a5e514610287578063eb51e3cd146102c4578063ee786260146102f4576100a7565b80630715b5f0146100ac57806321b35573146100dc5780633a7090c11461011a5780635a4005641461014a5780637c3851cd1461017a578063b51ca0af146101b8575b600080fd5b6100c660048036038101906100c191906121f1565b610334565b6040516100d391906122b3565b60405180910390f35b3480156100e857600080fd5b5061010360048036038101906100fe91906122ce565b610f89565b604051610111929190612396565b60405180910390f35b610134600480360381019061012f91906123cd565b6110ef565b60405161014191906122b3565b60405180910390f35b610164600480360381019061015f91906121f1565b61112a565b60405161017191906122b3565b60405180910390f35b34801561018657600080fd5b506101a1600480360381019061019c91906122ce565b6111b6565b6040516101af929190612396565b60405180910390f35b6101d260048036038101906101cd9190612445565b61131c565b6040516101df91906122b3565b60405180910390f35b61020260048036038101906101fd91906121f1565b611454565b60405161020f91906122b3565b60405180910390f35b34801561022457600080fd5b5061023f600480360381019061023a91906122ce565b6114e0565b60405161024e9392919061251c565b60405180910390f35b610271600480360381019061026c91906121f1565b6116f9565b60405161027e91906122b3565b60405180910390f35b34801561029357600080fd5b506102ae60048036038101906102a991906122ce565b6118a7565b6040516102bb9190612674565b60405180910390f35b6102de60048036038101906102d99190612445565b6119a1565b6040516102eb91906122b3565b60405180910390f35b34801561030057600080fd5b5061031b600480360381019061031691906122ce565b611a6d565b60405161032b9493929190612696565b60405180910390f35b6000610341848484611d36565b600080856040516103529190612733565b90815260200160405180910390206040518060c001604052908160008201805461037b90612779565b80601f01602080910402602001604051908101604052809291908181526020018280546103a790612779565b80156103f45780601f106103c9576101008083540402835291602001916103f4565b820191906000526020600020905b8154815290600101906020018083116103d757829003601f168201915b5050505050815260200160018201805461040d90612779565b80601f016020809104026020016040519081016040528092919081815260200182805461043990612779565b80156104865780601f1061045b57610100808354040283529160200191610486565b820191906000526020600020905b81548152906001019060200180831161046957829003601f168201915b5050505050815260200160028201805461049f90612779565b80601f01602080910402602001604051908101604052809291908181526020018280546104cb90612779565b80156105185780601f106104ed57610100808354040283529160200191610518565b820191906000526020600020905b8154815290600101906020018083116104fb57829003601f168201915b5050505050815260200160038201805461053190612779565b80601f016020809104026020016040519081016040528092919081815260200182805461055d90612779565b80156105aa5780601f1061057f576101008083540402835291602001916105aa565b820191906000526020600020905b81548152906001019060200180831161058d57829003601f168201915b505050505081526020016004820180546105c390612779565b80601f01602080910402602001604051908101604052809291908181526020018280546105ef90612779565b801561063c5780601f106106115761010080835404028352916020019161063c565b820191906000526020600020905b81548152906001019060200180831161061f57829003601f168201915b50505050508152602001600582015481525050905060006003856040516106639190612733565b90815260200160405180910390206040518060c001604052908160008201805461068c90612779565b80601f01602080910402602001604051908101604052809291908181526020018280546106b890612779565b80156107055780601f106106da57610100808354040283529160200191610705565b820191906000526020600020905b8154815290600101906020018083116106e857829003601f168201915b5050505050815260200160018201805461071e90612779565b80601f016020809104026020016040519081016040528092919081815260200182805461074a90612779565b80156107975780601f1061076c57610100808354040283529160200191610797565b820191906000526020600020905b81548152906001019060200180831161077a57829003601f168201915b505050505081526020016002820180546107b090612779565b80601f01602080910402602001604051908101604052809291908181526020018280546107dc90612779565b80156108295780601f106107fe57610100808354040283529160200191610829565b820191906000526020600020905b81548152906001019060200180831161080c57829003601f168201915b5050505050815260200160038201805461084290612779565b80601f016020809104026020016040519081016040528092919081815260200182805461086e90612779565b80156108bb5780601f10610890576101008083540402835291602001916108bb565b820191906000526020600020905b81548152906001019060200180831161089e57829003601f168201915b5050505050815260200160048201805480602002602001604051908101604052809291908181526020016000905b8282101561099557838290600052602060002001805461090890612779565b80601f016020809104026020016040519081016040528092919081815260200182805461093490612779565b80156109815780601f1061095657610100808354040283529160200191610981565b820191906000526020600020905b81548152906001019060200180831161096457829003601f168201915b5050505050815260200190600101906108e9565b5050505081526020016005820160009054906101000a900460ff161515151581525050905060006003866040516109cc9190612733565b908152602001604051809103902060040180549050905060006003866040516109f59190612733565b90815260200160405180910390206040518060c0016040529081600082018054610a1e90612779565b80601f0160208091040260200160405190810160405280929190818152602001828054610a4a90612779565b8015610a975780601f10610a6c57610100808354040283529160200191610a97565b820191906000526020600020905b815481529060010190602001808311610a7a57829003601f168201915b50505050508152602001600182018054610ab090612779565b80601f0160208091040260200160405190810160405280929190818152602001828054610adc90612779565b8015610b295780601f10610afe57610100808354040283529160200191610b29565b820191906000526020600020905b815481529060010190602001808311610b0c57829003601f168201915b50505050508152602001600282018054610b4290612779565b80601f0160208091040260200160405190810160405280929190818152602001828054610b6e90612779565b8015610bbb5780601f10610b9057610100808354040283529160200191610bbb565b820191906000526020600020905b815481529060010190602001808311610b9e57829003601f168201915b50505050508152602001600382018054610bd490612779565b80601f0160208091040260200160405190810160405280929190818152602001828054610c0090612779565b8015610c4d5780601f10610c2257610100808354040283529160200191610c4d565b820191906000526020600020905b815481529060010190602001808311610c3057829003601f168201915b5050505050815260200160048201805480602002602001604051908101604052809291908181526020016000905b82821015610d27578382906000526020600020018054610c9a90612779565b80601f0160208091040260200160405190810160405280929190818152602001828054610cc690612779565b8015610d135780601f10610ce857610100808354040283529160200191610d13565b820191906000526020600020905b815481529060010190602001808311610cf657829003601f168201915b505050505081526020019060010190610c7b565b5050505081526020016005820160009054906101000a900460ff16151515158152505090508260a001518015610d5e57508060a001515b15610f795760005b82811015610f7757610d9684608001518281518110610d8857610d876127aa565b5b60200260200101518a611dd5565b15610f6457610da9856080015189611dd5565b15610dde578660008a604051610dbf9190612733565b90815260200160405180910390206004019081610ddc919061298f565b505b60005b83811015610f5e57610eb860038a604051610dfc9190612733565b90815260200160405180910390206004018281548110610e1f57610e1e6127aa565b5b906000526020600020018054610e3490612779565b80601f0160208091040260200160405190810160405280929190818152602001828054610e6090612779565b8015610ead5780601f10610e8257610100808354040283529160200191610ead565b820191906000526020600020905b815481529060010190602001808311610e9057829003601f168201915b50505050508b611dd5565b15610f4b57610ee78160038b604051610ed19190612733565b9081526020016040518091039020600401611e2e565b50600388604051610ef89190612733565b90815260200160405180910390206004018a908060018154018082558091505060019003906000526020600020016000909190919091509081610f3b919061298f565b5060019650505050505050610f82565b8080610f5690612a90565b915050610de1565b50610f77565b8080610f6f90612a90565b915050610d66565b505b60009450505050505b9392505050565b606080600283604051610f9c9190612733565b9081526020016040518091039020600001600284604051610fbd9190612733565b9081526020016040518091039020600201818054610fda90612779565b80601f016020809104026020016040519081016040528092919081815260200182805461100690612779565b80156110535780601f1061102857610100808354040283529160200191611053565b820191906000526020600020905b81548152906001019060200180831161103657829003601f168201915b5050505050915080805461106690612779565b80601f016020809104026020016040519081016040528092919081815260200182805461109290612779565b80156110df5780601f106110b4576101008083540402835291602001916110df565b820191906000526020600020905b8154815290600101906020018083116110c257829003601f168201915b5050505050905091509150915091565b6000816000846040516111029190612733565b9081526020016040518091039020600301908161111f919061298f565b506001905092915050565b6000611134611f2e565b838160000181905250828160400181905250806002866040516111579190612733565b9081526020016040518091039020600082015181600001908161117a919061298f565b506020820151816001019081611190919061298f565b5060408201518160020190816111a6919061298f565b5090505060019150509392505050565b6060806002836040516111c99190612733565b90815260200160405180910390206000016002846040516111ea9190612733565b908152602001604051809103902060020181805461120790612779565b80601f016020809104026020016040519081016040528092919081815260200182805461123390612779565b80156112805780601f1061125557610100808354040283529160200191611280565b820191906000526020600020905b81548152906001019060200180831161126357829003601f168201915b5050505050915080805461129390612779565b80601f01602080910402602001604051908101604052809291908181526020018280546112bf90612779565b801561130c5780601f106112e15761010080835404028352916020019161130c565b820191906000526020600020905b8154815290600101906020018083116112ef57829003601f168201915b5050505050905091509150915091565b600060038560405161132e9190612733565b908152602001604051809103902060050160009054906101000a900460ff161561135b576000905061144c565b611363611f4f565b84816000018190525083816060018190525082816040018190525060018160a0019015159081151581525050806003876040516113a09190612733565b908152602001604051809103902060008201518160000190816113c3919061298f565b5060208201518160010190816113d9919061298f565b5060408201518160020190816113ef919061298f565b506060820151816003019081611405919061298f565b506080820151816004019080519060200190611422929190611f87565b5060a08201518160050160006101000a81548160ff02191690831515021790555090505060019150505b949350505050565b600061145e611f2e565b838160000181905250828160400181905250806002866040516114819190612733565b908152602001604051809103902060008201518160000190816114a4919061298f565b5060208201518160010190816114ba919061298f565b5060408201518160020190816114d0919061298f565b5090505060019150509392505050565b60608060606003846040516114f59190612733565b90815260200160405180910390206000016003856040516115169190612733565b90815260200160405180910390206002016003866040516115379190612733565b908152602001604051809103902060030182805461155490612779565b80601f016020809104026020016040519081016040528092919081815260200182805461158090612779565b80156115cd5780601f106115a2576101008083540402835291602001916115cd565b820191906000526020600020905b8154815290600101906020018083116115b057829003601f168201915b505050505092508180546115e090612779565b80601f016020809104026020016040519081016040528092919081815260200182805461160c90612779565b80156116595780601f1061162e57610100808354040283529160200191611659565b820191906000526020600020905b81548152906001019060200180831161163c57829003601f168201915b5050505050915080805461166c90612779565b80601f016020809104026020016040519081016040528092919081815260200182805461169890612779565b80156116e55780601f106116ba576101008083540402835291602001916116e5565b820191906000526020600020905b8154815290600101906020018083116116c857829003601f168201915b505050505090509250925092509193909250565b60006117ae60008560405161170e9190612733565b9081526020016040518091039020600301805461172a90612779565b80601f016020809104026020016040519081016040528092919081815260200182805461175690612779565b80156117a35780601f10611778576101008083540402835291602001916117a3565b820191906000526020600020905b81548152906001019060200180831161178657829003601f168201915b505050505084611dd5565b1561189b576003826040516117c39190612733565b908152602001604051809103902060050160009054906101000a900460ff161561189a57816000856040516117f89190612733565b90815260200160405180910390206004019081611815919061298f565b5060016000856040516118289190612733565b90815260200160405180910390206005018190555060038260405161184d9190612733565b908152602001604051809103902060040184908060018154018082558091505060019003906000526020600020016000909190919091509081611890919061298f565b50600190506118a0565b5b600090505b9392505050565b60606003826040516118b99190612733565b9081526020016040518091039020600401805480602002602001604051908101604052809291908181526020016000905b8282101561199657838290600052602060002001805461190990612779565b80601f016020809104026020016040519081016040528092919081815260200182805461193590612779565b80156119825780601f1061195757610100808354040283529160200191611982565b820191906000526020600020905b81548152906001019060200180831161196557829003601f168201915b5050505050815260200190600101906118ea565b505050509050919050565b60006119ab611fe0565b848160000181905250838160200181905250828160400181905250806000876040516119d79190612733565b908152602001604051809103902060008201518160000190816119fa919061298f565b506020820151816001019081611a10919061298f565b506040820151816002019081611a26919061298f565b506060820151816003019081611a3c919061298f565b506080820151816004019081611a52919061298f565b5060a082015181600501559050506001915050949350505050565b606080606080600085604051611a839190612733565b9081526020016040518091039020600001600086604051611aa49190612733565b9081526020016040518091039020600101600087604051611ac59190612733565b9081526020016040518091039020600301600088604051611ae69190612733565b9081526020016040518091039020600401838054611b0390612779565b80601f0160208091040260200160405190810160405280929190818152602001828054611b2f90612779565b8015611b7c5780601f10611b5157610100808354040283529160200191611b7c565b820191906000526020600020905b815481529060010190602001808311611b5f57829003601f168201915b50505050509350828054611b8f90612779565b80601f0160208091040260200160405190810160405280929190818152602001828054611bbb90612779565b8015611c085780601f10611bdd57610100808354040283529160200191611c08565b820191906000526020600020905b815481529060010190602001808311611beb57829003601f168201915b50505050509250818054611c1b90612779565b80601f0160208091040260200160405190810160405280929190818152602001828054611c4790612779565b8015611c945780601f10611c6957610100808354040283529160200191611c94565b820191906000526020600020905b815481529060010190602001808311611c7757829003601f168201915b50505050509150808054611ca790612779565b80601f0160208091040260200160405190810160405280929190818152602001828054611cd390612779565b8015611d205780601f10611cf557610100808354040283529160200191611d20565b820191906000526020600020905b815481529060010190602001808311611d0357829003601f168201915b5050505050905093509350935093509193509193565b611dd0838383604051602401611d4e9392919061251c565b6040516020818303038152906040527f2ced7cef000000000000000000000000000000000000000000000000000000007bffffffffffffffffffffffffffffffffffffffffffffffffffffffff19166020820180517bffffffffffffffffffffffffffffffffffffffffffffffffffffffff8381831617835250505050611f0d565b505050565b600081604051602001611de89190612733565b6040516020818303038152906040528051906020012083604051602001611e0f9190612733565b6040516020818303038152906040528051906020012014905092915050565b600081805490508310611e445760009050611f07565b60008390505b60018380549050611e5b9190612ad8565b811015611ec85782600182611e709190612b0c565b81548110611e8157611e806127aa565b5b90600052602060002001838281548110611e9e57611e9d6127aa565b5b906000526020600020019081611eb49190612b6b565b508080611ec090612a90565b915050611e4a565b508160018380549050611edb9190612ad8565b81548110611eec57611eeb6127aa565b5b906000526020600020016000611f029190612016565b600190505b92915050565b60006a636f6e736f6c652e6c6f679050600080835160208501845afa505050565b60405180606001604052806060815260200160608152602001606081525090565b6040518060c0016040528060608152602001606081526020016060815260200160608152602001606081526020016000151581525090565b828054828255906000526020600020908101928215611fcf579160200282015b82811115611fce578251829081611fbe919061298f565b5091602001919060010190611fa7565b5b509050611fdc9190612056565b5090565b6040518060c001604052806060815260200160608152602001606081526020016060815260200160608152602001600081525090565b50805461202290612779565b6000825580601f106120345750612053565b601f016020900490600052602060002090810190612052919061207a565b5b50565b5b80821115612076576000818161206d9190612016565b50600101612057565b5090565b5b8082111561209357600081600090555060010161207b565b5090565b6000604051905090565b600080fd5b600080fd5b600080fd5b600080fd5b6000601f19601f8301169050919050565b7f4e487b7100000000000000000000000000000000000000000000000000000000600052604160045260246000fd5b6120fe826120b5565b810181811067ffffffffffffffff8211171561211d5761211c6120c6565b5b80604052505050565b6000612130612097565b905061213c82826120f5565b919050565b600067ffffffffffffffff82111561215c5761215b6120c6565b5b612165826120b5565b9050602081019050919050565b82818337600083830152505050565b600061219461218f84612141565b612126565b9050828152602081018484840111156121b0576121af6120b0565b5b6121bb848285612172565b509392505050565b600082601f8301126121d8576121d76120ab565b5b81356121e8848260208601612181565b91505092915050565b60008060006060848603121561220a576122096120a1565b5b600084013567ffffffffffffffff811115612228576122276120a6565b5b612234868287016121c3565b935050602084013567ffffffffffffffff811115612255576122546120a6565b5b612261868287016121c3565b925050604084013567ffffffffffffffff811115612282576122816120a6565b5b61228e868287016121c3565b9150509250925092565b60008115159050919050565b6122ad81612298565b82525050565b60006020820190506122c860008301846122a4565b92915050565b6000602082840312156122e4576122e36120a1565b5b600082013567ffffffffffffffff811115612302576123016120a6565b5b61230e848285016121c3565b91505092915050565b600081519050919050565b600082825260208201905092915050565b60005b83811015612351578082015181840152602081019050612336565b60008484015250505050565b600061236882612317565b6123728185612322565b9350612382818560208601612333565b61238b816120b5565b840191505092915050565b600060408201905081810360008301526123b0818561235d565b905081810360208301526123c4818461235d565b90509392505050565b600080604083850312156123e4576123e36120a1565b5b600083013567ffffffffffffffff811115612402576124016120a6565b5b61240e858286016121c3565b925050602083013567ffffffffffffffff81111561242f5761242e6120a6565b5b61243b858286016121c3565b9150509250929050565b6000806000806080858703121561245f5761245e6120a1565b5b600085013567ffffffffffffffff81111561247d5761247c6120a6565b5b612489878288016121c3565b945050602085013567ffffffffffffffff8111156124aa576124a96120a6565b5b6124b6878288016121c3565b935050604085013567ffffffffffffffff8111156124d7576124d66120a6565b5b6124e3878288016121c3565b925050606085013567ffffffffffffffff811115612504576125036120a6565b5b612510878288016121c3565b91505092959194509250565b60006060820190508181036000830152612536818661235d565b9050818103602083015261254a818561235d565b9050818103604083015261255e818461235d565b9050949350505050565b600081519050919050565b600082825260208201905092915050565b6000819050602082019050919050565b600082825260208201905092915050565b60006125b082612317565b6125ba8185612594565b93506125ca818560208601612333565b6125d3816120b5565b840191505092915050565b60006125ea83836125a5565b905092915050565b6000602082019050919050565b600061260a82612568565b6126148185612573565b93508360208202850161262685612584565b8060005b85811015612662578484038952815161264385826125de565b945061264e836125f2565b925060208a0199505060018101905061262a565b50829750879550505050505092915050565b6000602082019050818103600083015261268e81846125ff565b905092915050565b600060808201905081810360008301526126b0818761235d565b905081810360208301526126c4818661235d565b905081810360408301526126d8818561235d565b905081810360608301526126ec818461235d565b905095945050505050565b600081905092915050565b600061270d82612317565b61271781856126f7565b9350612727818560208601612333565b80840191505092915050565b600061273f8284612702565b915081905092915050565b7f4e487b7100000000000000000000000000000000000000000000000000000000600052602260045260246000fd5b6000600282049050600182168061279157607f821691505b6020821081036127a4576127a361274a565b5b50919050565b7f4e487b7100000000000000000000000000000000000000000000000000000000600052603260045260246000fd5b60008190508160005260206000209050919050565b60006020601f8301049050919050565b600082821b905092915050565b60006008830261283b7fffffffffffffffffffffffffffffffffffffffffffffffffffffffffffffffff826127fe565b61284586836127fe565b95508019841693508086168417925050509392505050565b6000819050919050565b6000819050919050565b600061288c6128876128828461285d565b612867565b61285d565b9050919050565b6000819050919050565b6128a683612871565b6128ba6128b282612893565b84845461280b565b825550505050565b600090565b6128cf6128c2565b6128da81848461289d565b505050565b5b818110156128fe576128f36000826128c7565b6001810190506128e0565b5050565b601f82111561294357612914816127d9565b61291d846127ee565b8101602085101561292c578190505b612940612938856127ee565b8301826128df565b50505b505050565b600082821c905092915050565b600061296660001984600802612948565b1980831691505092915050565b600061297f8383612955565b9150826002028217905092915050565b61299882612317565b67ffffffffffffffff8111156129b1576129b06120c6565b5b6129bb8254612779565b6129c6828285612902565b600060209050601f8311600181146129f957600084156129e7578287015190505b6129f18582612973565b865550612a59565b601f198416612a07866127d9565b60005b82811015612a2f57848901518255600182019150602085019450602081019050612a0a565b86831015612a4c5784890151612a48601f891682612955565b8355505b6001600288020188555050505b505050505050565b7f4e487b7100000000000000000000000000000000000000000000000000000000600052601160045260246000fd5b6000612a9b8261285d565b91507fffffffffffffffffffffffffffffffffffffffffffffffffffffffffffffffff8203612acd57612acc612a61565b5b600182019050919050565b6000612ae38261285d565b9150612aee8361285d565b9250828203905081811115612b0657612b05612a61565b5b92915050565b6000612b178261285d565b9150612b228361285d565b9250828201905080821115612b3a57612b39612a61565b5b92915050565b600081549050612b4f81612779565b9050919050565b60008190508160005260206000209050919050565b818103612b79575050612c51565b612b8282612b40565b67ffffffffffffffff811115612b9b57612b9a6120c6565b5b612ba58254612779565b612bb0828285612902565b6000601f831160018114612bdf5760008415612bcd578287015490505b612bd78582612973565b865550612c4a565b601f198416612bed87612b56565b9650612bf8866127d9565b60005b82811015612c2057848901548255600182019150600185019450602081019050612bfb565b86831015612c3d5784890154612c39601f891682612955565b8355505b6001600288020188555050505b5050505050505b56fea26469706673582212201cbcc797d5a96340a4615fce82c0456f373df39047d701309826ad5dbf41d20464736f6c63430008130033","opcodes":"PUSH1 0x80 PUSH1 0x40 MSTORE CALLVALUE DUP1 ISZERO PUSH2 0x10 JUMPI PUSH1 0x0 DUP1 REVERT JUMPDEST POP PUSH2 0x2C89 DUP1 PUSH2 0x20 PUSH1 0x0 CODECOPY PUSH1 0x0 RETURN INVALID PUSH1 0x80 PUSH1 0x40 MSTORE PUSH1 0x4 CALLDATASIZE LT PUSH2 0xA7 JUMPI PUSH1 0x0 CALLDATALOAD PUSH1 0xE0 SHR DUP1 PUSH4 0xB5BD438B GT PUSH2 0x64 JUMPI DUP1 PUSH4 0xB5BD438B EQ PUSH2 0x1E8 JUMPI DUP1 PUSH4 0xBC26EC53 EQ PUSH2 0x218 JUMPI DUP1 PUSH4 0xCC2306C9 EQ PUSH2 0x257 JUMPI DUP1 PUSH4 0xCEE4A5E5 EQ PUSH2 0x287 JUMPI DUP1 PUSH4 0xEB51E3CD EQ PUSH2 0x2C4 JUMPI DUP1 PUSH4 0xEE786260 EQ PUSH2 0x2F4 JUMPI PUSH2 0xA7 JUMP JUMPDEST DUP1 PUSH4 0x715B5F0 EQ PUSH2 0xAC JUMPI DUP1 PUSH4 0x21B35573 EQ PUSH2 0xDC JUMPI DUP1 PUSH4 0x3A7090C1 EQ PUSH2 0x11A JUMPI DUP1 PUSH4 0x5A400564 EQ PUSH2 0x14A JUMPI DUP1 PUSH4 0x7C3851CD EQ PUSH2 0x17A JUMPI DUP1 PUSH4 0xB51CA0AF EQ PUSH2 0x1B8 JUMPI JUMPDEST PUSH1 0x0 DUP1 REVERT JUMPDEST PUSH2 0xC6 PUSH1 0x4 DUP1 CALLDATASIZE SUB DUP2 ADD SWAP1 PUSH2 0xC1 SWAP2 SWAP1 PUSH2 0x21F1 JUMP JUMPDEST PUSH2 0x334 JUMP JUMPDEST PUSH1 0x40 MLOAD PUSH2 0xD3 SWAP2 SWAP1 PUSH2 0x22B3 JUMP JUMPDEST PUSH1 0x40 MLOAD DUP1 SWAP2 SUB SWAP1 RETURN JUMPDEST CALLVALUE DUP1 ISZERO PUSH2 0xE8 JUMPI PUSH1 0x0 DUP1 REVERT JUMPDEST POP PUSH2 0x103 PUSH1 0x4 DUP1 CALLDATASIZE SUB DUP2 ADD SWAP1 PUSH2 0xFE SWAP2 SWAP1 PUSH2 0x22CE JUMP JUMPDEST PUSH2 0xF89 JUMP JUMPDEST PUSH1 0x40 MLOAD PUSH2 0x111 SWAP3 SWAP2 SWAP1 PUSH2 0x2396 JUMP JUMPDEST PUSH1 0x40 MLOAD DUP1 SWAP2 SUB SWAP1 RETURN JUMPDEST PUSH2 0x134 PUSH1 0x4 DUP1 CALLDATASIZE SUB DUP2 ADD SWAP1 PUSH2 0x12F SWAP2 SWAP1 PUSH2 0x23CD JUMP JUMPDEST PUSH2 0x10EF JUMP JUMPDEST PUSH1 0x40 MLOAD PUSH2 0x141 SWAP2 SWAP1 PUSH2 0x22B3 JUMP JUMPDEST PUSH1 0x40 MLOAD DUP1 SWAP2 SUB SWAP1 RETURN JUMPDEST PUSH2 0x164 PUSH1 0x4 DUP1 CALLDATASIZE SUB DUP2 ADD SWAP1 PUSH2 0x15F SWAP2 SWAP1 PUSH2 0x21F1 JUMP JUMPDEST PUSH2 0x112A JUMP JUMPDEST PUSH1 0x40 MLOAD PUSH2 0x171 SWAP2 SWAP1 PUSH2 0x22B3 JUMP JUMPDEST PUSH1 0x40 MLOAD DUP1 SWAP2 SUB SWAP1 RETURN JUMPDEST CALLVALUE DUP1 ISZERO PUSH2 0x186 JUMPI PUSH1 0x0 DUP1 REVERT JUMPDEST POP PUSH2 0x1A1 PUSH1 0x4 DUP1 CALLDATASIZE SUB DUP2 ADD SWAP1 PUSH2 0x19C SWAP2 SWAP1 PUSH2 0x22CE JUMP JUMPDEST PUSH2 0x11B6 JUMP JUMPDEST PUSH1 0x40 MLOAD PUSH2 0x1AF SWAP3 SWAP2 SWAP1 PUSH2 0x2396 JUMP JUMPDEST PUSH1 0x40 MLOAD DUP1 SWAP2 SUB SWAP1 RETURN JUMPDEST PUSH2 0x1D2 PUSH1 0x4 DUP1 CALLDATASIZE SUB DUP2 ADD SWAP1 PUSH2 0x1CD SWAP2 SWAP1 PUSH2 0x2445 JUMP JUMPDEST PUSH2 0x131C JUMP JUMPDEST PUSH1 0x40 MLOAD PUSH2 0x1DF SWAP2 SWAP1 PUSH2 0x22B3 JUMP JUMPDEST PUSH1 0x40 MLOAD DUP1 SWAP2 SUB SWAP1 RETURN JUMPDEST PUSH2 0x202 PUSH1 0x4 DUP1 CALLDATASIZE SUB DUP2 ADD SWAP1 PUSH2 0x1FD SWAP2 SWAP1 PUSH2 0x21F1 JUMP JUMPDEST PUSH2 0x1454 JUMP JUMPDEST PUSH1 0x40 MLOAD PUSH2 0x20F SWAP2 SWAP1 PUSH2 0x22B3 JUMP JUMPDEST PUSH1 0x40 MLOAD DUP1 SWAP2 SUB SWAP1 RETURN JUMPDEST CALLVALUE DUP1 ISZERO PUSH2 0x224 JUMPI PUSH1 0x0 DUP1 REVERT JUMPDEST POP PUSH2 0x23F PUSH1 0x4 DUP1 CALLDATASIZE SUB DUP2 ADD SWAP1 PUSH2 0x23A SWAP2 SWAP1 PUSH2 0x22CE JUMP JUMPDEST PUSH2 0x14E0 JUMP JUMPDEST PUSH1 0x40 MLOAD PUSH2 0x24E SWAP4 SWAP3 SWAP2 SWAP1 PUSH2 0x251C JUMP JUMPDEST PUSH1 0x40 MLOAD DUP1 SWAP2 SUB SWAP1 RETURN JUMPDEST PUSH2 0x271 PUSH1 0x4 DUP1 CALLDATASIZE SUB DUP2 ADD SWAP1 PUSH2 0x26C SWAP2 SWAP1 PUSH2 0x21F1 JUMP JUMPDEST PUSH2 0x16F9 JUMP JUMPDEST PUSH1 0x40 MLOAD PUSH2 0x27E SWAP2 SWAP1 PUSH2 0x22B3 JUMP JUMPDEST PUSH1 0x40 MLOAD DUP1 SWAP2 SUB SWAP1 RETURN JUMPDEST CALLVALUE DUP1 ISZERO PUSH2 0x293 JUMPI PUSH1 0x0 DUP1 REVERT JUMPDEST POP PUSH2 0x2AE PUSH1 0x4 DUP1 CALLDATASIZE SUB DUP2 ADD SWAP1 PUSH2 0x2A9 SWAP2 SWAP1 PUSH2 0x22CE JUMP JUMPDEST PUSH2 0x18A7 JUMP JUMPDEST PUSH1 0x40 MLOAD PUSH2 0x2BB SWAP2 SWAP1 PUSH2 0x2674 JUMP JUMPDEST PUSH1 0x40 MLOAD DUP1 SWAP2 SUB SWAP1 RETURN JUMPDEST PUSH2 0x2DE PUSH1 0x4 DUP1 CALLDATASIZE SUB DUP2 ADD SWAP1 PUSH2 0x2D9 SWAP2 SWAP1 PUSH2 0x2445 JUMP JUMPDEST PUSH2 0x19A1 JUMP JUMPDEST PUSH1 0x40 MLOAD PUSH2 0x2EB SWAP2 SWAP1 PUSH2 0x22B3 JUMP JUMPDEST PUSH1 0x40 MLOAD DUP1 SWAP2 SUB SWAP1 RETURN JUMPDEST CALLVALUE DUP1 ISZERO PUSH2 0x300 JUMPI PUSH1 0x0 DUP1 REVERT JUMPDEST POP PUSH2 0x31B PUSH1 0x4 DUP1 CALLDATASIZE SUB DUP2 ADD SWAP1 PUSH2 0x316 SWAP2 SWAP1 PUSH2 0x22CE JUMP JUMPDEST PUSH2 0x1A6D JUMP JUMPDEST PUSH1 0x40 MLOAD PUSH2 0x32B SWAP5 SWAP4 SWAP3 SWAP2 SWAP1 PUSH2 0x2696 JUMP JUMPDEST PUSH1 0x40 MLOAD DUP1 SWAP2 SUB SWAP1 RETURN JUMPDEST PUSH1 0x0 PUSH2 0x341 DUP5 DUP5 DUP5 PUSH2 0x1D36 JUMP JUMPDEST PUSH1 0x0 DUP1 DUP6 PUSH1 0x40 MLOAD PUSH2 0x352 SWAP2 SWAP1 PUSH2 0x2733 JUMP JUMPDEST SWAP1 DUP2 MSTORE PUSH1 0x20 ADD PUSH1 0x40 MLOAD DUP1 SWAP2 SUB SWAP1 KECCAK256 PUSH1 0x40 MLOAD DUP1 PUSH1 0xC0 ADD PUSH1 0x40 MSTORE SWAP1 DUP2 PUSH1 0x0 DUP3 ADD DUP1 SLOAD PUSH2 0x37B SWAP1 PUSH2 0x2779 JUMP JUMPDEST DUP1 PUSH1 0x1F ADD PUSH1 0x20 DUP1 SWAP2 DIV MUL PUSH1 0x20 ADD PUSH1 0x40 MLOAD SWAP1 DUP2 ADD PUSH1 0x40 MSTORE DUP1 SWAP3 SWAP2 SWAP1 DUP2 DUP2 MSTORE PUSH1 0x20 ADD DUP3 DUP1 SLOAD PUSH2 0x3A7 SWAP1 PUSH2 0x2779 JUMP JUMPDEST DUP1 ISZERO PUSH2 0x3F4 JUMPI DUP1 PUSH1 0x1F LT PUSH2 0x3C9 JUMPI PUSH2 0x100 DUP1 DUP4 SLOAD DIV MUL DUP4 MSTORE SWAP2 PUSH1 0x20 ADD SWAP2 PUSH2 0x3F4 JUMP JUMPDEST DUP3 ADD SWAP2 SWAP1 PUSH1 0x0 MSTORE PUSH1 0x20 PUSH1 0x0 KECCAK256 SWAP1 JUMPDEST DUP2 SLOAD DUP2 MSTORE SWAP1 PUSH1 0x1 ADD SWAP1 PUSH1 0x20 ADD DUP1 DUP4 GT PUSH2 0x3D7 JUMPI DUP3 SWAP1 SUB PUSH1 0x1F AND DUP3 ADD SWAP2 JUMPDEST POP POP POP POP POP DUP2 MSTORE PUSH1 0x20 ADD PUSH1 0x1 DUP3 ADD DUP1 SLOAD PUSH2 0x40D SWAP1 PUSH2 0x2779 JUMP JUMPDEST DUP1 PUSH1 0x1F ADD PUSH1 0x20 DUP1 SWAP2 DIV MUL PUSH1 0x20 ADD PUSH1 0x40 MLOAD SWAP1 DUP2 ADD PUSH1 0x40 MSTORE DUP1 SWAP3 SWAP2 SWAP1 DUP2 DUP2 MSTORE PUSH1 0x20 ADD DUP3 DUP1 SLOAD PUSH2 0x439 SWAP1 PUSH2 0x2779 JUMP JUMPDEST DUP1 ISZERO PUSH2 0x486 JUMPI DUP1 PUSH1 0x1F LT PUSH2 0x45B JUMPI PUSH2 0x100 DUP1 DUP4 SLOAD DIV MUL DUP4 MSTORE SWAP2 PUSH1 0x20 ADD SWAP2 PUSH2 0x486 JUMP JUMPDEST DUP3 ADD SWAP2 SWAP1 PUSH1 0x0 MSTORE PUSH1 0x20 PUSH1 0x0 KECCAK256 SWAP1 JUMPDEST DUP2 SLOAD DUP2 MSTORE SWAP1 PUSH1 0x1 ADD SWAP1 PUSH1 0x20 ADD DUP1 DUP4 GT PUSH2 0x469 JUMPI DUP3 SWAP1 SUB PUSH1 0x1F AND DUP3 ADD SWAP2 JUMPDEST POP POP POP POP POP DUP2 MSTORE PUSH1 0x20 ADD PUSH1 0x2 DUP3 ADD DUP1 SLOAD PUSH2 0x49F SWAP1 PUSH2 0x2779 JUMP JUMPDEST DUP1 PUSH1 0x1F ADD PUSH1 0x20 DUP1 SWAP2 DIV MUL PUSH1 0x20 ADD PUSH1 0x40 MLOAD SWAP1 DUP2 ADD PUSH1 0x40 MSTORE DUP1 SWAP3 SWAP2 SWAP1 DUP2 DUP2 MSTORE PUSH1 0x20 ADD DUP3 DUP1 SLOAD PUSH2 0x4CB SWAP1 PUSH2 0x2779 JUMP JUMPDEST DUP1 ISZERO PUSH2 0x518 JUMPI DUP1 PUSH1 0x1F LT PUSH2 0x4ED JUMPI PUSH2 0x100 DUP1 DUP4 SLOAD DIV MUL DUP4 MSTORE SWAP2 PUSH1 0x20 ADD SWAP2 PUSH2 0x518 JUMP JUMPDEST DUP3 ADD SWAP2 SWAP1 PUSH1 0x0 MSTORE PUSH1 0x20 PUSH1 0x0 KECCAK256 SWAP1 JUMPDEST DUP2 SLOAD DUP2 MSTORE SWAP1 PUSH1 0x1 ADD SWAP1 PUSH1 0x20 ADD DUP1 DUP4 GT PUSH2 0x4FB JUMPI DUP3 SWAP1 SUB PUSH1 0x1F AND DUP3 ADD SWAP2 JUMPDEST POP POP POP POP POP DUP2 MSTORE PUSH1 0x20 ADD PUSH1 0x3 DUP3 ADD DUP1 SLOAD PUSH2 0x531 SWAP1 PUSH2 0x2779 JUMP JUMPDEST DUP1 PUSH1 0x1F ADD PUSH1 0x20 DUP1 SWAP2 DIV MUL PUSH1 0x20 ADD PUSH1 0x40 MLOAD SWAP1 DUP2 ADD PUSH1 0x40 MSTORE DUP1 SWAP3 SWAP2 SWAP1 DUP2 DUP2 MSTORE PUSH1 0x20 ADD DUP3 DUP1 SLOAD PUSH2 0x55D SWAP1 PUSH2 0x2779 JUMP JUMPDEST DUP1 ISZERO PUSH2 0x5AA JUMPI DUP1 PUSH1 0x1F LT PUSH2 0x57F JUMPI PUSH2 0x100 DUP1 DUP4 SLOAD DIV MUL DUP4 MSTORE SWAP2 PUSH1 0x20 ADD SWAP2 PUSH2 0x5AA JUMP JUMPDEST DUP3 ADD SWAP2 SWAP1 PUSH1 0x0 MSTORE PUSH1 0x20 PUSH1 0x0 KECCAK256 SWAP1 JUMPDEST DUP2 SLOAD DUP2 MSTORE SWAP1 PUSH1 0x1 ADD SWAP1 PUSH1 0x20 ADD DUP1 DUP4 GT PUSH2 0x58D JUMPI DUP3 SWAP1 SUB PUSH1 0x1F AND DUP3 ADD SWAP2 JUMPDEST POP POP POP POP POP DUP2 MSTORE PUSH1 0x20 ADD PUSH1 0x4 DUP3 ADD DUP1 SLOAD PUSH2 0x5C3 SWAP1 PUSH2 0x2779 JUMP JUMPDEST DUP1 PUSH1 0x1F ADD PUSH1 0x20 DUP1 SWAP2 DIV MUL PUSH1 0x20 ADD PUSH1 0x40 MLOAD SWAP1 DUP2 ADD PUSH1 0x40 MSTORE DUP1 SWAP3 SWAP2 SWAP1 DUP2 DUP2 MSTORE PUSH1 0x20 ADD DUP3 DUP1 SLOAD PUSH2 0x5EF SWAP1 PUSH2 0x2779 JUMP JUMPDEST DUP1 ISZERO PUSH2 0x63C JUMPI DUP1 PUSH1 0x1F LT PUSH2 0x611 JUMPI PUSH2 0x100 DUP1 DUP4 SLOAD DIV MUL DUP4 MSTORE SWAP2 PUSH1 0x20 ADD SWAP2 PUSH2 0x63C JUMP JUMPDEST DUP3 ADD SWAP2 SWAP1 PUSH1 0x0 MSTORE PUSH1 0x20 PUSH1 0x0 KECCAK256 SWAP1 JUMPDEST DUP2 SLOAD DUP2 MSTORE SWAP1 PUSH1 0x1 ADD SWAP1 PUSH1 0x20 ADD DUP1 DUP4 GT PUSH2 0x61F JUMPI DUP3 SWAP1 SUB PUSH1 0x1F AND DUP3 ADD SWAP2 JUMPDEST POP POP POP POP POP DUP2 MSTORE PUSH1 0x20 ADD PUSH1 0x5 DUP3 ADD SLOAD DUP2 MSTORE POP POP SWAP1 POP PUSH1 0x0 PUSH1 0x3 DUP6 PUSH1 0x40 MLOAD PUSH2 0x663 SWAP2 SWAP1 PUSH2 0x2733 JUMP JUMPDEST SWAP1 DUP2 MSTORE PUSH1 0x20 ADD PUSH1 0x40 MLOAD DUP1 SWAP2 SUB SWAP1 KECCAK256 PUSH1 0x40 MLOAD DUP1 PUSH1 0xC0 ADD PUSH1 0x40 MSTORE SWAP1 DUP2 PUSH1 0x0 DUP3 ADD DUP1 SLOAD PUSH2 0x68C SWAP1 PUSH2 0x2779 JUMP JUMPDEST DUP1 PUSH1 0x1F ADD PUSH1 0x20 DUP1 SWAP2 DIV MUL PUSH1 0x20 ADD PUSH1 0x40 MLOAD SWAP1 DUP2 ADD PUSH1 0x40 MSTORE DUP1 SWAP3 SWAP2 SWAP1 DUP2 DUP2 MSTORE PUSH1 0x20 ADD DUP3 DUP1 SLOAD PUSH2 0x6B8 SWAP1 PUSH2 0x2779 JUMP JUMPDEST DUP1 ISZERO PUSH2 0x705 JUMPI DUP1 PUSH1 0x1F LT PUSH2 0x6DA JUMPI PUSH2 0x100 DUP1 DUP4 SLOAD DIV MUL DUP4 MSTORE SWAP2 PUSH1 0x20 ADD SWAP2 PUSH2 0x705 JUMP JUMPDEST DUP3 ADD SWAP2 SWAP1 PUSH1 0x0 MSTORE PUSH1 0x20 PUSH1 0x0 KECCAK256 SWAP1 JUMPDEST DUP2 SLOAD DUP2 MSTORE SWAP1 PUSH1 0x1 ADD SWAP1 PUSH1 0x20 ADD DUP1 DUP4 GT PUSH2 0x6E8 JUMPI DUP3 SWAP1 SUB PUSH1 0x1F AND DUP3 ADD SWAP2 JUMPDEST POP POP POP POP POP DUP2 MSTORE PUSH1 0x20 ADD PUSH1 0x1 DUP3 ADD DUP1 SLOAD PUSH2 0x71E SWAP1 PUSH2 0x2779 JUMP JUMPDEST DUP1 PUSH1 0x1F ADD PUSH1 0x20 DUP1 SWAP2 DIV MUL PUSH1 0x20 ADD PUSH1 0x40 MLOAD SWAP1 DUP2 ADD PUSH1 0x40 MSTORE DUP1 SWAP3 SWAP2 SWAP1 DUP2 DUP2 MSTORE PUSH1 0x20 ADD DUP3 DUP1 SLOAD PUSH2 0x74A SWAP1 PUSH2 0x2779 JUMP JUMPDEST DUP1 ISZERO PUSH2 0x797 JUMPI DUP1 PUSH1 0x1F LT PUSH2 0x76C JUMPI PUSH2 0x100 DUP1 DUP4 SLOAD DIV MUL DUP4 MSTORE SWAP2 PUSH1 0x20 ADD SWAP2 PUSH2 0x797 JUMP JUMPDEST DUP3 ADD SWAP2 SWAP1 PUSH1 0x0 MSTORE PUSH1 0x20 PUSH1 0x0 KECCAK256 SWAP1 JUMPDEST DUP2 SLOAD DUP2 MSTORE SWAP1 PUSH1 0x1 ADD SWAP1 PUSH1 0x20 ADD DUP1 DUP4 GT PUSH2 0x77A JUMPI DUP3 SWAP1 SUB PUSH1 0x1F AND DUP3 ADD SWAP2 JUMPDEST POP POP POP POP POP DUP2 MSTORE PUSH1 0x20 ADD PUSH1 0x2 DUP3 ADD DUP1 SLOAD PUSH2 0x7B0 SWAP1 PUSH2 0x2779 JUMP JUMPDEST DUP1 PUSH1 0x1F ADD PUSH1 0x20 DUP1 SWAP2 DIV MUL PUSH1 0x20 ADD PUSH1 0x40 MLOAD SWAP1 DUP2 ADD PUSH1 0x40 MSTORE DUP1 SWAP3 SWAP2 SWAP1 DUP2 DUP2 MSTORE PUSH1 0x20 ADD DUP3 DUP1 SLOAD PUSH2 0x7DC SWAP1 PUSH2 0x2779 JUMP JUMPDEST DUP1 ISZERO PUSH2 0x829 JUMPI DUP1 PUSH1 0x1F LT PUSH2 0x7FE JUMPI PUSH2 0x100 DUP1 DUP4 SLOAD DIV MUL DUP4 MSTORE SWAP2 PUSH1 0x20 ADD SWAP2 PUSH2 0x829 JUMP JUMPDEST DUP3 ADD SWAP2 SWAP1 PUSH1 0x0 MSTORE PUSH1 0x20 PUSH1 0x0 KECCAK256 SWAP1 JUMPDEST DUP2 SLOAD DUP2 MSTORE SWAP1 PUSH1 0x1 ADD SWAP1 PUSH1 0x20 ADD DUP1 DUP4 GT PUSH2 0x80C JUMPI DUP3 SWAP1 SUB PUSH1 0x1F AND DUP3 ADD SWAP2 JUMPDEST POP POP POP POP POP DUP2 MSTORE PUSH1 0x20 ADD PUSH1 0x3 DUP3 ADD DUP1 SLOAD PUSH2 0x842 SWAP1 PUSH2 0x2779 JUMP JUMPDEST DUP1 PUSH1 0x1F ADD PUSH1 0x20 DUP1 SWAP2 DIV MUL PUSH1 0x20 ADD PUSH1 0x40 MLOAD SWAP1 DUP2 ADD PUSH1 0x40 MSTORE DUP1 SWAP3 SWAP2 SWAP1 DUP2 DUP2 MSTORE PUSH1 0x20 ADD DUP3 DUP1 SLOAD PUSH2 0x86E SWAP1 PUSH2 0x2779 JUMP JUMPDEST DUP1 ISZERO PUSH2 0x8BB JUMPI DUP1 PUSH1 0x1F LT PUSH2 0x890 JUMPI PUSH2 0x100 DUP1 DUP4 SLOAD DIV MUL DUP4 MSTORE SWAP2 PUSH1 0x20 ADD SWAP2 PUSH2 0x8BB JUMP JUMPDEST DUP3 ADD SWAP2 SWAP1 PUSH1 0x0 MSTORE PUSH1 0x20 PUSH1 0x0 KECCAK256 SWAP1 JUMPDEST DUP2 SLOAD DUP2 MSTORE SWAP1 PUSH1 0x1 ADD SWAP1 PUSH1 0x20 ADD DUP1 DUP4 GT PUSH2 0x89E JUMPI DUP3 SWAP1 SUB PUSH1 0x1F AND DUP3 ADD SWAP2 JUMPDEST POP POP POP POP POP DUP2 MSTORE PUSH1 0x20 ADD PUSH1 0x4 DUP3 ADD DUP1 SLOAD DUP1 PUSH1 0x20 MUL PUSH1 0x20 ADD PUSH1 0x40 MLOAD SWAP1 DUP2 ADD PUSH1 0x40 MSTORE DUP1 SWAP3 SWAP2 SWAP1 DUP2 DUP2 MSTORE PUSH1 0x20 ADD PUSH1 0x0 SWAP1 JUMPDEST DUP3 DUP3 LT ISZERO PUSH2 0x995 JUMPI DUP4 DUP3 SWAP1 PUSH1 0x0 MSTORE PUSH1 0x20 PUSH1 0x0 KECCAK256 ADD DUP1 SLOAD PUSH2 0x908 SWAP1 PUSH2 0x2779 JUMP JUMPDEST DUP1 PUSH1 0x1F ADD PUSH1 0x20 DUP1 SWAP2 DIV MUL PUSH1 0x20 ADD PUSH1 0x40 MLOAD SWAP1 DUP2 ADD PUSH1 0x40 MSTORE DUP1 SWAP3 SWAP2 SWAP1 DUP2 DUP2 MSTORE PUSH1 0x20 ADD DUP3 DUP1 SLOAD PUSH2 0x934 SWAP1 PUSH2 0x2779 JUMP JUMPDEST DUP1 ISZERO PUSH2 0x981 JUMPI DUP1 PUSH1 0x1F LT PUSH2 0x956 JUMPI PUSH2 0x100 DUP1 DUP4 SLOAD DIV MUL DUP4 MSTORE SWAP2 PUSH1 0x20 ADD SWAP2 PUSH2 0x981 JUMP JUMPDEST DUP3 ADD SWAP2 SWAP1 PUSH1 0x0 MSTORE PUSH1 0x20 PUSH1 0x0 KECCAK256 SWAP1 JUMPDEST DUP2 SLOAD DUP2 MSTORE SWAP1 PUSH1 0x1 ADD SWAP1 PUSH1 0x20 ADD DUP1 DUP4 GT PUSH2 0x964 JUMPI DUP3 SWAP1 SUB PUSH1 0x1F AND DUP3 ADD SWAP2 JUMPDEST POP POP POP POP POP DUP2 MSTORE PUSH1 0x20 ADD SWAP1 PUSH1 0x1 ADD SWAP1 PUSH2 0x8E9 JUMP JUMPDEST POP POP POP POP DUP2 MSTORE PUSH1 0x20 ADD PUSH1 0x5 DUP3 ADD PUSH1 0x0 SWAP1 SLOAD SWAP1 PUSH2 0x100 EXP SWAP1 DIV PUSH1 0xFF AND ISZERO ISZERO ISZERO ISZERO DUP2 MSTORE POP POP SWAP1 POP PUSH1 0x0 PUSH1 0x3 DUP7 PUSH1 0x40 MLOAD PUSH2 0x9CC SWAP2 SWAP1 PUSH2 0x2733 JUMP JUMPDEST SWAP1 DUP2 MSTORE PUSH1 0x20 ADD PUSH1 0x40 MLOAD DUP1 SWAP2 SUB SWAP1 KECCAK256 PUSH1 0x4 ADD DUP1 SLOAD SWAP1 POP SWAP1 POP PUSH1 0x0 PUSH1 0x3 DUP7 PUSH1 0x40 MLOAD PUSH2 0x9F5 SWAP2 SWAP1 PUSH2 0x2733 JUMP JUMPDEST SWAP1 DUP2 MSTORE PUSH1 0x20 ADD PUSH1 0x40 MLOAD DUP1 SWAP2 SUB SWAP1 KECCAK256 PUSH1 0x40 MLOAD DUP1 PUSH1 0xC0 ADD PUSH1 0x40 MSTORE SWAP1 DUP2 PUSH1 0x0 DUP3 ADD DUP1 SLOAD PUSH2 0xA1E SWAP1 PUSH2 0x2779 JUMP JUMPDEST DUP1 PUSH1 0x1F ADD PUSH1 0x20 DUP1 SWAP2 DIV MUL PUSH1 0x20 ADD PUSH1 0x40 MLOAD SWAP1 DUP2 ADD PUSH1 0x40 MSTORE DUP1 SWAP3 SWAP2 SWAP1 DUP2 DUP2 MSTORE PUSH1 0x20 ADD DUP3 DUP1 SLOAD PUSH2 0xA4A SWAP1 PUSH2 0x2779 JUMP JUMPDEST DUP1 ISZERO PUSH2 0xA97 JUMPI DUP1 PUSH1 0x1F LT PUSH2 0xA6C JUMPI PUSH2 0x100 DUP1 DUP4 SLOAD DIV MUL DUP4 MSTORE SWAP2 PUSH1 0x20 ADD SWAP2 PUSH2 0xA97 JUMP JUMPDEST DUP3 ADD SWAP2 SWAP1 PUSH1 0x0 MSTORE PUSH1 0x20 PUSH1 0x0 KECCAK256 SWAP1 JUMPDEST DUP2 SLOAD DUP2 MSTORE SWAP1 PUSH1 0x1 ADD SWAP1 PUSH1 0x20 ADD DUP1 DUP4 GT PUSH2 0xA7A JUMPI DUP3 SWAP1 SUB PUSH1 0x1F AND DUP3 ADD SWAP2 JUMPDEST POP POP POP POP POP DUP2 MSTORE PUSH1 0x20 ADD PUSH1 0x1 DUP3 ADD DUP1 SLOAD PUSH2 0xAB0 SWAP1 PUSH2 0x2779 JUMP JUMPDEST DUP1 PUSH1 0x1F ADD PUSH1 0x20 DUP1 SWAP2 DIV MUL PUSH1 0x20 ADD PUSH1 0x40 MLOAD SWAP1 DUP2 ADD PUSH1 0x40 MSTORE DUP1 SWAP3 SWAP2 SWAP1 DUP2 DUP2 MSTORE PUSH1 0x20 ADD DUP3 DUP1 SLOAD PUSH2 0xADC SWAP1 PUSH2 0x2779 JUMP JUMPDEST DUP1 ISZERO PUSH2 0xB29 JUMPI DUP1 PUSH1 0x1F LT PUSH2 0xAFE JUMPI PUSH2 0x100 DUP1 DUP4 SLOAD DIV MUL DUP4 MSTORE SWAP2 PUSH1 0x20 ADD SWAP2 PUSH2 0xB29 JUMP JUMPDEST DUP3 ADD SWAP2 SWAP1 PUSH1 0x0 MSTORE PUSH1 0x20 PUSH1 0x0 KECCAK256 SWAP1 JUMPDEST DUP2 SLOAD DUP2 MSTORE SWAP1 PUSH1 0x1 ADD SWAP1 PUSH1 0x20 ADD DUP1 DUP4 GT PUSH2 0xB0C JUMPI DUP3 SWAP1 SUB PUSH1 0x1F AND DUP3 ADD SWAP2 JUMPDEST POP POP POP POP POP DUP2 MSTORE PUSH1 0x20 ADD PUSH1 0x2 DUP3 ADD DUP1 SLOAD PUSH2 0xB42 SWAP1 PUSH2 0x2779 JUMP JUMPDEST DUP1 PUSH1 0x1F ADD PUSH1 0x20 DUP1 SWAP2 DIV MUL PUSH1 0x20 ADD PUSH1 0x40 MLOAD SWAP1 DUP2 ADD PUSH1 0x40 MSTORE DUP1 SWAP3 SWAP2 SWAP1 DUP2 DUP2 MSTORE PUSH1 0x20 ADD DUP3 DUP1 SLOAD PUSH2 0xB6E SWAP1 PUSH2 0x2779 JUMP JUMPDEST DUP1 ISZERO PUSH2 0xBBB JUMPI DUP1 PUSH1 0x1F LT PUSH2 0xB90 JUMPI PUSH2 0x100 DUP1 DUP4 SLOAD DIV MUL DUP4 MSTORE SWAP2 PUSH1 0x20 ADD SWAP2 PUSH2 0xBBB JUMP JUMPDEST DUP3 ADD SWAP2 SWAP1 PUSH1 0x0 MSTORE PUSH1 0x20 PUSH1 0x0 KECCAK256 SWAP1 JUMPDEST DUP2 SLOAD DUP2 MSTORE SWAP1 PUSH1 0x1 ADD SWAP1 PUSH1 0x20 ADD DUP1 DUP4 GT PUSH2 0xB9E JUMPI DUP3 SWAP1 SUB PUSH1 0x1F AND DUP3 ADD SWAP2 JUMPDEST POP POP POP POP POP DUP2 MSTORE PUSH1 0x20 ADD PUSH1 0x3 DUP3 ADD DUP1 SLOAD PUSH2 0xBD4 SWAP1 PUSH2 0x2779 JUMP JUMPDEST DUP1 PUSH1 0x1F ADD PUSH1 0x20 DUP1 SWAP2 DIV MUL PUSH1 0x20 ADD PUSH1 0x40 MLOAD SWAP1 DUP2 ADD PUSH1 0x40 MSTORE DUP1 SWAP3 SWAP2 SWAP1 DUP2 DUP2 MSTORE PUSH1 0x20 ADD DUP3 DUP1 SLOAD PUSH2 0xC00 SWAP1 PUSH2 0x2779 JUMP JUMPDEST DUP1 ISZERO PUSH2 0xC4D JUMPI DUP1 PUSH1 0x1F LT PUSH2 0xC22 JUMPI PUSH2 0x100 DUP1 DUP4 SLOAD DIV MUL DUP4 MSTORE SWAP2 PUSH1 0x20 ADD SWAP2 PUSH2 0xC4D JUMP JUMPDEST DUP3 ADD SWAP2 SWAP1 PUSH1 0x0 MSTORE PUSH1 0x20 PUSH1 0x0 KECCAK256 SWAP1 JUMPDEST DUP2 SLOAD DUP2 MSTORE SWAP1 PUSH1 0x1 ADD SWAP1 PUSH1 0x20 ADD DUP1 DUP4 GT PUSH2 0xC30 JUMPI DUP3 SWAP1 SUB PUSH1 0x1F AND DUP3 ADD SWAP2 JUMPDEST POP POP POP POP POP DUP2 MSTORE PUSH1 0x20 ADD PUSH1 0x4 DUP3 ADD DUP1 SLOAD DUP1 PUSH1 0x20 MUL PUSH1 0x20 ADD PUSH1 0x40 MLOAD SWAP1 DUP2 ADD PUSH1 0x40 MSTORE DUP1 SWAP3 SWAP2 SWAP1 DUP2 DUP2 MSTORE PUSH1 0x20 ADD PUSH1 0x0 SWAP1 JUMPDEST DUP3 DUP3 LT ISZERO PUSH2 0xD27 JUMPI DUP4 DUP3 SWAP1 PUSH1 0x0 MSTORE PUSH1 0x20 PUSH1 0x0 KECCAK256 ADD DUP1 SLOAD PUSH2 0xC9A SWAP1 PUSH2 0x2779 JUMP JUMPDEST DUP1 PUSH1 0x1F ADD PUSH1 0x20 DUP1 SWAP2 DIV MUL PUSH1 0x20 ADD PUSH1 0x40 MLOAD SWAP1 DUP2 ADD PUSH1 0x40 MSTORE DUP1 SWAP3 SWAP2 SWAP1 DUP2 DUP2 MSTORE PUSH1 0x20 ADD DUP3 DUP1 SLOAD PUSH2 0xCC6 SWAP1 PUSH2 0x2779 JUMP JUMPDEST DUP1 ISZERO PUSH2 0xD13 JUMPI DUP1 PUSH1 0x1F LT PUSH2 0xCE8 JUMPI PUSH2 0x100 DUP1 DUP4 SLOAD DIV MUL DUP4 MSTORE SWAP2 PUSH1 0x20 ADD SWAP2 PUSH2 0xD13 JUMP JUMPDEST DUP3 ADD SWAP2 SWAP1 PUSH1 0x0 MSTORE PUSH1 0x20 PUSH1 0x0 KECCAK256 SWAP1 JUMPDEST DUP2 SLOAD DUP2 MSTORE SWAP1 PUSH1 0x1 ADD SWAP1 PUSH1 0x20 ADD DUP1 DUP4 GT PUSH2 0xCF6 JUMPI DUP3 SWAP1 SUB PUSH1 0x1F AND DUP3 ADD SWAP2 JUMPDEST POP POP POP POP POP DUP2 MSTORE PUSH1 0x20 ADD SWAP1 PUSH1 0x1 ADD SWAP1 PUSH2 0xC7B JUMP JUMPDEST POP POP POP POP DUP2 MSTORE PUSH1 0x20 ADD PUSH1 0x5 DUP3 ADD PUSH1 0x0 SWAP1 SLOAD SWAP1 PUSH2 0x100 EXP SWAP1 DIV PUSH1 0xFF AND ISZERO ISZERO ISZERO ISZERO DUP2 MSTORE POP POP SWAP1 POP DUP3 PUSH1 0xA0 ADD MLOAD DUP1 ISZERO PUSH2 0xD5E JUMPI POP DUP1 PUSH1 0xA0 ADD MLOAD JUMPDEST ISZERO PUSH2 0xF79 JUMPI PUSH1 0x0 JUMPDEST DUP3 DUP2 LT ISZERO PUSH2 0xF77 JUMPI PUSH2 0xD96 DUP5 PUSH1 0x80 ADD MLOAD DUP3 DUP2 MLOAD DUP2 LT PUSH2 0xD88 JUMPI PUSH2 0xD87 PUSH2 0x27AA JUMP JUMPDEST JUMPDEST PUSH1 0x20 MUL PUSH1 0x20 ADD ADD MLOAD DUP11 PUSH2 0x1DD5 JUMP JUMPDEST ISZERO PUSH2 0xF64 JUMPI PUSH2 0xDA9 DUP6 PUSH1 0x80 ADD MLOAD DUP10 PUSH2 0x1DD5 JUMP JUMPDEST ISZERO PUSH2 0xDDE JUMPI DUP7 PUSH1 0x0 DUP11 PUSH1 0x40 MLOAD PUSH2 0xDBF SWAP2 SWAP1 PUSH2 0x2733 JUMP JUMPDEST SWAP1 DUP2 MSTORE PUSH1 0x20 ADD PUSH1 0x40 MLOAD DUP1 SWAP2 SUB SWAP1 KECCAK256 PUSH1 0x4 ADD SWAP1 DUP2 PUSH2 0xDDC SWAP2 SWAP1 PUSH2 0x298F JUMP JUMPDEST POP JUMPDEST PUSH1 0x0 JUMPDEST DUP4 DUP2 LT ISZERO PUSH2 0xF5E JUMPI PUSH2 0xEB8 PUSH1 0x3 DUP11 PUSH1 0x40 MLOAD PUSH2 0xDFC SWAP2 SWAP1 PUSH2 0x2733 JUMP JUMPDEST SWAP1 DUP2 MSTORE PUSH1 0x20 ADD PUSH1 0x40 MLOAD DUP1 SWAP2 SUB SWAP1 KECCAK256 PUSH1 0x4 ADD DUP3 DUP2 SLOAD DUP2 LT PUSH2 0xE1F JUMPI PUSH2 0xE1E PUSH2 0x27AA JUMP JUMPDEST JUMPDEST SWAP1 PUSH1 0x0 MSTORE PUSH1 0x20 PUSH1 0x0 KECCAK256 ADD DUP1 SLOAD PUSH2 0xE34 SWAP1 PUSH2 0x2779 JUMP JUMPDEST DUP1 PUSH1 0x1F ADD PUSH1 0x20 DUP1 SWAP2 DIV MUL PUSH1 0x20 ADD PUSH1 0x40 MLOAD SWAP1 DUP2 ADD PUSH1 0x40 MSTORE DUP1 SWAP3 SWAP2 SWAP1 DUP2 DUP2 MSTORE PUSH1 0x20 ADD DUP3 DUP1 SLOAD PUSH2 0xE60 SWAP1 PUSH2 0x2779 JUMP JUMPDEST DUP1 ISZERO PUSH2 0xEAD JUMPI DUP1 PUSH1 0x1F LT PUSH2 0xE82 JUMPI PUSH2 0x100 DUP1 DUP4 SLOAD DIV MUL DUP4 MSTORE SWAP2 PUSH1 0x20 ADD SWAP2 PUSH2 0xEAD JUMP JUMPDEST DUP3 ADD SWAP2 SWAP1 PUSH1 0x0 MSTORE PUSH1 0x20 PUSH1 0x0 KECCAK256 SWAP1 JUMPDEST DUP2 SLOAD DUP2 MSTORE SWAP1 PUSH1 0x1 ADD SWAP1 PUSH1 0x20 ADD DUP1 DUP4 GT PUSH2 0xE90 JUMPI DUP3 SWAP1 SUB PUSH1 0x1F AND DUP3 ADD SWAP2 JUMPDEST POP POP POP POP POP DUP12 PUSH2 0x1DD5 JUMP JUMPDEST ISZERO PUSH2 0xF4B JUMPI PUSH2 0xEE7 DUP2 PUSH1 0x3 DUP12 PUSH1 0x40 MLOAD PUSH2 0xED1 SWAP2 SWAP1 PUSH2 0x2733 JUMP JUMPDEST SWAP1 DUP2 MSTORE PUSH1 0x20 ADD PUSH1 0x40 MLOAD DUP1 SWAP2 SUB SWAP1 KECCAK256 PUSH1 0x4 ADD PUSH2 0x1E2E JUMP JUMPDEST POP PUSH1 0x3 DUP9 PUSH1 0x40 MLOAD PUSH2 0xEF8 SWAP2 SWAP1 PUSH2 0x2733 JUMP JUMPDEST SWAP1 DUP2 MSTORE PUSH1 0x20 ADD PUSH1 0x40 MLOAD DUP1 SWAP2 SUB SWAP1 KECCAK256 PUSH1 0x4 ADD DUP11 SWAP1 DUP1 PUSH1 0x1 DUP2 SLOAD ADD DUP1 DUP3 SSTORE DUP1 SWAP2 POP POP PUSH1 0x1 SWAP1 SUB SWAP1 PUSH1 0x0 MSTORE PUSH1 0x20 PUSH1 0x0 KECCAK256 ADD PUSH1 0x0 SWAP1 SWAP2 SWAP1 SWAP2 SWAP1 SWAP2 POP SWAP1 DUP2 PUSH2 0xF3B SWAP2 SWAP1 PUSH2 0x298F JUMP JUMPDEST POP PUSH1 0x1 SWAP7 POP POP POP POP POP POP POP PUSH2 0xF82 JUMP JUMPDEST DUP1 DUP1 PUSH2 0xF56 SWAP1 PUSH2 0x2A90 JUMP JUMPDEST SWAP2 POP POP PUSH2 0xDE1 JUMP JUMPDEST POP PUSH2 0xF77 JUMP JUMPDEST DUP1 DUP1 PUSH2 0xF6F SWAP1 PUSH2 0x2A90 JUMP JUMPDEST SWAP2 POP POP PUSH2 0xD66 JUMP JUMPDEST POP JUMPDEST PUSH1 0x0 SWAP5 POP POP POP POP POP JUMPDEST SWAP4 SWAP3 POP POP POP JUMP JUMPDEST PUSH1 0x60 DUP1 PUSH1 0x2 DUP4 PUSH1 0x40 MLOAD PUSH2 0xF9C SWAP2 SWAP1 PUSH2 0x2733 JUMP JUMPDEST SWAP1 DUP2 MSTORE PUSH1 0x20 ADD PUSH1 0x40 MLOAD DUP1 SWAP2 SUB SWAP1 KECCAK256 PUSH1 0x0 ADD PUSH1 0x2 DUP5 PUSH1 0x40 MLOAD PUSH2 0xFBD SWAP2 SWAP1 PUSH2 0x2733 JUMP JUMPDEST SWAP1 DUP2 MSTORE PUSH1 0x20 ADD PUSH1 0x40 MLOAD DUP1 SWAP2 SUB SWAP1 KECCAK256 PUSH1 0x2 ADD DUP2 DUP1 SLOAD PUSH2 0xFDA SWAP1 PUSH2 0x2779 JUMP JUMPDEST DUP1 PUSH1 0x1F ADD PUSH1 0x20 DUP1 SWAP2 DIV MUL PUSH1 0x20 ADD PUSH1 0x40 MLOAD SWAP1 DUP2 ADD PUSH1 0x40 MSTORE DUP1 SWAP3 SWAP2 SWAP1 DUP2 DUP2 MSTORE PUSH1 0x20 ADD DUP3 DUP1 SLOAD PUSH2 0x1006 SWAP1 PUSH2 0x2779 JUMP JUMPDEST DUP1 ISZERO PUSH2 0x1053 JUMPI DUP1 PUSH1 0x1F LT PUSH2 0x1028 JUMPI PUSH2 0x100 DUP1 DUP4 SLOAD DIV MUL DUP4 MSTORE SWAP2 PUSH1 0x20 ADD SWAP2 PUSH2 0x1053 JUMP JUMPDEST DUP3 ADD SWAP2 SWAP1 PUSH1 0x0 MSTORE PUSH1 0x20 PUSH1 0x0 KECCAK256 SWAP1 JUMPDEST DUP2 SLOAD DUP2 MSTORE SWAP1 PUSH1 0x1 ADD SWAP1 PUSH1 0x20 ADD DUP1 DUP4 GT PUSH2 0x1036 JUMPI DUP3 SWAP1 SUB PUSH1 0x1F AND DUP3 ADD SWAP2 JUMPDEST POP POP POP POP POP SWAP2 POP DUP1 DUP1 SLOAD PUSH2 0x1066 SWAP1 PUSH2 0x2779 JUMP JUMPDEST DUP1 PUSH1 0x1F ADD PUSH1 0x20 DUP1 SWAP2 DIV MUL PUSH1 0x20 ADD PUSH1 0x40 MLOAD SWAP1 DUP2 ADD PUSH1 0x40 MSTORE DUP1 SWAP3 SWAP2 SWAP1 DUP2 DUP2 MSTORE PUSH1 0x20 ADD DUP3 DUP1 SLOAD PUSH2 0x1092 SWAP1 PUSH2 0x2779 JUMP JUMPDEST DUP1 ISZERO PUSH2 0x10DF JUMPI DUP1 PUSH1 0x1F LT PUSH2 0x10B4 JUMPI PUSH2 0x100 DUP1 DUP4 SLOAD DIV MUL DUP4 MSTORE SWAP2 PUSH1 0x20 ADD SWAP2 PUSH2 0x10DF JUMP JUMPDEST DUP3 ADD SWAP2 SWAP1 PUSH1 0x0 MSTORE PUSH1 0x20 PUSH1 0x0 KECCAK256 SWAP1 JUMPDEST DUP2 SLOAD DUP2 MSTORE SWAP1 PUSH1 0x1 ADD SWAP1 PUSH1 0x20 ADD DUP1 DUP4 GT PUSH2 0x10C2 JUMPI DUP3 SWAP1 SUB PUSH1 0x1F AND DUP3 ADD SWAP2 JUMPDEST POP POP POP POP POP SWAP1 POP SWAP2 POP SWAP2 POP SWAP2 POP SWAP2 JUMP JUMPDEST PUSH1 0x0 DUP2 PUSH1 0x0 DUP5 PUSH1 0x40 MLOAD PUSH2 0x1102 SWAP2 SWAP1 PUSH2 0x2733 JUMP JUMPDEST SWAP1 DUP2 MSTORE PUSH1 0x20 ADD PUSH1 0x40 MLOAD DUP1 SWAP2 SUB SWAP1 KECCAK256 PUSH1 0x3 ADD SWAP1 DUP2 PUSH2 0x111F SWAP2 SWAP1 PUSH2 0x298F JUMP JUMPDEST POP PUSH1 0x1 SWAP1 POP SWAP3 SWAP2 POP POP JUMP JUMPDEST PUSH1 0x0 PUSH2 0x1134 PUSH2 0x1F2E JUMP JUMPDEST DUP4 DUP2 PUSH1 0x0 ADD DUP2 SWAP1 MSTORE POP DUP3 DUP2 PUSH1 0x40 ADD DUP2 SWAP1 MSTORE POP DUP1 PUSH1 0x2 DUP7 PUSH1 0x40 MLOAD PUSH2 0x1157 SWAP2 SWAP1 PUSH2 0x2733 JUMP JUMPDEST SWAP1 DUP2 MSTORE PUSH1 0x20 ADD PUSH1 0x40 MLOAD DUP1 SWAP2 SUB SWAP1 KECCAK256 PUSH1 0x0 DUP3 ADD MLOAD DUP2 PUSH1 0x0 ADD SWAP1 DUP2 PUSH2 0x117A SWAP2 SWAP1 PUSH2 0x298F JUMP JUMPDEST POP PUSH1 0x20 DUP3 ADD MLOAD DUP2 PUSH1 0x1 ADD SWAP1 DUP2 PUSH2 0x1190 SWAP2 SWAP1 PUSH2 0x298F JUMP JUMPDEST POP PUSH1 0x40 DUP3 ADD MLOAD DUP2 PUSH1 0x2 ADD SWAP1 DUP2 PUSH2 0x11A6 SWAP2 SWAP1 PUSH2 0x298F JUMP JUMPDEST POP SWAP1 POP POP PUSH1 0x1 SWAP2 POP POP SWAP4 SWAP3 POP POP POP JUMP JUMPDEST PUSH1 0x60 DUP1 PUSH1 0x2 DUP4 PUSH1 0x40 MLOAD PUSH2 0x11C9 SWAP2 SWAP1 PUSH2 0x2733 JUMP JUMPDEST SWAP1 DUP2 MSTORE PUSH1 0x20 ADD PUSH1 0x40 MLOAD DUP1 SWAP2 SUB SWAP1 KECCAK256 PUSH1 0x0 ADD PUSH1 0x2 DUP5 PUSH1 0x40 MLOAD PUSH2 0x11EA SWAP2 SWAP1 PUSH2 0x2733 JUMP JUMPDEST SWAP1 DUP2 MSTORE PUSH1 0x20 ADD PUSH1 0x40 MLOAD DUP1 SWAP2 SUB SWAP1 KECCAK256 PUSH1 0x2 ADD DUP2 DUP1 SLOAD PUSH2 0x1207 SWAP1 PUSH2 0x2779 JUMP JUMPDEST DUP1 PUSH1 0x1F ADD PUSH1 0x20 DUP1 SWAP2 DIV MUL PUSH1 0x20 ADD PUSH1 0x40 MLOAD SWAP1 DUP2 ADD PUSH1 0x40 MSTORE DUP1 SWAP3 SWAP2 SWAP1 DUP2 DUP2 MSTORE PUSH1 0x20 ADD DUP3 DUP1 SLOAD PUSH2 0x1233 SWAP1 PUSH2 0x2779 JUMP JUMPDEST DUP1 ISZERO PUSH2 0x1280 JUMPI DUP1 PUSH1 0x1F LT PUSH2 0x1255 JUMPI PUSH2 0x100 DUP1 DUP4 SLOAD DIV MUL DUP4 MSTORE SWAP2 PUSH1 0x20 ADD SWAP2 PUSH2 0x1280 JUMP JUMPDEST DUP3 ADD SWAP2 SWAP1 PUSH1 0x0 MSTORE PUSH1 0x20 PUSH1 0x0 KECCAK256 SWAP1 JUMPDEST DUP2 SLOAD DUP2 MSTORE SWAP1 PUSH1 0x1 ADD SWAP1 PUSH1 0x20 ADD DUP1 DUP4 GT PUSH2 0x1263 JUMPI DUP3 SWAP1 SUB PUSH1 0x1F AND DUP3 ADD SWAP2 JUMPDEST POP POP POP POP POP SWAP2 POP DUP1 DUP1 SLOAD PUSH2 0x1293 SWAP1 PUSH2 0x2779 JUMP JUMPDEST DUP1 PUSH1 0x1F ADD PUSH1 0x20 DUP1 SWAP2 DIV MUL PUSH1 0x20 ADD PUSH1 0x40 MLOAD SWAP1 DUP2 ADD PUSH1 0x40 MSTORE DUP1 SWAP3 SWAP2 SWAP1 DUP2 DUP2 MSTORE PUSH1 0x20 ADD DUP3 DUP1 SLOAD PUSH2 0x12BF SWAP1 PUSH2 0x2779 JUMP JUMPDEST DUP1 ISZERO PUSH2 0x130C JUMPI DUP1 PUSH1 0x1F LT PUSH2 0x12E1 JUMPI PUSH2 0x100 DUP1 DUP4 SLOAD DIV MUL DUP4 MSTORE SWAP2 PUSH1 0x20 ADD SWAP2 PUSH2 0x130C JUMP JUMPDEST DUP3 ADD SWAP2 SWAP1 PUSH1 0x0 MSTORE PUSH1 0x20 PUSH1 0x0 KECCAK256 SWAP1 JUMPDEST DUP2 SLOAD DUP2 MSTORE SWAP1 PUSH1 0x1 ADD SWAP1 PUSH1 0x20 ADD DUP1 DUP4 GT PUSH2 0x12EF JUMPI DUP3 SWAP1 SUB PUSH1 0x1F AND DUP3 ADD SWAP2 JUMPDEST POP POP POP POP POP SWAP1 POP SWAP2 POP SWAP2 POP SWAP2 POP SWAP2 JUMP JUMPDEST PUSH1 0x0 PUSH1 0x3 DUP6 PUSH1 0x40 MLOAD PUSH2 0x132E SWAP2 SWAP1 PUSH2 0x2733 JUMP JUMPDEST SWAP1 DUP2 MSTORE PUSH1 0x20 ADD PUSH1 0x40 MLOAD DUP1 SWAP2 SUB SWAP1 KECCAK256 PUSH1 0x5 ADD PUSH1 0x0 SWAP1 SLOAD SWAP1 PUSH2 0x100 EXP SWAP1 DIV PUSH1 0xFF AND ISZERO PUSH2 0x135B JUMPI PUSH1 0x0 SWAP1 POP PUSH2 0x144C JUMP JUMPDEST PUSH2 0x1363 PUSH2 0x1F4F JUMP JUMPDEST DUP5 DUP2 PUSH1 0x0 ADD DUP2 SWAP1 MSTORE POP DUP4 DUP2 PUSH1 0x60 ADD DUP2 SWAP1 MSTORE POP DUP3 DUP2 PUSH1 0x40 ADD DUP2 SWAP1 MSTORE POP PUSH1 0x1 DUP2 PUSH1 0xA0 ADD SWAP1 ISZERO ISZERO SWAP1 DUP2 ISZERO ISZERO DUP2 MSTORE POP POP DUP1 PUSH1 0x3 DUP8 PUSH1 0x40 MLOAD PUSH2 0x13A0 SWAP2 SWAP1 PUSH2 0x2733 JUMP JUMPDEST SWAP1 DUP2 MSTORE PUSH1 0x20 ADD PUSH1 0x40 MLOAD DUP1 SWAP2 SUB SWAP1 KECCAK256 PUSH1 0x0 DUP3 ADD MLOAD DUP2 PUSH1 0x0 ADD SWAP1 DUP2 PUSH2 0x13C3 SWAP2 SWAP1 PUSH2 0x298F JUMP JUMPDEST POP PUSH1 0x20 DUP3 ADD MLOAD DUP2 PUSH1 0x1 ADD SWAP1 DUP2 PUSH2 0x13D9 SWAP2 SWAP1 PUSH2 0x298F JUMP JUMPDEST POP PUSH1 0x40 DUP3 ADD MLOAD DUP2 PUSH1 0x2 ADD SWAP1 DUP2 PUSH2 0x13EF SWAP2 SWAP1 PUSH2 0x298F JUMP JUMPDEST POP PUSH1 0x60 DUP3 ADD MLOAD DUP2 PUSH1 0x3 ADD SWAP1 DUP2 PUSH2 0x1405 SWAP2 SWAP1 PUSH2 0x298F JUMP JUMPDEST POP PUSH1 0x80 DUP3 ADD MLOAD DUP2 PUSH1 0x4 ADD SWAP1 DUP1 MLOAD SWAP1 PUSH1 0x20 ADD SWAP1 PUSH2 0x1422 SWAP3 SWAP2 SWAP1 PUSH2 0x1F87 JUMP JUMPDEST POP PUSH1 0xA0 DUP3 ADD MLOAD DUP2 PUSH1 0x5 ADD PUSH1 0x0 PUSH2 0x100 EXP DUP2 SLOAD DUP2 PUSH1 0xFF MUL NOT AND SWAP1 DUP4 ISZERO ISZERO MUL OR SWAP1 SSTORE POP SWAP1 POP POP PUSH1 0x1 SWAP2 POP POP JUMPDEST SWAP5 SWAP4 POP POP POP POP JUMP JUMPDEST PUSH1 0x0 PUSH2 0x145E PUSH2 0x1F2E JUMP JUMPDEST DUP4 DUP2 PUSH1 0x0 ADD DUP2 SWAP1 MSTORE POP DUP3 DUP2 PUSH1 0x40 ADD DUP2 SWAP1 MSTORE POP DUP1 PUSH1 0x2 DUP7 PUSH1 0x40 MLOAD PUSH2 0x1481 SWAP2 SWAP1 PUSH2 0x2733 JUMP JUMPDEST SWAP1 DUP2 MSTORE PUSH1 0x20 ADD PUSH1 0x40 MLOAD DUP1 SWAP2 SUB SWAP1 KECCAK256 PUSH1 0x0 DUP3 ADD MLOAD DUP2 PUSH1 0x0 ADD SWAP1 DUP2 PUSH2 0x14A4 SWAP2 SWAP1 PUSH2 0x298F JUMP JUMPDEST POP PUSH1 0x20 DUP3 ADD MLOAD DUP2 PUSH1 0x1 ADD SWAP1 DUP2 PUSH2 0x14BA SWAP2 SWAP1 PUSH2 0x298F JUMP JUMPDEST POP PUSH1 0x40 DUP3 ADD MLOAD DUP2 PUSH1 0x2 ADD SWAP1 DUP2 PUSH2 0x14D0 SWAP2 SWAP1 PUSH2 0x298F JUMP JUMPDEST POP SWAP1 POP POP PUSH1 0x1 SWAP2 POP POP SWAP4 SWAP3 POP POP POP JUMP JUMPDEST PUSH1 0x60 DUP1 PUSH1 0x60 PUSH1 0x3 DUP5 PUSH1 0x40 MLOAD PUSH2 0x14F5 SWAP2 SWAP1 PUSH2 0x2733 JUMP JUMPDEST SWAP1 DUP2 MSTORE PUSH1 0x20 ADD PUSH1 0x40 MLOAD DUP1 SWAP2 SUB SWAP1 KECCAK256 PUSH1 0x0 ADD PUSH1 0x3 DUP6 PUSH1 0x40 MLOAD PUSH2 0x1516 SWAP2 SWAP1 PUSH2 0x2733 JUMP JUMPDEST SWAP1 DUP2 MSTORE PUSH1 0x20 ADD PUSH1 0x40 MLOAD DUP1 SWAP2 SUB SWAP1 KECCAK256 PUSH1 0x2 ADD PUSH1 0x3 DUP7 PUSH1 0x40 MLOAD PUSH2 0x1537 SWAP2 SWAP1 PUSH2 0x2733 JUMP JUMPDEST SWAP1 DUP2 MSTORE PUSH1 0x20 ADD PUSH1 0x40 MLOAD DUP1 SWAP2 SUB SWAP1 KECCAK256 PUSH1 0x3 ADD DUP3 DUP1 SLOAD PUSH2 0x1554 SWAP1 PUSH2 0x2779 JUMP JUMPDEST DUP1 PUSH1 0x1F ADD PUSH1 0x20 DUP1 SWAP2 DIV MUL PUSH1 0x20 ADD PUSH1 0x40 MLOAD SWAP1 DUP2 ADD PUSH1 0x40 MSTORE DUP1 SWAP3 SWAP2 SWAP1 DUP2 DUP2 MSTORE PUSH1 0x20 ADD DUP3 DUP1 SLOAD PUSH2 0x1580 SWAP1 PUSH2 0x2779 JUMP JUMPDEST DUP1 ISZERO PUSH2 0x15CD JUMPI DUP1 PUSH1 0x1F LT PUSH2 0x15A2 JUMPI PUSH2 0x100 DUP1 DUP4 SLOAD DIV MUL DUP4 MSTORE SWAP2 PUSH1 0x20 ADD SWAP2 PUSH2 0x15CD JUMP JUMPDEST DUP3 ADD SWAP2 SWAP1 PUSH1 0x0 MSTORE PUSH1 0x20 PUSH1 0x0 KECCAK256 SWAP1 JUMPDEST DUP2 SLOAD DUP2 MSTORE SWAP1 PUSH1 0x1 ADD SWAP1 PUSH1 0x20 ADD DUP1 DUP4 GT PUSH2 0x15B0 JUMPI DUP3 SWAP1 SUB PUSH1 0x1F AND DUP3 ADD SWAP2 JUMPDEST POP POP POP POP POP SWAP3 POP DUP2 DUP1 SLOAD PUSH2 0x15E0 SWAP1 PUSH2 0x2779 JUMP JUMPDEST DUP1 PUSH1 0x1F ADD PUSH1 0x20 DUP1 SWAP2 DIV MUL PUSH1 0x20 ADD PUSH1 0x40 MLOAD SWAP1 DUP2 ADD PUSH1 0x40 MSTORE DUP1 SWAP3 SWAP2 SWAP1 DUP2 DUP2 MSTORE PUSH1 0x20 ADD DUP3 DUP1 SLOAD PUSH2 0x160C SWAP1 PUSH2 0x2779 JUMP JUMPDEST DUP1 ISZERO PUSH2 0x1659 JUMPI DUP1 PUSH1 0x1F LT PUSH2 0x162E JUMPI PUSH2 0x100 DUP1 DUP4 SLOAD DIV MUL DUP4 MSTORE SWAP2 PUSH1 0x20 ADD SWAP2 PUSH2 0x1659 JUMP JUMPDEST DUP3 ADD SWAP2 SWAP1 PUSH1 0x0 MSTORE PUSH1 0x20 PUSH1 0x0 KECCAK256 SWAP1 JUMPDEST DUP2 SLOAD DUP2 MSTORE SWAP1 PUSH1 0x1 ADD SWAP1 PUSH1 0x20 ADD DUP1 DUP4 GT PUSH2 0x163C JUMPI DUP3 SWAP1 SUB PUSH1 0x1F AND DUP3 ADD SWAP2 JUMPDEST POP POP POP POP POP SWAP2 POP DUP1 DUP1 SLOAD PUSH2 0x166C SWAP1 PUSH2 0x2779 JUMP JUMPDEST DUP1 PUSH1 0x1F ADD PUSH1 0x20 DUP1 SWAP2 DIV MUL PUSH1 0x20 ADD PUSH1 0x40 MLOAD SWAP1 DUP2 ADD PUSH1 0x40 MSTORE DUP1 SWAP3 SWAP2 SWAP1 DUP2 DUP2 MSTORE PUSH1 0x20 ADD DUP3 DUP1 SLOAD PUSH2 0x1698 SWAP1 PUSH2 0x2779 JUMP JUMPDEST DUP1 ISZERO PUSH2 0x16E5 JUMPI DUP1 PUSH1 0x1F LT PUSH2 0x16BA JUMPI PUSH2 0x100 DUP1 DUP4 SLOAD DIV MUL DUP4 MSTORE SWAP2 PUSH1 0x20 ADD SWAP2 PUSH2 0x16E5 JUMP JUMPDEST DUP3 ADD SWAP2 SWAP1 PUSH1 0x0 MSTORE PUSH1 0x20 PUSH1 0x0 KECCAK256 SWAP1 JUMPDEST DUP2 SLOAD DUP2 MSTORE SWAP1 PUSH1 0x1 ADD SWAP1 PUSH1 0x20 ADD DUP1 DUP4 GT PUSH2 0x16C8 JUMPI DUP3 SWAP1 SUB PUSH1 0x1F AND DUP3 ADD SWAP2 JUMPDEST POP POP POP POP POP SWAP1 POP SWAP3 POP SWAP3 POP SWAP3 POP SWAP2 SWAP4 SWAP1 SWAP3 POP JUMP JUMPDEST PUSH1 0x0 PUSH2 0x17AE PUSH1 0x0 DUP6 PUSH1 0x40 MLOAD PUSH2 0x170E SWAP2 SWAP1 PUSH2 0x2733 JUMP JUMPDEST SWAP1 DUP2 MSTORE PUSH1 0x20 ADD PUSH1 0x40 MLOAD DUP1 SWAP2 SUB SWAP1 KECCAK256 PUSH1 0x3 ADD DUP1 SLOAD PUSH2 0x172A SWAP1 PUSH2 0x2779 JUMP JUMPDEST DUP1 PUSH1 0x1F ADD PUSH1 0x20 DUP1 SWAP2 DIV MUL PUSH1 0x20 ADD PUSH1 0x40 MLOAD SWAP1 DUP2 ADD PUSH1 0x40 MSTORE DUP1 SWAP3 SWAP2 SWAP1 DUP2 DUP2 MSTORE PUSH1 0x20 ADD DUP3 DUP1 SLOAD PUSH2 0x1756 SWAP1 PUSH2 0x2779 JUMP JUMPDEST DUP1 ISZERO PUSH2 0x17A3 JUMPI DUP1 PUSH1 0x1F LT PUSH2 0x1778 JUMPI PUSH2 0x100 DUP1 DUP4 SLOAD DIV MUL DUP4 MSTORE SWAP2 PUSH1 0x20 ADD SWAP2 PUSH2 0x17A3 JUMP JUMPDEST DUP3 ADD SWAP2 SWAP1 PUSH1 0x0 MSTORE PUSH1 0x20 PUSH1 0x0 KECCAK256 SWAP1 JUMPDEST DUP2 SLOAD DUP2 MSTORE SWAP1 PUSH1 0x1 ADD SWAP1 PUSH1 0x20 ADD DUP1 DUP4 GT PUSH2 0x1786 JUMPI DUP3 SWAP1 SUB PUSH1 0x1F AND DUP3 ADD SWAP2 JUMPDEST POP POP POP POP POP DUP5 PUSH2 0x1DD5 JUMP JUMPDEST ISZERO PUSH2 0x189B JUMPI PUSH1 0x3 DUP3 PUSH1 0x40 MLOAD PUSH2 0x17C3 SWAP2 SWAP1 PUSH2 0x2733 JUMP JUMPDEST SWAP1 DUP2 MSTORE PUSH1 0x20 ADD PUSH1 0x40 MLOAD DUP1 SWAP2 SUB SWAP1 KECCAK256 PUSH1 0x5 ADD PUSH1 0x0 SWAP1 SLOAD SWAP1 PUSH2 0x100 EXP SWAP1 DIV PUSH1 0xFF AND ISZERO PUSH2 0x189A JUMPI DUP2 PUSH1 0x0 DUP6 PUSH1 0x40 MLOAD PUSH2 0x17F8 SWAP2 SWAP1 PUSH2 0x2733 JUMP JUMPDEST SWAP1 DUP2 MSTORE PUSH1 0x20 ADD PUSH1 0x40 MLOAD DUP1 SWAP2 SUB SWAP1 KECCAK256 PUSH1 0x4 ADD SWAP1 DUP2 PUSH2 0x1815 SWAP2 SWAP1 PUSH2 0x298F JUMP JUMPDEST POP PUSH1 0x1 PUSH1 0x0 DUP6 PUSH1 0x40 MLOAD PUSH2 0x1828 SWAP2 SWAP1 PUSH2 0x2733 JUMP JUMPDEST SWAP1 DUP2 MSTORE PUSH1 0x20 ADD PUSH1 0x40 MLOAD DUP1 SWAP2 SUB SWAP1 KECCAK256 PUSH1 0x5 ADD DUP2 SWAP1 SSTORE POP PUSH1 0x3 DUP3 PUSH1 0x40 MLOAD PUSH2 0x184D SWAP2 SWAP1 PUSH2 0x2733 JUMP JUMPDEST SWAP1 DUP2 MSTORE PUSH1 0x20 ADD PUSH1 0x40 MLOAD DUP1 SWAP2 SUB SWAP1 KECCAK256 PUSH1 0x4 ADD DUP5 SWAP1 DUP1 PUSH1 0x1 DUP2 SLOAD ADD DUP1 DUP3 SSTORE DUP1 SWAP2 POP POP PUSH1 0x1 SWAP1 SUB SWAP1 PUSH1 0x0 MSTORE PUSH1 0x20 PUSH1 0x0 KECCAK256 ADD PUSH1 0x0 SWAP1 SWAP2 SWAP1 SWAP2 SWAP1 SWAP2 POP SWAP1 DUP2 PUSH2 0x1890 SWAP2 SWAP1 PUSH2 0x298F JUMP JUMPDEST POP PUSH1 0x1 SWAP1 POP PUSH2 0x18A0 JUMP JUMPDEST JUMPDEST PUSH1 0x0 SWAP1 POP JUMPDEST SWAP4 SWAP3 POP POP POP JUMP JUMPDEST PUSH1 0x60 PUSH1 0x3 DUP3 PUSH1 0x40 MLOAD PUSH2 0x18B9 SWAP2 SWAP1 PUSH2 0x2733 JUMP JUMPDEST SWAP1 DUP2 MSTORE PUSH1 0x20 ADD PUSH1 0x40 MLOAD DUP1 SWAP2 SUB SWAP1 KECCAK256 PUSH1 0x4 ADD DUP1 SLOAD DUP1 PUSH1 0x20 MUL PUSH1 0x20 ADD PUSH1 0x40 MLOAD SWAP1 DUP2 ADD PUSH1 0x40 MSTORE DUP1 SWAP3 SWAP2 SWAP1 DUP2 DUP2 MSTORE PUSH1 0x20 ADD PUSH1 0x0 SWAP1 JUMPDEST DUP3 DUP3 LT ISZERO PUSH2 0x1996 JUMPI DUP4 DUP3 SWAP1 PUSH1 0x0 MSTORE PUSH1 0x20 PUSH1 0x0 KECCAK256 ADD DUP1 SLOAD PUSH2 0x1909 SWAP1 PUSH2 0x2779 JUMP JUMPDEST DUP1 PUSH1 0x1F ADD PUSH1 0x20 DUP1 SWAP2 DIV MUL PUSH1 0x20 ADD PUSH1 0x40 MLOAD SWAP1 DUP2 ADD PUSH1 0x40 MSTORE DUP1 SWAP3 SWAP2 SWAP1 DUP2 DUP2 MSTORE PUSH1 0x20 ADD DUP3 DUP1 SLOAD PUSH2 0x1935 SWAP1 PUSH2 0x2779 JUMP JUMPDEST DUP1 ISZERO PUSH2 0x1982 JUMPI DUP1 PUSH1 0x1F LT PUSH2 0x1957 JUMPI PUSH2 0x100 DUP1 DUP4 SLOAD DIV MUL DUP4 MSTORE SWAP2 PUSH1 0x20 ADD SWAP2 PUSH2 0x1982 JUMP JUMPDEST DUP3 ADD SWAP2 SWAP1 PUSH1 0x0 MSTORE PUSH1 0x20 PUSH1 0x0 KECCAK256 SWAP1 JUMPDEST DUP2 SLOAD DUP2 MSTORE SWAP1 PUSH1 0x1 ADD SWAP1 PUSH1 0x20 ADD DUP1 DUP4 GT PUSH2 0x1965 JUMPI DUP3 SWAP1 SUB PUSH1 0x1F AND DUP3 ADD SWAP2 JUMPDEST POP POP POP POP POP DUP2 MSTORE PUSH1 0x20 ADD SWAP1 PUSH1 0x1 ADD SWAP1 PUSH2 0x18EA JUMP JUMPDEST POP POP POP POP SWAP1 POP SWAP2 SWAP1 POP JUMP JUMPDEST PUSH1 0x0 PUSH2 0x19AB PUSH2 0x1FE0 JUMP JUMPDEST DUP5 DUP2 PUSH1 0x0 ADD DUP2 SWAP1 MSTORE POP DUP4 DUP2 PUSH1 0x20 ADD DUP2 SWAP1 MSTORE POP DUP3 DUP2 PUSH1 0x40 ADD DUP2 SWAP1 MSTORE POP DUP1 PUSH1 0x0 DUP8 PUSH1 0x40 MLOAD PUSH2 0x19D7 SWAP2 SWAP1 PUSH2 0x2733 JUMP JUMPDEST SWAP1 DUP2 MSTORE PUSH1 0x20 ADD PUSH1 0x40 MLOAD DUP1 SWAP2 SUB SWAP1 KECCAK256 PUSH1 0x0 DUP3 ADD MLOAD DUP2 PUSH1 0x0 ADD SWAP1 DUP2 PUSH2 0x19FA SWAP2 SWAP1 PUSH2 0x298F JUMP JUMPDEST POP PUSH1 0x20 DUP3 ADD MLOAD DUP2 PUSH1 0x1 ADD SWAP1 DUP2 PUSH2 0x1A10 SWAP2 SWAP1 PUSH2 0x298F JUMP JUMPDEST POP PUSH1 0x40 DUP3 ADD MLOAD DUP2 PUSH1 0x2 ADD SWAP1 DUP2 PUSH2 0x1A26 SWAP2 SWAP1 PUSH2 0x298F JUMP JUMPDEST POP PUSH1 0x60 DUP3 ADD MLOAD DUP2 PUSH1 0x3 ADD SWAP1 DUP2 PUSH2 0x1A3C SWAP2 SWAP1 PUSH2 0x298F JUMP JUMPDEST POP PUSH1 0x80 DUP3 ADD MLOAD DUP2 PUSH1 0x4 ADD SWAP1 DUP2 PUSH2 0x1A52 SWAP2 SWAP1 PUSH2 0x298F JUMP JUMPDEST POP PUSH1 0xA0 DUP3 ADD MLOAD DUP2 PUSH1 0x5 ADD SSTORE SWAP1 POP POP PUSH1 0x1 SWAP2 POP POP SWAP5 SWAP4 POP POP POP POP JUMP JUMPDEST PUSH1 0x60 DUP1 PUSH1 0x60 DUP1 PUSH1 0x0 DUP6 PUSH1 0x40 MLOAD PUSH2 0x1A83 SWAP2 SWAP1 PUSH2 0x2733 JUMP JUMPDEST SWAP1 DUP2 MSTORE PUSH1 0x20 ADD PUSH1 0x40 MLOAD DUP1 SWAP2 SUB SWAP1 KECCAK256 PUSH1 0x0 ADD PUSH1 0x0 DUP7 PUSH1 0x40 MLOAD PUSH2 0x1AA4 SWAP2 SWAP1 PUSH2 0x2733 JUMP JUMPDEST SWAP1 DUP2 MSTORE PUSH1 0x20 ADD PUSH1 0x40 MLOAD DUP1 SWAP2 SUB SWAP1 KECCAK256 PUSH1 0x1 ADD PUSH1 0x0 DUP8 PUSH1 0x40 MLOAD PUSH2 0x1AC5 SWAP2 SWAP1 PUSH2 0x2733 JUMP JUMPDEST SWAP1 DUP2 MSTORE PUSH1 0x20 ADD PUSH1 0x40 MLOAD DUP1 SWAP2 SUB SWAP1 KECCAK256 PUSH1 0x3 ADD PUSH1 0x0 DUP9 PUSH1 0x40 MLOAD PUSH2 0x1AE6 SWAP2 SWAP1 PUSH2 0x2733 JUMP JUMPDEST SWAP1 DUP2 MSTORE PUSH1 0x20 ADD PUSH1 0x40 MLOAD DUP1 SWAP2 SUB SWAP1 KECCAK256 PUSH1 0x4 ADD DUP4 DUP1 SLOAD PUSH2 0x1B03 SWAP1 PUSH2 0x2779 JUMP JUMPDEST DUP1 PUSH1 0x1F ADD PUSH1 0x20 DUP1 SWAP2 DIV MUL PUSH1 0x20 ADD PUSH1 0x40 MLOAD SWAP1 DUP2 ADD PUSH1 0x40 MSTORE DUP1 SWAP3 SWAP2 SWAP1 DUP2 DUP2 MSTORE PUSH1 0x20 ADD DUP3 DUP1 SLOAD PUSH2 0x1B2F SWAP1 PUSH2 0x2779 JUMP JUMPDEST DUP1 ISZERO PUSH2 0x1B7C JUMPI DUP1 PUSH1 0x1F LT PUSH2 0x1B51 JUMPI PUSH2 0x100 DUP1 DUP4 SLOAD DIV MUL DUP4 MSTORE SWAP2 PUSH1 0x20 ADD SWAP2 PUSH2 0x1B7C JUMP JUMPDEST DUP3 ADD SWAP2 SWAP1 PUSH1 0x0 MSTORE PUSH1 0x20 PUSH1 0x0 KECCAK256 SWAP1 JUMPDEST DUP2 SLOAD DUP2 MSTORE SWAP1 PUSH1 0x1 ADD SWAP1 PUSH1 0x20 ADD DUP1 DUP4 GT PUSH2 0x1B5F JUMPI DUP3 SWAP1 SUB PUSH1 0x1F AND DUP3 ADD SWAP2 JUMPDEST POP POP POP POP POP SWAP4 POP DUP3 DUP1 SLOAD PUSH2 0x1B8F SWAP1 PUSH2 0x2779 JUMP JUMPDEST DUP1 PUSH1 0x1F ADD PUSH1 0x20 DUP1 SWAP2 DIV MUL PUSH1 0x20 ADD PUSH1 0x40 MLOAD SWAP1 DUP2 ADD PUSH1 0x40 MSTORE DUP1 SWAP3 SWAP2 SWAP1 DUP2 DUP2 MSTORE PUSH1 0x20 ADD DUP3 DUP1 SLOAD PUSH2 0x1BBB SWAP1 PUSH2 0x2779 JUMP JUMPDEST DUP1 ISZERO PUSH2 0x1C08 JUMPI DUP1 PUSH1 0x1F LT PUSH2 0x1BDD JUMPI PUSH2 0x100 DUP1 DUP4 SLOAD DIV MUL DUP4 MSTORE SWAP2 PUSH1 0x20 ADD SWAP2 PUSH2 0x1C08 JUMP JUMPDEST DUP3 ADD SWAP2 SWAP1 PUSH1 0x0 MSTORE PUSH1 0x20 PUSH1 0x0 KECCAK256 SWAP1 JUMPDEST DUP2 SLOAD DUP2 MSTORE SWAP1 PUSH1 0x1 ADD SWAP1 PUSH1 0x20 ADD DUP1 DUP4 GT PUSH2 0x1BEB JUMPI DUP3 SWAP1 SUB PUSH1 0x1F AND DUP3 ADD SWAP2 JUMPDEST POP POP POP POP POP SWAP3 POP DUP2 DUP1 SLOAD PUSH2 0x1C1B SWAP1 PUSH2 0x2779 JUMP JUMPDEST DUP1 PUSH1 0x1F ADD PUSH1 0x20 DUP1 SWAP2 DIV MUL PUSH1 0x20 ADD PUSH1 0x40 MLOAD SWAP1 DUP2 ADD PUSH1 0x40 MSTORE DUP1 SWAP3 SWAP2 SWAP1 DUP2 DUP2 MSTORE PUSH1 0x20 ADD DUP3 DUP1 SLOAD PUSH2 0x1C47 SWAP1 PUSH2 0x2779 JUMP JUMPDEST DUP1 ISZERO PUSH2 0x1C94 JUMPI DUP1 PUSH1 0x1F LT PUSH2 0x1C69 JUMPI PUSH2 0x100 DUP1 DUP4 SLOAD DIV MUL DUP4 MSTORE SWAP2 PUSH1 0x20 ADD SWAP2 PUSH2 0x1C94 JUMP JUMPDEST DUP3 ADD SWAP2 SWAP1 PUSH1 0x0 MSTORE PUSH1 0x20 PUSH1 0x0 KECCAK256 SWAP1 JUMPDEST DUP2 SLOAD DUP2 MSTORE SWAP1 PUSH1 0x1 ADD SWAP1 PUSH1 0x20 ADD DUP1 DUP4 GT PUSH2 0x1C77 JUMPI DUP3 SWAP1 SUB PUSH1 0x1F AND DUP3 ADD SWAP2 JUMPDEST POP POP POP POP POP SWAP2 POP DUP1 DUP1 SLOAD PUSH2 0x1CA7 SWAP1 PUSH2 0x2779 JUMP JUMPDEST DUP1 PUSH1 0x1F ADD PUSH1 0x20 DUP1 SWAP2 DIV MUL PUSH1 0x20 ADD PUSH1 0x40 MLOAD SWAP1 DUP2 ADD PUSH1 0x40 MSTORE DUP1 SWAP3 SWAP2 SWAP1 DUP2 DUP2 MSTORE PUSH1 0x20 ADD DUP3 DUP1 SLOAD PUSH2 0x1CD3 SWAP1 PUSH2 0x2779 JUMP JUMPDEST DUP1 ISZERO PUSH2 0x1D20 JUMPI DUP1 PUSH1 0x1F LT PUSH2 0x1CF5 JUMPI PUSH2 0x100 DUP1 DUP4 SLOAD DIV MUL DUP4 MSTORE SWAP2 PUSH1 0x20 ADD SWAP2 PUSH2 0x1D20 JUMP JUMPDEST DUP3 ADD SWAP2 SWAP1 PUSH1 0x0 MSTORE PUSH1 0x20 PUSH1 0x0 KECCAK256 SWAP1 JUMPDEST DUP2 SLOAD DUP2 MSTORE SWAP1 PUSH1 0x1 ADD SWAP1 PUSH1 0x20 ADD DUP1 DUP4 GT PUSH2 0x1D03 JUMPI DUP3 SWAP1 SUB PUSH1 0x1F AND DUP3 ADD SWAP2 JUMPDEST POP POP POP POP POP SWAP1 POP SWAP4 POP SWAP4 POP SWAP4 POP SWAP4 POP SWAP2 SWAP4 POP SWAP2 SWAP4 JUMP JUMPDEST PUSH2 0x1DD0 DUP4 DUP4 DUP4 PUSH1 0x40 MLOAD PUSH1 0x24 ADD PUSH2 0x1D4E SWAP4 SWAP3 SWAP2 SWAP1 PUSH2 0x251C JUMP JUMPDEST PUSH1 0x40 MLOAD PUSH1 0x20 DUP2 DUP4 SUB SUB DUP2 MSTORE SWAP1 PUSH1 0x40 MSTORE PUSH32 0x2CED7CEF00000000000000000000000000000000000000000000000000000000 PUSH28 0xFFFFFFFFFFFFFFFFFFFFFFFFFFFFFFFFFFFFFFFFFFFFFFFFFFFFFFFF NOT AND PUSH1 0x20 DUP3 ADD DUP1 MLOAD PUSH28 0xFFFFFFFFFFFFFFFFFFFFFFFFFFFFFFFFFFFFFFFFFFFFFFFFFFFFFFFF DUP4 DUP2 DUP4 AND OR DUP4 MSTORE POP POP POP POP PUSH2 0x1F0D JUMP JUMPDEST POP POP POP JUMP JUMPDEST PUSH1 0x0 DUP2 PUSH1 0x40 MLOAD PUSH1 0x20 ADD PUSH2 0x1DE8 SWAP2 SWAP1 PUSH2 0x2733 JUMP JUMPDEST PUSH1 0x40 MLOAD PUSH1 0x20 DUP2 DUP4 SUB SUB DUP2 MSTORE SWAP1 PUSH1 0x40 MSTORE DUP1 MLOAD SWAP1 PUSH1 0x20 ADD KECCAK256 DUP4 PUSH1 0x40 MLOAD PUSH1 0x20 ADD PUSH2 0x1E0F SWAP2 SWAP1 PUSH2 0x2733 JUMP JUMPDEST PUSH1 0x40 MLOAD PUSH1 0x20 DUP2 DUP4 SUB SUB DUP2 MSTORE SWAP1 PUSH1 0x40 MSTORE DUP1 MLOAD SWAP1 PUSH1 0x20 ADD KECCAK256 EQ SWAP1 POP SWAP3 SWAP2 POP POP JUMP JUMPDEST PUSH1 0x0 DUP2 DUP1 SLOAD SWAP1 POP DUP4 LT PUSH2 0x1E44 JUMPI PUSH1 0x0 SWAP1 POP PUSH2 0x1F07 JUMP JUMPDEST PUSH1 0x0 DUP4 SWAP1 POP JUMPDEST PUSH1 0x1 DUP4 DUP1 SLOAD SWAP1 POP PUSH2 0x1E5B SWAP2 SWAP1 PUSH2 0x2AD8 JUMP JUMPDEST DUP2 LT ISZERO PUSH2 0x1EC8 JUMPI DUP3 PUSH1 0x1 DUP3 PUSH2 0x1E70 SWAP2 SWAP1 PUSH2 0x2B0C JUMP JUMPDEST DUP2 SLOAD DUP2 LT PUSH2 0x1E81 JUMPI PUSH2 0x1E80 PUSH2 0x27AA JUMP JUMPDEST JUMPDEST SWAP1 PUSH1 0x0 MSTORE PUSH1 0x20 PUSH1 0x0 KECCAK256 ADD DUP4 DUP3 DUP2 SLOAD DUP2 LT PUSH2 0x1E9E JUMPI PUSH2 0x1E9D PUSH2 0x27AA JUMP JUMPDEST JUMPDEST SWAP1 PUSH1 0x0 MSTORE PUSH1 0x20 PUSH1 0x0 KECCAK256 ADD SWAP1 DUP2 PUSH2 0x1EB4 SWAP2 SWAP1 PUSH2 0x2B6B JUMP JUMPDEST POP DUP1 DUP1 PUSH2 0x1EC0 SWAP1 PUSH2 0x2A90 JUMP JUMPDEST SWAP2 POP POP PUSH2 0x1E4A JUMP JUMPDEST POP DUP2 PUSH1 0x1 DUP4 DUP1 SLOAD SWAP1 POP PUSH2 0x1EDB SWAP2 SWAP1 PUSH2 0x2AD8 JUMP JUMPDEST DUP2 SLOAD DUP2 LT PUSH2 0x1EEC JUMPI PUSH2 0x1EEB PUSH2 0x27AA JUMP JUMPDEST JUMPDEST SWAP1 PUSH1 0x0 MSTORE PUSH1 0x20 PUSH1 0x0 KECCAK256 ADD PUSH1 0x0 PUSH2 0x1F02 SWAP2 SWAP1 PUSH2 0x2016 JUMP JUMPDEST PUSH1 0x1 SWAP1 POP JUMPDEST SWAP3 SWAP2 POP POP JUMP JUMPDEST PUSH1 0x0 PUSH11 0x636F6E736F6C652E6C6F67 SWAP1 POP PUSH1 0x0 DUP1 DUP4 MLOAD PUSH1 0x20 DUP6 ADD DUP5 GAS STATICCALL POP POP POP JUMP JUMPDEST PUSH1 0x40 MLOAD DUP1 PUSH1 0x60 ADD PUSH1 0x40 MSTORE DUP1 PUSH1 0x60 DUP2 MSTORE PUSH1 0x20 ADD PUSH1 0x60 DUP2 MSTORE PUSH1 0x20 ADD PUSH1 0x60 DUP2 MSTORE POP SWAP1 JUMP JUMPDEST PUSH1 0x40 MLOAD DUP1 PUSH1 0xC0 ADD PUSH1 0x40 MSTORE DUP1 PUSH1 0x60 DUP2 MSTORE PUSH1 0x20 ADD PUSH1 0x60 DUP2 MSTORE PUSH1 0x20 ADD PUSH1 0x60 DUP2 MSTORE PUSH1 0x20 ADD PUSH1 0x60 DUP2 MSTORE PUSH1 0x20 ADD PUSH1 0x60 DUP2 MSTORE PUSH1 0x20 ADD PUSH1 0x0 ISZERO ISZERO DUP2 MSTORE POP SWAP1 JUMP JUMPDEST DUP3 DUP1 SLOAD DUP3 DUP3 SSTORE SWAP1 PUSH1 0x0 MSTORE PUSH1 0x20 PUSH1 0x0 KECCAK256 SWAP1 DUP2 ADD SWAP3 DUP3 ISZERO PUSH2 0x1FCF JUMPI SWAP2 PUSH1 0x20 MUL DUP3 ADD JUMPDEST DUP3 DUP2 GT ISZERO PUSH2 0x1FCE JUMPI DUP3 MLOAD DUP3 SWAP1 DUP2 PUSH2 0x1FBE SWAP2 SWAP1 PUSH2 0x298F JUMP JUMPDEST POP SWAP2 PUSH1 0x20 ADD SWAP2 SWAP1 PUSH1 0x1 ADD SWAP1 PUSH2 0x1FA7 JUMP JUMPDEST JUMPDEST POP SWAP1 POP PUSH2 0x1FDC SWAP2 SWAP1 PUSH2 0x2056 JUMP JUMPDEST POP SWAP1 JUMP JUMPDEST PUSH1 0x40 MLOAD DUP1 PUSH1 0xC0 ADD PUSH1 0x40 MSTORE DUP1 PUSH1 0x60 DUP2 MSTORE PUSH1 0x20 ADD PUSH1 0x60 DUP2 MSTORE PUSH1 0x20 ADD PUSH1 0x60 DUP2 MSTORE PUSH1 0x20 ADD PUSH1 0x60 DUP2 MSTORE PUSH1 0x20 ADD PUSH1 0x60 DUP2 MSTORE PUSH1 0x20 ADD PUSH1 0x0 DUP2 MSTORE POP SWAP1 JUMP JUMPDEST POP DUP1 SLOAD PUSH2 0x2022 SWAP1 PUSH2 0x2779 JUMP JUMPDEST PUSH1 0x0 DUP3 SSTORE DUP1 PUSH1 0x1F LT PUSH2 0x2034 JUMPI POP PUSH2 0x2053 JUMP JUMPDEST PUSH1 0x1F ADD PUSH1 0x20 SWAP1 DIV SWAP1 PUSH1 0x0 MSTORE PUSH1 0x20 PUSH1 0x0 KECCAK256 SWAP1 DUP2 ADD SWAP1 PUSH2 0x2052 SWAP2 SWAP1 PUSH2 0x207A JUMP JUMPDEST JUMPDEST POP JUMP JUMPDEST JUMPDEST DUP1 DUP3 GT ISZERO PUSH2 0x2076 JUMPI PUSH1 0x0 DUP2 DUP2 PUSH2 0x206D SWAP2 SWAP1 PUSH2 0x2016 JUMP JUMPDEST POP PUSH1 0x1 ADD PUSH2 0x2057 JUMP JUMPDEST POP SWAP1 JUMP JUMPDEST JUMPDEST DUP1 DUP3 GT ISZERO PUSH2 0x2093 JUMPI PUSH1 0x0 DUP2 PUSH1 0x0 SWAP1 SSTORE POP PUSH1 0x1 ADD PUSH2 0x207B JUMP JUMPDEST POP SWAP1 JUMP JUMPDEST PUSH1 0x0 PUSH1 0x40 MLOAD SWAP1 POP SWAP1 JUMP JUMPDEST PUSH1 0x0 DUP1 REVERT JUMPDEST PUSH1 0x0 DUP1 REVERT JUMPDEST PUSH1 0x0 DUP1 REVERT JUMPDEST PUSH1 0x0 DUP1 REVERT JUMPDEST PUSH1 0x0 PUSH1 0x1F NOT PUSH1 0x1F DUP4 ADD AND SWAP1 POP SWAP2 SWAP1 POP JUMP JUMPDEST PUSH32 0x4E487B7100000000000000000000000000000000000000000000000000000000 PUSH1 0x0 MSTORE PUSH1 0x41 PUSH1 0x4 MSTORE PUSH1 0x24 PUSH1 0x0 REVERT JUMPDEST PUSH2 0x20FE DUP3 PUSH2 0x20B5 JUMP JUMPDEST DUP2 ADD DUP2 DUP2 LT PUSH8 0xFFFFFFFFFFFFFFFF DUP3 GT OR ISZERO PUSH2 0x211D JUMPI PUSH2 0x211C PUSH2 0x20C6 JUMP JUMPDEST JUMPDEST DUP1 PUSH1 0x40 MSTORE POP POP POP JUMP JUMPDEST PUSH1 0x0 PUSH2 0x2130 PUSH2 0x2097 JUMP JUMPDEST SWAP1 POP PUSH2 0x213C DUP3 DUP3 PUSH2 0x20F5 JUMP JUMPDEST SWAP2 SWAP1 POP JUMP JUMPDEST PUSH1 0x0 PUSH8 0xFFFFFFFFFFFFFFFF DUP3 GT ISZERO PUSH2 0x215C JUMPI PUSH2 0x215B PUSH2 0x20C6 JUMP JUMPDEST JUMPDEST PUSH2 0x2165 DUP3 PUSH2 0x20B5 JUMP JUMPDEST SWAP1 POP PUSH1 0x20 DUP2 ADD SWAP1 POP SWAP2 SWAP1 POP JUMP JUMPDEST DUP3 DUP2 DUP4 CALLDATACOPY PUSH1 0x0 DUP4 DUP4 ADD MSTORE POP POP POP JUMP JUMPDEST PUSH1 0x0 PUSH2 0x2194 PUSH2 0x218F DUP5 PUSH2 0x2141 JUMP JUMPDEST PUSH2 0x2126 JUMP JUMPDEST SWAP1 POP DUP3 DUP2 MSTORE PUSH1 0x20 DUP2 ADD DUP5 DUP5 DUP5 ADD GT ISZERO PUSH2 0x21B0 JUMPI PUSH2 0x21AF PUSH2 0x20B0 JUMP JUMPDEST JUMPDEST PUSH2 0x21BB DUP5 DUP3 DUP6 PUSH2 0x2172 JUMP JUMPDEST POP SWAP4 SWAP3 POP POP POP JUMP JUMPDEST PUSH1 0x0 DUP3 PUSH1 0x1F DUP4 ADD SLT PUSH2 0x21D8 JUMPI PUSH2 0x21D7 PUSH2 0x20AB JUMP JUMPDEST JUMPDEST DUP2 CALLDATALOAD PUSH2 0x21E8 DUP5 DUP3 PUSH1 0x20 DUP7 ADD PUSH2 0x2181 JUMP JUMPDEST SWAP2 POP POP SWAP3 SWAP2 POP POP JUMP JUMPDEST PUSH1 0x0 DUP1 PUSH1 0x0 PUSH1 0x60 DUP5 DUP7 SUB SLT ISZERO PUSH2 0x220A JUMPI PUSH2 0x2209 PUSH2 0x20A1 JUMP JUMPDEST JUMPDEST PUSH1 0x0 DUP5 ADD CALLDATALOAD PUSH8 0xFFFFFFFFFFFFFFFF DUP2 GT ISZERO PUSH2 0x2228 JUMPI PUSH2 0x2227 PUSH2 0x20A6 JUMP JUMPDEST JUMPDEST PUSH2 0x2234 DUP7 DUP3 DUP8 ADD PUSH2 0x21C3 JUMP JUMPDEST SWAP4 POP POP PUSH1 0x20 DUP5 ADD CALLDATALOAD PUSH8 0xFFFFFFFFFFFFFFFF DUP2 GT ISZERO PUSH2 0x2255 JUMPI PUSH2 0x2254 PUSH2 0x20A6 JUMP JUMPDEST JUMPDEST PUSH2 0x2261 DUP7 DUP3 DUP8 ADD PUSH2 0x21C3 JUMP JUMPDEST SWAP3 POP POP PUSH1 0x40 DUP5 ADD CALLDATALOAD PUSH8 0xFFFFFFFFFFFFFFFF DUP2 GT ISZERO PUSH2 0x2282 JUMPI PUSH2 0x2281 PUSH2 0x20A6 JUMP JUMPDEST JUMPDEST PUSH2 0x228E DUP7 DUP3 DUP8 ADD PUSH2 0x21C3 JUMP JUMPDEST SWAP2 POP POP SWAP3 POP SWAP3 POP SWAP3 JUMP JUMPDEST PUSH1 0x0 DUP2 ISZERO ISZERO SWAP1 POP SWAP2 SWAP1 POP JUMP JUMPDEST PUSH2 0x22AD DUP2 PUSH2 0x2298 JUMP JUMPDEST DUP3 MSTORE POP POP JUMP JUMPDEST PUSH1 0x0 PUSH1 0x20 DUP3 ADD SWAP1 POP PUSH2 0x22C8 PUSH1 0x0 DUP4 ADD DUP5 PUSH2 0x22A4 JUMP JUMPDEST SWAP3 SWAP2 POP POP JUMP JUMPDEST PUSH1 0x0 PUSH1 0x20 DUP3 DUP5 SUB SLT ISZERO PUSH2 0x22E4 JUMPI PUSH2 0x22E3 PUSH2 0x20A1 JUMP JUMPDEST JUMPDEST PUSH1 0x0 DUP3 ADD CALLDATALOAD PUSH8 0xFFFFFFFFFFFFFFFF DUP2 GT ISZERO PUSH2 0x2302 JUMPI PUSH2 0x2301 PUSH2 0x20A6 JUMP JUMPDEST JUMPDEST PUSH2 0x230E DUP5 DUP3 DUP6 ADD PUSH2 0x21C3 JUMP JUMPDEST SWAP2 POP POP SWAP3 SWAP2 POP POP JUMP JUMPDEST PUSH1 0x0 DUP2 MLOAD SWAP1 POP SWAP2 SWAP1 POP JUMP JUMPDEST PUSH1 0x0 DUP3 DUP3 MSTORE PUSH1 0x20 DUP3 ADD SWAP1 POP SWAP3 SWAP2 POP POP JUMP JUMPDEST PUSH1 0x0 JUMPDEST DUP4 DUP2 LT ISZERO PUSH2 0x2351 JUMPI DUP1 DUP3 ADD MLOAD DUP2 DUP5 ADD MSTORE PUSH1 0x20 DUP2 ADD SWAP1 POP PUSH2 0x2336 JUMP JUMPDEST PUSH1 0x0 DUP5 DUP5 ADD MSTORE POP POP POP POP JUMP JUMPDEST PUSH1 0x0 PUSH2 0x2368 DUP3 PUSH2 0x2317 JUMP JUMPDEST PUSH2 0x2372 DUP2 DUP6 PUSH2 0x2322 JUMP JUMPDEST SWAP4 POP PUSH2 0x2382 DUP2 DUP6 PUSH1 0x20 DUP7 ADD PUSH2 0x2333 JUMP JUMPDEST PUSH2 0x238B DUP2 PUSH2 0x20B5 JUMP JUMPDEST DUP5 ADD SWAP2 POP POP SWAP3 SWAP2 POP POP JUMP JUMPDEST PUSH1 0x0 PUSH1 0x40 DUP3 ADD SWAP1 POP DUP2 DUP2 SUB PUSH1 0x0 DUP4 ADD MSTORE PUSH2 0x23B0 DUP2 DUP6 PUSH2 0x235D JUMP JUMPDEST SWAP1 POP DUP2 DUP2 SUB PUSH1 0x20 DUP4 ADD MSTORE PUSH2 0x23C4 DUP2 DUP5 PUSH2 0x235D JUMP JUMPDEST SWAP1 POP SWAP4 SWAP3 POP POP POP JUMP JUMPDEST PUSH1 0x0 DUP1 PUSH1 0x40 DUP4 DUP6 SUB SLT ISZERO PUSH2 0x23E4 JUMPI PUSH2 0x23E3 PUSH2 0x20A1 JUMP JUMPDEST JUMPDEST PUSH1 0x0 DUP4 ADD CALLDATALOAD PUSH8 0xFFFFFFFFFFFFFFFF DUP2 GT ISZERO PUSH2 0x2402 JUMPI PUSH2 0x2401 PUSH2 0x20A6 JUMP JUMPDEST JUMPDEST PUSH2 0x240E DUP6 DUP3 DUP7 ADD PUSH2 0x21C3 JUMP JUMPDEST SWAP3 POP POP PUSH1 0x20 DUP4 ADD CALLDATALOAD PUSH8 0xFFFFFFFFFFFFFFFF DUP2 GT ISZERO PUSH2 0x242F JUMPI PUSH2 0x242E PUSH2 0x20A6 JUMP JUMPDEST JUMPDEST PUSH2 0x243B DUP6 DUP3 DUP7 ADD PUSH2 0x21C3 JUMP JUMPDEST SWAP2 POP POP SWAP3 POP SWAP3 SWAP1 POP JUMP JUMPDEST PUSH1 0x0 DUP1 PUSH1 0x0 DUP1 PUSH1 0x80 DUP6 DUP8 SUB SLT ISZERO PUSH2 0x245F JUMPI PUSH2 0x245E PUSH2 0x20A1 JUMP JUMPDEST JUMPDEST PUSH1 0x0 DUP6 ADD CALLDATALOAD PUSH8 0xFFFFFFFFFFFFFFFF DUP2 GT ISZERO PUSH2 0x247D JUMPI PUSH2 0x247C PUSH2 0x20A6 JUMP JUMPDEST JUMPDEST PUSH2 0x2489 DUP8 DUP3 DUP9 ADD PUSH2 0x21C3 JUMP JUMPDEST SWAP5 POP POP PUSH1 0x20 DUP6 ADD CALLDATALOAD PUSH8 0xFFFFFFFFFFFFFFFF DUP2 GT ISZERO PUSH2 0x24AA JUMPI PUSH2 0x24A9 PUSH2 0x20A6 JUMP JUMPDEST JUMPDEST PUSH2 0x24B6 DUP8 DUP3 DUP9 ADD PUSH2 0x21C3 JUMP JUMPDEST SWAP4 POP POP PUSH1 0x40 DUP6 ADD CALLDATALOAD PUSH8 0xFFFFFFFFFFFFFFFF DUP2 GT ISZERO PUSH2 0x24D7 JUMPI PUSH2 0x24D6 PUSH2 0x20A6 JUMP JUMPDEST JUMPDEST PUSH2 0x24E3 DUP8 DUP3 DUP9 ADD PUSH2 0x21C3 JUMP JUMPDEST SWAP3 POP POP PUSH1 0x60 DUP6 ADD CALLDATALOAD PUSH8 0xFFFFFFFFFFFFFFFF DUP2 GT ISZERO PUSH2 0x2504 JUMPI PUSH2 0x2503 PUSH2 0x20A6 JUMP JUMPDEST JUMPDEST PUSH2 0x2510 DUP8 DUP3 DUP9 ADD PUSH2 0x21C3 JUMP JUMPDEST SWAP2 POP POP SWAP3 SWAP6 SWAP2 SWAP5 POP SWAP3 POP JUMP JUMPDEST PUSH1 0x0 PUSH1 0x60 DUP3 ADD SWAP1 POP DUP2 DUP2 SUB PUSH1 0x0 DUP4 ADD MSTORE PUSH2 0x2536 DUP2 DUP7 PUSH2 0x235D JUMP JUMPDEST SWAP1 POP DUP2 DUP2 SUB PUSH1 0x20 DUP4 ADD MSTORE PUSH2 0x254A DUP2 DUP6 PUSH2 0x235D JUMP JUMPDEST SWAP1 POP DUP2 DUP2 SUB PUSH1 0x40 DUP4 ADD MSTORE PUSH2 0x255E DUP2 DUP5 PUSH2 0x235D JUMP JUMPDEST SWAP1 POP SWAP5 SWAP4 POP POP POP POP JUMP JUMPDEST PUSH1 0x0 DUP2 MLOAD SWAP1 POP SWAP2 SWAP1 POP JUMP JUMPDEST PUSH1 0x0 DUP3 DUP3 MSTORE PUSH1 0x20 DUP3 ADD SWAP1 POP SWAP3 SWAP2 POP POP JUMP JUMPDEST PUSH1 0x0 DUP2 SWAP1 POP PUSH1 0x20 DUP3 ADD SWAP1 POP SWAP2 SWAP1 POP JUMP JUMPDEST PUSH1 0x0 DUP3 DUP3 MSTORE PUSH1 0x20 DUP3 ADD SWAP1 POP SWAP3 SWAP2 POP POP JUMP JUMPDEST PUSH1 0x0 PUSH2 0x25B0 DUP3 PUSH2 0x2317 JUMP JUMPDEST PUSH2 0x25BA DUP2 DUP6 PUSH2 0x2594 JUMP JUMPDEST SWAP4 POP PUSH2 0x25CA DUP2 DUP6 PUSH1 0x20 DUP7 ADD PUSH2 0x2333 JUMP JUMPDEST PUSH2 0x25D3 DUP2 PUSH2 0x20B5 JUMP JUMPDEST DUP5 ADD SWAP2 POP POP SWAP3 SWAP2 POP POP JUMP JUMPDEST PUSH1 0x0 PUSH2 0x25EA DUP4 DUP4 PUSH2 0x25A5 JUMP JUMPDEST SWAP1 POP SWAP3 SWAP2 POP POP JUMP JUMPDEST PUSH1 0x0 PUSH1 0x20 DUP3 ADD SWAP1 POP SWAP2 SWAP1 POP JUMP JUMPDEST PUSH1 0x0 PUSH2 0x260A DUP3 PUSH2 0x2568 JUMP JUMPDEST PUSH2 0x2614 DUP2 DUP6 PUSH2 0x2573 JUMP JUMPDEST SWAP4 POP DUP4 PUSH1 0x20 DUP3 MUL DUP6 ADD PUSH2 0x2626 DUP6 PUSH2 0x2584 JUMP JUMPDEST DUP1 PUSH1 0x0 JUMPDEST DUP6 DUP2 LT ISZERO PUSH2 0x2662 JUMPI DUP5 DUP5 SUB DUP10 MSTORE DUP2 MLOAD PUSH2 0x2643 DUP6 DUP3 PUSH2 0x25DE JUMP JUMPDEST SWAP5 POP PUSH2 0x264E DUP4 PUSH2 0x25F2 JUMP JUMPDEST SWAP3 POP PUSH1 0x20 DUP11 ADD SWAP10 POP POP PUSH1 0x1 DUP2 ADD SWAP1 POP PUSH2 0x262A JUMP JUMPDEST POP DUP3 SWAP8 POP DUP8 SWAP6 POP POP POP POP POP POP SWAP3 SWAP2 POP POP JUMP JUMPDEST PUSH1 0x0 PUSH1 0x20 DUP3 ADD SWAP1 POP DUP2 DUP2 SUB PUSH1 0x0 DUP4 ADD MSTORE PUSH2 0x268E DUP2 DUP5 PUSH2 0x25FF JUMP JUMPDEST SWAP1 POP SWAP3 SWAP2 POP POP JUMP JUMPDEST PUSH1 0x0 PUSH1 0x80 DUP3 ADD SWAP1 POP DUP2 DUP2 SUB PUSH1 0x0 DUP4 ADD MSTORE PUSH2 0x26B0 DUP2 DUP8 PUSH2 0x235D JUMP JUMPDEST SWAP1 POP DUP2 DUP2 SUB PUSH1 0x20 DUP4 ADD MSTORE PUSH2 0x26C4 DUP2 DUP7 PUSH2 0x235D JUMP JUMPDEST SWAP1 POP DUP2 DUP2 SUB PUSH1 0x40 DUP4 ADD MSTORE PUSH2 0x26D8 DUP2 DUP6 PUSH2 0x235D JUMP JUMPDEST SWAP1 POP DUP2 DUP2 SUB PUSH1 0x60 DUP4 ADD MSTORE PUSH2 0x26EC DUP2 DUP5 PUSH2 0x235D JUMP JUMPDEST SWAP1 POP SWAP6 SWAP5 POP POP POP POP POP JUMP JUMPDEST PUSH1 0x0 DUP2 SWAP1 POP SWAP3 SWAP2 POP POP JUMP JUMPDEST PUSH1 0x0 PUSH2 0x270D DUP3 PUSH2 0x2317 JUMP JUMPDEST PUSH2 0x2717 DUP2 DUP6 PUSH2 0x26F7 JUMP JUMPDEST SWAP4 POP PUSH2 0x2727 DUP2 DUP6 PUSH1 0x20 DUP7 ADD PUSH2 0x2333 JUMP JUMPDEST DUP1 DUP5 ADD SWAP2 POP POP SWAP3 SWAP2 POP POP JUMP JUMPDEST PUSH1 0x0 PUSH2 0x273F DUP3 DUP5 PUSH2 0x2702 JUMP JUMPDEST SWAP2 POP DUP2 SWAP1 POP SWAP3 SWAP2 POP POP JUMP JUMPDEST PUSH32 0x4E487B7100000000000000000000000000000000000000000000000000000000 PUSH1 0x0 MSTORE PUSH1 0x22 PUSH1 0x4 MSTORE PUSH1 0x24 PUSH1 0x0 REVERT JUMPDEST PUSH1 0x0 PUSH1 0x2 DUP3 DIV SWAP1 POP PUSH1 0x1 DUP3 AND DUP1 PUSH2 0x2791 JUMPI PUSH1 0x7F DUP3 AND SWAP2 POP JUMPDEST PUSH1 0x20 DUP3 LT DUP2 SUB PUSH2 0x27A4 JUMPI PUSH2 0x27A3 PUSH2 0x274A JUMP JUMPDEST JUMPDEST POP SWAP2 SWAP1 POP JUMP JUMPDEST PUSH32 0x4E487B7100000000000000000000000000000000000000000000000000000000 PUSH1 0x0 MSTORE PUSH1 0x32 PUSH1 0x4 MSTORE PUSH1 0x24 PUSH1 0x0 REVERT JUMPDEST PUSH1 0x0 DUP2 SWAP1 POP DUP2 PUSH1 0x0 MSTORE PUSH1 0x20 PUSH1 0x0 KECCAK256 SWAP1 POP SWAP2 SWAP1 POP JUMP JUMPDEST PUSH1 0x0 PUSH1 0x20 PUSH1 0x1F DUP4 ADD DIV SWAP1 POP SWAP2 SWAP1 POP JUMP JUMPDEST PUSH1 0x0 DUP3 DUP3 SHL SWAP1 POP SWAP3 SWAP2 POP POP JUMP JUMPDEST PUSH1 0x0 PUSH1 0x8 DUP4 MUL PUSH2 0x283B PUSH32 0xFFFFFFFFFFFFFFFFFFFFFFFFFFFFFFFFFFFFFFFFFFFFFFFFFFFFFFFFFFFFFFFF DUP3 PUSH2 0x27FE JUMP JUMPDEST PUSH2 0x2845 DUP7 DUP4 PUSH2 0x27FE JUMP JUMPDEST SWAP6 POP DUP1 NOT DUP5 AND SWAP4 POP DUP1 DUP7 AND DUP5 OR SWAP3 POP POP POP SWAP4 SWAP3 POP POP POP JUMP JUMPDEST PUSH1 0x0 DUP2 SWAP1 POP SWAP2 SWAP1 POP JUMP JUMPDEST PUSH1 0x0 DUP2 SWAP1 POP SWAP2 SWAP1 POP JUMP JUMPDEST PUSH1 0x0 PUSH2 0x288C PUSH2 0x2887 PUSH2 0x2882 DUP5 PUSH2 0x285D JUMP JUMPDEST PUSH2 0x2867 JUMP JUMPDEST PUSH2 0x285D JUMP JUMPDEST SWAP1 POP SWAP2 SWAP1 POP JUMP JUMPDEST PUSH1 0x0 DUP2 SWAP1 POP SWAP2 SWAP1 POP JUMP JUMPDEST PUSH2 0x28A6 DUP4 PUSH2 0x2871 JUMP JUMPDEST PUSH2 0x28BA PUSH2 0x28B2 DUP3 PUSH2 0x2893 JUMP JUMPDEST DUP5 DUP5 SLOAD PUSH2 0x280B JUMP JUMPDEST DUP3 SSTORE POP POP POP POP JUMP JUMPDEST PUSH1 0x0 SWAP1 JUMP JUMPDEST PUSH2 0x28CF PUSH2 0x28C2 JUMP JUMPDEST PUSH2 0x28DA DUP2 DUP5 DUP5 PUSH2 0x289D JUMP JUMPDEST POP POP POP JUMP JUMPDEST JUMPDEST DUP2 DUP2 LT ISZERO PUSH2 0x28FE JUMPI PUSH2 0x28F3 PUSH1 0x0 DUP3 PUSH2 0x28C7 JUMP JUMPDEST PUSH1 0x1 DUP2 ADD SWAP1 POP PUSH2 0x28E0 JUMP JUMPDEST POP POP JUMP JUMPDEST PUSH1 0x1F DUP3 GT ISZERO PUSH2 0x2943 JUMPI PUSH2 0x2914 DUP2 PUSH2 0x27D9 JUMP JUMPDEST PUSH2 0x291D DUP5 PUSH2 0x27EE JUMP JUMPDEST DUP2 ADD PUSH1 0x20 DUP6 LT ISZERO PUSH2 0x292C JUMPI DUP2 SWAP1 POP JUMPDEST PUSH2 0x2940 PUSH2 0x2938 DUP6 PUSH2 0x27EE JUMP JUMPDEST DUP4 ADD DUP3 PUSH2 0x28DF JUMP JUMPDEST POP POP JUMPDEST POP POP POP JUMP JUMPDEST PUSH1 0x0 DUP3 DUP3 SHR SWAP1 POP SWAP3 SWAP2 POP POP JUMP JUMPDEST PUSH1 0x0 PUSH2 0x2966 PUSH1 0x0 NOT DUP5 PUSH1 0x8 MUL PUSH2 0x2948 JUMP JUMPDEST NOT DUP1 DUP4 AND SWAP2 POP POP SWAP3 SWAP2 POP POP JUMP JUMPDEST PUSH1 0x0 PUSH2 0x297F DUP4 DUP4 PUSH2 0x2955 JUMP JUMPDEST SWAP2 POP DUP3 PUSH1 0x2 MUL DUP3 OR SWAP1 POP SWAP3 SWAP2 POP POP JUMP JUMPDEST PUSH2 0x2998 DUP3 PUSH2 0x2317 JUMP JUMPDEST PUSH8 0xFFFFFFFFFFFFFFFF DUP2 GT ISZERO PUSH2 0x29B1 JUMPI PUSH2 0x29B0 PUSH2 0x20C6 JUMP JUMPDEST JUMPDEST PUSH2 0x29BB DUP3 SLOAD PUSH2 0x2779 JUMP JUMPDEST PUSH2 0x29C6 DUP3 DUP3 DUP6 PUSH2 0x2902 JUMP JUMPDEST PUSH1 0x0 PUSH1 0x20 SWAP1 POP PUSH1 0x1F DUP4 GT PUSH1 0x1 DUP2 EQ PUSH2 0x29F9 JUMPI PUSH1 0x0 DUP5 ISZERO PUSH2 0x29E7 JUMPI DUP3 DUP8 ADD MLOAD SWAP1 POP JUMPDEST PUSH2 0x29F1 DUP6 DUP3 PUSH2 0x2973 JUMP JUMPDEST DUP7 SSTORE POP PUSH2 0x2A59 JUMP JUMPDEST PUSH1 0x1F NOT DUP5 AND PUSH2 0x2A07 DUP7 PUSH2 0x27D9 JUMP JUMPDEST PUSH1 0x0 JUMPDEST DUP3 DUP2 LT ISZERO PUSH2 0x2A2F JUMPI DUP5 DUP10 ADD MLOAD DUP3 SSTORE PUSH1 0x1 DUP3 ADD SWAP2 POP PUSH1 0x20 DUP6 ADD SWAP5 POP PUSH1 0x20 DUP2 ADD SWAP1 POP PUSH2 0x2A0A JUMP JUMPDEST DUP7 DUP4 LT ISZERO PUSH2 0x2A4C JUMPI DUP5 DUP10 ADD MLOAD PUSH2 0x2A48 PUSH1 0x1F DUP10 AND DUP3 PUSH2 0x2955 JUMP JUMPDEST DUP4 SSTORE POP JUMPDEST PUSH1 0x1 PUSH1 0x2 DUP9 MUL ADD DUP9 SSTORE POP POP POP JUMPDEST POP POP POP POP POP POP JUMP JUMPDEST PUSH32 0x4E487B7100000000000000000000000000000000000000000000000000000000 PUSH1 0x0 MSTORE PUSH1 0x11 PUSH1 0x4 MSTORE PUSH1 0x24 PUSH1 0x0 REVERT JUMPDEST PUSH1 0x0 PUSH2 0x2A9B DUP3 PUSH2 0x285D JUMP JUMPDEST SWAP2 POP PUSH32 0xFFFFFFFFFFFFFFFFFFFFFFFFFFFFFFFFFFFFFFFFFFFFFFFFFFFFFFFFFFFFFFFF DUP3 SUB PUSH2 0x2ACD JUMPI PUSH2 0x2ACC PUSH2 0x2A61 JUMP JUMPDEST JUMPDEST PUSH1 0x1 DUP3 ADD SWAP1 POP SWAP2 SWAP1 POP JUMP JUMPDEST PUSH1 0x0 PUSH2 0x2AE3 DUP3 PUSH2 0x285D JUMP JUMPDEST SWAP2 POP PUSH2 0x2AEE DUP4 PUSH2 0x285D JUMP JUMPDEST SWAP3 POP DUP3 DUP3 SUB SWAP1 POP DUP2 DUP2 GT ISZERO PUSH2 0x2B06 JUMPI PUSH2 0x2B05 PUSH2 0x2A61 JUMP JUMPDEST JUMPDEST SWAP3 SWAP2 POP POP JUMP JUMPDEST PUSH1 0x0 PUSH2 0x2B17 DUP3 PUSH2 0x285D JUMP JUMPDEST SWAP2 POP PUSH2 0x2B22 DUP4 PUSH2 0x285D JUMP JUMPDEST SWAP3 POP DUP3 DUP3 ADD SWAP1 POP DUP1 DUP3 GT ISZERO PUSH2 0x2B3A JUMPI PUSH2 0x2B39 PUSH2 0x2A61 JUMP JUMPDEST JUMPDEST SWAP3 SWAP2 POP POP JUMP JUMPDEST PUSH1 0x0 DUP2 SLOAD SWAP1 POP PUSH2 0x2B4F DUP2 PUSH2 0x2779 JUMP JUMPDEST SWAP1 POP SWAP2 SWAP1 POP JUMP JUMPDEST PUSH1 0x0 DUP2 SWAP1 POP DUP2 PUSH1 0x0 MSTORE PUSH1 0x20 PUSH1 0x0 KECCAK256 SWAP1 POP SWAP2 SWAP1 POP JUMP JUMPDEST DUP2 DUP2 SUB PUSH2 0x2B79 JUMPI POP POP PUSH2 0x2C51 JUMP JUMPDEST PUSH2 0x2B82 DUP3 PUSH2 0x2B40 JUMP JUMPDEST PUSH8 0xFFFFFFFFFFFFFFFF DUP2 GT ISZERO PUSH2 0x2B9B JUMPI PUSH2 0x2B9A PUSH2 0x20C6 JUMP JUMPDEST JUMPDEST PUSH2 0x2BA5 DUP3 SLOAD PUSH2 0x2779 JUMP JUMPDEST PUSH2 0x2BB0 DUP3 DUP3 DUP6 PUSH2 0x2902 JUMP JUMPDEST PUSH1 0x0 PUSH1 0x1F DUP4 GT PUSH1 0x1 DUP2 EQ PUSH2 0x2BDF JUMPI PUSH1 0x0 DUP5 ISZERO PUSH2 0x2BCD JUMPI DUP3 DUP8 ADD SLOAD SWAP1 POP JUMPDEST PUSH2 0x2BD7 DUP6 DUP3 PUSH2 0x2973 JUMP JUMPDEST DUP7 SSTORE POP PUSH2 0x2C4A JUMP JUMPDEST PUSH1 0x1F NOT DUP5 AND PUSH2 0x2BED DUP8 PUSH2 0x2B56 JUMP JUMPDEST SWAP7 POP PUSH2 0x2BF8 DUP7 PUSH2 0x27D9 JUMP JUMPDEST PUSH1 0x0 JUMPDEST DUP3 DUP2 LT ISZERO PUSH2 0x2C20 JUMPI DUP5 DUP10 ADD SLOAD DUP3 SSTORE PUSH1 0x1 DUP3 ADD SWAP2 POP PUSH1 0x1 DUP6 ADD SWAP5 POP PUSH1 0x20 DUP2 ADD SWAP1 POP PUSH2 0x2BFB JUMP JUMPDEST DUP7 DUP4 LT ISZERO PUSH2 0x2C3D JUMPI DUP5 DUP10 ADD SLOAD PUSH2 0x2C39 PUSH1 0x1F DUP10 AND DUP3 PUSH2 0x2955 JUMP JUMPDEST DUP4 SSTORE POP JUMPDEST PUSH1 0x1 PUSH1 0x2 DUP9 MUL ADD DUP9 SSTORE POP POP POP JUMPDEST POP POP POP POP POP POP JUMPDEST JUMP INVALID LOG2 PUSH5 0x6970667358 0x22 SLT KECCAK256 SHR 0xBC 0xC7 SWAP8 0xD5 0xA9 PUSH4 0x40A4615F 0xCE DUP3 0xC0 GASLIMIT PUSH16 0x373DF39047D701309826AD5DBF41D204 PUSH5 0x736F6C6343 STOP ADDMOD SGT STOP CALLER "},"methodIdentifiers":{"changeCustomer(string,string,string)":"0715b5f0","createCustomer(string,string,string,string)":"b51ca0af","createManufactory(string,string,string)":"5a400564","createProduct(string,string,string,string)":"eb51e3cd","createRetailer(string,string,string)":"b5bd438b","getCustomerDetail(string)":"bc26ec53","getManafactorDetail(string)":"21b35573","getProductDetail(string)":"ee786260","getProductsByCustomer(string)":"cee4a5e5","getRetailerDetail(string)":"7c3851cd","moveToRetailer(string,string)":"3a7090c1","sellToFirstCustomer(string,string,string)":"cc2306c9"}}}}}