{
  "_format": "hh-sol-artifact-1",
  "contractName": "FPIS",
  "sourceName": "contracts/fpis.sol",
  "abi": [
    {
      "inputs": [
        {
          "internalType": "string",
          "name": "_productID",
          "type": "string"
        },
        {
          "internalType": "string",
          "name": "_oldCustomerEmail",
          "type": "string"
        },
        {
          "internalType": "string",
          "name": "_newCustomerEmail",
          "type": "string"
        },
        {
          "internalType": "string",
          "name": "_changeDate",
          "type": "string"
        }
      ],
      "name": "changeCustomer",
      "outputs": [
        {
          "internalType": "bool",
          "name": "",
          "type": "bool"
        }
      ],
      "stateMutability": "payable",
      "type": "function"
    },
    {
      "inputs": [
        {
          "internalType": "string",
          "name": "_customerEmail",
          "type": "string"
        },
        {
          "internalType": "string",
          "name": "_name",
          "type": "string"
        },
        {
          "internalType": "string",
          "name": "_location",
          "type": "string"
        },
        {
          "internalType": "string",
          "name": "_phone_number",
          "type": "string"
        }
      ],
      "name": "createCustomer",
      "outputs": [
        {
          "internalType": "bool",
          "name": "",
          "type": "bool"
        }
      ],
      "stateMutability": "payable",
      "type": "function"
    },
    {
      "inputs": [
        {
          "internalType": "string",
          "name": "_manufactorEmail",
          "type": "string"
        },
        {
          "internalType": "string",
          "name": "_manufactorName",
          "type": "string"
        },
        {
          "internalType": "string",
          "name": "_manufactorLocation",
          "type": "string"
        }
      ],
      "name": "createManufactory",
      "outputs": [
        {
          "internalType": "bool",
          "name": "",
          "type": "bool"
        }
      ],
      "stateMutability": "payable",
      "type": "function"
    },
    {
      "inputs": [
        {
          "internalType": "string",
          "name": "_productID",
          "type": "string"
        },
        {
          "internalType": "string",
          "name": "_model",
          "type": "string"
        },
        {
          "internalType": "string",
          "name": "_description",
          "type": "string"
        },
        {
          "internalType": "string",
          "name": "_manufactoryEmail",
          "type": "string"
        },
        {
          "internalType": "string",
          "name": "_manufactoryLocation",
          "type": "string"
        },
        {
          "internalType": "string",
          "name": "_productionDate",
          "type": "string"
        }
      ],
      "name": "createProduct",
      "outputs": [
        {
          "internalType": "bool",
          "name": "",
          "type": "bool"
        }
      ],
      "stateMutability": "payable",
      "type": "function"
    },
    {
      "inputs": [
        {
          "internalType": "string",
          "name": "_retailerEmail",
          "type": "string"
        },
        {
          "internalType": "string",
          "name": "_retailerName",
          "type": "string"
        },
        {
          "internalType": "string",
          "name": "_retailerLocation",
          "type": "string"
        }
      ],
      "name": "createRetailer",
      "outputs": [
        {
          "internalType": "bool",
          "name": "",
          "type": "bool"
        }
      ],
      "stateMutability": "payable",
      "type": "function"
    },
    {
      "inputs": [],
      "name": "getAllProducts",
      "outputs": [
        {
          "components": [
            {
              "internalType": "string",
              "name": "model",
              "type": "string"
            },
            {
              "internalType": "string",
              "name": "description",
              "type": "string"
            },
            {
              "internalType": "string",
              "name": "manufactoryEmail",
              "type": "string"
            },
            {
              "internalType": "string",
              "name": "retailerEmail",
              "type": "string"
            },
            {
              "internalType": "string",
              "name": "customerEmail",
              "type": "string"
            },
            {
              "internalType": "uint256",
              "name": "status",
              "type": "uint256"
            },
            {
              "components": [
                {
                  "internalType": "uint256",
                  "name": "timestamp",
                  "type": "uint256"
                },
                {
                  "internalType": "string",
                  "name": "action",
                  "type": "string"
                },
                {
                  "internalType": "string",
                  "name": "details",
                  "type": "string"
                },
                {
                  "internalType": "string",
                  "name": "date",
                  "type": "string"
                }
              ],
              "internalType": "struct FPIS.HistoryItem[]",
              "name": "history",
              "type": "tuple[]"
            }
          ],
          "internalType": "struct FPIS.Product[]",
          "name": "",
          "type": "tuple[]"
        },
        {
          "internalType": "string[]",
          "name": "",
          "type": "string[]"
        }
      ],
      "stateMutability": "view",
      "type": "function"
    },
    {
      "inputs": [
        {
          "internalType": "string",
          "name": "_customerEmail",
          "type": "string"
        }
      ],
      "name": "getCustomerDetail",
      "outputs": [
        {
          "internalType": "string",
          "name": "",
          "type": "string"
        },
        {
          "internalType": "string",
          "name": "",
          "type": "string"
        },
        {
          "internalType": "string",
          "name": "",
          "type": "string"
        }
      ],
      "stateMutability": "view",
      "type": "function"
    },
    {
      "inputs": [
        {
          "internalType": "string",
          "name": "_manufactorEmail",
          "type": "string"
        }
      ],
      "name": "getManafactorDetail",
      "outputs": [
        {
          "internalType": "string",
          "name": "",
          "type": "string"
        },
        {
          "internalType": "string",
          "name": "",
          "type": "string"
        }
      ],
      "stateMutability": "view",
      "type": "function"
    },
    {
      "inputs": [
        {
          "internalType": "string",
          "name": "_productID",
          "type": "string"
        }
      ],
      "name": "getProductDetail",
      "outputs": [
        {
          "internalType": "string",
          "name": "",
          "type": "string"
        },
        {
          "internalType": "string",
          "name": "",
          "type": "string"
        },
        {
          "internalType": "string",
          "name": "",
          "type": "string"
        },
        {
          "internalType": "string",
          "name": "",
          "type": "string"
        },
        {
          "internalType": "string",
          "name": "",
          "type": "string"
        },
        {
          "components": [
            {
              "internalType": "uint256",
              "name": "timestamp",
              "type": "uint256"
            },
            {
              "internalType": "string",
              "name": "action",
              "type": "string"
            },
            {
              "internalType": "string",
              "name": "details",
              "type": "string"
            },
            {
              "internalType": "string",
              "name": "date",
              "type": "string"
            }
          ],
          "internalType": "struct FPIS.HistoryItem[]",
          "name": "",
          "type": "tuple[]"
        }
      ],
      "stateMutability": "view",
      "type": "function"
    },
    {
      "inputs": [
        {
          "internalType": "string",
          "name": "_customerEmail",
          "type": "string"
        }
      ],
      "name": "getProductsByCustomer",
      "outputs": [
        {
          "internalType": "string[]",
          "name": "",
          "type": "string[]"
        }
      ],
      "stateMutability": "view",
      "type": "function"
    },
    {
      "inputs": [
        {
          "internalType": "string",
          "name": "_manufactoryEmail",
          "type": "string"
        }
      ],
      "name": "getProductsByManufactory",
      "outputs": [
        {
          "components": [
            {
              "internalType": "string",
              "name": "model",
              "type": "string"
            },
            {
              "internalType": "string",
              "name": "description",
              "type": "string"
            },
            {
              "internalType": "string",
              "name": "manufactoryEmail",
              "type": "string"
            },
            {
              "internalType": "string",
              "name": "retailerEmail",
              "type": "string"
            },
            {
              "internalType": "string",
              "name": "customerEmail",
              "type": "string"
            },
            {
              "internalType": "uint256",
              "name": "status",
              "type": "uint256"
            },
            {
              "components": [
                {
                  "internalType": "uint256",
                  "name": "timestamp",
                  "type": "uint256"
                },
                {
                  "internalType": "string",
                  "name": "action",
                  "type": "string"
                },
                {
                  "internalType": "string",
                  "name": "details",
                  "type": "string"
                },
                {
                  "internalType": "string",
                  "name": "date",
                  "type": "string"
                }
              ],
              "internalType": "struct FPIS.HistoryItem[]",
              "name": "history",
              "type": "tuple[]"
            }
          ],
          "internalType": "struct FPIS.Product[]",
          "name": "",
          "type": "tuple[]"
        },
        {
          "internalType": "string[]",
          "name": "",
          "type": "string[]"
        }
      ],
      "stateMutability": "view",
      "type": "function"
    },
    {
      "inputs": [
        {
          "internalType": "string",
          "name": "_retailerEmail",
          "type": "string"
        }
      ],
      "name": "getProductsByRetailer",
      "outputs": [
        {
          "components": [
            {
              "internalType": "string",
              "name": "model",
              "type": "string"
            },
            {
              "internalType": "string",
              "name": "description",
              "type": "string"
            },
            {
              "internalType": "string",
              "name": "manufactoryEmail",
              "type": "string"
            },
            {
              "internalType": "string",
              "name": "retailerEmail",
              "type": "string"
            },
            {
              "internalType": "string",
              "name": "customerEmail",
              "type": "string"
            },
            {
              "internalType": "uint256",
              "name": "status",
              "type": "uint256"
            },
            {
              "components": [
                {
                  "internalType": "uint256",
                  "name": "timestamp",
                  "type": "uint256"
                },
                {
                  "internalType": "string",
                  "name": "action",
                  "type": "string"
                },
                {
                  "internalType": "string",
                  "name": "details",
                  "type": "string"
                },
                {
                  "internalType": "string",
                  "name": "date",
                  "type": "string"
                }
              ],
              "internalType": "struct FPIS.HistoryItem[]",
              "name": "history",
              "type": "tuple[]"
            }
          ],
          "internalType": "struct FPIS.Product[]",
          "name": "",
          "type": "tuple[]"
        },
        {
          "internalType": "string[]",
          "name": "",
          "type": "string[]"
        }
      ],
      "stateMutability": "view",
      "type": "function"
    },
    {
      "inputs": [
        {
          "internalType": "string",
          "name": "_retailerEmail",
          "type": "string"
        }
      ],
      "name": "getRetailerDetail",
      "outputs": [
        {
          "internalType": "string",
          "name": "",
          "type": "string"
        },
        {
          "internalType": "string",
          "name": "",
          "type": "string"
        }
      ],
      "stateMutability": "view",
      "type": "function"
    },
    {
      "inputs": [
        {
          "internalType": "string",
          "name": "_productID",
          "type": "string"
        },
        {
          "internalType": "string",
          "name": "_retailerEmail",
          "type": "string"
        },
        {
          "internalType": "string",
          "name": "_retailLocation",
          "type": "string"
        },
        {
          "internalType": "string",
          "name": "_movingDate",
          "type": "string"
        }
      ],
      "name": "moveToRetailer",
      "outputs": [
        {
          "internalType": "bool",
          "name": "",
          "type": "bool"
        }
      ],
      "stateMutability": "payable",
      "type": "function"
    },
    {
      "inputs": [
        {
          "internalType": "string",
          "name": "_productID",
          "type": "string"
        },
        {
          "internalType": "string",
          "name": "_retailerEmail",
          "type": "string"
        },
        {
          "internalType": "string",
          "name": "_customerEmail",
          "type": "string"
        },
        {
          "internalType": "string",
          "name": "_saleDate",
          "type": "string"
        }
      ],
      "name": "sellToFirstCustomer",
      "outputs": [
        {
          "internalType": "bool",
          "name": "",
          "type": "bool"
        }
      ],
      "stateMutability": "payable",
      "type": "function"
    }
  ],
  "bytecode": "0x608060405234801561001057600080fd5b50614e56806100206000396000f3fe6080604052600436106100e85760003560e01c8063a603efe11161008a578063cee4a5e511610059578063cee4a5e514610340578063e9e5b5a21461037d578063ee786260146103ad578063f1ef413b146103ef576100e8565b8063a603efe114610271578063b51ca0af146102a1578063b5bd438b146102d1578063bc26ec5314610301576100e8565b80635a400564116100c65780635a40056414610187578063754d6246146101b75780637618777b146101f55780637c3851cd14610233576100e8565b806302ee3a52146100ed57806321b355731461011957806355a53f0614610157575b600080fd5b3480156100f957600080fd5b5061010261041f565b604051610110929190613da0565b60405180910390f35b34801561012557600080fd5b50610140600480360381019061013b9190613f20565b610aea565b60405161014e929190613fb3565b60405180910390f35b610171600480360381019061016c9190613fea565b610c50565b60405161017e919061413a565b60405180910390f35b6101a1600480360381019061019c9190614155565b610e99565b6040516101ae919061413a565b60405180910390f35b3480156101c357600080fd5b506101de60048036038101906101d99190613f20565b610f25565b6040516101ec929190613da0565b60405180910390f35b34801561020157600080fd5b5061021c60048036038101906102179190613f20565b61187a565b60405161022a929190613da0565b60405180910390f35b34801561023f57600080fd5b5061025a60048036038101906102559190613f20565b6121cf565b604051610268929190613fb3565b60405180910390f35b61028b600480360381019061028691906141fc565b612335565b604051610298919061413a565b60405180910390f35b6102bb60048036038101906102b691906141fc565b612659565b6040516102c8919061413a565b60405180910390f35b6102eb60048036038101906102e69190614155565b612791565b6040516102f8919061413a565b60405180910390f35b34801561030d57600080fd5b5061032860048036038101906103239190613f20565b61281d565b604051610337939291906142d3565b60405180910390f35b34801561034c57600080fd5b5061036760048036038101906103629190613f20565b612a36565b604051610374919061431f565b60405180910390f35b610397600480360381019061039291906141fc565b612b30565b6040516103a4919061413a565b60405180910390f35b3480156103b957600080fd5b506103d460048036038101906103cf9190613f20565b612c72565b6040516103e6969594939291906143c7565b60405180910390f35b610409600480360381019061040491906141fc565b61322b565b604051610416919061413a565b60405180910390f35b6060806000600480549050905060008167ffffffffffffffff81111561044857610447613df5565b5b60405190808252806020026020018201604052801561048157816020015b61046e6136f9565b8152602001906001900390816104665790505b50905060005b82811015610a09576000600482815481106104a5576104a4614452565b5b906000526020600020016040516104bc9190614584565b90815260200160405180910390206040518060e00160405290816000820180546104e5906144b0565b80601f0160208091040260200160405190810160405280929190818152602001828054610511906144b0565b801561055e5780601f106105335761010080835404028352916020019161055e565b820191906000526020600020905b81548152906001019060200180831161054157829003601f168201915b50505050508152602001600182018054610577906144b0565b80601f01602080910402602001604051908101604052809291908181526020018280546105a3906144b0565b80156105f05780601f106105c5576101008083540402835291602001916105f0565b820191906000526020600020905b8154815290600101906020018083116105d357829003601f168201915b50505050508152602001600282018054610609906144b0565b80601f0160208091040260200160405190810160405280929190818152602001828054610635906144b0565b80156106825780601f1061065757610100808354040283529160200191610682565b820191906000526020600020905b81548152906001019060200180831161066557829003601f168201915b5050505050815260200160038201805461069b906144b0565b80601f01602080910402602001604051908101604052809291908181526020018280546106c7906144b0565b80156107145780601f106106e957610100808354040283529160200191610714565b820191906000526020600020905b8154815290600101906020018083116106f757829003601f168201915b5050505050815260200160048201805461072d906144b0565b80601f0160208091040260200160405190810160405280929190818152602001828054610759906144b0565b80156107a65780601f1061077b576101008083540402835291602001916107a6565b820191906000526020600020905b81548152906001019060200180831161078957829003601f168201915b505050505081526020016005820154815260200160068201805480602002602001604051908101604052809291908181526020016000905b828210156109d057838290600052602060002090600402016040518060800160405290816000820154815260200160018201805461081b906144b0565b80601f0160208091040260200160405190810160405280929190818152602001828054610847906144b0565b80156108945780601f1061086957610100808354040283529160200191610894565b820191906000526020600020905b81548152906001019060200180831161087757829003601f168201915b505050505081526020016002820180546108ad906144b0565b80601f01602080910402602001604051908101604052809291908181526020018280546108d9906144b0565b80156109265780601f106108fb57610100808354040283529160200191610926565b820191906000526020600020905b81548152906001019060200180831161090957829003601f168201915b5050505050815260200160038201805461093f906144b0565b80601f016020809104026020016040519081016040528092919081815260200182805461096b906144b0565b80156109b85780601f1061098d576101008083540402835291602001916109b8565b820191906000526020600020905b81548152906001019060200180831161099b57829003601f168201915b505050505081525050815260200190600101906107de565b50505050815250508282815181106109eb576109ea614452565b5b60200260200101819052508080610a01906145ca565b915050610487565b5080600480805480602002602001604051908101604052809291908181526020016000905b82821015610ada578382906000526020600020018054610a4d906144b0565b80601f0160208091040260200160405190810160405280929190818152602001828054610a79906144b0565b8015610ac65780601f10610a9b57610100808354040283529160200191610ac6565b820191906000526020600020905b815481529060010190602001808311610aa957829003601f168201915b505050505081526020019060010190610a2e565b5050505090509350935050509091565b606080600283604051610afd9190614643565b9081526020016040518091039020600001600284604051610b1e9190614643565b9081526020016040518091039020600201818054610b3b906144b0565b80601f0160208091040260200160405190810160405280929190818152602001828054610b67906144b0565b8015610bb45780601f10610b8957610100808354040283529160200191610bb4565b820191906000526020600020905b815481529060010190602001808311610b9757829003601f168201915b50505050509150808054610bc7906144b0565b80601f0160208091040260200160405190810160405280929190818152602001828054610bf3906144b0565b8015610c405780601f10610c1557610100808354040283529160200191610c40565b820191906000526020600020905b815481529060010190602001808311610c2357829003601f168201915b5050505050905091509150915091565b600080600088604051610c639190614643565b9081526020016040518091039020905086816000019081610c8491906147f1565b5085816001019081610c9691906147f1565b5084816002019081610ca891906147f1565b50610cb1613736565b428160000181815250506040518060400160405280600c81526020017f4d616e756661637475726564000000000000000000000000000000000000000081525081602001819052508585604051602001610d0c92919061495b565b604051602081830303815290604052816040018190525083816060018190525081600601819080600181540180825580915050600190039060005260206000209060040201600090919091909150600082015181600001556020820151816001019081610d7991906147f1565b506040820151816002019081610d8f91906147f1565b506060820151816003019081610da591906147f1565b5050508160008a604051610db99190614643565b908152602001604051809103902060008201816000019081610ddb91906149ab565b5060018201816001019081610df091906149ab565b5060028201816002019081610e0591906149ab565b5060038201816003019081610e1a91906149ab565b5060048201816004019081610e2f91906149ab565b50600582015481600501556006820181600601908054610e5092919061375e565b50905050600489908060018154018082558091505060019003906000526020600020016000909190919091509081610e8891906147f1565b506001925050509695505050505050565b6000610ea36137ff565b83816000018190525082816040018190525080600286604051610ec69190614643565b90815260200160405180910390206000820151816000019081610ee991906147f1565b506020820151816001019081610eff91906147f1565b506040820151816002019081610f1591906147f1565b5090505060019150509392505050565b6060806000805b6004805490508110156110bf57600060048281548110610f4f57610f4e614452565b5b906000526020600020018054610f64906144b0565b80601f0160208091040260200160405190810160405280929190818152602001828054610f90906144b0565b8015610fdd5780601f10610fb257610100808354040283529160200191610fdd565b820191906000526020600020905b815481529060010190602001808311610fc057829003601f168201915b50505050509050611097600082604051610ff79190614643565b90815260200160405180910390206003018054611013906144b0565b80601f016020809104026020016040519081016040528092919081815260200182805461103f906144b0565b801561108c5780601f106110615761010080835404028352916020019161108c565b820191906000526020600020905b81548152906001019060200180831161106f57829003601f168201915b5050505050876135c1565b156110ab5782806110a7906145ca565b9350505b5080806110b7906145ca565b915050610f2c565b5060008167ffffffffffffffff8111156110dc576110db613df5565b5b60405190808252806020026020018201604052801561111557816020015b6111026136f9565b8152602001906001900390816110fa5790505b50905060008267ffffffffffffffff81111561113457611133613df5565b5b60405190808252806020026020018201604052801561116757816020015b60608152602001906001900390816111525790505b5090506000805b60048054905081101561186a5760006004828154811061119157611190614452565b5b9060005260206000200180546111a6906144b0565b80601f01602080910402602001604051908101604052809291908181526020018280546111d2906144b0565b801561121f5780601f106111f45761010080835404028352916020019161121f565b820191906000526020600020905b81548152906001019060200180831161120257829003601f168201915b505050505090506112d96000826040516112399190614643565b90815260200160405180910390206003018054611255906144b0565b80601f0160208091040260200160405190810160405280929190818152602001828054611281906144b0565b80156112ce5780601f106112a3576101008083540402835291602001916112ce565b820191906000526020600020905b8154815290600101906020018083116112b157829003601f168201915b50505050508a6135c1565b15611856576000816040516112ee9190614643565b90815260200160405180910390206040518060e0016040529081600082018054611317906144b0565b80601f0160208091040260200160405190810160405280929190818152602001828054611343906144b0565b80156113905780601f1061136557610100808354040283529160200191611390565b820191906000526020600020905b81548152906001019060200180831161137357829003601f168201915b505050505081526020016001820180546113a9906144b0565b80601f01602080910402602001604051908101604052809291908181526020018280546113d5906144b0565b80156114225780601f106113f757610100808354040283529160200191611422565b820191906000526020600020905b81548152906001019060200180831161140557829003601f168201915b5050505050815260200160028201805461143b906144b0565b80601f0160208091040260200160405190810160405280929190818152602001828054611467906144b0565b80156114b45780601f10611489576101008083540402835291602001916114b4565b820191906000526020600020905b81548152906001019060200180831161149757829003601f168201915b505050505081526020016003820180546114cd906144b0565b80601f01602080910402602001604051908101604052809291908181526020018280546114f9906144b0565b80156115465780601f1061151b57610100808354040283529160200191611546565b820191906000526020600020905b81548152906001019060200180831161152957829003601f168201915b5050505050815260200160048201805461155f906144b0565b80601f016020809104026020016040519081016040528092919081815260200182805461158b906144b0565b80156115d85780601f106115ad576101008083540402835291602001916115d8565b820191906000526020600020905b8154815290600101906020018083116115bb57829003601f168201915b505050505081526020016005820154815260200160068201805480602002602001604051908101604052809291908181526020016000905b8282101561180257838290600052602060002090600402016040518060800160405290816000820154815260200160018201805461164d906144b0565b80601f0160208091040260200160405190810160405280929190818152602001828054611679906144b0565b80156116c65780601f1061169b576101008083540402835291602001916116c6565b820191906000526020600020905b8154815290600101906020018083116116a957829003601f168201915b505050505081526020016002820180546116df906144b0565b80601f016020809104026020016040519081016040528092919081815260200182805461170b906144b0565b80156117585780601f1061172d57610100808354040283529160200191611758565b820191906000526020600020905b81548152906001019060200180831161173b57829003601f168201915b50505050508152602001600382018054611771906144b0565b80601f016020809104026020016040519081016040528092919081815260200182805461179d906144b0565b80156117ea5780601f106117bf576101008083540402835291602001916117ea565b820191906000526020600020905b8154815290600101906020018083116117cd57829003601f168201915b50505050508152505081526020019060010190611610565b505050508152505085848151811061181d5761181c614452565b5b60200260200101819052508084848151811061183c5761183b614452565b5b60200260200101819052508280611852906145ca565b9350505b508080611862906145ca565b91505061116e565b5082829550955050505050915091565b6060806000805b600480549050811015611a14576000600482815481106118a4576118a3614452565b5b9060005260206000200180546118b9906144b0565b80601f01602080910402602001604051908101604052809291908181526020018280546118e5906144b0565b80156119325780601f1061190757610100808354040283529160200191611932565b820191906000526020600020905b81548152906001019060200180831161191557829003601f168201915b505050505090506119ec60008260405161194c9190614643565b90815260200160405180910390206002018054611968906144b0565b80601f0160208091040260200160405190810160405280929190818152602001828054611994906144b0565b80156119e15780601f106119b6576101008083540402835291602001916119e1565b820191906000526020600020905b8154815290600101906020018083116119c457829003601f168201915b5050505050876135c1565b15611a005782806119fc906145ca565b9350505b508080611a0c906145ca565b915050611881565b5060008167ffffffffffffffff811115611a3157611a30613df5565b5b604051908082528060200260200182016040528015611a6a57816020015b611a576136f9565b815260200190600190039081611a4f5790505b50905060008267ffffffffffffffff811115611a8957611a88613df5565b5b604051908082528060200260200182016040528015611abc57816020015b6060815260200190600190039081611aa75790505b5090506000805b6004805490508110156121bf57600060048281548110611ae657611ae5614452565b5b906000526020600020018054611afb906144b0565b80601f0160208091040260200160405190810160405280929190818152602001828054611b27906144b0565b8015611b745780601f10611b4957610100808354040283529160200191611b74565b820191906000526020600020905b815481529060010190602001808311611b5757829003601f168201915b50505050509050611c2e600082604051611b8e9190614643565b90815260200160405180910390206002018054611baa906144b0565b80601f0160208091040260200160405190810160405280929190818152602001828054611bd6906144b0565b8015611c235780601f10611bf857610100808354040283529160200191611c23565b820191906000526020600020905b815481529060010190602001808311611c0657829003601f168201915b50505050508a6135c1565b156121ab57600081604051611c439190614643565b90815260200160405180910390206040518060e0016040529081600082018054611c6c906144b0565b80601f0160208091040260200160405190810160405280929190818152602001828054611c98906144b0565b8015611ce55780601f10611cba57610100808354040283529160200191611ce5565b820191906000526020600020905b815481529060010190602001808311611cc857829003601f168201915b50505050508152602001600182018054611cfe906144b0565b80601f0160208091040260200160405190810160405280929190818152602001828054611d2a906144b0565b8015611d775780601f10611d4c57610100808354040283529160200191611d77565b820191906000526020600020905b815481529060010190602001808311611d5a57829003601f168201915b50505050508152602001600282018054611d90906144b0565b80601f0160208091040260200160405190810160405280929190818152602001828054611dbc906144b0565b8015611e095780601f10611dde57610100808354040283529160200191611e09565b820191906000526020600020905b815481529060010190602001808311611dec57829003601f168201915b50505050508152602001600382018054611e22906144b0565b80601f0160208091040260200160405190810160405280929190818152602001828054611e4e906144b0565b8015611e9b5780601f10611e7057610100808354040283529160200191611e9b565b820191906000526020600020905b815481529060010190602001808311611e7e57829003601f168201915b50505050508152602001600482018054611eb4906144b0565b80601f0160208091040260200160405190810160405280929190818152602001828054611ee0906144b0565b8015611f2d5780601f10611f0257610100808354040283529160200191611f2d565b820191906000526020600020905b815481529060010190602001808311611f1057829003601f168201915b505050505081526020016005820154815260200160068201805480602002602001604051908101604052809291908181526020016000905b82821015612157578382906000526020600020906004020160405180608001604052908160008201548152602001600182018054611fa2906144b0565b80601f0160208091040260200160405190810160405280929190818152602001828054611fce906144b0565b801561201b5780601f10611ff05761010080835404028352916020019161201b565b820191906000526020600020905b815481529060010190602001808311611ffe57829003601f168201915b50505050508152602001600282018054612034906144b0565b80601f0160208091040260200160405190810160405280929190818152602001828054612060906144b0565b80156120ad5780601f10612082576101008083540402835291602001916120ad565b820191906000526020600020905b81548152906001019060200180831161209057829003601f168201915b505050505081526020016003820180546120c6906144b0565b80601f01602080910402602001604051908101604052809291908181526020018280546120f2906144b0565b801561213f5780601f106121145761010080835404028352916020019161213f565b820191906000526020600020905b81548152906001019060200180831161212257829003601f168201915b50505050508152505081526020019060010190611f65565b505050508152505085848151811061217257612171614452565b5b60200260200101819052508084848151811061219157612190614452565b5b602002602001018190525082806121a7906145ca565b9350505b5080806121b7906145ca565b915050611ac3565b5082829550955050505050915091565b6060806002836040516121e29190614643565b90815260200160405180910390206000016002846040516122039190614643565b9081526020016040518091039020600201818054612220906144b0565b80601f016020809104026020016040519081016040528092919081815260200182805461224c906144b0565b80156122995780601f1061226e57610100808354040283529160200191612299565b820191906000526020600020905b81548152906001019060200180831161227c57829003601f168201915b505050505091508080546122ac906144b0565b80601f01602080910402602001604051908101604052809291908181526020018280546122d8906144b0565b80156123255780601f106122fa57610100808354040283529160200191612325565b820191906000526020600020905b81548152906001019060200180831161230857829003601f168201915b5050505050905091509150915091565b6000806000866040516123489190614643565b908152602001604051809103902090506123ee81600301805461236a906144b0565b80601f0160208091040260200160405190810160405280929190818152602001828054612396906144b0565b80156123e35780601f106123b8576101008083540402835291602001916123e3565b820191906000526020600020905b8154815290600101906020018083116123c657829003601f168201915b5050505050866135c1565b1561264b57612498816004018054612405906144b0565b80601f0160208091040260200160405190810160405280929190818152602001828054612431906144b0565b801561247e5780601f106124535761010080835404028352916020019161247e565b820191906000526020600020905b81548152906001019060200180831161246157829003601f168201915b5050505050604051806020016040528060008152506135c1565b1561264a576003846040516124ad9190614643565b908152602001604051809103902060050160009054906101000a900460ff161561264957838160040190816124e291906147f1565b50600181600501819055506003846040516124fd9190614643565b90815260200160405180910390206004018690806001815401808255809150506001900390600052602060002001600090919091909150908161254091906147f1565b50612549613736565b428160000181815250506040518060400160405280601081526020017f536f6c6420746f20437573746f6d6572000000000000000000000000000000008152508160200181905250846040516020016125a29190614adf565b60405160208183030381529060405281604001819052508381606001819052508160060181908060018154018082558091505060019003906000526020600020906004020160009091909190915060008201518160000155602082015181600101908161260f91906147f1565b50604082015181600201908161262591906147f1565b50606082015181600301908161263b91906147f1565b505050600192505050612651565b5b5b60009150505b949350505050565b600060038560405161266b9190614643565b908152602001604051809103902060050160009054906101000a900460ff16156126985760009050612789565b6126a0613820565b84816000018190525083816060018190525082816040018190525060018160a0019015159081151581525050806003876040516126dd9190614643565b9081526020016040518091039020600082015181600001908161270091906147f1565b50602082015181600101908161271691906147f1565b50604082015181600201908161272c91906147f1565b50606082015181600301908161274291906147f1565b50608082015181600401908051906020019061275f929190613858565b5060a08201518160050160006101000a81548160ff02191690831515021790555090505060019150505b949350505050565b600061279b6137ff565b838160000181905250828160400181905250806002866040516127be9190614643565b908152602001604051809103902060008201518160000190816127e191906147f1565b5060208201518160010190816127f791906147f1565b50604082015181600201908161280d91906147f1565b5090505060019150509392505050565b60608060606003846040516128329190614643565b90815260200160405180910390206000016003856040516128539190614643565b90815260200160405180910390206002016003866040516128749190614643565b9081526020016040518091039020600301828054612891906144b0565b80601f01602080910402602001604051908101604052809291908181526020018280546128bd906144b0565b801561290a5780601f106128df5761010080835404028352916020019161290a565b820191906000526020600020905b8154815290600101906020018083116128ed57829003601f168201915b5050505050925081805461291d906144b0565b80601f0160208091040260200160405190810160405280929190818152602001828054612949906144b0565b80156129965780601f1061296b57610100808354040283529160200191612996565b820191906000526020600020905b81548152906001019060200180831161297957829003601f168201915b505050505091508080546129a9906144b0565b80601f01602080910402602001604051908101604052809291908181526020018280546129d5906144b0565b8015612a225780601f106129f757610100808354040283529160200191612a22565b820191906000526020600020905b815481529060010190602001808311612a0557829003601f168201915b505050505090509250925092509193909250565b6060600382604051612a489190614643565b9081526020016040518091039020600401805480602002602001604051908101604052809291908181526020016000905b82821015612b25578382906000526020600020018054612a98906144b0565b80601f0160208091040260200160405190810160405280929190818152602001828054612ac4906144b0565b8015612b115780601f10612ae657610100808354040283529160200191612b11565b820191906000526020600020905b815481529060010190602001808311612af457829003601f168201915b505050505081526020019060010190612a79565b505050509050919050565b600080600086604051612b439190614643565b9081526020016040518091039020905084816003019081612b6491906147f1565b50612b6d613736565b428160000181815250506040518060400160405280601181526020017f4d6f76656420746f2052657461696c657200000000000000000000000000000081525081602001819052508585604051602001612bc8929190614b99565b604051602081830303815290604052816040018190525083816060018190525081600601819080600181540180825580915050600190039060005260206000209060040201600090919091909150600082015181600001556020820151816001019081612c3591906147f1565b506040820151816002019081612c4b91906147f1565b506060820151816003019081612c6191906147f1565b505050600192505050949350505050565b606080606080606080600087604051612c8b9190614643565b9081526020016040518091039020600001600088604051612cac9190614643565b9081526020016040518091039020600101600089604051612ccd9190614643565b908152602001604051809103902060020160008a604051612cee9190614643565b908152602001604051809103902060030160008b604051612d0f9190614643565b908152602001604051809103902060040160008c604051612d309190614643565b9081526020016040518091039020600601858054612d4d906144b0565b80601f0160208091040260200160405190810160405280929190818152602001828054612d79906144b0565b8015612dc65780601f10612d9b57610100808354040283529160200191612dc6565b820191906000526020600020905b815481529060010190602001808311612da957829003601f168201915b50505050509550848054612dd9906144b0565b80601f0160208091040260200160405190810160405280929190818152602001828054612e05906144b0565b8015612e525780601f10612e2757610100808354040283529160200191612e52565b820191906000526020600020905b815481529060010190602001808311612e3557829003601f168201915b50505050509450838054612e65906144b0565b80601f0160208091040260200160405190810160405280929190818152602001828054612e91906144b0565b8015612ede5780601f10612eb357610100808354040283529160200191612ede565b820191906000526020600020905b815481529060010190602001808311612ec157829003601f168201915b50505050509350828054612ef1906144b0565b80601f0160208091040260200160405190810160405280929190818152602001828054612f1d906144b0565b8015612f6a5780601f10612f3f57610100808354040283529160200191612f6a565b820191906000526020600020905b815481529060010190602001808311612f4d57829003601f168201915b50505050509250818054612f7d906144b0565b80601f0160208091040260200160405190810160405280929190818152602001828054612fa9906144b0565b8015612ff65780601f10612fcb57610100808354040283529160200191612ff6565b820191906000526020600020905b815481529060010190602001808311612fd957829003601f168201915b5050505050915080805480602002602001604051908101604052809291908181526020016000905b8282101561321057838290600052602060002090600402016040518060800160405290816000820154815260200160018201805461305b906144b0565b80601f0160208091040260200160405190810160405280929190818152602001828054613087906144b0565b80156130d45780601f106130a9576101008083540402835291602001916130d4565b820191906000526020600020905b8154815290600101906020018083116130b757829003601f168201915b505050505081526020016002820180546130ed906144b0565b80601f0160208091040260200160405190810160405280929190818152602001828054613119906144b0565b80156131665780601f1061313b57610100808354040283529160200191613166565b820191906000526020600020905b81548152906001019060200180831161314957829003601f168201915b5050505050815260200160038201805461317f906144b0565b80601f01602080910402602001604051908101604052809291908181526020018280546131ab906144b0565b80156131f85780601f106131cd576101008083540402835291602001916131f8565b820191906000526020600020905b8154815290600101906020018083116131db57829003601f168201915b5050505050815250508152602001906001019061301e565b50505050905095509550955095509550955091939550919395565b60008060008660405161323e9190614643565b9081526020016040518091039020905060006003866040516132609190614643565b9081526020016040518091039020905060006003866040516132829190614643565b90815260200160405180910390209050600183600501541480156132b457508160050160009054906101000a900460ff165b80156132ce57508060050160009054906101000a900460ff165b156135b15760005b82600401805490508110156135af576133978360040182815481106132fe576132fd614452565b5b906000526020600020018054613313906144b0565b80601f016020809104026020016040519081016040528092919081815260200182805461333f906144b0565b801561338c5780601f106133615761010080835404028352916020019161338c565b820191906000526020600020905b81548152906001019060200180831161336f57829003601f168201915b50505050508a6135c1565b1561359c576134328460040180546133ae906144b0565b80601f01602080910402602001604051908101604052809291908181526020018280546133da906144b0565b80156134275780601f106133fc57610100808354040283529160200191613427565b820191906000526020600020905b81548152906001019060200180831161340a57829003601f168201915b5050505050896135c1565b1561344a578684600401908161344891906147f1565b505b613452613736565b428160000181815250506040518060400160405280601081526020017f4368616e67656420437573746f6d657200000000000000000000000000000000815250816020018190525088886040516020016134ad929190614c6b565b60405160208183030381529060405281604001819052508681606001819052508460060181908060018154018082558091505060019003906000526020600020906004020160009091909190915060008201518160000155602082015181600101908161351a91906147f1565b50604082015181600201908161353091906147f1565b50606082015181600301908161354691906147f1565b505050613556828560040161361a565b50826004018a90806001815401808255809150506001900390600052602060002001600090919091909150908161358d91906147f1565b506001955050505050506135b9565b80806135a7906145ca565b9150506132d6565b505b600093505050505b949350505050565b6000816040516020016135d49190614643565b60405160208183030381529060405280519060200120836040516020016135fb9190614643565b6040516020818303038152906040528051906020012014905092915050565b60008180549050831061363057600090506136f3565b60008390505b600183805490506136479190614ca5565b8110156136b4578260018261365c9190614cd9565b8154811061366d5761366c614452565b5b9060005260206000200183828154811061368a57613689614452565b5b9060005260206000200190816136a09190614d38565b5080806136ac906145ca565b915050613636565b5081600183805490506136c79190614ca5565b815481106136d8576136d7614452565b5b9060005260206000200160006136ee91906138b1565b600190505b92915050565b6040518060e00160405280606081526020016060815260200160608152602001606081526020016060815260200160008152602001606081525090565b6040518060800160405280600081526020016060815260200160608152602001606081525090565b8280548282559060005260206000209060040281019282156137ee5760005260206000209160040282015b828111156137ed57828260008201548160000155600182018160010190816137b191906149ab565b50600282018160020190816137c691906149ab565b50600382018160030190816137db91906149ab565b50505091600401919060040190613789565b5b5090506137fb91906138f1565b5090565b60405180606001604052806060815260200160608152602001606081525090565b6040518060c0016040528060608152602001606081526020016060815260200160608152602001606081526020016000151581525090565b8280548282559060005260206000209081019282156138a0579160200282015b8281111561389f57825182908161388f91906147f1565b5091602001919060010190613878565b5b5090506138ad9190613940565b5090565b5080546138bd906144b0565b6000825580601f106138cf57506138ee565b601f0160209004906000526020600020908101906138ed9190613964565b5b50565b5b8082111561393c5760008082016000905560018201600061391391906138b1565b60028201600061392391906138b1565b60038201600061393391906138b1565b506004016138f2565b5090565b5b80821115613960576000818161395791906138b1565b50600101613941565b5090565b5b8082111561397d576000816000905550600101613965565b5090565b600081519050919050565b600082825260208201905092915050565b6000819050602082019050919050565b600081519050919050565b600082825260208201905092915050565b60005b838110156139e75780820151818401526020810190506139cc565b60008484015250505050565b6000601f19601f8301169050919050565b6000613a0f826139ad565b613a1981856139b8565b9350613a298185602086016139c9565b613a32816139f3565b840191505092915050565b6000819050919050565b613a5081613a3d565b82525050565b600081519050919050565b600082825260208201905092915050565b6000819050602082019050919050565b6000608083016000830151613a9a6000860182613a47565b5060208301518482036020860152613ab28282613a04565b91505060408301518482036040860152613acc8282613a04565b91505060608301518482036060860152613ae68282613a04565b9150508091505092915050565b6000613aff8383613a82565b905092915050565b6000602082019050919050565b6000613b1f82613a56565b613b298185613a61565b935083602082028501613b3b85613a72565b8060005b85811015613b775784840389528151613b588582613af3565b9450613b6383613b07565b925060208a01995050600181019050613b3f565b50829750879550505050505092915050565b600060e0830160008301518482036000860152613ba68282613a04565b91505060208301518482036020860152613bc08282613a04565b91505060408301518482036040860152613bda8282613a04565b91505060608301518482036060860152613bf48282613a04565b91505060808301518482036080860152613c0e8282613a04565b91505060a0830151613c2360a0860182613a47565b5060c083015184820360c0860152613c3b8282613b14565b9150508091505092915050565b6000613c548383613b89565b905092915050565b6000602082019050919050565b6000613c7482613981565b613c7e818561398c565b935083602082028501613c908561399d565b8060005b85811015613ccc5784840389528151613cad8582613c48565b9450613cb883613c5c565b925060208a01995050600181019050613c94565b50829750879550505050505092915050565b600081519050919050565b600082825260208201905092915050565b6000819050602082019050919050565b6000613d168383613a04565b905092915050565b6000602082019050919050565b6000613d3682613cde565b613d408185613ce9565b935083602082028501613d5285613cfa565b8060005b85811015613d8e5784840389528151613d6f8582613d0a565b9450613d7a83613d1e565b925060208a01995050600181019050613d56565b50829750879550505050505092915050565b60006040820190508181036000830152613dba8185613c69565b90508181036020830152613dce8184613d2b565b90509392505050565b6000604051905090565b600080fd5b600080fd5b600080fd5b600080fd5b7f4e487b7100000000000000000000000000000000000000000000000000000000600052604160045260246000fd5b613e2d826139f3565b810181811067ffffffffffffffff82111715613e4c57613e4b613df5565b5b80604052505050565b6000613e5f613dd7565b9050613e6b8282613e24565b919050565b600067ffffffffffffffff821115613e8b57613e8a613df5565b5b613e94826139f3565b9050602081019050919050565b82818337600083830152505050565b6000613ec3613ebe84613e70565b613e55565b905082815260208101848484011115613edf57613ede613df0565b5b613eea848285613ea1565b509392505050565b600082601f830112613f0757613f06613deb565b5b8135613f17848260208601613eb0565b91505092915050565b600060208284031215613f3657613f35613de1565b5b600082013567ffffffffffffffff811115613f5457613f53613de6565b5b613f6084828501613ef2565b91505092915050565b600082825260208201905092915050565b6000613f85826139ad565b613f8f8185613f69565b9350613f9f8185602086016139c9565b613fa8816139f3565b840191505092915050565b60006040820190508181036000830152613fcd8185613f7a565b90508181036020830152613fe18184613f7a565b90509392505050565b60008060008060008060c0878903121561400757614006613de1565b5b600087013567ffffffffffffffff81111561402557614024613de6565b5b61403189828a01613ef2565b965050602087013567ffffffffffffffff81111561405257614051613de6565b5b61405e89828a01613ef2565b955050604087013567ffffffffffffffff81111561407f5761407e613de6565b5b61408b89828a01613ef2565b945050606087013567ffffffffffffffff8111156140ac576140ab613de6565b5b6140b889828a01613ef2565b935050608087013567ffffffffffffffff8111156140d9576140d8613de6565b5b6140e589828a01613ef2565b92505060a087013567ffffffffffffffff81111561410657614105613de6565b5b61411289828a01613ef2565b9150509295509295509295565b60008115159050919050565b6141348161411f565b82525050565b600060208201905061414f600083018461412b565b92915050565b60008060006060848603121561416e5761416d613de1565b5b600084013567ffffffffffffffff81111561418c5761418b613de6565b5b61419886828701613ef2565b935050602084013567ffffffffffffffff8111156141b9576141b8613de6565b5b6141c586828701613ef2565b925050604084013567ffffffffffffffff8111156141e6576141e5613de6565b5b6141f286828701613ef2565b9150509250925092565b6000806000806080858703121561421657614215613de1565b5b600085013567ffffffffffffffff81111561423457614233613de6565b5b61424087828801613ef2565b945050602085013567ffffffffffffffff81111561426157614260613de6565b5b61426d87828801613ef2565b935050604085013567ffffffffffffffff81111561428e5761428d613de6565b5b61429a87828801613ef2565b925050606085013567ffffffffffffffff8111156142bb576142ba613de6565b5b6142c787828801613ef2565b91505092959194509250565b600060608201905081810360008301526142ed8186613f7a565b905081810360208301526143018185613f7a565b905081810360408301526143158184613f7a565b9050949350505050565b600060208201905081810360008301526143398184613d2b565b905092915050565b600082825260208201905092915050565b600061435d82613a56565b6143678185614341565b93508360208202850161437985613a72565b8060005b858110156143b557848403895281516143968582613af3565b94506143a183613b07565b925060208a0199505060018101905061437d565b50829750879550505050505092915050565b600060c08201905081810360008301526143e18189613f7a565b905081810360208301526143f58188613f7a565b905081810360408301526144098187613f7a565b9050818103606083015261441d8186613f7a565b905081810360808301526144318185613f7a565b905081810360a08301526144458184614352565b9050979650505050505050565b7f4e487b7100000000000000000000000000000000000000000000000000000000600052603260045260246000fd5b7f4e487b7100000000000000000000000000000000000000000000000000000000600052602260045260246000fd5b600060028204905060018216806144c857607f821691505b6020821081036144db576144da614481565b5b50919050565b600081905092915050565b60008190508160005260206000209050919050565b6000815461450e816144b0565b61451881866144e1565b9450600182166000811461453357600181146145485761457b565b60ff198316865281151582028601935061457b565b614551856144ec565b60005b8381101561457357815481890152600182019150602081019050614554565b838801955050505b50505092915050565b60006145908284614501565b915081905092915050565b7f4e487b7100000000000000000000000000000000000000000000000000000000600052601160045260246000fd5b60006145d582613a3d565b91507fffffffffffffffffffffffffffffffffffffffffffffffffffffffffffffffff82036146075761460661459b565b5b600182019050919050565b600061461d826139ad565b61462781856144e1565b93506146378185602086016139c9565b80840191505092915050565b600061464f8284614612565b915081905092915050565b60006020601f8301049050919050565b600082821b905092915050565b6000600883026146a77fffffffffffffffffffffffffffffffffffffffffffffffffffffffffffffffff8261466a565b6146b1868361466a565b95508019841693508086168417925050509392505050565b6000819050919050565b60006146ee6146e96146e484613a3d565b6146c9565b613a3d565b9050919050565b6000819050919050565b614708836146d3565b61471c614714826146f5565b848454614677565b825550505050565b600090565b614731614724565b61473c8184846146ff565b505050565b5b8181101561476057614755600082614729565b600181019050614742565b5050565b601f8211156147a557614776816144ec565b61477f8461465a565b8101602085101561478e578190505b6147a261479a8561465a565b830182614741565b50505b505050565b600082821c905092915050565b60006147c8600019846008026147aa565b1980831691505092915050565b60006147e183836147b7565b9150826002028217905092915050565b6147fa826139ad565b67ffffffffffffffff81111561481357614812613df5565b5b61481d82546144b0565b614828828285614764565b600060209050601f83116001811461485b5760008415614849578287015190505b61485385826147d5565b8655506148bb565b601f198416614869866144ec565b60005b828110156148915784890151825560018201915060208501945060208101905061486c565b868310156148ae57848901516148aa601f8916826147b7565b8355505b6001600288020188555050505b505050505050565b7f4d616e75666163746f727920456d61696c3a2000000000000000000000000000600082015250565b60006148f96013836144e1565b9150614904826148c3565b601382019050919050565b7f2c204d616e75666163746f7279204c6f636174696f6e3a200000000000000000600082015250565b60006149456018836144e1565b91506149508261490f565b601882019050919050565b6000614966826148ec565b91506149728285614612565b915061497d82614938565b91506149898284614612565b91508190509392505050565b6000815490506149a4816144b0565b9050919050565b8181036149b9575050614a91565b6149c282614995565b67ffffffffffffffff8111156149db576149da613df5565b5b6149e582546144b0565b6149f0828285614764565b6000601f831160018114614a1f5760008415614a0d578287015490505b614a1785826147d5565b865550614a8a565b601f198416614a2d876144ec565b9650614a38866144ec565b60005b82811015614a6057848901548255600182019150600185019450602081019050614a3b565b86831015614a7d5784890154614a79601f8916826147b7565b8355505b6001600288020188555050505b5050505050505b565b7f437573746f6d657220456d61696c3a2000000000000000000000000000000000600082015250565b6000614ac96010836144e1565b9150614ad482614a93565b601082019050919050565b6000614aea82614abc565b9150614af68284614612565b915081905092915050565b7f52657461696c20456d61696c3a20000000000000000000000000000000000000600082015250565b6000614b37600e836144e1565b9150614b4282614b01565b600e82019050919050565b7f2c2052657461696c204c6f636174696f6e3a2000000000000000000000000000600082015250565b6000614b836013836144e1565b9150614b8e82614b4d565b601382019050919050565b6000614ba482614b2a565b9150614bb08285614612565b9150614bbb82614b76565b9150614bc78284614612565b91508190509392505050565b7f4f6c6420437573746f6d65723a20000000000000000000000000000000000000600082015250565b6000614c09600e836144e1565b9150614c1482614bd3565b600e82019050919050565b7f2c204e657720437573746f6d65723a2000000000000000000000000000000000600082015250565b6000614c556010836144e1565b9150614c6082614c1f565b601082019050919050565b6000614c7682614bfc565b9150614c828285614612565b9150614c8d82614c48565b9150614c998284614612565b91508190509392505050565b6000614cb082613a3d565b9150614cbb83613a3d565b9250828203905081811115614cd357614cd261459b565b5b92915050565b6000614ce482613a3d565b9150614cef83613a3d565b9250828201905080821115614d0757614d0661459b565b5b92915050565b600081549050614d1c816144b0565b9050919050565b60008190508160005260206000209050919050565b818103614d46575050614e1e565b614d4f82614d0d565b67ffffffffffffffff811115614d6857614d67613df5565b5b614d7282546144b0565b614d7d828285614764565b6000601f831160018114614dac5760008415614d9a578287015490505b614da485826147d5565b865550614e17565b601f198416614dba87614d23565b9650614dc5866144ec565b60005b82811015614ded57848901548255600182019150600185019450602081019050614dc8565b86831015614e0a5784890154614e06601f8916826147b7565b8355505b6001600288020188555050505b5050505050505b56fea26469706673582212200566b3e30a0c08b75bcfc4c93db660bfa7cefc672ba9a582498c1fb4cf221d9a64736f6c63430008130033",
  "linkReferences": {},
  "deployedLinkReferences": {}
}