{
  "_format": "hh-sol-artifact-1",
  "contractName": "FPIS",
  "sourceName": "contracts/fpis.sol",
  "abi": [
    {
      "inputs": [
        {
          "internalType": "string",
          "name": "_productID",
          "type": "string"
        },
        {
          "internalType": "string",
          "name": "_oldCustomerEmail",
          "type": "string"
        },
        {
          "internalType": "string",
          "name": "_newCustomerEmail",
          "type": "string"
        },
        {
          "internalType": "string",
          "name": "_changeDate",
          "type": "string"
        }
      ],
      "name": "changeCustomer",
      "outputs": [
        {
          "internalType": "bool",
          "name": "",
          "type": "bool"
        }
      ],
      "stateMutability": "payable",
      "type": "function"
    },
    {
      "inputs": [
        {
          "internalType": "string",
          "name": "_customerEmail",
          "type": "string"
        },
        {
          "internalType": "string",
          "name": "_name",
          "type": "string"
        },
        {
          "internalType": "string",
          "name": "_location",
          "type": "string"
        },
        {
          "internalType": "string",
          "name": "_phone_number",
          "type": "string"
        }
      ],
      "name": "createCustomer",
      "outputs": [
        {
          "internalType": "bool",
          "name": "",
          "type": "bool"
        }
      ],
      "stateMutability": "payable",
      "type": "function"
    },
    {
      "inputs": [
        {
          "internalType": "string",
          "name": "_manufactorEmail",
          "type": "string"
        },
        {
          "internalType": "string",
          "name": "_manufactorName",
          "type": "string"
        },
        {
          "internalType": "string",
          "name": "_manufactorLocation",
          "type": "string"
        }
      ],
      "name": "createManufactory",
      "outputs": [
        {
          "internalType": "bool",
          "name": "",
          "type": "bool"
        }
      ],
      "stateMutability": "payable",
      "type": "function"
    },
    {
      "inputs": [
        {
          "internalType": "string",
          "name": "_productID",
          "type": "string"
        },
        {
          "internalType": "string",
          "name": "_model",
          "type": "string"
        },
        {
          "internalType": "string",
          "name": "_description",
          "type": "string"
        },
        {
          "internalType": "string",
          "name": "_manufactoryEmail",
          "type": "string"
        },
        {
          "internalType": "string",
          "name": "_manufactoryLocation",
          "type": "string"
        },
        {
          "internalType": "string",
          "name": "_productionDate",
          "type": "string"
        }
      ],
      "name": "createProduct",
      "outputs": [
        {
          "internalType": "bool",
          "name": "",
          "type": "bool"
        }
      ],
      "stateMutability": "payable",
      "type": "function"
    },
    {
      "inputs": [
        {
          "internalType": "string",
          "name": "_retailerEmail",
          "type": "string"
        },
        {
          "internalType": "string",
          "name": "_retailerName",
          "type": "string"
        },
        {
          "internalType": "string",
          "name": "_retailerLocation",
          "type": "string"
        }
      ],
      "name": "createRetailer",
      "outputs": [
        {
          "internalType": "bool",
          "name": "",
          "type": "bool"
        }
      ],
      "stateMutability": "payable",
      "type": "function"
    },
    {
      "inputs": [],
      "name": "getAllProducts",
      "outputs": [
        {
          "components": [
            {
              "internalType": "string",
              "name": "model",
              "type": "string"
            },
            {
              "internalType": "string",
              "name": "description",
              "type": "string"
            },
            {
              "internalType": "string",
              "name": "manufactoryEmail",
              "type": "string"
            },
            {
              "internalType": "string",
              "name": "retailerEmail",
              "type": "string"
            },
            {
              "internalType": "string",
              "name": "customerEmail",
              "type": "string"
            },
            {
              "internalType": "uint256",
              "name": "status",
              "type": "uint256"
            },
            {
              "components": [
                {
                  "internalType": "uint256",
                  "name": "timestamp",
                  "type": "uint256"
                },
                {
                  "internalType": "string",
                  "name": "action",
                  "type": "string"
                },
                {
                  "internalType": "string",
                  "name": "details",
                  "type": "string"
                }
              ],
              "internalType": "struct FPIS.HistoryItem[]",
              "name": "history",
              "type": "tuple[]"
            }
          ],
          "internalType": "struct FPIS.Product[]",
          "name": "",
          "type": "tuple[]"
        },
        {
          "internalType": "string[]",
          "name": "",
          "type": "string[]"
        }
      ],
      "stateMutability": "view",
      "type": "function"
    },
    {
      "inputs": [
        {
          "internalType": "string",
          "name": "_customerEmail",
          "type": "string"
        }
      ],
      "name": "getCustomerDetail",
      "outputs": [
        {
          "internalType": "string",
          "name": "",
          "type": "string"
        },
        {
          "internalType": "string",
          "name": "",
          "type": "string"
        },
        {
          "internalType": "string",
          "name": "",
          "type": "string"
        }
      ],
      "stateMutability": "view",
      "type": "function"
    },
    {
      "inputs": [
        {
          "internalType": "string",
          "name": "_manufactorEmail",
          "type": "string"
        }
      ],
      "name": "getManafactorDetail",
      "outputs": [
        {
          "internalType": "string",
          "name": "",
          "type": "string"
        },
        {
          "internalType": "string",
          "name": "",
          "type": "string"
        }
      ],
      "stateMutability": "view",
      "type": "function"
    },
    {
      "inputs": [
        {
          "internalType": "string",
          "name": "_productID",
          "type": "string"
        }
      ],
      "name": "getProductDetail",
      "outputs": [
        {
          "internalType": "string",
          "name": "",
          "type": "string"
        },
        {
          "internalType": "string",
          "name": "",
          "type": "string"
        },
        {
          "internalType": "string",
          "name": "",
          "type": "string"
        },
        {
          "internalType": "string",
          "name": "",
          "type": "string"
        },
        {
          "internalType": "string",
          "name": "",
          "type": "string"
        },
        {
          "components": [
            {
              "internalType": "uint256",
              "name": "timestamp",
              "type": "uint256"
            },
            {
              "internalType": "string",
              "name": "action",
              "type": "string"
            },
            {
              "internalType": "string",
              "name": "details",
              "type": "string"
            }
          ],
          "internalType": "struct FPIS.HistoryItem[]",
          "name": "",
          "type": "tuple[]"
        }
      ],
      "stateMutability": "view",
      "type": "function"
    },
    {
      "inputs": [
        {
          "internalType": "string",
          "name": "_customerEmail",
          "type": "string"
        }
      ],
      "name": "getProductsByCustomer",
      "outputs": [
        {
          "internalType": "string[]",
          "name": "",
          "type": "string[]"
        }
      ],
      "stateMutability": "view",
      "type": "function"
    },
    {
      "inputs": [
        {
          "internalType": "string",
          "name": "_retailerEmail",
          "type": "string"
        }
      ],
      "name": "getRetailerDetail",
      "outputs": [
        {
          "internalType": "string",
          "name": "",
          "type": "string"
        },
        {
          "internalType": "string",
          "name": "",
          "type": "string"
        }
      ],
      "stateMutability": "view",
      "type": "function"
    },
    {
      "inputs": [
        {
          "internalType": "string",
          "name": "_productID",
          "type": "string"
        },
        {
          "internalType": "string",
          "name": "_retailerEmail",
          "type": "string"
        },
        {
          "internalType": "string",
          "name": "_retailLocation",
          "type": "string"
        },
        {
          "internalType": "string",
          "name": "_movingDate",
          "type": "string"
        }
      ],
      "name": "moveToRetailer",
      "outputs": [
        {
          "internalType": "bool",
          "name": "",
          "type": "bool"
        }
      ],
      "stateMutability": "payable",
      "type": "function"
    },
    {
      "inputs": [
        {
          "internalType": "string",
          "name": "_productID",
          "type": "string"
        },
        {
          "internalType": "string",
          "name": "_retailerEmail",
          "type": "string"
        },
        {
          "internalType": "string",
          "name": "_customerEmail",
          "type": "string"
        },
        {
          "internalType": "string",
          "name": "_saleDate",
          "type": "string"
        }
      ],
      "name": "sellToFirstCustomer",
      "outputs": [
        {
          "internalType": "bool",
          "name": "",
          "type": "bool"
        }
      ],
      "stateMutability": "payable",
      "type": "function"
    }
  ],
  "bytecode": "0x608060405234801561001057600080fd5b506139f0806100206000396000f3fe6080604052600436106100c25760003560e01c8063b51ca0af1161007f578063cee4a5e511610059578063cee4a5e51461029e578063e9e5b5a2146102db578063ee7862601461030b578063f1ef413b1461034d576100c2565b8063b51ca0af146101ff578063b5bd438b1461022f578063bc26ec531461025f576100c2565b806302ee3a52146100c757806321b35573146100f357806355a53f06146101315780635a400564146101615780637c3851cd14610191578063a603efe1146101cf575b600080fd5b3480156100d357600080fd5b506100dc61037d565b6040516100ea929190612872565b60405180910390f35b3480156100ff57600080fd5b5061011a600480360381019061011591906129f2565b6109b6565b604051610128929190612a85565b60405180910390f35b61014b60048036038101906101469190612abc565b610b1c565b6040516101589190612c0c565b60405180910390f35b61017b60048036038101906101769190612c27565b610d46565b6040516101889190612c0c565b60405180910390f35b34801561019d57600080fd5b506101b860048036038101906101b391906129f2565b610dd2565b6040516101c6929190612a85565b60405180910390f35b6101e960048036038101906101e49190612cce565b610f38565b6040516101f69190612c0c565b60405180910390f35b61021960048036038101906102149190612cce565b61123f565b6040516102269190612c0c565b60405180910390f35b61024960048036038101906102449190612c27565b611377565b6040516102569190612c0c565b60405180910390f35b34801561026b57600080fd5b50610286600480360381019061028191906129f2565b611403565b60405161029593929190612da5565b60405180910390f35b3480156102aa57600080fd5b506102c560048036038101906102c091906129f2565b61161c565b6040516102d29190612df1565b60405180910390f35b6102f560048036038101906102f09190612cce565b611716565b6040516103029190612c0c565b60405180910390f35b34801561031757600080fd5b50610332600480360381019061032d91906129f2565b611839565b60405161034496959493929190612e99565b60405180910390f35b61036760048036038101906103629190612cce565b611d60565b6040516103749190612c0c565b60405180910390f35b6060806000600480549050905060008167ffffffffffffffff8111156103a6576103a56128c7565b5b6040519080825280602002602001820160405280156103df57816020015b6103cc612211565b8152602001906001900390816103c45790505b50905060005b828110156108d55760006004828154811061040357610402612f24565b5b9060005260206000200160405161041a9190613056565b90815260200160405180910390206040518060e001604052908160008201805461044390612f82565b80601f016020809104026020016040519081016040528092919081815260200182805461046f90612f82565b80156104bc5780601f10610491576101008083540402835291602001916104bc565b820191906000526020600020905b81548152906001019060200180831161049f57829003601f168201915b505050505081526020016001820180546104d590612f82565b80601f016020809104026020016040519081016040528092919081815260200182805461050190612f82565b801561054e5780601f106105235761010080835404028352916020019161054e565b820191906000526020600020905b81548152906001019060200180831161053157829003601f168201915b5050505050815260200160028201805461056790612f82565b80601f016020809104026020016040519081016040528092919081815260200182805461059390612f82565b80156105e05780601f106105b5576101008083540402835291602001916105e0565b820191906000526020600020905b8154815290600101906020018083116105c357829003601f168201915b505050505081526020016003820180546105f990612f82565b80601f016020809104026020016040519081016040528092919081815260200182805461062590612f82565b80156106725780601f1061064757610100808354040283529160200191610672565b820191906000526020600020905b81548152906001019060200180831161065557829003601f168201915b5050505050815260200160048201805461068b90612f82565b80601f01602080910402602001604051908101604052809291908181526020018280546106b790612f82565b80156107045780601f106106d957610100808354040283529160200191610704565b820191906000526020600020905b8154815290600101906020018083116106e757829003601f168201915b505050505081526020016005820154815260200160068201805480602002602001604051908101604052809291908181526020016000905b8282101561089c57838290600052602060002090600302016040518060600160405290816000820154815260200160018201805461077990612f82565b80601f01602080910402602001604051908101604052809291908181526020018280546107a590612f82565b80156107f25780601f106107c7576101008083540402835291602001916107f2565b820191906000526020600020905b8154815290600101906020018083116107d557829003601f168201915b5050505050815260200160028201805461080b90612f82565b80601f016020809104026020016040519081016040528092919081815260200182805461083790612f82565b80156108845780601f1061085957610100808354040283529160200191610884565b820191906000526020600020905b81548152906001019060200180831161086757829003601f168201915b5050505050815250508152602001906001019061073c565b50505050815250508282815181106108b7576108b6612f24565b5b602002602001018190525080806108cd9061309c565b9150506103e5565b5080600480805480602002602001604051908101604052809291908181526020016000905b828210156109a657838290600052602060002001805461091990612f82565b80601f016020809104026020016040519081016040528092919081815260200182805461094590612f82565b80156109925780601f1061096757610100808354040283529160200191610992565b820191906000526020600020905b81548152906001019060200180831161097557829003601f168201915b5050505050815260200190600101906108fa565b5050505090509350935050509091565b6060806002836040516109c99190613115565b90815260200160405180910390206000016002846040516109ea9190613115565b9081526020016040518091039020600201818054610a0790612f82565b80601f0160208091040260200160405190810160405280929190818152602001828054610a3390612f82565b8015610a805780601f10610a5557610100808354040283529160200191610a80565b820191906000526020600020905b815481529060010190602001808311610a6357829003601f168201915b50505050509150808054610a9390612f82565b80601f0160208091040260200160405190810160405280929190818152602001828054610abf90612f82565b8015610b0c5780601f10610ae157610100808354040283529160200191610b0c565b820191906000526020600020905b815481529060010190602001808311610aef57829003601f168201915b5050505050905091509150915091565b600080600088604051610b2f9190613115565b9081526020016040518091039020905086816000019081610b5091906132c3565b5085816001019081610b6291906132c3565b5084816002019081610b7491906132c3565b50610b7d61224e565b428160000181815250506040518060400160405280600c81526020017f4d616e756661637475726564000000000000000000000000000000000000000081525081602001819052508484604051602001610bd892919061342d565b604051602081830303815290604052816040018190525081600601819080600181540180825580915050600190039060005260206000209060030201600090919091909150600082015181600001556020820151816001019081610c3c91906132c3565b506040820151816002019081610c5291906132c3565b5050508160008a604051610c669190613115565b908152602001604051809103902060008201816000019081610c88919061347d565b5060018201816001019081610c9d919061347d565b5060028201816002019081610cb2919061347d565b5060038201816003019081610cc7919061347d565b5060048201816004019081610cdc919061347d565b50600582015481600501556006820181600601908054610cfd92919061226f565b50905050600489908060018154018082558091505060019003906000526020600020016000909190919091509081610d3591906132c3565b506001925050509695505050505050565b6000610d506122fb565b83816000018190525082816040018190525080600286604051610d739190613115565b90815260200160405180910390206000820151816000019081610d9691906132c3565b506020820151816001019081610dac91906132c3565b506040820151816002019081610dc291906132c3565b5090505060019150509392505050565b606080600283604051610de59190613115565b9081526020016040518091039020600001600284604051610e069190613115565b9081526020016040518091039020600201818054610e2390612f82565b80601f0160208091040260200160405190810160405280929190818152602001828054610e4f90612f82565b8015610e9c5780601f10610e7157610100808354040283529160200191610e9c565b820191906000526020600020905b815481529060010190602001808311610e7f57829003601f168201915b50505050509150808054610eaf90612f82565b80601f0160208091040260200160405190810160405280929190818152602001828054610edb90612f82565b8015610f285780601f10610efd57610100808354040283529160200191610f28565b820191906000526020600020905b815481529060010190602001808311610f0b57829003601f168201915b5050505050905091509150915091565b600080600086604051610f4b9190613115565b90815260200160405180910390209050610ff1816003018054610f6d90612f82565b80601f0160208091040260200160405190810160405280929190818152602001828054610f9990612f82565b8015610fe65780601f10610fbb57610100808354040283529160200191610fe6565b820191906000526020600020905b815481529060010190602001808311610fc957829003601f168201915b5050505050866120d9565b156112315761109b81600401805461100890612f82565b80601f016020809104026020016040519081016040528092919081815260200182805461103490612f82565b80156110815780601f1061105657610100808354040283529160200191611081565b820191906000526020600020905b81548152906001019060200180831161106457829003601f168201915b5050505050604051806020016040528060008152506120d9565b15611230576003846040516110b09190613115565b908152602001604051809103902060050160009054906101000a900460ff161561122f57838160040190816110e591906132c3565b50600181600501819055506003846040516111009190613115565b90815260200160405180910390206004018690806001815401808255809150506001900390600052602060002001600090919091909150908161114391906132c3565b5061114c61224e565b428160000181815250506040518060400160405280601081526020017f536f6c6420746f20437573746f6d657200000000000000000000000000000000815250816020018190525084846040516020016111a79291906135fd565b60405160208183030381529060405281604001819052508160060181908060018154018082558091505060019003906000526020600020906003020160009091909190915060008201518160000155602082015181600101908161120b91906132c3565b50604082015181600201908161122191906132c3565b505050600192505050611237565b5b5b60009150505b949350505050565b60006003856040516112519190613115565b908152602001604051809103902060050160009054906101000a900460ff161561127e576000905061136f565b61128661231c565b84816000018190525083816060018190525082816040018190525060018160a0019015159081151581525050806003876040516112c39190613115565b908152602001604051809103902060008201518160000190816112e691906132c3565b5060208201518160010190816112fc91906132c3565b50604082015181600201908161131291906132c3565b50606082015181600301908161132891906132c3565b506080820151816004019080519060200190611345929190612354565b5060a08201518160050160006101000a81548160ff02191690831515021790555090505060019150505b949350505050565b60006113816122fb565b838160000181905250828160400181905250806002866040516113a49190613115565b908152602001604051809103902060008201518160000190816113c791906132c3565b5060208201518160010190816113dd91906132c3565b5060408201518160020190816113f391906132c3565b5090505060019150509392505050565b60608060606003846040516114189190613115565b90815260200160405180910390206000016003856040516114399190613115565b908152602001604051809103902060020160038660405161145a9190613115565b908152602001604051809103902060030182805461147790612f82565b80601f01602080910402602001604051908101604052809291908181526020018280546114a390612f82565b80156114f05780601f106114c5576101008083540402835291602001916114f0565b820191906000526020600020905b8154815290600101906020018083116114d357829003601f168201915b5050505050925081805461150390612f82565b80601f016020809104026020016040519081016040528092919081815260200182805461152f90612f82565b801561157c5780601f106115515761010080835404028352916020019161157c565b820191906000526020600020905b81548152906001019060200180831161155f57829003601f168201915b5050505050915080805461158f90612f82565b80601f01602080910402602001604051908101604052809291908181526020018280546115bb90612f82565b80156116085780601f106115dd57610100808354040283529160200191611608565b820191906000526020600020905b8154815290600101906020018083116115eb57829003601f168201915b505050505090509250925092509193909250565b606060038260405161162e9190613115565b9081526020016040518091039020600401805480602002602001604051908101604052809291908181526020016000905b8282101561170b57838290600052602060002001805461167e90612f82565b80601f01602080910402602001604051908101604052809291908181526020018280546116aa90612f82565b80156116f75780601f106116cc576101008083540402835291602001916116f7565b820191906000526020600020905b8154815290600101906020018083116116da57829003601f168201915b50505050508152602001906001019061165f565b505050509050919050565b6000806000866040516117299190613115565b908152602001604051809103902090508481600301908161174a91906132c3565b5061175361224e565b428160000181815250506040518060400160405280601181526020017f4d6f76656420746f2052657461696c6572000000000000000000000000000000815250816020018190525084846040516020016117ae9291906136cf565b60405160208183030381529060405281604001819052508160060181908060018154018082558091505060019003906000526020600020906003020160009091909190915060008201518160000155602082015181600101908161181291906132c3565b50604082015181600201908161182891906132c3565b505050600192505050949350505050565b6060806060806060806000876040516118529190613115565b90815260200160405180910390206000016000886040516118739190613115565b90815260200160405180910390206001016000896040516118949190613115565b908152602001604051809103902060020160008a6040516118b59190613115565b908152602001604051809103902060030160008b6040516118d69190613115565b908152602001604051809103902060040160008c6040516118f79190613115565b908152602001604051809103902060060185805461191490612f82565b80601f016020809104026020016040519081016040528092919081815260200182805461194090612f82565b801561198d5780601f106119625761010080835404028352916020019161198d565b820191906000526020600020905b81548152906001019060200180831161197057829003601f168201915b505050505095508480546119a090612f82565b80601f01602080910402602001604051908101604052809291908181526020018280546119cc90612f82565b8015611a195780601f106119ee57610100808354040283529160200191611a19565b820191906000526020600020905b8154815290600101906020018083116119fc57829003601f168201915b50505050509450838054611a2c90612f82565b80601f0160208091040260200160405190810160405280929190818152602001828054611a5890612f82565b8015611aa55780601f10611a7a57610100808354040283529160200191611aa5565b820191906000526020600020905b815481529060010190602001808311611a8857829003601f168201915b50505050509350828054611ab890612f82565b80601f0160208091040260200160405190810160405280929190818152602001828054611ae490612f82565b8015611b315780601f10611b0657610100808354040283529160200191611b31565b820191906000526020600020905b815481529060010190602001808311611b1457829003601f168201915b50505050509250818054611b4490612f82565b80601f0160208091040260200160405190810160405280929190818152602001828054611b7090612f82565b8015611bbd5780601f10611b9257610100808354040283529160200191611bbd565b820191906000526020600020905b815481529060010190602001808311611ba057829003601f168201915b5050505050915080805480602002602001604051908101604052809291908181526020016000905b82821015611d45578382906000526020600020906003020160405180606001604052908160008201548152602001600182018054611c2290612f82565b80601f0160208091040260200160405190810160405280929190818152602001828054611c4e90612f82565b8015611c9b5780601f10611c7057610100808354040283529160200191611c9b565b820191906000526020600020905b815481529060010190602001808311611c7e57829003601f168201915b50505050508152602001600282018054611cb490612f82565b80601f0160208091040260200160405190810160405280929190818152602001828054611ce090612f82565b8015611d2d5780601f10611d0257610100808354040283529160200191611d2d565b820191906000526020600020905b815481529060010190602001808311611d1057829003601f168201915b50505050508152505081526020019060010190611be5565b50505050905095509550955095509550955091939550919395565b600080600086604051611d739190613115565b908152602001604051809103902090506000600386604051611d959190613115565b908152602001604051809103902090506000600386604051611db79190613115565b9081526020016040518091039020905060018360050154148015611de957508160050160009054906101000a900460ff165b8015611e0357508060050160009054906101000a900460ff165b156120c95760005b82600401805490508110156120c757611ecc836004018281548110611e3357611e32612f24565b5b906000526020600020018054611e4890612f82565b80601f0160208091040260200160405190810160405280929190818152602001828054611e7490612f82565b8015611ec15780601f10611e9657610100808354040283529160200191611ec1565b820191906000526020600020905b815481529060010190602001808311611ea457829003601f168201915b50505050508a6120d9565b156120b457611f67846004018054611ee390612f82565b80601f0160208091040260200160405190810160405280929190818152602001828054611f0f90612f82565b8015611f5c5780601f10611f3157610100808354040283529160200191611f5c565b820191906000526020600020905b815481529060010190602001808311611f3f57829003601f168201915b5050505050896120d9565b15611f7f5786846004019081611f7d91906132c3565b505b611f8761224e565b428160000181815250506040518060400160405280601081526020017f4368616e67656420437573746f6d6572000000000000000000000000000000008152508160200181905250888888604051602001611fe4939291906137ed565b60405160208183030381529060405281604001819052508460060181908060018154018082558091505060019003906000526020600020906003020160009091909190915060008201518160000155602082015181600101908161204891906132c3565b50604082015181600201908161205e91906132c3565b50505061206e8285600401612132565b50826004018a9080600181540180825580915050600190039060005260206000200160009091909190915090816120a591906132c3565b506001955050505050506120d1565b80806120bf9061309c565b915050611e0b565b505b600093505050505b949350505050565b6000816040516020016120ec9190613115565b60405160208183030381529060405280519060200120836040516020016121139190613115565b6040516020818303038152906040528051906020012014905092915050565b600081805490508310612148576000905061220b565b60008390505b6001838054905061215f919061383f565b8110156121cc57826001826121749190613873565b8154811061218557612184612f24565b5b906000526020600020018382815481106121a2576121a1612f24565b5b9060005260206000200190816121b891906138d2565b5080806121c49061309c565b91505061214e565b5081600183805490506121df919061383f565b815481106121f0576121ef612f24565b5b90600052602060002001600061220691906123ad565b600190505b92915050565b6040518060e00160405280606081526020016060815260200160608152602001606081526020016060815260200160008152602001606081525090565b60405180606001604052806000815260200160608152602001606081525090565b8280548282559060005260206000209060030281019282156122ea5760005260206000209160030282015b828111156122e957828260008201548160000155600182018160010190816122c2919061347d565b50600282018160020190816122d7919061347d565b5050509160030191906003019061229a565b5b5090506122f791906123ed565b5090565b60405180606001604052806060815260200160608152602001606081525090565b6040518060c0016040528060608152602001606081526020016060815260200160608152602001606081526020016000151581525090565b82805482825590600052602060002090810192821561239c579160200282015b8281111561239b57825182908161238b91906132c3565b5091602001919060010190612374565b5b5090506123a9919061242c565b5090565b5080546123b990612f82565b6000825580601f106123cb57506123ea565b601f0160209004906000526020600020908101906123e99190612450565b5b50565b5b808211156124285760008082016000905560018201600061240f91906123ad565b60028201600061241f91906123ad565b506003016123ee565b5090565b5b8082111561244c576000818161244391906123ad565b5060010161242d565b5090565b5b80821115612469576000816000905550600101612451565b5090565b600081519050919050565b600082825260208201905092915050565b6000819050602082019050919050565b600081519050919050565b600082825260208201905092915050565b60005b838110156124d35780820151818401526020810190506124b8565b60008484015250505050565b6000601f19601f8301169050919050565b60006124fb82612499565b61250581856124a4565b93506125158185602086016124b5565b61251e816124df565b840191505092915050565b6000819050919050565b61253c81612529565b82525050565b600081519050919050565b600082825260208201905092915050565b6000819050602082019050919050565b60006060830160008301516125866000860182612533565b506020830151848203602086015261259e82826124f0565b915050604083015184820360408601526125b882826124f0565b9150508091505092915050565b60006125d1838361256e565b905092915050565b6000602082019050919050565b60006125f182612542565b6125fb818561254d565b93508360208202850161260d8561255e565b8060005b85811015612649578484038952815161262a85826125c5565b9450612635836125d9565b925060208a01995050600181019050612611565b50829750879550505050505092915050565b600060e083016000830151848203600086015261267882826124f0565b9150506020830151848203602086015261269282826124f0565b915050604083015184820360408601526126ac82826124f0565b915050606083015184820360608601526126c682826124f0565b915050608083015184820360808601526126e082826124f0565b91505060a08301516126f560a0860182612533565b5060c083015184820360c086015261270d82826125e6565b9150508091505092915050565b6000612726838361265b565b905092915050565b6000602082019050919050565b60006127468261246d565b6127508185612478565b93508360208202850161276285612489565b8060005b8581101561279e578484038952815161277f858261271a565b945061278a8361272e565b925060208a01995050600181019050612766565b50829750879550505050505092915050565b600081519050919050565b600082825260208201905092915050565b6000819050602082019050919050565b60006127e883836124f0565b905092915050565b6000602082019050919050565b6000612808826127b0565b61281281856127bb565b935083602082028501612824856127cc565b8060005b85811015612860578484038952815161284185826127dc565b945061284c836127f0565b925060208a01995050600181019050612828565b50829750879550505050505092915050565b6000604082019050818103600083015261288c818561273b565b905081810360208301526128a081846127fd565b90509392505050565b6000604051905090565b600080fd5b600080fd5b600080fd5b600080fd5b7f4e487b7100000000000000000000000000000000000000000000000000000000600052604160045260246000fd5b6128ff826124df565b810181811067ffffffffffffffff8211171561291e5761291d6128c7565b5b80604052505050565b60006129316128a9565b905061293d82826128f6565b919050565b600067ffffffffffffffff82111561295d5761295c6128c7565b5b612966826124df565b9050602081019050919050565b82818337600083830152505050565b600061299561299084612942565b612927565b9050828152602081018484840111156129b1576129b06128c2565b5b6129bc848285612973565b509392505050565b600082601f8301126129d9576129d86128bd565b5b81356129e9848260208601612982565b91505092915050565b600060208284031215612a0857612a076128b3565b5b600082013567ffffffffffffffff811115612a2657612a256128b8565b5b612a32848285016129c4565b91505092915050565b600082825260208201905092915050565b6000612a5782612499565b612a618185612a3b565b9350612a718185602086016124b5565b612a7a816124df565b840191505092915050565b60006040820190508181036000830152612a9f8185612a4c565b90508181036020830152612ab38184612a4c565b90509392505050565b60008060008060008060c08789031215612ad957612ad86128b3565b5b600087013567ffffffffffffffff811115612af757612af66128b8565b5b612b0389828a016129c4565b965050602087013567ffffffffffffffff811115612b2457612b236128b8565b5b612b3089828a016129c4565b955050604087013567ffffffffffffffff811115612b5157612b506128b8565b5b612b5d89828a016129c4565b945050606087013567ffffffffffffffff811115612b7e57612b7d6128b8565b5b612b8a89828a016129c4565b935050608087013567ffffffffffffffff811115612bab57612baa6128b8565b5b612bb789828a016129c4565b92505060a087013567ffffffffffffffff811115612bd857612bd76128b8565b5b612be489828a016129c4565b9150509295509295509295565b60008115159050919050565b612c0681612bf1565b82525050565b6000602082019050612c216000830184612bfd565b92915050565b600080600060608486031215612c4057612c3f6128b3565b5b600084013567ffffffffffffffff811115612c5e57612c5d6128b8565b5b612c6a868287016129c4565b935050602084013567ffffffffffffffff811115612c8b57612c8a6128b8565b5b612c97868287016129c4565b925050604084013567ffffffffffffffff811115612cb857612cb76128b8565b5b612cc4868287016129c4565b9150509250925092565b60008060008060808587031215612ce857612ce76128b3565b5b600085013567ffffffffffffffff811115612d0657612d056128b8565b5b612d12878288016129c4565b945050602085013567ffffffffffffffff811115612d3357612d326128b8565b5b612d3f878288016129c4565b935050604085013567ffffffffffffffff811115612d6057612d5f6128b8565b5b612d6c878288016129c4565b925050606085013567ffffffffffffffff811115612d8d57612d8c6128b8565b5b612d99878288016129c4565b91505092959194509250565b60006060820190508181036000830152612dbf8186612a4c565b90508181036020830152612dd38185612a4c565b90508181036040830152612de78184612a4c565b9050949350505050565b60006020820190508181036000830152612e0b81846127fd565b905092915050565b600082825260208201905092915050565b6000612e2f82612542565b612e398185612e13565b935083602082028501612e4b8561255e565b8060005b85811015612e875784840389528151612e6885826125c5565b9450612e73836125d9565b925060208a01995050600181019050612e4f565b50829750879550505050505092915050565b600060c0820190508181036000830152612eb38189612a4c565b90508181036020830152612ec78188612a4c565b90508181036040830152612edb8187612a4c565b90508181036060830152612eef8186612a4c565b90508181036080830152612f038185612a4c565b905081810360a0830152612f178184612e24565b9050979650505050505050565b7f4e487b7100000000000000000000000000000000000000000000000000000000600052603260045260246000fd5b7f4e487b7100000000000000000000000000000000000000000000000000000000600052602260045260246000fd5b60006002820490506001821680612f9a57607f821691505b602082108103612fad57612fac612f53565b5b50919050565b600081905092915050565b60008190508160005260206000209050919050565b60008154612fe081612f82565b612fea8186612fb3565b94506001821660008114613005576001811461301a5761304d565b60ff198316865281151582028601935061304d565b61302385612fbe565b60005b8381101561304557815481890152600182019150602081019050613026565b838801955050505b50505092915050565b60006130628284612fd3565b915081905092915050565b7f4e487b7100000000000000000000000000000000000000000000000000000000600052601160045260246000fd5b60006130a782612529565b91507fffffffffffffffffffffffffffffffffffffffffffffffffffffffffffffffff82036130d9576130d861306d565b5b600182019050919050565b60006130ef82612499565b6130f98185612fb3565b93506131098185602086016124b5565b80840191505092915050565b600061312182846130e4565b915081905092915050565b60006020601f8301049050919050565b600082821b905092915050565b6000600883026131797fffffffffffffffffffffffffffffffffffffffffffffffffffffffffffffffff8261313c565b613183868361313c565b95508019841693508086168417925050509392505050565b6000819050919050565b60006131c06131bb6131b684612529565b61319b565b612529565b9050919050565b6000819050919050565b6131da836131a5565b6131ee6131e6826131c7565b848454613149565b825550505050565b600090565b6132036131f6565b61320e8184846131d1565b505050565b5b81811015613232576132276000826131fb565b600181019050613214565b5050565b601f8211156132775761324881612fbe565b6132518461312c565b81016020851015613260578190505b61327461326c8561312c565b830182613213565b50505b505050565b600082821c905092915050565b600061329a6000198460080261327c565b1980831691505092915050565b60006132b38383613289565b9150826002028217905092915050565b6132cc82612499565b67ffffffffffffffff8111156132e5576132e46128c7565b5b6132ef8254612f82565b6132fa828285613236565b600060209050601f83116001811461332d576000841561331b578287015190505b61332585826132a7565b86555061338d565b601f19841661333b86612fbe565b60005b828110156133635784890151825560018201915060208501945060208101905061333e565b86831015613380578489015161337c601f891682613289565b8355505b6001600288020188555050505b505050505050565b7f4d616e75666163746f7279204c6f636174696f6e3a2000000000000000000000600082015250565b60006133cb601683612fb3565b91506133d682613395565b601682019050919050565b7f2c2050726f64756374696f6e20446174653a2000000000000000000000000000600082015250565b6000613417601383612fb3565b9150613422826133e1565b601382019050919050565b6000613438826133be565b915061344482856130e4565b915061344f8261340a565b915061345b82846130e4565b91508190509392505050565b60008154905061347681612f82565b9050919050565b81810361348b575050613563565b61349482613467565b67ffffffffffffffff8111156134ad576134ac6128c7565b5b6134b78254612f82565b6134c2828285613236565b6000601f8311600181146134f157600084156134df578287015490505b6134e985826132a7565b86555061355c565b601f1984166134ff87612fbe565b965061350a86612fbe565b60005b828110156135325784890154825560018201915060018501945060208101905061350d565b8683101561354f578489015461354b601f891682613289565b8355505b6001600288020188555050505b5050505050505b565b7f437573746f6d657220456d61696c3a2000000000000000000000000000000000600082015250565b600061359b601083612fb3565b91506135a682613565565b601082019050919050565b7f2c2053616c6520446174653a2000000000000000000000000000000000000000600082015250565b60006135e7600d83612fb3565b91506135f2826135b1565b600d82019050919050565b60006136088261358e565b915061361482856130e4565b915061361f826135da565b915061362b82846130e4565b91508190509392505050565b7f52657461696c204c6f636174696f6e3a20000000000000000000000000000000600082015250565b600061366d601183612fb3565b915061367882613637565b601182019050919050565b7f2c204d6f76696e6720446174653a200000000000000000000000000000000000600082015250565b60006136b9600f83612fb3565b91506136c482613683565b600f82019050919050565b60006136da82613660565b91506136e682856130e4565b91506136f1826136ac565b91506136fd82846130e4565b91508190509392505050565b7f4f6c6420437573746f6d65723a20000000000000000000000000000000000000600082015250565b600061373f600e83612fb3565b915061374a82613709565b600e82019050919050565b7f2c204e657720437573746f6d65723a2000000000000000000000000000000000600082015250565b600061378b601083612fb3565b915061379682613755565b601082019050919050565b7f2c204368616e676520446174653a200000000000000000000000000000000000600082015250565b60006137d7600f83612fb3565b91506137e2826137a1565b600f82019050919050565b60006137f882613732565b915061380482866130e4565b915061380f8261377e565b915061381b82856130e4565b9150613826826137ca565b915061383282846130e4565b9150819050949350505050565b600061384a82612529565b915061385583612529565b925082820390508181111561386d5761386c61306d565b5b92915050565b600061387e82612529565b915061388983612529565b92508282019050808211156138a1576138a061306d565b5b92915050565b6000815490506138b681612f82565b9050919050565b60008190508160005260206000209050919050565b8181036138e05750506139b8565b6138e9826138a7565b67ffffffffffffffff811115613902576139016128c7565b5b61390c8254612f82565b613917828285613236565b6000601f8311600181146139465760008415613934578287015490505b61393e85826132a7565b8655506139b1565b601f198416613954876138bd565b965061395f86612fbe565b60005b8281101561398757848901548255600182019150600185019450602081019050613962565b868310156139a457848901546139a0601f891682613289565b8355505b6001600288020188555050505b5050505050505b56fea26469706673582212207fdb2dad63405ce0becba0576c6ba313be672dd900426889bdbd4eaee76021e764736f6c63430008130033",
  "linkReferences": {},
  "deployedLinkReferences": {}
}