{
  "_format": "hh-sol-artifact-1",
  "contractName": "FPIS",
  "sourceName": "contracts/fpis.sol",
  "abi": [
    {
      "inputs": [
        {
          "internalType": "string",
          "name": "_productID",
          "type": "string"
        },
        {
          "internalType": "string",
          "name": "_oldCustomerEmail",
          "type": "string"
        },
        {
          "internalType": "string",
          "name": "_newCustomerEmail",
          "type": "string"
        },
        {
          "internalType": "string",
          "name": "_changeDate",
          "type": "string"
        }
      ],
      "name": "changeCustomer",
      "outputs": [
        {
          "internalType": "bool",
          "name": "",
          "type": "bool"
        }
      ],
      "stateMutability": "payable",
      "type": "function"
    },
    {
      "inputs": [
        {
          "internalType": "string",
          "name": "_customerEmail",
          "type": "string"
        },
        {
          "internalType": "string",
          "name": "_name",
          "type": "string"
        },
        {
          "internalType": "string",
          "name": "_location",
          "type": "string"
        },
        {
          "internalType": "string",
          "name": "_phone_number",
          "type": "string"
        }
      ],
      "name": "createCustomer",
      "outputs": [
        {
          "internalType": "bool",
          "name": "",
          "type": "bool"
        }
      ],
      "stateMutability": "payable",
      "type": "function"
    },
    {
      "inputs": [
        {
          "internalType": "string",
          "name": "_manufactorEmail",
          "type": "string"
        },
        {
          "internalType": "string",
          "name": "_manufactorName",
          "type": "string"
        },
        {
          "internalType": "string",
          "name": "_manufactorLocation",
          "type": "string"
        }
      ],
      "name": "createManufactory",
      "outputs": [
        {
          "internalType": "bool",
          "name": "",
          "type": "bool"
        }
      ],
      "stateMutability": "payable",
      "type": "function"
    },
    {
      "inputs": [
        {
          "internalType": "string",
          "name": "_productID",
          "type": "string"
        },
        {
          "internalType": "string",
          "name": "_model",
          "type": "string"
        },
        {
          "internalType": "string",
          "name": "_description",
          "type": "string"
        },
        {
          "internalType": "string",
          "name": "_manufactoryEmail",
          "type": "string"
        },
        {
          "internalType": "string",
          "name": "_manufactoryLocation",
          "type": "string"
        },
        {
          "internalType": "string",
          "name": "_productionDate",
          "type": "string"
        }
      ],
      "name": "createProduct",
      "outputs": [
        {
          "internalType": "bool",
          "name": "",
          "type": "bool"
        }
      ],
      "stateMutability": "payable",
      "type": "function"
    },
    {
      "inputs": [
        {
          "internalType": "string",
          "name": "_retailerEmail",
          "type": "string"
        },
        {
          "internalType": "string",
          "name": "_retailerName",
          "type": "string"
        },
        {
          "internalType": "string",
          "name": "_retailerLocation",
          "type": "string"
        }
      ],
      "name": "createRetailer",
      "outputs": [
        {
          "internalType": "bool",
          "name": "",
          "type": "bool"
        }
      ],
      "stateMutability": "payable",
      "type": "function"
    },
    {
      "inputs": [],
      "name": "getAllProducts",
      "outputs": [
        {
          "components": [
            {
              "internalType": "string",
              "name": "model",
              "type": "string"
            },
            {
              "internalType": "string",
              "name": "description",
              "type": "string"
            },
            {
              "internalType": "string",
              "name": "manufactoryEmail",
              "type": "string"
            },
            {
              "internalType": "string",
              "name": "retailerEmail",
              "type": "string"
            },
            {
              "internalType": "string",
              "name": "customerEmail",
              "type": "string"
            },
            {
              "internalType": "uint256",
              "name": "status",
              "type": "uint256"
            },
            {
              "components": [
                {
                  "internalType": "uint256",
                  "name": "timestamp",
                  "type": "uint256"
                },
                {
                  "internalType": "string",
                  "name": "action",
                  "type": "string"
                },
                {
                  "internalType": "string",
                  "name": "details",
                  "type": "string"
                },
                {
                  "internalType": "string",
                  "name": "date",
                  "type": "string"
                }
              ],
              "internalType": "struct FPIS.HistoryItem[]",
              "name": "history",
              "type": "tuple[]"
            }
          ],
          "internalType": "struct FPIS.Product[]",
          "name": "",
          "type": "tuple[]"
        },
        {
          "internalType": "string[]",
          "name": "",
          "type": "string[]"
        }
      ],
      "stateMutability": "view",
      "type": "function"
    },
    {
      "inputs": [
        {
          "internalType": "string",
          "name": "_customerEmail",
          "type": "string"
        }
      ],
      "name": "getCustomerDetail",
      "outputs": [
        {
          "internalType": "string",
          "name": "",
          "type": "string"
        },
        {
          "internalType": "string",
          "name": "",
          "type": "string"
        },
        {
          "internalType": "string",
          "name": "",
          "type": "string"
        }
      ],
      "stateMutability": "view",
      "type": "function"
    },
    {
      "inputs": [
        {
          "internalType": "string",
          "name": "_manufactorEmail",
          "type": "string"
        }
      ],
      "name": "getManafactorDetail",
      "outputs": [
        {
          "internalType": "string",
          "name": "",
          "type": "string"
        },
        {
          "internalType": "string",
          "name": "",
          "type": "string"
        }
      ],
      "stateMutability": "view",
      "type": "function"
    },
    {
      "inputs": [
        {
          "internalType": "string",
          "name": "_productID",
          "type": "string"
        }
      ],
      "name": "getProductDetail",
      "outputs": [
        {
          "internalType": "string",
          "name": "",
          "type": "string"
        },
        {
          "internalType": "string",
          "name": "",
          "type": "string"
        },
        {
          "internalType": "string",
          "name": "",
          "type": "string"
        },
        {
          "internalType": "string",
          "name": "",
          "type": "string"
        },
        {
          "internalType": "string",
          "name": "",
          "type": "string"
        },
        {
          "components": [
            {
              "internalType": "uint256",
              "name": "timestamp",
              "type": "uint256"
            },
            {
              "internalType": "string",
              "name": "action",
              "type": "string"
            },
            {
              "internalType": "string",
              "name": "details",
              "type": "string"
            },
            {
              "internalType": "string",
              "name": "date",
              "type": "string"
            }
          ],
          "internalType": "struct FPIS.HistoryItem[]",
          "name": "",
          "type": "tuple[]"
        }
      ],
      "stateMutability": "view",
      "type": "function"
    },
    {
      "inputs": [
        {
          "internalType": "string",
          "name": "_customerEmail",
          "type": "string"
        }
      ],
      "name": "getProductsByCustomer",
      "outputs": [
        {
          "internalType": "string[]",
          "name": "",
          "type": "string[]"
        }
      ],
      "stateMutability": "view",
      "type": "function"
    },
    {
      "inputs": [
        {
          "internalType": "string",
          "name": "_manufactoryEmail",
          "type": "string"
        }
      ],
      "name": "getProductsByManufactory",
      "outputs": [
        {
          "components": [
            {
              "internalType": "string",
              "name": "model",
              "type": "string"
            },
            {
              "internalType": "string",
              "name": "description",
              "type": "string"
            },
            {
              "internalType": "string",
              "name": "manufactoryEmail",
              "type": "string"
            },
            {
              "internalType": "string",
              "name": "retailerEmail",
              "type": "string"
            },
            {
              "internalType": "string",
              "name": "customerEmail",
              "type": "string"
            },
            {
              "internalType": "uint256",
              "name": "status",
              "type": "uint256"
            },
            {
              "components": [
                {
                  "internalType": "uint256",
                  "name": "timestamp",
                  "type": "uint256"
                },
                {
                  "internalType": "string",
                  "name": "action",
                  "type": "string"
                },
                {
                  "internalType": "string",
                  "name": "details",
                  "type": "string"
                },
                {
                  "internalType": "string",
                  "name": "date",
                  "type": "string"
                }
              ],
              "internalType": "struct FPIS.HistoryItem[]",
              "name": "history",
              "type": "tuple[]"
            }
          ],
          "internalType": "struct FPIS.Product[]",
          "name": "",
          "type": "tuple[]"
        },
        {
          "internalType": "string[]",
          "name": "",
          "type": "string[]"
        }
      ],
      "stateMutability": "view",
      "type": "function"
    },
    {
      "inputs": [
        {
          "internalType": "string",
          "name": "_retailerEmail",
          "type": "string"
        }
      ],
      "name": "getProductsByRetailer",
      "outputs": [
        {
          "components": [
            {
              "internalType": "string",
              "name": "model",
              "type": "string"
            },
            {
              "internalType": "string",
              "name": "description",
              "type": "string"
            },
            {
              "internalType": "string",
              "name": "manufactoryEmail",
              "type": "string"
            },
            {
              "internalType": "string",
              "name": "retailerEmail",
              "type": "string"
            },
            {
              "internalType": "string",
              "name": "customerEmail",
              "type": "string"
            },
            {
              "internalType": "uint256",
              "name": "status",
              "type": "uint256"
            },
            {
              "components": [
                {
                  "internalType": "uint256",
                  "name": "timestamp",
                  "type": "uint256"
                },
                {
                  "internalType": "string",
                  "name": "action",
                  "type": "string"
                },
                {
                  "internalType": "string",
                  "name": "details",
                  "type": "string"
                },
                {
                  "internalType": "string",
                  "name": "date",
                  "type": "string"
                }
              ],
              "internalType": "struct FPIS.HistoryItem[]",
              "name": "history",
              "type": "tuple[]"
            }
          ],
          "internalType": "struct FPIS.Product[]",
          "name": "",
          "type": "tuple[]"
        },
        {
          "internalType": "string[]",
          "name": "",
          "type": "string[]"
        }
      ],
      "stateMutability": "view",
      "type": "function"
    },
    {
      "inputs": [
        {
          "internalType": "string",
          "name": "_retailerEmail",
          "type": "string"
        }
      ],
      "name": "getRetailerDetail",
      "outputs": [
        {
          "internalType": "string",
          "name": "",
          "type": "string"
        },
        {
          "internalType": "string",
          "name": "",
          "type": "string"
        }
      ],
      "stateMutability": "view",
      "type": "function"
    },
    {
      "inputs": [
        {
          "internalType": "string",
          "name": "_productID",
          "type": "string"
        },
        {
          "internalType": "string",
          "name": "_retailerEmail",
          "type": "string"
        },
        {
          "internalType": "string",
          "name": "_retailLocation",
          "type": "string"
        },
        {
          "internalType": "string",
          "name": "_movingDate",
          "type": "string"
        }
      ],
      "name": "moveToRetailer",
      "outputs": [
        {
          "internalType": "bool",
          "name": "",
          "type": "bool"
        }
      ],
      "stateMutability": "payable",
      "type": "function"
    },
    {
      "inputs": [
        {
          "internalType": "string",
          "name": "_productID",
          "type": "string"
        },
        {
          "internalType": "string",
          "name": "_retailerEmail",
          "type": "string"
        },
        {
          "internalType": "string",
          "name": "_customerEmail",
          "type": "string"
        },
        {
          "internalType": "string",
          "name": "_saleDate",
          "type": "string"
        }
      ],
      "name": "sellToFirstCustomer",
      "outputs": [
        {
          "internalType": "bool",
          "name": "",
          "type": "bool"
        }
      ],
      "stateMutability": "payable",
      "type": "function"
    }
  ],
  "bytecode": "0x608060405234801561001057600080fd5b50614e7b806100206000396000f3fe6080604052600436106100e85760003560e01c8063a603efe11161008a578063cee4a5e511610059578063cee4a5e514610340578063e9e5b5a21461037d578063ee786260146103ad578063f1ef413b146103ef576100e8565b8063a603efe114610271578063b51ca0af146102a1578063b5bd438b146102d1578063bc26ec5314610301576100e8565b80635a400564116100c65780635a40056414610187578063754d6246146101b75780637618777b146101f55780637c3851cd14610233576100e8565b806302ee3a52146100ed57806321b355731461011957806355a53f0614610157575b600080fd5b3480156100f957600080fd5b5061010261041f565b604051610110929190613d96565b60405180910390f35b34801561012557600080fd5b50610140600480360381019061013b9190613f16565b610aea565b60405161014e929190613fa9565b60405180910390f35b610171600480360381019061016c9190613fe0565b610c50565b60405161017e9190614130565b60405180910390f35b6101a1600480360381019061019c919061414b565b610e99565b6040516101ae9190614130565b60405180910390f35b3480156101c357600080fd5b506101de60048036038101906101d99190613f16565b610f25565b6040516101ec929190613d96565b60405180910390f35b34801561020157600080fd5b5061021c60048036038101906102179190613f16565b61187a565b60405161022a929190613d96565b60405180910390f35b34801561023f57600080fd5b5061025a60048036038101906102559190613f16565b6121cf565b604051610268929190613fa9565b60405180910390f35b61028b600480360381019061028691906141f2565b612335565b6040516102989190614130565b60405180910390f35b6102bb60048036038101906102b691906141f2565b612659565b6040516102c89190614130565b60405180910390f35b6102eb60048036038101906102e6919061414b565b612791565b6040516102f89190614130565b60405180910390f35b34801561030d57600080fd5b5061032860048036038101906103239190613f16565b61281d565b604051610337939291906142c9565b60405180910390f35b34801561034c57600080fd5b5061036760048036038101906103629190613f16565b612a36565b6040516103749190614315565b60405180910390f35b610397600480360381019061039291906141f2565b612b30565b6040516103a49190614130565b60405180910390f35b3480156103b957600080fd5b506103d460048036038101906103cf9190613f16565b612c72565b6040516103e6969594939291906143bd565b60405180910390f35b610409600480360381019061040491906141f2565b61322b565b6040516104169190614130565b60405180910390f35b6060806000600480549050905060008167ffffffffffffffff81111561044857610447613deb565b5b60405190808252806020026020018201604052801561048157816020015b61046e6136ef565b8152602001906001900390816104665790505b50905060005b82811015610a09576000600482815481106104a5576104a4614448565b5b906000526020600020016040516104bc919061457a565b90815260200160405180910390206040518060e00160405290816000820180546104e5906144a6565b80601f0160208091040260200160405190810160405280929190818152602001828054610511906144a6565b801561055e5780601f106105335761010080835404028352916020019161055e565b820191906000526020600020905b81548152906001019060200180831161054157829003601f168201915b50505050508152602001600182018054610577906144a6565b80601f01602080910402602001604051908101604052809291908181526020018280546105a3906144a6565b80156105f05780601f106105c5576101008083540402835291602001916105f0565b820191906000526020600020905b8154815290600101906020018083116105d357829003601f168201915b50505050508152602001600282018054610609906144a6565b80601f0160208091040260200160405190810160405280929190818152602001828054610635906144a6565b80156106825780601f1061065757610100808354040283529160200191610682565b820191906000526020600020905b81548152906001019060200180831161066557829003601f168201915b5050505050815260200160038201805461069b906144a6565b80601f01602080910402602001604051908101604052809291908181526020018280546106c7906144a6565b80156107145780601f106106e957610100808354040283529160200191610714565b820191906000526020600020905b8154815290600101906020018083116106f757829003601f168201915b5050505050815260200160048201805461072d906144a6565b80601f0160208091040260200160405190810160405280929190818152602001828054610759906144a6565b80156107a65780601f1061077b576101008083540402835291602001916107a6565b820191906000526020600020905b81548152906001019060200180831161078957829003601f168201915b505050505081526020016005820154815260200160068201805480602002602001604051908101604052809291908181526020016000905b828210156109d057838290600052602060002090600402016040518060800160405290816000820154815260200160018201805461081b906144a6565b80601f0160208091040260200160405190810160405280929190818152602001828054610847906144a6565b80156108945780601f1061086957610100808354040283529160200191610894565b820191906000526020600020905b81548152906001019060200180831161087757829003601f168201915b505050505081526020016002820180546108ad906144a6565b80601f01602080910402602001604051908101604052809291908181526020018280546108d9906144a6565b80156109265780601f106108fb57610100808354040283529160200191610926565b820191906000526020600020905b81548152906001019060200180831161090957829003601f168201915b5050505050815260200160038201805461093f906144a6565b80601f016020809104026020016040519081016040528092919081815260200182805461096b906144a6565b80156109b85780601f1061098d576101008083540402835291602001916109b8565b820191906000526020600020905b81548152906001019060200180831161099b57829003601f168201915b505050505081525050815260200190600101906107de565b50505050815250508282815181106109eb576109ea614448565b5b60200260200101819052508080610a01906145c0565b915050610487565b5080600480805480602002602001604051908101604052809291908181526020016000905b82821015610ada578382906000526020600020018054610a4d906144a6565b80601f0160208091040260200160405190810160405280929190818152602001828054610a79906144a6565b8015610ac65780601f10610a9b57610100808354040283529160200191610ac6565b820191906000526020600020905b815481529060010190602001808311610aa957829003601f168201915b505050505081526020019060010190610a2e565b5050505090509350935050509091565b606080600283604051610afd9190614639565b9081526020016040518091039020600001600284604051610b1e9190614639565b9081526020016040518091039020600201818054610b3b906144a6565b80601f0160208091040260200160405190810160405280929190818152602001828054610b67906144a6565b8015610bb45780601f10610b8957610100808354040283529160200191610bb4565b820191906000526020600020905b815481529060010190602001808311610b9757829003601f168201915b50505050509150808054610bc7906144a6565b80601f0160208091040260200160405190810160405280929190818152602001828054610bf3906144a6565b8015610c405780601f10610c1557610100808354040283529160200191610c40565b820191906000526020600020905b815481529060010190602001808311610c2357829003601f168201915b5050505050905091509150915091565b600080600088604051610c639190614639565b9081526020016040518091039020905086816000019081610c8491906147e7565b5085816001019081610c9691906147e7565b5084816002019081610ca891906147e7565b50610cb161372c565b428160000181815250506040518060400160405280600c81526020017f4d616e756661637475726564000000000000000000000000000000000000000081525081602001819052508585604051602001610d0c929190614951565b604051602081830303815290604052816040018190525083816060018190525081600601819080600181540180825580915050600190039060005260206000209060040201600090919091909150600082015181600001556020820151816001019081610d7991906147e7565b506040820151816002019081610d8f91906147e7565b506060820151816003019081610da591906147e7565b5050508160008a604051610db99190614639565b908152602001604051809103902060008201816000019081610ddb91906149a1565b5060018201816001019081610df091906149a1565b5060028201816002019081610e0591906149a1565b5060038201816003019081610e1a91906149a1565b5060048201816004019081610e2f91906149a1565b50600582015481600501556006820181600601908054610e50929190613754565b50905050600489908060018154018082558091505060019003906000526020600020016000909190919091509081610e8891906147e7565b506001925050509695505050505050565b6000610ea36137f5565b83816000018190525082816040018190525080600286604051610ec69190614639565b90815260200160405180910390206000820151816000019081610ee991906147e7565b506020820151816001019081610eff91906147e7565b506040820151816002019081610f1591906147e7565b5090505060019150509392505050565b6060806000805b6004805490508110156110bf57600060048281548110610f4f57610f4e614448565b5b906000526020600020018054610f64906144a6565b80601f0160208091040260200160405190810160405280929190818152602001828054610f90906144a6565b8015610fdd5780601f10610fb257610100808354040283529160200191610fdd565b820191906000526020600020905b815481529060010190602001808311610fc057829003601f168201915b50505050509050611097600082604051610ff79190614639565b90815260200160405180910390206003018054611013906144a6565b80601f016020809104026020016040519081016040528092919081815260200182805461103f906144a6565b801561108c5780601f106110615761010080835404028352916020019161108c565b820191906000526020600020905b81548152906001019060200180831161106f57829003601f168201915b5050505050876135c1565b156110ab5782806110a7906145c0565b9350505b5080806110b7906145c0565b915050610f2c565b5060008167ffffffffffffffff8111156110dc576110db613deb565b5b60405190808252806020026020018201604052801561111557816020015b6111026136ef565b8152602001906001900390816110fa5790505b50905060008267ffffffffffffffff81111561113457611133613deb565b5b60405190808252806020026020018201604052801561116757816020015b60608152602001906001900390816111525790505b5090506000805b60048054905081101561186a5760006004828154811061119157611190614448565b5b9060005260206000200180546111a6906144a6565b80601f01602080910402602001604051908101604052809291908181526020018280546111d2906144a6565b801561121f5780601f106111f45761010080835404028352916020019161121f565b820191906000526020600020905b81548152906001019060200180831161120257829003601f168201915b505050505090506112d96000826040516112399190614639565b90815260200160405180910390206003018054611255906144a6565b80601f0160208091040260200160405190810160405280929190818152602001828054611281906144a6565b80156112ce5780601f106112a3576101008083540402835291602001916112ce565b820191906000526020600020905b8154815290600101906020018083116112b157829003601f168201915b50505050508a6135c1565b15611856576000816040516112ee9190614639565b90815260200160405180910390206040518060e0016040529081600082018054611317906144a6565b80601f0160208091040260200160405190810160405280929190818152602001828054611343906144a6565b80156113905780601f1061136557610100808354040283529160200191611390565b820191906000526020600020905b81548152906001019060200180831161137357829003601f168201915b505050505081526020016001820180546113a9906144a6565b80601f01602080910402602001604051908101604052809291908181526020018280546113d5906144a6565b80156114225780601f106113f757610100808354040283529160200191611422565b820191906000526020600020905b81548152906001019060200180831161140557829003601f168201915b5050505050815260200160028201805461143b906144a6565b80601f0160208091040260200160405190810160405280929190818152602001828054611467906144a6565b80156114b45780601f10611489576101008083540402835291602001916114b4565b820191906000526020600020905b81548152906001019060200180831161149757829003601f168201915b505050505081526020016003820180546114cd906144a6565b80601f01602080910402602001604051908101604052809291908181526020018280546114f9906144a6565b80156115465780601f1061151b57610100808354040283529160200191611546565b820191906000526020600020905b81548152906001019060200180831161152957829003601f168201915b5050505050815260200160048201805461155f906144a6565b80601f016020809104026020016040519081016040528092919081815260200182805461158b906144a6565b80156115d85780601f106115ad576101008083540402835291602001916115d8565b820191906000526020600020905b8154815290600101906020018083116115bb57829003601f168201915b505050505081526020016005820154815260200160068201805480602002602001604051908101604052809291908181526020016000905b8282101561180257838290600052602060002090600402016040518060800160405290816000820154815260200160018201805461164d906144a6565b80601f0160208091040260200160405190810160405280929190818152602001828054611679906144a6565b80156116c65780601f1061169b576101008083540402835291602001916116c6565b820191906000526020600020905b8154815290600101906020018083116116a957829003601f168201915b505050505081526020016002820180546116df906144a6565b80601f016020809104026020016040519081016040528092919081815260200182805461170b906144a6565b80156117585780601f1061172d57610100808354040283529160200191611758565b820191906000526020600020905b81548152906001019060200180831161173b57829003601f168201915b50505050508152602001600382018054611771906144a6565b80601f016020809104026020016040519081016040528092919081815260200182805461179d906144a6565b80156117ea5780601f106117bf576101008083540402835291602001916117ea565b820191906000526020600020905b8154815290600101906020018083116117cd57829003601f168201915b50505050508152505081526020019060010190611610565b505050508152505085848151811061181d5761181c614448565b5b60200260200101819052508084848151811061183c5761183b614448565b5b60200260200101819052508280611852906145c0565b9350505b508080611862906145c0565b91505061116e565b5082829550955050505050915091565b6060806000805b600480549050811015611a14576000600482815481106118a4576118a3614448565b5b9060005260206000200180546118b9906144a6565b80601f01602080910402602001604051908101604052809291908181526020018280546118e5906144a6565b80156119325780601f1061190757610100808354040283529160200191611932565b820191906000526020600020905b81548152906001019060200180831161191557829003601f168201915b505050505090506119ec60008260405161194c9190614639565b90815260200160405180910390206002018054611968906144a6565b80601f0160208091040260200160405190810160405280929190818152602001828054611994906144a6565b80156119e15780601f106119b6576101008083540402835291602001916119e1565b820191906000526020600020905b8154815290600101906020018083116119c457829003601f168201915b5050505050876135c1565b15611a005782806119fc906145c0565b9350505b508080611a0c906145c0565b915050611881565b5060008167ffffffffffffffff811115611a3157611a30613deb565b5b604051908082528060200260200182016040528015611a6a57816020015b611a576136ef565b815260200190600190039081611a4f5790505b50905060008267ffffffffffffffff811115611a8957611a88613deb565b5b604051908082528060200260200182016040528015611abc57816020015b6060815260200190600190039081611aa75790505b5090506000805b6004805490508110156121bf57600060048281548110611ae657611ae5614448565b5b906000526020600020018054611afb906144a6565b80601f0160208091040260200160405190810160405280929190818152602001828054611b27906144a6565b8015611b745780601f10611b4957610100808354040283529160200191611b74565b820191906000526020600020905b815481529060010190602001808311611b5757829003601f168201915b50505050509050611c2e600082604051611b8e9190614639565b90815260200160405180910390206002018054611baa906144a6565b80601f0160208091040260200160405190810160405280929190818152602001828054611bd6906144a6565b8015611c235780601f10611bf857610100808354040283529160200191611c23565b820191906000526020600020905b815481529060010190602001808311611c0657829003601f168201915b50505050508a6135c1565b156121ab57600081604051611c439190614639565b90815260200160405180910390206040518060e0016040529081600082018054611c6c906144a6565b80601f0160208091040260200160405190810160405280929190818152602001828054611c98906144a6565b8015611ce55780601f10611cba57610100808354040283529160200191611ce5565b820191906000526020600020905b815481529060010190602001808311611cc857829003601f168201915b50505050508152602001600182018054611cfe906144a6565b80601f0160208091040260200160405190810160405280929190818152602001828054611d2a906144a6565b8015611d775780601f10611d4c57610100808354040283529160200191611d77565b820191906000526020600020905b815481529060010190602001808311611d5a57829003601f168201915b50505050508152602001600282018054611d90906144a6565b80601f0160208091040260200160405190810160405280929190818152602001828054611dbc906144a6565b8015611e095780601f10611dde57610100808354040283529160200191611e09565b820191906000526020600020905b815481529060010190602001808311611dec57829003601f168201915b50505050508152602001600382018054611e22906144a6565b80601f0160208091040260200160405190810160405280929190818152602001828054611e4e906144a6565b8015611e9b5780601f10611e7057610100808354040283529160200191611e9b565b820191906000526020600020905b815481529060010190602001808311611e7e57829003601f168201915b50505050508152602001600482018054611eb4906144a6565b80601f0160208091040260200160405190810160405280929190818152602001828054611ee0906144a6565b8015611f2d5780601f10611f0257610100808354040283529160200191611f2d565b820191906000526020600020905b815481529060010190602001808311611f1057829003601f168201915b505050505081526020016005820154815260200160068201805480602002602001604051908101604052809291908181526020016000905b82821015612157578382906000526020600020906004020160405180608001604052908160008201548152602001600182018054611fa2906144a6565b80601f0160208091040260200160405190810160405280929190818152602001828054611fce906144a6565b801561201b5780601f10611ff05761010080835404028352916020019161201b565b820191906000526020600020905b815481529060010190602001808311611ffe57829003601f168201915b50505050508152602001600282018054612034906144a6565b80601f0160208091040260200160405190810160405280929190818152602001828054612060906144a6565b80156120ad5780601f10612082576101008083540402835291602001916120ad565b820191906000526020600020905b81548152906001019060200180831161209057829003601f168201915b505050505081526020016003820180546120c6906144a6565b80601f01602080910402602001604051908101604052809291908181526020018280546120f2906144a6565b801561213f5780601f106121145761010080835404028352916020019161213f565b820191906000526020600020905b81548152906001019060200180831161212257829003601f168201915b50505050508152505081526020019060010190611f65565b505050508152505085848151811061217257612171614448565b5b60200260200101819052508084848151811061219157612190614448565b5b602002602001018190525082806121a7906145c0565b9350505b5080806121b7906145c0565b915050611ac3565b5082829550955050505050915091565b6060806002836040516121e29190614639565b90815260200160405180910390206000016002846040516122039190614639565b9081526020016040518091039020600201818054612220906144a6565b80601f016020809104026020016040519081016040528092919081815260200182805461224c906144a6565b80156122995780601f1061226e57610100808354040283529160200191612299565b820191906000526020600020905b81548152906001019060200180831161227c57829003601f168201915b505050505091508080546122ac906144a6565b80601f01602080910402602001604051908101604052809291908181526020018280546122d8906144a6565b80156123255780601f106122fa57610100808354040283529160200191612325565b820191906000526020600020905b81548152906001019060200180831161230857829003601f168201915b5050505050905091509150915091565b6000806000866040516123489190614639565b908152602001604051809103902090506123ee81600301805461236a906144a6565b80601f0160208091040260200160405190810160405280929190818152602001828054612396906144a6565b80156123e35780601f106123b8576101008083540402835291602001916123e3565b820191906000526020600020905b8154815290600101906020018083116123c657829003601f168201915b5050505050866135c1565b1561264b57612498816004018054612405906144a6565b80601f0160208091040260200160405190810160405280929190818152602001828054612431906144a6565b801561247e5780601f106124535761010080835404028352916020019161247e565b820191906000526020600020905b81548152906001019060200180831161246157829003601f168201915b5050505050604051806020016040528060008152506135c1565b1561264a576003846040516124ad9190614639565b908152602001604051809103902060050160009054906101000a900460ff161561264957838160040190816124e291906147e7565b50600181600501819055506003846040516124fd9190614639565b90815260200160405180910390206004018690806001815401808255809150506001900390600052602060002001600090919091909150908161254091906147e7565b5061254961372c565b428160000181815250506040518060400160405280601081526020017f536f6c6420746f20437573746f6d6572000000000000000000000000000000008152508160200181905250846040516020016125a29190614ad5565b60405160208183030381529060405281604001819052508381606001819052508160060181908060018154018082558091505060019003906000526020600020906004020160009091909190915060008201518160000155602082015181600101908161260f91906147e7565b50604082015181600201908161262591906147e7565b50606082015181600301908161263b91906147e7565b505050600192505050612651565b5b5b60009150505b949350505050565b600060038560405161266b9190614639565b908152602001604051809103902060050160009054906101000a900460ff16156126985760009050612789565b6126a0613816565b84816000018190525083816060018190525082816040018190525060018160a0019015159081151581525050806003876040516126dd9190614639565b9081526020016040518091039020600082015181600001908161270091906147e7565b50602082015181600101908161271691906147e7565b50604082015181600201908161272c91906147e7565b50606082015181600301908161274291906147e7565b50608082015181600401908051906020019061275f92919061384e565b5060a08201518160050160006101000a81548160ff02191690831515021790555090505060019150505b949350505050565b600061279b6137f5565b838160000181905250828160400181905250806002866040516127be9190614639565b908152602001604051809103902060008201518160000190816127e191906147e7565b5060208201518160010190816127f791906147e7565b50604082015181600201908161280d91906147e7565b5090505060019150509392505050565b60608060606003846040516128329190614639565b90815260200160405180910390206000016003856040516128539190614639565b90815260200160405180910390206002016003866040516128749190614639565b9081526020016040518091039020600301828054612891906144a6565b80601f01602080910402602001604051908101604052809291908181526020018280546128bd906144a6565b801561290a5780601f106128df5761010080835404028352916020019161290a565b820191906000526020600020905b8154815290600101906020018083116128ed57829003601f168201915b5050505050925081805461291d906144a6565b80601f0160208091040260200160405190810160405280929190818152602001828054612949906144a6565b80156129965780601f1061296b57610100808354040283529160200191612996565b820191906000526020600020905b81548152906001019060200180831161297957829003601f168201915b505050505091508080546129a9906144a6565b80601f01602080910402602001604051908101604052809291908181526020018280546129d5906144a6565b8015612a225780601f106129f757610100808354040283529160200191612a22565b820191906000526020600020905b815481529060010190602001808311612a0557829003601f168201915b505050505090509250925092509193909250565b6060600382604051612a489190614639565b9081526020016040518091039020600401805480602002602001604051908101604052809291908181526020016000905b82821015612b25578382906000526020600020018054612a98906144a6565b80601f0160208091040260200160405190810160405280929190818152602001828054612ac4906144a6565b8015612b115780601f10612ae657610100808354040283529160200191612b11565b820191906000526020600020905b815481529060010190602001808311612af457829003601f168201915b505050505081526020019060010190612a79565b505050509050919050565b600080600086604051612b439190614639565b9081526020016040518091039020905084816003019081612b6491906147e7565b50612b6d61372c565b428160000181815250506040518060400160405280601181526020017f4d6f76656420746f2052657461696c657200000000000000000000000000000081525081602001819052508585604051602001612bc8929190614b8f565b604051602081830303815290604052816040018190525083816060018190525081600601819080600181540180825580915050600190039060005260206000209060040201600090919091909150600082015181600001556020820151816001019081612c3591906147e7565b506040820151816002019081612c4b91906147e7565b506060820151816003019081612c6191906147e7565b505050600192505050949350505050565b606080606080606080600087604051612c8b9190614639565b9081526020016040518091039020600001600088604051612cac9190614639565b9081526020016040518091039020600101600089604051612ccd9190614639565b908152602001604051809103902060020160008a604051612cee9190614639565b908152602001604051809103902060030160008b604051612d0f9190614639565b908152602001604051809103902060040160008c604051612d309190614639565b9081526020016040518091039020600601858054612d4d906144a6565b80601f0160208091040260200160405190810160405280929190818152602001828054612d79906144a6565b8015612dc65780601f10612d9b57610100808354040283529160200191612dc6565b820191906000526020600020905b815481529060010190602001808311612da957829003601f168201915b50505050509550848054612dd9906144a6565b80601f0160208091040260200160405190810160405280929190818152602001828054612e05906144a6565b8015612e525780601f10612e2757610100808354040283529160200191612e52565b820191906000526020600020905b815481529060010190602001808311612e3557829003601f168201915b50505050509450838054612e65906144a6565b80601f0160208091040260200160405190810160405280929190818152602001828054612e91906144a6565b8015612ede5780601f10612eb357610100808354040283529160200191612ede565b820191906000526020600020905b815481529060010190602001808311612ec157829003601f168201915b50505050509350828054612ef1906144a6565b80601f0160208091040260200160405190810160405280929190818152602001828054612f1d906144a6565b8015612f6a5780601f10612f3f57610100808354040283529160200191612f6a565b820191906000526020600020905b815481529060010190602001808311612f4d57829003601f168201915b50505050509250818054612f7d906144a6565b80601f0160208091040260200160405190810160405280929190818152602001828054612fa9906144a6565b8015612ff65780601f10612fcb57610100808354040283529160200191612ff6565b820191906000526020600020905b815481529060010190602001808311612fd957829003601f168201915b5050505050915080805480602002602001604051908101604052809291908181526020016000905b8282101561321057838290600052602060002090600402016040518060800160405290816000820154815260200160018201805461305b906144a6565b80601f0160208091040260200160405190810160405280929190818152602001828054613087906144a6565b80156130d45780601f106130a9576101008083540402835291602001916130d4565b820191906000526020600020905b8154815290600101906020018083116130b757829003601f168201915b505050505081526020016002820180546130ed906144a6565b80601f0160208091040260200160405190810160405280929190818152602001828054613119906144a6565b80156131665780601f1061313b57610100808354040283529160200191613166565b820191906000526020600020905b81548152906001019060200180831161314957829003601f168201915b5050505050815260200160038201805461317f906144a6565b80601f01602080910402602001604051908101604052809291908181526020018280546131ab906144a6565b80156131f85780601f106131cd576101008083540402835291602001916131f8565b820191906000526020600020905b8154815290600101906020018083116131db57829003601f168201915b5050505050815250508152602001906001019061301e565b50505050905095509550955095509550955091939550919395565b60008060008660405161323e9190614639565b9081526020016040518091039020905060006003866040516132609190614639565b9081526020016040518091039020905060006003866040516132829190614639565b90815260200160405180910390209050600183600501541480156132b457508160050160009054906101000a900460ff165b80156132ce57508060050160009054906101000a900460ff165b156135b15760005b82600401805490508110156135af576133978360040182815481106132fe576132fd614448565b5b906000526020600020018054613313906144a6565b80601f016020809104026020016040519081016040528092919081815260200182805461333f906144a6565b801561338c5780601f106133615761010080835404028352916020019161338c565b820191906000526020600020905b81548152906001019060200180831161336f57829003601f168201915b50505050508a6135c1565b1561359c576134328460040180546133ae906144a6565b80601f01602080910402602001604051908101604052809291908181526020018280546133da906144a6565b80156134275780601f106133fc57610100808354040283529160200191613427565b820191906000526020600020905b81548152906001019060200180831161340a57829003601f168201915b5050505050896135c1565b1561344a578684600401908161344891906147e7565b505b61345261372c565b428160000181815250506040518060400160405280601081526020017f4368616e67656420437573746f6d657200000000000000000000000000000000815250816020018190525088886040516020016134ad929190614c61565b60405160208183030381529060405281604001819052508681606001819052508460060181908060018154018082558091505060019003906000526020600020906004020160009091909190915060008201518160000155602082015181600101908161351a91906147e7565b50604082015181600201908161353091906147e7565b50606082015181600301908161354691906147e7565b505050826004018a90806001815401808255809150506001900390600052602060002001600090919091909150908161357f91906147e7565b5061358d828560040161361a565b506001955050505050506135b9565b80806135a7906145c0565b9150506132d6565b505b600093505050505b949350505050565b6000816040516020016135d49190614639565b60405160208183030381529060405280519060200120836040516020016135fb9190614639565b6040516020818303038152906040528051906020012014905092915050565b60008180549050831061363057600090506136e9565b60008390505b600183805490506136479190614c9b565b8110156136b4578260018261365c9190614ccf565b8154811061366d5761366c614448565b5b9060005260206000200183828154811061368a57613689614448565b5b9060005260206000200190816136a09190614d2e565b5080806136ac906145c0565b915050613636565b50818054806136c6576136c5614e16565b5b6001900381819060005260206000200160006136e291906138a7565b9055600190505b92915050565b6040518060e00160405280606081526020016060815260200160608152602001606081526020016060815260200160008152602001606081525090565b6040518060800160405280600081526020016060815260200160608152602001606081525090565b8280548282559060005260206000209060040281019282156137e45760005260206000209160040282015b828111156137e357828260008201548160000155600182018160010190816137a791906149a1565b50600282018160020190816137bc91906149a1565b50600382018160030190816137d191906149a1565b5050509160040191906004019061377f565b5b5090506137f191906138e7565b5090565b60405180606001604052806060815260200160608152602001606081525090565b6040518060c0016040528060608152602001606081526020016060815260200160608152602001606081526020016000151581525090565b828054828255906000526020600020908101928215613896579160200282015b8281111561389557825182908161388591906147e7565b509160200191906001019061386e565b5b5090506138a39190613936565b5090565b5080546138b3906144a6565b6000825580601f106138c557506138e4565b601f0160209004906000526020600020908101906138e3919061395a565b5b50565b5b808211156139325760008082016000905560018201600061390991906138a7565b60028201600061391991906138a7565b60038201600061392991906138a7565b506004016138e8565b5090565b5b80821115613956576000818161394d91906138a7565b50600101613937565b5090565b5b8082111561397357600081600090555060010161395b565b5090565b600081519050919050565b600082825260208201905092915050565b6000819050602082019050919050565b600081519050919050565b600082825260208201905092915050565b60005b838110156139dd5780820151818401526020810190506139c2565b60008484015250505050565b6000601f19601f8301169050919050565b6000613a05826139a3565b613a0f81856139ae565b9350613a1f8185602086016139bf565b613a28816139e9565b840191505092915050565b6000819050919050565b613a4681613a33565b82525050565b600081519050919050565b600082825260208201905092915050565b6000819050602082019050919050565b6000608083016000830151613a906000860182613a3d565b5060208301518482036020860152613aa882826139fa565b91505060408301518482036040860152613ac282826139fa565b91505060608301518482036060860152613adc82826139fa565b9150508091505092915050565b6000613af58383613a78565b905092915050565b6000602082019050919050565b6000613b1582613a4c565b613b1f8185613a57565b935083602082028501613b3185613a68565b8060005b85811015613b6d5784840389528151613b4e8582613ae9565b9450613b5983613afd565b925060208a01995050600181019050613b35565b50829750879550505050505092915050565b600060e0830160008301518482036000860152613b9c82826139fa565b91505060208301518482036020860152613bb682826139fa565b91505060408301518482036040860152613bd082826139fa565b91505060608301518482036060860152613bea82826139fa565b91505060808301518482036080860152613c0482826139fa565b91505060a0830151613c1960a0860182613a3d565b5060c083015184820360c0860152613c318282613b0a565b9150508091505092915050565b6000613c4a8383613b7f565b905092915050565b6000602082019050919050565b6000613c6a82613977565b613c748185613982565b935083602082028501613c8685613993565b8060005b85811015613cc25784840389528151613ca38582613c3e565b9450613cae83613c52565b925060208a01995050600181019050613c8a565b50829750879550505050505092915050565b600081519050919050565b600082825260208201905092915050565b6000819050602082019050919050565b6000613d0c83836139fa565b905092915050565b6000602082019050919050565b6000613d2c82613cd4565b613d368185613cdf565b935083602082028501613d4885613cf0565b8060005b85811015613d845784840389528151613d658582613d00565b9450613d7083613d14565b925060208a01995050600181019050613d4c565b50829750879550505050505092915050565b60006040820190508181036000830152613db08185613c5f565b90508181036020830152613dc48184613d21565b90509392505050565b6000604051905090565b600080fd5b600080fd5b600080fd5b600080fd5b7f4e487b7100000000000000000000000000000000000000000000000000000000600052604160045260246000fd5b613e23826139e9565b810181811067ffffffffffffffff82111715613e4257613e41613deb565b5b80604052505050565b6000613e55613dcd565b9050613e618282613e1a565b919050565b600067ffffffffffffffff821115613e8157613e80613deb565b5b613e8a826139e9565b9050602081019050919050565b82818337600083830152505050565b6000613eb9613eb484613e66565b613e4b565b905082815260208101848484011115613ed557613ed4613de6565b5b613ee0848285613e97565b509392505050565b600082601f830112613efd57613efc613de1565b5b8135613f0d848260208601613ea6565b91505092915050565b600060208284031215613f2c57613f2b613dd7565b5b600082013567ffffffffffffffff811115613f4a57613f49613ddc565b5b613f5684828501613ee8565b91505092915050565b600082825260208201905092915050565b6000613f7b826139a3565b613f858185613f5f565b9350613f958185602086016139bf565b613f9e816139e9565b840191505092915050565b60006040820190508181036000830152613fc38185613f70565b90508181036020830152613fd78184613f70565b90509392505050565b60008060008060008060c08789031215613ffd57613ffc613dd7565b5b600087013567ffffffffffffffff81111561401b5761401a613ddc565b5b61402789828a01613ee8565b965050602087013567ffffffffffffffff81111561404857614047613ddc565b5b61405489828a01613ee8565b955050604087013567ffffffffffffffff81111561407557614074613ddc565b5b61408189828a01613ee8565b945050606087013567ffffffffffffffff8111156140a2576140a1613ddc565b5b6140ae89828a01613ee8565b935050608087013567ffffffffffffffff8111156140cf576140ce613ddc565b5b6140db89828a01613ee8565b92505060a087013567ffffffffffffffff8111156140fc576140fb613ddc565b5b61410889828a01613ee8565b9150509295509295509295565b60008115159050919050565b61412a81614115565b82525050565b60006020820190506141456000830184614121565b92915050565b60008060006060848603121561416457614163613dd7565b5b600084013567ffffffffffffffff81111561418257614181613ddc565b5b61418e86828701613ee8565b935050602084013567ffffffffffffffff8111156141af576141ae613ddc565b5b6141bb86828701613ee8565b925050604084013567ffffffffffffffff8111156141dc576141db613ddc565b5b6141e886828701613ee8565b9150509250925092565b6000806000806080858703121561420c5761420b613dd7565b5b600085013567ffffffffffffffff81111561422a57614229613ddc565b5b61423687828801613ee8565b945050602085013567ffffffffffffffff81111561425757614256613ddc565b5b61426387828801613ee8565b935050604085013567ffffffffffffffff81111561428457614283613ddc565b5b61429087828801613ee8565b925050606085013567ffffffffffffffff8111156142b1576142b0613ddc565b5b6142bd87828801613ee8565b91505092959194509250565b600060608201905081810360008301526142e38186613f70565b905081810360208301526142f78185613f70565b9050818103604083015261430b8184613f70565b9050949350505050565b6000602082019050818103600083015261432f8184613d21565b905092915050565b600082825260208201905092915050565b600061435382613a4c565b61435d8185614337565b93508360208202850161436f85613a68565b8060005b858110156143ab578484038952815161438c8582613ae9565b945061439783613afd565b925060208a01995050600181019050614373565b50829750879550505050505092915050565b600060c08201905081810360008301526143d78189613f70565b905081810360208301526143eb8188613f70565b905081810360408301526143ff8187613f70565b905081810360608301526144138186613f70565b905081810360808301526144278185613f70565b905081810360a083015261443b8184614348565b9050979650505050505050565b7f4e487b7100000000000000000000000000000000000000000000000000000000600052603260045260246000fd5b7f4e487b7100000000000000000000000000000000000000000000000000000000600052602260045260246000fd5b600060028204905060018216806144be57607f821691505b6020821081036144d1576144d0614477565b5b50919050565b600081905092915050565b60008190508160005260206000209050919050565b60008154614504816144a6565b61450e81866144d7565b94506001821660008114614529576001811461453e57614571565b60ff1983168652811515820286019350614571565b614547856144e2565b60005b838110156145695781548189015260018201915060208101905061454a565b838801955050505b50505092915050565b600061458682846144f7565b915081905092915050565b7f4e487b7100000000000000000000000000000000000000000000000000000000600052601160045260246000fd5b60006145cb82613a33565b91507fffffffffffffffffffffffffffffffffffffffffffffffffffffffffffffffff82036145fd576145fc614591565b5b600182019050919050565b6000614613826139a3565b61461d81856144d7565b935061462d8185602086016139bf565b80840191505092915050565b60006146458284614608565b915081905092915050565b60006020601f8301049050919050565b600082821b905092915050565b60006008830261469d7fffffffffffffffffffffffffffffffffffffffffffffffffffffffffffffffff82614660565b6146a78683614660565b95508019841693508086168417925050509392505050565b6000819050919050565b60006146e46146df6146da84613a33565b6146bf565b613a33565b9050919050565b6000819050919050565b6146fe836146c9565b61471261470a826146eb565b84845461466d565b825550505050565b600090565b61472761471a565b6147328184846146f5565b505050565b5b818110156147565761474b60008261471f565b600181019050614738565b5050565b601f82111561479b5761476c816144e2565b61477584614650565b81016020851015614784578190505b61479861479085614650565b830182614737565b50505b505050565b600082821c905092915050565b60006147be600019846008026147a0565b1980831691505092915050565b60006147d783836147ad565b9150826002028217905092915050565b6147f0826139a3565b67ffffffffffffffff81111561480957614808613deb565b5b61481382546144a6565b61481e82828561475a565b600060209050601f831160018114614851576000841561483f578287015190505b61484985826147cb565b8655506148b1565b601f19841661485f866144e2565b60005b8281101561488757848901518255600182019150602085019450602081019050614862565b868310156148a457848901516148a0601f8916826147ad565b8355505b6001600288020188555050505b505050505050565b7f4d616e75666163746f727920456d61696c3a2000000000000000000000000000600082015250565b60006148ef6013836144d7565b91506148fa826148b9565b601382019050919050565b7f2c204d616e75666163746f7279204c6f636174696f6e3a200000000000000000600082015250565b600061493b6018836144d7565b915061494682614905565b601882019050919050565b600061495c826148e2565b91506149688285614608565b91506149738261492e565b915061497f8284614608565b91508190509392505050565b60008154905061499a816144a6565b9050919050565b8181036149af575050614a87565b6149b88261498b565b67ffffffffffffffff8111156149d1576149d0613deb565b5b6149db82546144a6565b6149e682828561475a565b6000601f831160018114614a155760008415614a03578287015490505b614a0d85826147cb565b865550614a80565b601f198416614a23876144e2565b9650614a2e866144e2565b60005b82811015614a5657848901548255600182019150600185019450602081019050614a31565b86831015614a735784890154614a6f601f8916826147ad565b8355505b6001600288020188555050505b5050505050505b565b7f437573746f6d657220456d61696c3a2000000000000000000000000000000000600082015250565b6000614abf6010836144d7565b9150614aca82614a89565b601082019050919050565b6000614ae082614ab2565b9150614aec8284614608565b915081905092915050565b7f52657461696c20456d61696c3a20000000000000000000000000000000000000600082015250565b6000614b2d600e836144d7565b9150614b3882614af7565b600e82019050919050565b7f2c2052657461696c204c6f636174696f6e3a2000000000000000000000000000600082015250565b6000614b796013836144d7565b9150614b8482614b43565b601382019050919050565b6000614b9a82614b20565b9150614ba68285614608565b9150614bb182614b6c565b9150614bbd8284614608565b91508190509392505050565b7f4f6c6420437573746f6d65723a20000000000000000000000000000000000000600082015250565b6000614bff600e836144d7565b9150614c0a82614bc9565b600e82019050919050565b7f2c204e657720437573746f6d65723a2000000000000000000000000000000000600082015250565b6000614c4b6010836144d7565b9150614c5682614c15565b601082019050919050565b6000614c6c82614bf2565b9150614c788285614608565b9150614c8382614c3e565b9150614c8f8284614608565b91508190509392505050565b6000614ca682613a33565b9150614cb183613a33565b9250828203905081811115614cc957614cc8614591565b5b92915050565b6000614cda82613a33565b9150614ce583613a33565b9250828201905080821115614cfd57614cfc614591565b5b92915050565b600081549050614d12816144a6565b9050919050565b60008190508160005260206000209050919050565b818103614d3c575050614e14565b614d4582614d03565b67ffffffffffffffff811115614d5e57614d5d613deb565b5b614d6882546144a6565b614d7382828561475a565b6000601f831160018114614da25760008415614d90578287015490505b614d9a85826147cb565b865550614e0d565b601f198416614db087614d19565b9650614dbb866144e2565b60005b82811015614de357848901548255600182019150600185019450602081019050614dbe565b86831015614e005784890154614dfc601f8916826147ad565b8355505b6001600288020188555050505b5050505050505b565b7f4e487b7100000000000000000000000000000000000000000000000000000000600052603160045260246000fdfea2646970667358221220415e8a9583bf8c9bb6eb66abde0a8cd3da39f2844eed5ab215dfe80740e5bf8b64736f6c63430008130033",
  "linkReferences": {},
  "deployedLinkReferences": {}
}