{
  "_format": "hh-sol-artifact-1",
  "contractName": "FPIS",
  "sourceName": "contracts/fpis.sol",
  "abi": [
    {
      "inputs": [
        {
          "internalType": "string",
          "name": "_productID",
          "type": "string"
        },
        {
          "internalType": "string",
          "name": "_oldCustomerEmail",
          "type": "string"
        },
        {
          "internalType": "string",
          "name": "_newCustomerEmail",
          "type": "string"
        },
        {
          "internalType": "string",
          "name": "_changeDate",
          "type": "string"
        }
      ],
      "name": "changeCustomer",
      "outputs": [
        {
          "internalType": "bool",
          "name": "",
          "type": "bool"
        }
      ],
      "stateMutability": "payable",
      "type": "function"
    },
    {
      "inputs": [
        {
          "internalType": "string",
          "name": "_customerEmail",
          "type": "string"
        },
        {
          "internalType": "string",
          "name": "_name",
          "type": "string"
        },
        {
          "internalType": "string",
          "name": "_location",
          "type": "string"
        },
        {
          "internalType": "string",
          "name": "_phone_number",
          "type": "string"
        }
      ],
      "name": "createCustomer",
      "outputs": [
        {
          "internalType": "bool",
          "name": "",
          "type": "bool"
        }
      ],
      "stateMutability": "payable",
      "type": "function"
    },
    {
      "inputs": [
        {
          "internalType": "string",
          "name": "_manufactorEmail",
          "type": "string"
        },
        {
          "internalType": "string",
          "name": "_manufactorName",
          "type": "string"
        },
        {
          "internalType": "string",
          "name": "_manufactorLocation",
          "type": "string"
        }
      ],
      "name": "createManufactory",
      "outputs": [
        {
          "internalType": "bool",
          "name": "",
          "type": "bool"
        }
      ],
      "stateMutability": "payable",
      "type": "function"
    },
    {
      "inputs": [
        {
          "internalType": "string",
          "name": "_productID",
          "type": "string"
        },
        {
          "internalType": "string",
          "name": "_model",
          "type": "string"
        },
        {
          "internalType": "string",
          "name": "_description",
          "type": "string"
        },
        {
          "internalType": "string",
          "name": "_manufactoryEmail",
          "type": "string"
        },
        {
          "internalType": "string",
          "name": "_manufactoryLocation",
          "type": "string"
        },
        {
          "internalType": "string",
          "name": "_productionDate",
          "type": "string"
        }
      ],
      "name": "createProduct",
      "outputs": [
        {
          "internalType": "bool",
          "name": "",
          "type": "bool"
        }
      ],
      "stateMutability": "payable",
      "type": "function"
    },
    {
      "inputs": [
        {
          "internalType": "string",
          "name": "_retailerEmail",
          "type": "string"
        },
        {
          "internalType": "string",
          "name": "_retailerName",
          "type": "string"
        },
        {
          "internalType": "string",
          "name": "_retailerLocation",
          "type": "string"
        }
      ],
      "name": "createRetailer",
      "outputs": [
        {
          "internalType": "bool",
          "name": "",
          "type": "bool"
        }
      ],
      "stateMutability": "payable",
      "type": "function"
    },
    {
      "inputs": [],
      "name": "getAllProducts",
      "outputs": [
        {
          "components": [
            {
              "internalType": "string",
              "name": "model",
              "type": "string"
            },
            {
              "internalType": "string",
              "name": "description",
              "type": "string"
            },
            {
              "internalType": "string",
              "name": "manufactoryEmail",
              "type": "string"
            },
            {
              "internalType": "string",
              "name": "retailerEmail",
              "type": "string"
            },
            {
              "internalType": "string",
              "name": "customerEmail",
              "type": "string"
            },
            {
              "internalType": "uint256",
              "name": "status",
              "type": "uint256"
            },
            {
              "components": [
                {
                  "internalType": "uint256",
                  "name": "timestamp",
                  "type": "uint256"
                },
                {
                  "internalType": "string",
                  "name": "action",
                  "type": "string"
                },
                {
                  "internalType": "string",
                  "name": "details",
                  "type": "string"
                }
              ],
              "internalType": "struct FPIS.HistoryItem[]",
              "name": "history",
              "type": "tuple[]"
            }
          ],
          "internalType": "struct FPIS.Product[]",
          "name": "",
          "type": "tuple[]"
        },
        {
          "internalType": "string[]",
          "name": "",
          "type": "string[]"
        }
      ],
      "stateMutability": "view",
      "type": "function"
    },
    {
      "inputs": [
        {
          "internalType": "string",
          "name": "_customerEmail",
          "type": "string"
        }
      ],
      "name": "getCustomerDetail",
      "outputs": [
        {
          "internalType": "string",
          "name": "",
          "type": "string"
        },
        {
          "internalType": "string",
          "name": "",
          "type": "string"
        },
        {
          "internalType": "string",
          "name": "",
          "type": "string"
        }
      ],
      "stateMutability": "view",
      "type": "function"
    },
    {
      "inputs": [
        {
          "internalType": "string",
          "name": "_manufactorEmail",
          "type": "string"
        }
      ],
      "name": "getManafactorDetail",
      "outputs": [
        {
          "internalType": "string",
          "name": "",
          "type": "string"
        },
        {
          "internalType": "string",
          "name": "",
          "type": "string"
        }
      ],
      "stateMutability": "view",
      "type": "function"
    },
    {
      "inputs": [
        {
          "internalType": "string",
          "name": "_productID",
          "type": "string"
        }
      ],
      "name": "getProductDetail",
      "outputs": [
        {
          "internalType": "string",
          "name": "",
          "type": "string"
        },
        {
          "internalType": "string",
          "name": "",
          "type": "string"
        },
        {
          "internalType": "string",
          "name": "",
          "type": "string"
        },
        {
          "internalType": "string",
          "name": "",
          "type": "string"
        },
        {
          "internalType": "string",
          "name": "",
          "type": "string"
        },
        {
          "components": [
            {
              "internalType": "uint256",
              "name": "timestamp",
              "type": "uint256"
            },
            {
              "internalType": "string",
              "name": "action",
              "type": "string"
            },
            {
              "internalType": "string",
              "name": "details",
              "type": "string"
            }
          ],
          "internalType": "struct FPIS.HistoryItem[]",
          "name": "",
          "type": "tuple[]"
        }
      ],
      "stateMutability": "view",
      "type": "function"
    },
    {
      "inputs": [
        {
          "internalType": "string",
          "name": "_customerEmail",
          "type": "string"
        }
      ],
      "name": "getProductsByCustomer",
      "outputs": [
        {
          "internalType": "string[]",
          "name": "",
          "type": "string[]"
        }
      ],
      "stateMutability": "view",
      "type": "function"
    },
    {
      "inputs": [
        {
          "internalType": "string",
          "name": "_retailerEmail",
          "type": "string"
        }
      ],
      "name": "getRetailerDetail",
      "outputs": [
        {
          "internalType": "string",
          "name": "",
          "type": "string"
        },
        {
          "internalType": "string",
          "name": "",
          "type": "string"
        }
      ],
      "stateMutability": "view",
      "type": "function"
    },
    {
      "inputs": [
        {
          "internalType": "string",
          "name": "_productID",
          "type": "string"
        },
        {
          "internalType": "string",
          "name": "_retailerEmail",
          "type": "string"
        },
        {
          "internalType": "string",
          "name": "_retailLocation",
          "type": "string"
        }
      ],
      "name": "moveToRetailer",
      "outputs": [
        {
          "internalType": "bool",
          "name": "",
          "type": "bool"
        }
      ],
      "stateMutability": "payable",
      "type": "function"
    },
    {
      "inputs": [
        {
          "internalType": "string",
          "name": "_productID",
          "type": "string"
        },
        {
          "internalType": "string",
          "name": "_retailerEmail",
          "type": "string"
        },
        {
          "internalType": "string",
          "name": "_customerEmail",
          "type": "string"
        },
        {
          "internalType": "string",
          "name": "_saleDate",
          "type": "string"
        }
      ],
      "name": "sellToFirstCustomer",
      "outputs": [
        {
          "internalType": "bool",
          "name": "",
          "type": "bool"
        }
      ],
      "stateMutability": "payable",
      "type": "function"
    }
  ],
  "bytecode": "0x608060405234801561001057600080fd5b50613989806100206000396000f3fe6080604052600436106100c25760003560e01c8063a70d06641161007f578063bc26ec5311610059578063bc26ec531461028f578063cee4a5e5146102ce578063ee7862601461030b578063f1ef413b1461034d576100c2565b8063a70d0664146101ff578063b51ca0af1461022f578063b5bd438b1461025f576100c2565b806302ee3a52146100c757806321b35573146100f357806355a53f06146101315780635a400564146101615780637c3851cd14610191578063a603efe1146101cf575b600080fd5b3480156100d357600080fd5b506100dc61037d565b6040516100ea92919061286f565b60405180910390f35b3480156100ff57600080fd5b5061011a600480360381019061011591906129ef565b6109b6565b604051610128929190612a82565b60405180910390f35b61014b60048036038101906101469190612ab9565b610b1c565b6040516101589190612c09565b60405180910390f35b61017b60048036038101906101769190612c24565b610d46565b6040516101889190612c09565b60405180910390f35b34801561019d57600080fd5b506101b860048036038101906101b391906129ef565b610dd2565b6040516101c6929190612a82565b60405180910390f35b6101e960048036038101906101e49190612ccb565b610f38565b6040516101f69190612c09565b60405180910390f35b61021960048036038101906102149190612c24565b61123f565b6040516102269190612c09565b60405180910390f35b61024960048036038101906102449190612ccb565b61135f565b6040516102569190612c09565b60405180910390f35b61027960048036038101906102749190612c24565b611497565b6040516102869190612c09565b60405180910390f35b34801561029b57600080fd5b506102b660048036038101906102b191906129ef565b611523565b6040516102c593929190612da2565b60405180910390f35b3480156102da57600080fd5b506102f560048036038101906102f091906129ef565b61173c565b6040516103029190612dee565b60405180910390f35b34801561031757600080fd5b50610332600480360381019061032d91906129ef565b611836565b60405161034496959493929190612e96565b60405180910390f35b61036760048036038101906103629190612ccb565b611d5d565b6040516103749190612c09565b60405180910390f35b6060806000600480549050905060008167ffffffffffffffff8111156103a6576103a56128c4565b5b6040519080825280602002602001820160405280156103df57816020015b6103cc61220e565b8152602001906001900390816103c45790505b50905060005b828110156108d55760006004828154811061040357610402612f21565b5b9060005260206000200160405161041a9190613053565b90815260200160405180910390206040518060e001604052908160008201805461044390612f7f565b80601f016020809104026020016040519081016040528092919081815260200182805461046f90612f7f565b80156104bc5780601f10610491576101008083540402835291602001916104bc565b820191906000526020600020905b81548152906001019060200180831161049f57829003601f168201915b505050505081526020016001820180546104d590612f7f565b80601f016020809104026020016040519081016040528092919081815260200182805461050190612f7f565b801561054e5780601f106105235761010080835404028352916020019161054e565b820191906000526020600020905b81548152906001019060200180831161053157829003601f168201915b5050505050815260200160028201805461056790612f7f565b80601f016020809104026020016040519081016040528092919081815260200182805461059390612f7f565b80156105e05780601f106105b5576101008083540402835291602001916105e0565b820191906000526020600020905b8154815290600101906020018083116105c357829003601f168201915b505050505081526020016003820180546105f990612f7f565b80601f016020809104026020016040519081016040528092919081815260200182805461062590612f7f565b80156106725780601f1061064757610100808354040283529160200191610672565b820191906000526020600020905b81548152906001019060200180831161065557829003601f168201915b5050505050815260200160048201805461068b90612f7f565b80601f01602080910402602001604051908101604052809291908181526020018280546106b790612f7f565b80156107045780601f106106d957610100808354040283529160200191610704565b820191906000526020600020905b8154815290600101906020018083116106e757829003601f168201915b505050505081526020016005820154815260200160068201805480602002602001604051908101604052809291908181526020016000905b8282101561089c57838290600052602060002090600302016040518060600160405290816000820154815260200160018201805461077990612f7f565b80601f01602080910402602001604051908101604052809291908181526020018280546107a590612f7f565b80156107f25780601f106107c7576101008083540402835291602001916107f2565b820191906000526020600020905b8154815290600101906020018083116107d557829003601f168201915b5050505050815260200160028201805461080b90612f7f565b80601f016020809104026020016040519081016040528092919081815260200182805461083790612f7f565b80156108845780601f1061085957610100808354040283529160200191610884565b820191906000526020600020905b81548152906001019060200180831161086757829003601f168201915b5050505050815250508152602001906001019061073c565b50505050815250508282815181106108b7576108b6612f21565b5b602002602001018190525080806108cd90613099565b9150506103e5565b5080600480805480602002602001604051908101604052809291908181526020016000905b828210156109a657838290600052602060002001805461091990612f7f565b80601f016020809104026020016040519081016040528092919081815260200182805461094590612f7f565b80156109925780601f1061096757610100808354040283529160200191610992565b820191906000526020600020905b81548152906001019060200180831161097557829003601f168201915b5050505050815260200190600101906108fa565b5050505090509350935050509091565b6060806002836040516109c99190613112565b90815260200160405180910390206000016002846040516109ea9190613112565b9081526020016040518091039020600201818054610a0790612f7f565b80601f0160208091040260200160405190810160405280929190818152602001828054610a3390612f7f565b8015610a805780601f10610a5557610100808354040283529160200191610a80565b820191906000526020600020905b815481529060010190602001808311610a6357829003601f168201915b50505050509150808054610a9390612f7f565b80601f0160208091040260200160405190810160405280929190818152602001828054610abf90612f7f565b8015610b0c5780601f10610ae157610100808354040283529160200191610b0c565b820191906000526020600020905b815481529060010190602001808311610aef57829003601f168201915b5050505050905091509150915091565b600080600088604051610b2f9190613112565b9081526020016040518091039020905086816000019081610b5091906132c0565b5085816001019081610b6291906132c0565b5084816002019081610b7491906132c0565b50610b7d61224b565b428160000181815250506040518060400160405280600c81526020017f4d616e756661637475726564000000000000000000000000000000000000000081525081602001819052508385604051602001610bd892919061342a565b604051602081830303815290604052816040018190525081600601819080600181540180825580915050600190039060005260206000209060030201600090919091909150600082015181600001556020820151816001019081610c3c91906132c0565b506040820151816002019081610c5291906132c0565b5050508160008a604051610c669190613112565b908152602001604051809103902060008201816000019081610c88919061347a565b5060018201816001019081610c9d919061347a565b5060028201816002019081610cb2919061347a565b5060038201816003019081610cc7919061347a565b5060048201816004019081610cdc919061347a565b50600582015481600501556006820181600601908054610cfd92919061226c565b50905050600489908060018154018082558091505060019003906000526020600020016000909190919091509081610d3591906132c0565b506001925050509695505050505050565b6000610d506122f8565b83816000018190525082816040018190525080600286604051610d739190613112565b90815260200160405180910390206000820151816000019081610d9691906132c0565b506020820151816001019081610dac91906132c0565b506040820151816002019081610dc291906132c0565b5090505060019150509392505050565b606080600283604051610de59190613112565b9081526020016040518091039020600001600284604051610e069190613112565b9081526020016040518091039020600201818054610e2390612f7f565b80601f0160208091040260200160405190810160405280929190818152602001828054610e4f90612f7f565b8015610e9c5780601f10610e7157610100808354040283529160200191610e9c565b820191906000526020600020905b815481529060010190602001808311610e7f57829003601f168201915b50505050509150808054610eaf90612f7f565b80601f0160208091040260200160405190810160405280929190818152602001828054610edb90612f7f565b8015610f285780601f10610efd57610100808354040283529160200191610f28565b820191906000526020600020905b815481529060010190602001808311610f0b57829003601f168201915b5050505050905091509150915091565b600080600086604051610f4b9190613112565b90815260200160405180910390209050610ff1816003018054610f6d90612f7f565b80601f0160208091040260200160405190810160405280929190818152602001828054610f9990612f7f565b8015610fe65780601f10610fbb57610100808354040283529160200191610fe6565b820191906000526020600020905b815481529060010190602001808311610fc957829003601f168201915b5050505050866120d6565b156112315761109b81600401805461100890612f7f565b80601f016020809104026020016040519081016040528092919081815260200182805461103490612f7f565b80156110815780601f1061105657610100808354040283529160200191611081565b820191906000526020600020905b81548152906001019060200180831161106457829003601f168201915b5050505050604051806020016040528060008152506120d6565b15611230576003846040516110b09190613112565b908152602001604051809103902060050160009054906101000a900460ff161561122f57838160040190816110e591906132c0565b50600181600501819055506003846040516111009190613112565b90815260200160405180910390206004018690806001815401808255809150506001900390600052602060002001600090919091909150908161114391906132c0565b5061114c61224b565b428160000181815250506040518060400160405280601081526020017f536f6c6420746f20437573746f6d657200000000000000000000000000000000815250816020018190525084846040516020016111a79291906135fa565b60405160208183030381529060405281604001819052508160060181908060018154018082558091505060019003906000526020600020906003020160009091909190915060008201518160000155602082015181600101908161120b91906132c0565b50604082015181600201908161122191906132c0565b505050600192505050611237565b5b5b60009150505b949350505050565b6000806000856040516112529190613112565b908152602001604051809103902090508381600301908161127391906132c0565b5061127c61224b565b428160000181815250506040518060400160405280601181526020017f4d6f76656420746f2052657461696c65720000000000000000000000000000008152508160200181905250836040516020016112d59190613680565b60405160208183030381529060405281604001819052508160060181908060018154018082558091505060019003906000526020600020906003020160009091909190915060008201518160000155602082015181600101908161133991906132c0565b50604082015181600201908161134f91906132c0565b5050506001925050509392505050565b60006003856040516113719190613112565b908152602001604051809103902060050160009054906101000a900460ff161561139e576000905061148f565b6113a6612319565b84816000018190525083816060018190525082816040018190525060018160a0019015159081151581525050806003876040516113e39190613112565b9081526020016040518091039020600082015181600001908161140691906132c0565b50602082015181600101908161141c91906132c0565b50604082015181600201908161143291906132c0565b50606082015181600301908161144891906132c0565b506080820151816004019080519060200190611465929190612351565b5060a08201518160050160006101000a81548160ff02191690831515021790555090505060019150505b949350505050565b60006114a16122f8565b838160000181905250828160400181905250806002866040516114c49190613112565b908152602001604051809103902060008201518160000190816114e791906132c0565b5060208201518160010190816114fd91906132c0565b50604082015181600201908161151391906132c0565b5090505060019150509392505050565b60608060606003846040516115389190613112565b90815260200160405180910390206000016003856040516115599190613112565b908152602001604051809103902060020160038660405161157a9190613112565b908152602001604051809103902060030182805461159790612f7f565b80601f01602080910402602001604051908101604052809291908181526020018280546115c390612f7f565b80156116105780601f106115e557610100808354040283529160200191611610565b820191906000526020600020905b8154815290600101906020018083116115f357829003601f168201915b5050505050925081805461162390612f7f565b80601f016020809104026020016040519081016040528092919081815260200182805461164f90612f7f565b801561169c5780601f106116715761010080835404028352916020019161169c565b820191906000526020600020905b81548152906001019060200180831161167f57829003601f168201915b505050505091508080546116af90612f7f565b80601f01602080910402602001604051908101604052809291908181526020018280546116db90612f7f565b80156117285780601f106116fd57610100808354040283529160200191611728565b820191906000526020600020905b81548152906001019060200180831161170b57829003601f168201915b505050505090509250925092509193909250565b606060038260405161174e9190613112565b9081526020016040518091039020600401805480602002602001604051908101604052809291908181526020016000905b8282101561182b57838290600052602060002001805461179e90612f7f565b80601f01602080910402602001604051908101604052809291908181526020018280546117ca90612f7f565b80156118175780601f106117ec57610100808354040283529160200191611817565b820191906000526020600020905b8154815290600101906020018083116117fa57829003601f168201915b50505050508152602001906001019061177f565b505050509050919050565b60608060608060608060008760405161184f9190613112565b90815260200160405180910390206000016000886040516118709190613112565b90815260200160405180910390206001016000896040516118919190613112565b908152602001604051809103902060020160008a6040516118b29190613112565b908152602001604051809103902060030160008b6040516118d39190613112565b908152602001604051809103902060040160008c6040516118f49190613112565b908152602001604051809103902060060185805461191190612f7f565b80601f016020809104026020016040519081016040528092919081815260200182805461193d90612f7f565b801561198a5780601f1061195f5761010080835404028352916020019161198a565b820191906000526020600020905b81548152906001019060200180831161196d57829003601f168201915b5050505050955084805461199d90612f7f565b80601f01602080910402602001604051908101604052809291908181526020018280546119c990612f7f565b8015611a165780601f106119eb57610100808354040283529160200191611a16565b820191906000526020600020905b8154815290600101906020018083116119f957829003601f168201915b50505050509450838054611a2990612f7f565b80601f0160208091040260200160405190810160405280929190818152602001828054611a5590612f7f565b8015611aa25780601f10611a7757610100808354040283529160200191611aa2565b820191906000526020600020905b815481529060010190602001808311611a8557829003601f168201915b50505050509350828054611ab590612f7f565b80601f0160208091040260200160405190810160405280929190818152602001828054611ae190612f7f565b8015611b2e5780601f10611b0357610100808354040283529160200191611b2e565b820191906000526020600020905b815481529060010190602001808311611b1157829003601f168201915b50505050509250818054611b4190612f7f565b80601f0160208091040260200160405190810160405280929190818152602001828054611b6d90612f7f565b8015611bba5780601f10611b8f57610100808354040283529160200191611bba565b820191906000526020600020905b815481529060010190602001808311611b9d57829003601f168201915b5050505050915080805480602002602001604051908101604052809291908181526020016000905b82821015611d42578382906000526020600020906003020160405180606001604052908160008201548152602001600182018054611c1f90612f7f565b80601f0160208091040260200160405190810160405280929190818152602001828054611c4b90612f7f565b8015611c985780601f10611c6d57610100808354040283529160200191611c98565b820191906000526020600020905b815481529060010190602001808311611c7b57829003601f168201915b50505050508152602001600282018054611cb190612f7f565b80601f0160208091040260200160405190810160405280929190818152602001828054611cdd90612f7f565b8015611d2a5780601f10611cff57610100808354040283529160200191611d2a565b820191906000526020600020905b815481529060010190602001808311611d0d57829003601f168201915b50505050508152505081526020019060010190611be2565b50505050905095509550955095509550955091939550919395565b600080600086604051611d709190613112565b908152602001604051809103902090506000600386604051611d929190613112565b908152602001604051809103902090506000600386604051611db49190613112565b9081526020016040518091039020905060018360050154148015611de657508160050160009054906101000a900460ff165b8015611e0057508060050160009054906101000a900460ff165b156120c65760005b82600401805490508110156120c457611ec9836004018281548110611e3057611e2f612f21565b5b906000526020600020018054611e4590612f7f565b80601f0160208091040260200160405190810160405280929190818152602001828054611e7190612f7f565b8015611ebe5780601f10611e9357610100808354040283529160200191611ebe565b820191906000526020600020905b815481529060010190602001808311611ea157829003601f168201915b50505050508a6120d6565b156120b157611f64846004018054611ee090612f7f565b80601f0160208091040260200160405190810160405280929190818152602001828054611f0c90612f7f565b8015611f595780601f10611f2e57610100808354040283529160200191611f59565b820191906000526020600020905b815481529060010190602001808311611f3c57829003601f168201915b5050505050896120d6565b15611f7c5786846004019081611f7a91906132c0565b505b611f8461224b565b428160000181815250506040518060400160405280601081526020017f4368616e67656420437573746f6d6572000000000000000000000000000000008152508160200181905250888888604051602001611fe193929190613786565b60405160208183030381529060405281604001819052508460060181908060018154018082558091505060019003906000526020600020906003020160009091909190915060008201518160000155602082015181600101908161204591906132c0565b50604082015181600201908161205b91906132c0565b50505061206b828560040161212f565b50826004018a9080600181540180825580915050600190039060005260206000200160009091909190915090816120a291906132c0565b506001955050505050506120ce565b80806120bc90613099565b915050611e08565b505b600093505050505b949350505050565b6000816040516020016120e99190613112565b60405160208183030381529060405280519060200120836040516020016121109190613112565b6040516020818303038152906040528051906020012014905092915050565b6000818054905083106121455760009050612208565b60008390505b6001838054905061215c91906137d8565b8110156121c95782600182612171919061380c565b8154811061218257612181612f21565b5b9060005260206000200183828154811061219f5761219e612f21565b5b9060005260206000200190816121b5919061386b565b5080806121c190613099565b91505061214b565b5081600183805490506121dc91906137d8565b815481106121ed576121ec612f21565b5b90600052602060002001600061220391906123aa565b600190505b92915050565b6040518060e00160405280606081526020016060815260200160608152602001606081526020016060815260200160008152602001606081525090565b60405180606001604052806000815260200160608152602001606081525090565b8280548282559060005260206000209060030281019282156122e75760005260206000209160030282015b828111156122e657828260008201548160000155600182018160010190816122bf919061347a565b50600282018160020190816122d4919061347a565b50505091600301919060030190612297565b5b5090506122f491906123ea565b5090565b60405180606001604052806060815260200160608152602001606081525090565b6040518060c0016040528060608152602001606081526020016060815260200160608152602001606081526020016000151581525090565b828054828255906000526020600020908101928215612399579160200282015b8281111561239857825182908161238891906132c0565b5091602001919060010190612371565b5b5090506123a69190612429565b5090565b5080546123b690612f7f565b6000825580601f106123c857506123e7565b601f0160209004906000526020600020908101906123e6919061244d565b5b50565b5b808211156124255760008082016000905560018201600061240c91906123aa565b60028201600061241c91906123aa565b506003016123eb565b5090565b5b80821115612449576000818161244091906123aa565b5060010161242a565b5090565b5b8082111561246657600081600090555060010161244e565b5090565b600081519050919050565b600082825260208201905092915050565b6000819050602082019050919050565b600081519050919050565b600082825260208201905092915050565b60005b838110156124d05780820151818401526020810190506124b5565b60008484015250505050565b6000601f19601f8301169050919050565b60006124f882612496565b61250281856124a1565b93506125128185602086016124b2565b61251b816124dc565b840191505092915050565b6000819050919050565b61253981612526565b82525050565b600081519050919050565b600082825260208201905092915050565b6000819050602082019050919050565b60006060830160008301516125836000860182612530565b506020830151848203602086015261259b82826124ed565b915050604083015184820360408601526125b582826124ed565b9150508091505092915050565b60006125ce838361256b565b905092915050565b6000602082019050919050565b60006125ee8261253f565b6125f8818561254a565b93508360208202850161260a8561255b565b8060005b85811015612646578484038952815161262785826125c2565b9450612632836125d6565b925060208a0199505060018101905061260e565b50829750879550505050505092915050565b600060e083016000830151848203600086015261267582826124ed565b9150506020830151848203602086015261268f82826124ed565b915050604083015184820360408601526126a982826124ed565b915050606083015184820360608601526126c382826124ed565b915050608083015184820360808601526126dd82826124ed565b91505060a08301516126f260a0860182612530565b5060c083015184820360c086015261270a82826125e3565b9150508091505092915050565b60006127238383612658565b905092915050565b6000602082019050919050565b60006127438261246a565b61274d8185612475565b93508360208202850161275f85612486565b8060005b8581101561279b578484038952815161277c8582612717565b94506127878361272b565b925060208a01995050600181019050612763565b50829750879550505050505092915050565b600081519050919050565b600082825260208201905092915050565b6000819050602082019050919050565b60006127e583836124ed565b905092915050565b6000602082019050919050565b6000612805826127ad565b61280f81856127b8565b935083602082028501612821856127c9565b8060005b8581101561285d578484038952815161283e85826127d9565b9450612849836127ed565b925060208a01995050600181019050612825565b50829750879550505050505092915050565b600060408201905081810360008301526128898185612738565b9050818103602083015261289d81846127fa565b90509392505050565b6000604051905090565b600080fd5b600080fd5b600080fd5b600080fd5b7f4e487b7100000000000000000000000000000000000000000000000000000000600052604160045260246000fd5b6128fc826124dc565b810181811067ffffffffffffffff8211171561291b5761291a6128c4565b5b80604052505050565b600061292e6128a6565b905061293a82826128f3565b919050565b600067ffffffffffffffff82111561295a576129596128c4565b5b612963826124dc565b9050602081019050919050565b82818337600083830152505050565b600061299261298d8461293f565b612924565b9050828152602081018484840111156129ae576129ad6128bf565b5b6129b9848285612970565b509392505050565b600082601f8301126129d6576129d56128ba565b5b81356129e684826020860161297f565b91505092915050565b600060208284031215612a0557612a046128b0565b5b600082013567ffffffffffffffff811115612a2357612a226128b5565b5b612a2f848285016129c1565b91505092915050565b600082825260208201905092915050565b6000612a5482612496565b612a5e8185612a38565b9350612a6e8185602086016124b2565b612a77816124dc565b840191505092915050565b60006040820190508181036000830152612a9c8185612a49565b90508181036020830152612ab08184612a49565b90509392505050565b60008060008060008060c08789031215612ad657612ad56128b0565b5b600087013567ffffffffffffffff811115612af457612af36128b5565b5b612b0089828a016129c1565b965050602087013567ffffffffffffffff811115612b2157612b206128b5565b5b612b2d89828a016129c1565b955050604087013567ffffffffffffffff811115612b4e57612b4d6128b5565b5b612b5a89828a016129c1565b945050606087013567ffffffffffffffff811115612b7b57612b7a6128b5565b5b612b8789828a016129c1565b935050608087013567ffffffffffffffff811115612ba857612ba76128b5565b5b612bb489828a016129c1565b92505060a087013567ffffffffffffffff811115612bd557612bd46128b5565b5b612be189828a016129c1565b9150509295509295509295565b60008115159050919050565b612c0381612bee565b82525050565b6000602082019050612c1e6000830184612bfa565b92915050565b600080600060608486031215612c3d57612c3c6128b0565b5b600084013567ffffffffffffffff811115612c5b57612c5a6128b5565b5b612c67868287016129c1565b935050602084013567ffffffffffffffff811115612c8857612c876128b5565b5b612c94868287016129c1565b925050604084013567ffffffffffffffff811115612cb557612cb46128b5565b5b612cc1868287016129c1565b9150509250925092565b60008060008060808587031215612ce557612ce46128b0565b5b600085013567ffffffffffffffff811115612d0357612d026128b5565b5b612d0f878288016129c1565b945050602085013567ffffffffffffffff811115612d3057612d2f6128b5565b5b612d3c878288016129c1565b935050604085013567ffffffffffffffff811115612d5d57612d5c6128b5565b5b612d69878288016129c1565b925050606085013567ffffffffffffffff811115612d8a57612d896128b5565b5b612d96878288016129c1565b91505092959194509250565b60006060820190508181036000830152612dbc8186612a49565b90508181036020830152612dd08185612a49565b90508181036040830152612de48184612a49565b9050949350505050565b60006020820190508181036000830152612e0881846127fa565b905092915050565b600082825260208201905092915050565b6000612e2c8261253f565b612e368185612e10565b935083602082028501612e488561255b565b8060005b85811015612e845784840389528151612e6585826125c2565b9450612e70836125d6565b925060208a01995050600181019050612e4c565b50829750879550505050505092915050565b600060c0820190508181036000830152612eb08189612a49565b90508181036020830152612ec48188612a49565b90508181036040830152612ed88187612a49565b90508181036060830152612eec8186612a49565b90508181036080830152612f008185612a49565b905081810360a0830152612f148184612e21565b9050979650505050505050565b7f4e487b7100000000000000000000000000000000000000000000000000000000600052603260045260246000fd5b7f4e487b7100000000000000000000000000000000000000000000000000000000600052602260045260246000fd5b60006002820490506001821680612f9757607f821691505b602082108103612faa57612fa9612f50565b5b50919050565b600081905092915050565b60008190508160005260206000209050919050565b60008154612fdd81612f7f565b612fe78186612fb0565b9450600182166000811461300257600181146130175761304a565b60ff198316865281151582028601935061304a565b61302085612fbb565b60005b8381101561304257815481890152600182019150602081019050613023565b838801955050505b50505092915050565b600061305f8284612fd0565b915081905092915050565b7f4e487b7100000000000000000000000000000000000000000000000000000000600052601160045260246000fd5b60006130a482612526565b91507fffffffffffffffffffffffffffffffffffffffffffffffffffffffffffffffff82036130d6576130d561306a565b5b600182019050919050565b60006130ec82612496565b6130f68185612fb0565b93506131068185602086016124b2565b80840191505092915050565b600061311e82846130e1565b915081905092915050565b60006020601f8301049050919050565b600082821b905092915050565b6000600883026131767fffffffffffffffffffffffffffffffffffffffffffffffffffffffffffffffff82613139565b6131808683613139565b95508019841693508086168417925050509392505050565b6000819050919050565b60006131bd6131b86131b384612526565b613198565b612526565b9050919050565b6000819050919050565b6131d7836131a2565b6131eb6131e3826131c4565b848454613146565b825550505050565b600090565b6132006131f3565b61320b8184846131ce565b505050565b5b8181101561322f576132246000826131f8565b600181019050613211565b5050565b601f8211156132745761324581612fbb565b61324e84613129565b8101602085101561325d578190505b61327161326985613129565b830182613210565b50505b505050565b600082821c905092915050565b600061329760001984600802613279565b1980831691505092915050565b60006132b08383613286565b9150826002028217905092915050565b6132c982612496565b67ffffffffffffffff8111156132e2576132e16128c4565b5b6132ec8254612f7f565b6132f7828285613233565b600060209050601f83116001811461332a5760008415613318578287015190505b61332285826132a4565b86555061338a565b601f19841661333886612fbb565b60005b828110156133605784890151825560018201915060208501945060208101905061333b565b8683101561337d5784890151613379601f891682613286565b8355505b6001600288020188555050505b505050505050565b7f50726f64756374696f6e20446174653a20000000000000000000000000000000600082015250565b60006133c8601183612fb0565b91506133d382613392565b601182019050919050565b7f2c204d616e75666163746f7279204c6f636174696f6e3a200000000000000000600082015250565b6000613414601883612fb0565b915061341f826133de565b601882019050919050565b6000613435826133bb565b915061344182856130e1565b915061344c82613407565b915061345882846130e1565b91508190509392505050565b60008154905061347381612f7f565b9050919050565b818103613488575050613560565b61349182613464565b67ffffffffffffffff8111156134aa576134a96128c4565b5b6134b48254612f7f565b6134bf828285613233565b6000601f8311600181146134ee57600084156134dc578287015490505b6134e685826132a4565b865550613559565b601f1984166134fc87612fbb565b965061350786612fbb565b60005b8281101561352f5784890154825560018201915060018501945060208101905061350a565b8683101561354c5784890154613548601f891682613286565b8355505b6001600288020188555050505b5050505050505b565b7f437573746f6d657220456d61696c3a2000000000000000000000000000000000600082015250565b6000613598601083612fb0565b91506135a382613562565b601082019050919050565b7f2c2053616c6520446174653a2000000000000000000000000000000000000000600082015250565b60006135e4600d83612fb0565b91506135ef826135ae565b600d82019050919050565b60006136058261358b565b915061361182856130e1565b915061361c826135d7565b915061362882846130e1565b91508190509392505050565b7f52657461696c204c6f636174696f6e3a20000000000000000000000000000000600082015250565b600061366a601183612fb0565b915061367582613634565b601182019050919050565b600061368b8261365d565b915061369782846130e1565b915081905092915050565b7f4f6c6420437573746f6d65723a20000000000000000000000000000000000000600082015250565b60006136d8600e83612fb0565b91506136e3826136a2565b600e82019050919050565b7f2c204e657720437573746f6d65723a2000000000000000000000000000000000600082015250565b6000613724601083612fb0565b915061372f826136ee565b601082019050919050565b7f2c204368616e676520446174653a200000000000000000000000000000000000600082015250565b6000613770600f83612fb0565b915061377b8261373a565b600f82019050919050565b6000613791826136cb565b915061379d82866130e1565b91506137a882613717565b91506137b482856130e1565b91506137bf82613763565b91506137cb82846130e1565b9150819050949350505050565b60006137e382612526565b91506137ee83612526565b92508282039050818111156138065761380561306a565b5b92915050565b600061381782612526565b915061382283612526565b925082820190508082111561383a5761383961306a565b5b92915050565b60008154905061384f81612f7f565b9050919050565b60008190508160005260206000209050919050565b818103613879575050613951565b61388282613840565b67ffffffffffffffff81111561389b5761389a6128c4565b5b6138a58254612f7f565b6138b0828285613233565b6000601f8311600181146138df57600084156138cd578287015490505b6138d785826132a4565b86555061394a565b601f1984166138ed87613856565b96506138f886612fbb565b60005b82811015613920578489015482556001820191506001850194506020810190506138fb565b8683101561393d5784890154613939601f891682613286565b8355505b6001600288020188555050505b5050505050505b56fea26469706673582212207911b675a0d035a1e333644aafd44d207ce21845fbcb3237fa4ac6bc9f64583864736f6c63430008130033",
  "linkReferences": {},
  "deployedLinkReferences": {}
}