{
  "_format": "hh-sol-artifact-1",
  "contractName": "FPIS",
  "sourceName": "contracts/fpis.sol",
  "abi": [
    {
      "inputs": [
        {
          "internalType": "string",
          "name": "_productID",
          "type": "string"
        },
        {
          "internalType": "string",
          "name": "_oldCustomerEmail",
          "type": "string"
        },
        {
          "internalType": "string",
          "name": "_newCustomerEmail",
          "type": "string"
        }
      ],
      "name": "changeCustomer",
      "outputs": [
        {
          "internalType": "bool",
          "name": "",
          "type": "bool"
        }
      ],
      "stateMutability": "payable",
      "type": "function"
    },
    {
      "inputs": [
        {
          "internalType": "string",
          "name": "_customerEmail",
          "type": "string"
        },
        {
          "internalType": "string",
          "name": "_name",
          "type": "string"
        },
        {
          "internalType": "string",
          "name": "_location",
          "type": "string"
        },
        {
          "internalType": "string",
          "name": "_phone_number",
          "type": "string"
        }
      ],
      "name": "createCustomer",
      "outputs": [
        {
          "internalType": "bool",
          "name": "",
          "type": "bool"
        }
      ],
      "stateMutability": "payable",
      "type": "function"
    },
    {
      "inputs": [
        {
          "internalType": "string",
          "name": "_manufactorEmail",
          "type": "string"
        },
        {
          "internalType": "string",
          "name": "_manufactorName",
          "type": "string"
        },
        {
          "internalType": "string",
          "name": "_manufactorLocation",
          "type": "string"
        }
      ],
      "name": "createManufactory",
      "outputs": [
        {
          "internalType": "bool",
          "name": "",
          "type": "bool"
        }
      ],
      "stateMutability": "payable",
      "type": "function"
    },
    {
      "inputs": [
        {
          "internalType": "string",
          "name": "_productID",
          "type": "string"
        },
        {
          "internalType": "string",
          "name": "_model",
          "type": "string"
        },
        {
          "internalType": "string",
          "name": "_description",
          "type": "string"
        },
        {
          "internalType": "string",
          "name": "_manufactoryEmail",
          "type": "string"
        }
      ],
      "name": "createProduct",
      "outputs": [
        {
          "internalType": "bool",
          "name": "",
          "type": "bool"
        }
      ],
      "stateMutability": "payable",
      "type": "function"
    },
    {
      "inputs": [
        {
          "internalType": "string",
          "name": "_retailerEmail",
          "type": "string"
        },
        {
          "internalType": "string",
          "name": "_retailerName",
          "type": "string"
        },
        {
          "internalType": "string",
          "name": "_retailerLocation",
          "type": "string"
        }
      ],
      "name": "createRetailer",
      "outputs": [
        {
          "internalType": "bool",
          "name": "",
          "type": "bool"
        }
      ],
      "stateMutability": "payable",
      "type": "function"
    },
    {
      "inputs": [],
      "name": "getAllProducts",
      "outputs": [
        {
          "components": [
            {
              "internalType": "string",
              "name": "model",
              "type": "string"
            },
            {
              "internalType": "string",
              "name": "description",
              "type": "string"
            },
            {
              "internalType": "string",
              "name": "manufactoryEmail",
              "type": "string"
            },
            {
              "internalType": "string",
              "name": "retailerEmail",
              "type": "string"
            },
            {
              "internalType": "string",
              "name": "customerEmail",
              "type": "string"
            },
            {
              "internalType": "uint256",
              "name": "status",
              "type": "uint256"
            }
          ],
          "internalType": "struct FPIS.Product[]",
          "name": "",
          "type": "tuple[]"
        },
        {
          "internalType": "string[]",
          "name": "",
          "type": "string[]"
        }
      ],
      "stateMutability": "view",
      "type": "function"
    },
    {
      "inputs": [
        {
          "internalType": "string",
          "name": "_customerEmail",
          "type": "string"
        }
      ],
      "name": "getCustomerDetail",
      "outputs": [
        {
          "internalType": "string",
          "name": "",
          "type": "string"
        },
        {
          "internalType": "string",
          "name": "",
          "type": "string"
        },
        {
          "internalType": "string",
          "name": "",
          "type": "string"
        }
      ],
      "stateMutability": "view",
      "type": "function"
    },
    {
      "inputs": [
        {
          "internalType": "string",
          "name": "_manufactorEmail",
          "type": "string"
        }
      ],
      "name": "getManafactorDetail",
      "outputs": [
        {
          "internalType": "string",
          "name": "",
          "type": "string"
        },
        {
          "internalType": "string",
          "name": "",
          "type": "string"
        }
      ],
      "stateMutability": "view",
      "type": "function"
    },
    {
      "inputs": [
        {
          "internalType": "string",
          "name": "_productID",
          "type": "string"
        }
      ],
      "name": "getProductDetail",
      "outputs": [
        {
          "internalType": "string",
          "name": "",
          "type": "string"
        },
        {
          "internalType": "string",
          "name": "",
          "type": "string"
        },
        {
          "internalType": "string",
          "name": "",
          "type": "string"
        },
        {
          "internalType": "string",
          "name": "",
          "type": "string"
        },
        {
          "internalType": "string",
          "name": "",
          "type": "string"
        }
      ],
      "stateMutability": "view",
      "type": "function"
    },
    {
      "inputs": [
        {
          "internalType": "string",
          "name": "_customerEmail",
          "type": "string"
        }
      ],
      "name": "getProductsByCustomer",
      "outputs": [
        {
          "internalType": "string[]",
          "name": "",
          "type": "string[]"
        }
      ],
      "stateMutability": "view",
      "type": "function"
    },
    {
      "inputs": [
        {
          "internalType": "string",
          "name": "_retailerEmail",
          "type": "string"
        }
      ],
      "name": "getRetailerDetail",
      "outputs": [
        {
          "internalType": "string",
          "name": "",
          "type": "string"
        },
        {
          "internalType": "string",
          "name": "",
          "type": "string"
        }
      ],
      "stateMutability": "view",
      "type": "function"
    },
    {
      "inputs": [
        {
          "internalType": "string",
          "name": "_productID",
          "type": "string"
        },
        {
          "internalType": "string",
          "name": "_retailerEmail",
          "type": "string"
        }
      ],
      "name": "moveToRetailer",
      "outputs": [
        {
          "internalType": "bool",
          "name": "",
          "type": "bool"
        }
      ],
      "stateMutability": "payable",
      "type": "function"
    },
    {
      "inputs": [
        {
          "internalType": "string",
          "name": "_productID",
          "type": "string"
        },
        {
          "internalType": "string",
          "name": "_retailerEmail",
          "type": "string"
        },
        {
          "internalType": "string",
          "name": "_customerEmail",
          "type": "string"
        }
      ],
      "name": "sellToFirstCustomer",
      "outputs": [
        {
          "internalType": "bool",
          "name": "",
          "type": "bool"
        }
      ],
      "stateMutability": "payable",
      "type": "function"
    }
  ],
  "bytecode": "0x608060405234801561001057600080fd5b5061351f806100206000396000f3fe6080604052600436106100c25760003560e01c8063b51ca0af1161007f578063cc2306c911610059578063cc2306c91461029e578063cee4a5e5146102ce578063eb51e3cd1461030b578063ee7862601461033b576100c2565b8063b51ca0af146101ff578063b5bd438b1461022f578063bc26ec531461025f576100c2565b806302ee3a52146100c75780630715b5f0146100f357806321b35573146101235780633a7090c1146101615780635a400564146101915780637c3851cd146101c1575b600080fd5b3480156100d357600080fd5b506100dc61037c565b6040516100ea929190612974565b60405180910390f35b61010d60048036038101906101089190612af4565b610828565b60405161011a9190612bb6565b60405180910390f35b34801561012f57600080fd5b5061014a60048036038101906101459190612bd1565b61147d565b604051610158929190612c64565b60405180910390f35b61017b60048036038101906101769190612c9b565b6115e3565b6040516101889190612bb6565b60405180910390f35b6101ab60048036038101906101a69190612af4565b61161e565b6040516101b89190612bb6565b60405180910390f35b3480156101cd57600080fd5b506101e860048036038101906101e39190612bd1565b6116aa565b6040516101f6929190612c64565b60405180910390f35b61021960048036038101906102149190612d13565b611810565b6040516102269190612bb6565b60405180910390f35b61024960048036038101906102449190612af4565b611948565b6040516102569190612bb6565b60405180910390f35b34801561026b57600080fd5b5061028660048036038101906102819190612bd1565b6119d4565b60405161029593929190612dea565b60405180910390f35b6102b860048036038101906102b39190612af4565b611bed565b6040516102c59190612bb6565b60405180910390f35b3480156102da57600080fd5b506102f560048036038101906102f09190612bd1565b611d9b565b6040516103029190612e36565b60405180910390f35b61032560048036038101906103209190612d13565b611e95565b6040516103329190612bb6565b60405180910390f35b34801561034757600080fd5b50610362600480360381019061035d9190612bd1565b611f96565b604051610373959493929190612e58565b60405180910390f35b6060806000600480549050905060008167ffffffffffffffff8111156103a5576103a46129c9565b5b6040519080825280602002602001820160405280156103de57816020015b6103cb61252f565b8152602001906001900390816103c35790505b50905060005b828110156107475760006004828154811061040257610401612ece565b5b906000526020600020016040516104199190613000565b90815260200160405180910390206040518060c001604052908160008201805461044290612f2c565b80601f016020809104026020016040519081016040528092919081815260200182805461046e90612f2c565b80156104bb5780601f10610490576101008083540402835291602001916104bb565b820191906000526020600020905b81548152906001019060200180831161049e57829003601f168201915b505050505081526020016001820180546104d490612f2c565b80601f016020809104026020016040519081016040528092919081815260200182805461050090612f2c565b801561054d5780601f106105225761010080835404028352916020019161054d565b820191906000526020600020905b81548152906001019060200180831161053057829003601f168201915b5050505050815260200160028201805461056690612f2c565b80601f016020809104026020016040519081016040528092919081815260200182805461059290612f2c565b80156105df5780601f106105b4576101008083540402835291602001916105df565b820191906000526020600020905b8154815290600101906020018083116105c257829003601f168201915b505050505081526020016003820180546105f890612f2c565b80601f016020809104026020016040519081016040528092919081815260200182805461062490612f2c565b80156106715780601f1061064657610100808354040283529160200191610671565b820191906000526020600020905b81548152906001019060200180831161065457829003601f168201915b5050505050815260200160048201805461068a90612f2c565b80601f01602080910402602001604051908101604052809291908181526020018280546106b690612f2c565b80156107035780601f106106d857610100808354040283529160200191610703565b820191906000526020600020905b8154815290600101906020018083116106e657829003601f168201915b5050505050815260200160058201548152505082828151811061072957610728612ece565b5b6020026020010181905250808061073f90613046565b9150506103e4565b5080600480805480602002602001604051908101604052809291908181526020016000905b8282101561081857838290600052602060002001805461078b90612f2c565b80601f01602080910402602001604051908101604052809291908181526020018280546107b790612f2c565b80156108045780601f106107d957610100808354040283529160200191610804565b820191906000526020600020905b8154815290600101906020018083116107e757829003601f168201915b50505050508152602001906001019061076c565b5050505090509350935050509091565b6000610835848484612312565b6000808560405161084691906130bf565b90815260200160405180910390206040518060c001604052908160008201805461086f90612f2c565b80601f016020809104026020016040519081016040528092919081815260200182805461089b90612f2c565b80156108e85780601f106108bd576101008083540402835291602001916108e8565b820191906000526020600020905b8154815290600101906020018083116108cb57829003601f168201915b5050505050815260200160018201805461090190612f2c565b80601f016020809104026020016040519081016040528092919081815260200182805461092d90612f2c565b801561097a5780601f1061094f5761010080835404028352916020019161097a565b820191906000526020600020905b81548152906001019060200180831161095d57829003601f168201915b5050505050815260200160028201805461099390612f2c565b80601f01602080910402602001604051908101604052809291908181526020018280546109bf90612f2c565b8015610a0c5780601f106109e157610100808354040283529160200191610a0c565b820191906000526020600020905b8154815290600101906020018083116109ef57829003601f168201915b50505050508152602001600382018054610a2590612f2c565b80601f0160208091040260200160405190810160405280929190818152602001828054610a5190612f2c565b8015610a9e5780601f10610a7357610100808354040283529160200191610a9e565b820191906000526020600020905b815481529060010190602001808311610a8157829003601f168201915b50505050508152602001600482018054610ab790612f2c565b80601f0160208091040260200160405190810160405280929190818152602001828054610ae390612f2c565b8015610b305780601f10610b0557610100808354040283529160200191610b30565b820191906000526020600020905b815481529060010190602001808311610b1357829003601f168201915b5050505050815260200160058201548152505090506000600385604051610b5791906130bf565b90815260200160405180910390206040518060c0016040529081600082018054610b8090612f2c565b80601f0160208091040260200160405190810160405280929190818152602001828054610bac90612f2c565b8015610bf95780601f10610bce57610100808354040283529160200191610bf9565b820191906000526020600020905b815481529060010190602001808311610bdc57829003601f168201915b50505050508152602001600182018054610c1290612f2c565b80601f0160208091040260200160405190810160405280929190818152602001828054610c3e90612f2c565b8015610c8b5780601f10610c6057610100808354040283529160200191610c8b565b820191906000526020600020905b815481529060010190602001808311610c6e57829003601f168201915b50505050508152602001600282018054610ca490612f2c565b80601f0160208091040260200160405190810160405280929190818152602001828054610cd090612f2c565b8015610d1d5780601f10610cf257610100808354040283529160200191610d1d565b820191906000526020600020905b815481529060010190602001808311610d0057829003601f168201915b50505050508152602001600382018054610d3690612f2c565b80601f0160208091040260200160405190810160405280929190818152602001828054610d6290612f2c565b8015610daf5780601f10610d8457610100808354040283529160200191610daf565b820191906000526020600020905b815481529060010190602001808311610d9257829003601f168201915b5050505050815260200160048201805480602002602001604051908101604052809291908181526020016000905b82821015610e89578382906000526020600020018054610dfc90612f2c565b80601f0160208091040260200160405190810160405280929190818152602001828054610e2890612f2c565b8015610e755780601f10610e4a57610100808354040283529160200191610e75565b820191906000526020600020905b815481529060010190602001808311610e5857829003601f168201915b505050505081526020019060010190610ddd565b5050505081526020016005820160009054906101000a900460ff16151515158152505090506000600386604051610ec091906130bf565b90815260200160405180910390206004018054905090506000600386604051610ee991906130bf565b90815260200160405180910390206040518060c0016040529081600082018054610f1290612f2c565b80601f0160208091040260200160405190810160405280929190818152602001828054610f3e90612f2c565b8015610f8b5780601f10610f6057610100808354040283529160200191610f8b565b820191906000526020600020905b815481529060010190602001808311610f6e57829003601f168201915b50505050508152602001600182018054610fa490612f2c565b80601f0160208091040260200160405190810160405280929190818152602001828054610fd090612f2c565b801561101d5780601f10610ff25761010080835404028352916020019161101d565b820191906000526020600020905b81548152906001019060200180831161100057829003601f168201915b5050505050815260200160028201805461103690612f2c565b80601f016020809104026020016040519081016040528092919081815260200182805461106290612f2c565b80156110af5780601f10611084576101008083540402835291602001916110af565b820191906000526020600020905b81548152906001019060200180831161109257829003601f168201915b505050505081526020016003820180546110c890612f2c565b80601f01602080910402602001604051908101604052809291908181526020018280546110f490612f2c565b80156111415780601f1061111657610100808354040283529160200191611141565b820191906000526020600020905b81548152906001019060200180831161112457829003601f168201915b5050505050815260200160048201805480602002602001604051908101604052809291908181526020016000905b8282101561121b57838290600052602060002001805461118e90612f2c565b80601f01602080910402602001604051908101604052809291908181526020018280546111ba90612f2c565b80156112075780601f106111dc57610100808354040283529160200191611207565b820191906000526020600020905b8154815290600101906020018083116111ea57829003601f168201915b50505050508152602001906001019061116f565b5050505081526020016005820160009054906101000a900460ff16151515158152505090508260a00151801561125257508060a001515b1561146d5760005b8281101561146b5761128a8460800151828151811061127c5761127b612ece565b5b60200260200101518a6123b1565b156114585761129d8560800151896123b1565b156112d2578660008a6040516112b391906130bf565b908152602001604051809103902060040190816112d0919061326d565b505b60005b83811015611452576113ac60038a6040516112f091906130bf565b9081526020016040518091039020600401828154811061131357611312612ece565b5b90600052602060002001805461132890612f2c565b80601f016020809104026020016040519081016040528092919081815260200182805461135490612f2c565b80156113a15780601f10611376576101008083540402835291602001916113a1565b820191906000526020600020905b81548152906001019060200180831161138457829003601f168201915b50505050508b6123b1565b1561143f576113db8160038b6040516113c591906130bf565b908152602001604051809103902060040161240a565b506003886040516113ec91906130bf565b90815260200160405180910390206004018a90806001815401808255809150506001900390600052602060002001600090919091909150908161142f919061326d565b5060019650505050505050611476565b808061144a90613046565b9150506112d5565b5061146b565b808061146390613046565b91505061125a565b505b60009450505050505b9392505050565b60608060028360405161149091906130bf565b90815260200160405180910390206000016002846040516114b191906130bf565b90815260200160405180910390206002018180546114ce90612f2c565b80601f01602080910402602001604051908101604052809291908181526020018280546114fa90612f2c565b80156115475780601f1061151c57610100808354040283529160200191611547565b820191906000526020600020905b81548152906001019060200180831161152a57829003601f168201915b5050505050915080805461155a90612f2c565b80601f016020809104026020016040519081016040528092919081815260200182805461158690612f2c565b80156115d35780601f106115a8576101008083540402835291602001916115d3565b820191906000526020600020905b8154815290600101906020018083116115b657829003601f168201915b5050505050905091509150915091565b6000816000846040516115f691906130bf565b90815260200160405180910390206003019081611613919061326d565b506001905092915050565b6000611628612565565b8381600001819052508281604001819052508060028660405161164b91906130bf565b9081526020016040518091039020600082015181600001908161166e919061326d565b506020820151816001019081611684919061326d565b50604082015181600201908161169a919061326d565b5090505060019150509392505050565b6060806002836040516116bd91906130bf565b90815260200160405180910390206000016002846040516116de91906130bf565b90815260200160405180910390206002018180546116fb90612f2c565b80601f016020809104026020016040519081016040528092919081815260200182805461172790612f2c565b80156117745780601f1061174957610100808354040283529160200191611774565b820191906000526020600020905b81548152906001019060200180831161175757829003601f168201915b5050505050915080805461178790612f2c565b80601f01602080910402602001604051908101604052809291908181526020018280546117b390612f2c565b80156118005780601f106117d557610100808354040283529160200191611800565b820191906000526020600020905b8154815290600101906020018083116117e357829003601f168201915b5050505050905091509150915091565b600060038560405161182291906130bf565b908152602001604051809103902060050160009054906101000a900460ff161561184f5760009050611940565b611857612586565b84816000018190525083816060018190525082816040018190525060018160a00190151590811515815250508060038760405161189491906130bf565b908152602001604051809103902060008201518160000190816118b7919061326d565b5060208201518160010190816118cd919061326d565b5060408201518160020190816118e3919061326d565b5060608201518160030190816118f9919061326d565b5060808201518160040190805190602001906119169291906125be565b5060a08201518160050160006101000a81548160ff02191690831515021790555090505060019150505b949350505050565b6000611952612565565b8381600001819052508281604001819052508060028660405161197591906130bf565b90815260200160405180910390206000820151816000019081611998919061326d565b5060208201518160010190816119ae919061326d565b5060408201518160020190816119c4919061326d565b5090505060019150509392505050565b60608060606003846040516119e991906130bf565b9081526020016040518091039020600001600385604051611a0a91906130bf565b9081526020016040518091039020600201600386604051611a2b91906130bf565b9081526020016040518091039020600301828054611a4890612f2c565b80601f0160208091040260200160405190810160405280929190818152602001828054611a7490612f2c565b8015611ac15780601f10611a9657610100808354040283529160200191611ac1565b820191906000526020600020905b815481529060010190602001808311611aa457829003601f168201915b50505050509250818054611ad490612f2c565b80601f0160208091040260200160405190810160405280929190818152602001828054611b0090612f2c565b8015611b4d5780601f10611b2257610100808354040283529160200191611b4d565b820191906000526020600020905b815481529060010190602001808311611b3057829003601f168201915b50505050509150808054611b6090612f2c565b80601f0160208091040260200160405190810160405280929190818152602001828054611b8c90612f2c565b8015611bd95780601f10611bae57610100808354040283529160200191611bd9565b820191906000526020600020905b815481529060010190602001808311611bbc57829003601f168201915b505050505090509250925092509193909250565b6000611ca2600085604051611c0291906130bf565b90815260200160405180910390206003018054611c1e90612f2c565b80601f0160208091040260200160405190810160405280929190818152602001828054611c4a90612f2c565b8015611c975780601f10611c6c57610100808354040283529160200191611c97565b820191906000526020600020905b815481529060010190602001808311611c7a57829003601f168201915b5050505050846123b1565b15611d8f57600382604051611cb791906130bf565b908152602001604051809103902060050160009054906101000a900460ff1615611d8e5781600085604051611cec91906130bf565b90815260200160405180910390206004019081611d09919061326d565b506001600085604051611d1c91906130bf565b908152602001604051809103902060050181905550600382604051611d4191906130bf565b908152602001604051809103902060040184908060018154018082558091505060019003906000526020600020016000909190919091509081611d84919061326d565b5060019050611d94565b5b600090505b9392505050565b6060600382604051611dad91906130bf565b9081526020016040518091039020600401805480602002602001604051908101604052809291908181526020016000905b82821015611e8a578382906000526020600020018054611dfd90612f2c565b80601f0160208091040260200160405190810160405280929190818152602001828054611e2990612f2c565b8015611e765780601f10611e4b57610100808354040283529160200191611e76565b820191906000526020600020905b815481529060010190602001808311611e5957829003601f168201915b505050505081526020019060010190611dde565b505050509050919050565b6000611e9f61252f565b84816000018190525083816020018190525082816040018190525080600087604051611ecb91906130bf565b90815260200160405180910390206000820151816000019081611eee919061326d565b506020820151816001019081611f04919061326d565b506040820151816002019081611f1a919061326d565b506060820151816003019081611f30919061326d565b506080820151816004019081611f46919061326d565b5060a08201518160050155905050600486908060018154018082558091505060019003906000526020600020016000909190919091509081611f88919061326d565b506001915050949350505050565b6060806060806060600086604051611fae91906130bf565b9081526020016040518091039020600001600087604051611fcf91906130bf565b9081526020016040518091039020600101600088604051611ff091906130bf565b908152602001604051809103902060020160008960405161201191906130bf565b908152602001604051809103902060030160008a60405161203291906130bf565b908152602001604051809103902060040184805461204f90612f2c565b80601f016020809104026020016040519081016040528092919081815260200182805461207b90612f2c565b80156120c85780601f1061209d576101008083540402835291602001916120c8565b820191906000526020600020905b8154815290600101906020018083116120ab57829003601f168201915b505050505094508380546120db90612f2c565b80601f016020809104026020016040519081016040528092919081815260200182805461210790612f2c565b80156121545780601f1061212957610100808354040283529160200191612154565b820191906000526020600020905b81548152906001019060200180831161213757829003601f168201915b5050505050935082805461216790612f2c565b80601f016020809104026020016040519081016040528092919081815260200182805461219390612f2c565b80156121e05780601f106121b5576101008083540402835291602001916121e0565b820191906000526020600020905b8154815290600101906020018083116121c357829003601f168201915b505050505092508180546121f390612f2c565b80601f016020809104026020016040519081016040528092919081815260200182805461221f90612f2c565b801561226c5780601f106122415761010080835404028352916020019161226c565b820191906000526020600020905b81548152906001019060200180831161224f57829003601f168201915b5050505050915080805461227f90612f2c565b80601f01602080910402602001604051908101604052809291908181526020018280546122ab90612f2c565b80156122f85780601f106122cd576101008083540402835291602001916122f8565b820191906000526020600020905b8154815290600101906020018083116122db57829003601f168201915b505050505090509450945094509450945091939590929450565b6123ac83838360405160240161232a93929190612dea565b6040516020818303038152906040527f2ced7cef000000000000000000000000000000000000000000000000000000007bffffffffffffffffffffffffffffffffffffffffffffffffffffffff19166020820180517bffffffffffffffffffffffffffffffffffffffffffffffffffffffff83818316178352505050506124e9565b505050565b6000816040516020016123c491906130bf565b60405160208183030381529060405280519060200120836040516020016123eb91906130bf565b6040516020818303038152906040528051906020012014905092915050565b60008180549050831061242057600090506124e3565b60008390505b60018380549050612437919061333f565b8110156124a4578260018261244c9190613373565b8154811061245d5761245c612ece565b5b9060005260206000200183828154811061247a57612479612ece565b5b90600052602060002001908161249091906133d2565b50808061249c90613046565b915050612426565b5081600183805490506124b7919061333f565b815481106124c8576124c7612ece565b5b9060005260206000200160006124de9190612617565b600190505b92915050565b612500816124f8612503612524565b63ffffffff16565b50565b60006a636f6e736f6c652e6c6f679050600080835160208501845afa505050565b612657819050919050565b6040518060c001604052806060815260200160608152602001606081526020016060815260200160608152602001600081525090565b60405180606001604052806060815260200160608152602001606081525090565b6040518060c0016040528060608152602001606081526020016060815260200160608152602001606081526020016000151581525090565b828054828255906000526020600020908101928215612606579160200282015b828111156126055782518290816125f5919061326d565b50916020019190600101906125de565b5b5090506126139190612661565b5090565b50805461262390612f2c565b6000825580601f106126355750612654565b601f0160209004906000526020600020908101906126539190612685565b5b50565b61265f6134ba565b565b5b8082111561268157600081816126789190612617565b50600101612662565b5090565b5b8082111561269e576000816000905550600101612686565b5090565b600081519050919050565b600082825260208201905092915050565b6000819050602082019050919050565b600081519050919050565b600082825260208201905092915050565b60005b838110156127085780820151818401526020810190506126ed565b60008484015250505050565b6000601f19601f8301169050919050565b6000612730826126ce565b61273a81856126d9565b935061274a8185602086016126ea565b61275381612714565b840191505092915050565b6000819050919050565b6127718161275e565b82525050565b600060c08301600083015184820360008601526127948282612725565b915050602083015184820360208601526127ae8282612725565b915050604083015184820360408601526127c88282612725565b915050606083015184820360608601526127e28282612725565b915050608083015184820360808601526127fc8282612725565b91505060a083015161281160a0860182612768565b508091505092915050565b60006128288383612777565b905092915050565b6000602082019050919050565b6000612848826126a2565b61285281856126ad565b935083602082028501612864856126be565b8060005b858110156128a05784840389528151612881858261281c565b945061288c83612830565b925060208a01995050600181019050612868565b50829750879550505050505092915050565b600081519050919050565b600082825260208201905092915050565b6000819050602082019050919050565b60006128ea8383612725565b905092915050565b6000602082019050919050565b600061290a826128b2565b61291481856128bd565b935083602082028501612926856128ce565b8060005b85811015612962578484038952815161294385826128de565b945061294e836128f2565b925060208a0199505060018101905061292a565b50829750879550505050505092915050565b6000604082019050818103600083015261298e818561283d565b905081810360208301526129a281846128ff565b90509392505050565b6000604051905090565b600080fd5b600080fd5b600080fd5b600080fd5b7f4e487b7100000000000000000000000000000000000000000000000000000000600052604160045260246000fd5b612a0182612714565b810181811067ffffffffffffffff82111715612a2057612a1f6129c9565b5b80604052505050565b6000612a336129ab565b9050612a3f82826129f8565b919050565b600067ffffffffffffffff821115612a5f57612a5e6129c9565b5b612a6882612714565b9050602081019050919050565b82818337600083830152505050565b6000612a97612a9284612a44565b612a29565b905082815260208101848484011115612ab357612ab26129c4565b5b612abe848285612a75565b509392505050565b600082601f830112612adb57612ada6129bf565b5b8135612aeb848260208601612a84565b91505092915050565b600080600060608486031215612b0d57612b0c6129b5565b5b600084013567ffffffffffffffff811115612b2b57612b2a6129ba565b5b612b3786828701612ac6565b935050602084013567ffffffffffffffff811115612b5857612b576129ba565b5b612b6486828701612ac6565b925050604084013567ffffffffffffffff811115612b8557612b846129ba565b5b612b9186828701612ac6565b9150509250925092565b60008115159050919050565b612bb081612b9b565b82525050565b6000602082019050612bcb6000830184612ba7565b92915050565b600060208284031215612be757612be66129b5565b5b600082013567ffffffffffffffff811115612c0557612c046129ba565b5b612c1184828501612ac6565b91505092915050565b600082825260208201905092915050565b6000612c36826126ce565b612c408185612c1a565b9350612c508185602086016126ea565b612c5981612714565b840191505092915050565b60006040820190508181036000830152612c7e8185612c2b565b90508181036020830152612c928184612c2b565b90509392505050565b60008060408385031215612cb257612cb16129b5565b5b600083013567ffffffffffffffff811115612cd057612ccf6129ba565b5b612cdc85828601612ac6565b925050602083013567ffffffffffffffff811115612cfd57612cfc6129ba565b5b612d0985828601612ac6565b9150509250929050565b60008060008060808587031215612d2d57612d2c6129b5565b5b600085013567ffffffffffffffff811115612d4b57612d4a6129ba565b5b612d5787828801612ac6565b945050602085013567ffffffffffffffff811115612d7857612d776129ba565b5b612d8487828801612ac6565b935050604085013567ffffffffffffffff811115612da557612da46129ba565b5b612db187828801612ac6565b925050606085013567ffffffffffffffff811115612dd257612dd16129ba565b5b612dde87828801612ac6565b91505092959194509250565b60006060820190508181036000830152612e048186612c2b565b90508181036020830152612e188185612c2b565b90508181036040830152612e2c8184612c2b565b9050949350505050565b60006020820190508181036000830152612e5081846128ff565b905092915050565b600060a0820190508181036000830152612e728188612c2b565b90508181036020830152612e868187612c2b565b90508181036040830152612e9a8186612c2b565b90508181036060830152612eae8185612c2b565b90508181036080830152612ec28184612c2b565b90509695505050505050565b7f4e487b7100000000000000000000000000000000000000000000000000000000600052603260045260246000fd5b7f4e487b7100000000000000000000000000000000000000000000000000000000600052602260045260246000fd5b60006002820490506001821680612f4457607f821691505b602082108103612f5757612f56612efd565b5b50919050565b600081905092915050565b60008190508160005260206000209050919050565b60008154612f8a81612f2c565b612f948186612f5d565b94506001821660008114612faf5760018114612fc457612ff7565b60ff1983168652811515820286019350612ff7565b612fcd85612f68565b60005b83811015612fef57815481890152600182019150602081019050612fd0565b838801955050505b50505092915050565b600061300c8284612f7d565b915081905092915050565b7f4e487b7100000000000000000000000000000000000000000000000000000000600052601160045260246000fd5b60006130518261275e565b91507fffffffffffffffffffffffffffffffffffffffffffffffffffffffffffffffff820361308357613082613017565b5b600182019050919050565b6000613099826126ce565b6130a38185612f5d565b93506130b38185602086016126ea565b80840191505092915050565b60006130cb828461308e565b915081905092915050565b60006020601f8301049050919050565b600082821b905092915050565b6000600883026131237fffffffffffffffffffffffffffffffffffffffffffffffffffffffffffffffff826130e6565b61312d86836130e6565b95508019841693508086168417925050509392505050565b6000819050919050565b600061316a6131656131608461275e565b613145565b61275e565b9050919050565b6000819050919050565b6131848361314f565b61319861319082613171565b8484546130f3565b825550505050565b600090565b6131ad6131a0565b6131b881848461317b565b505050565b5b818110156131dc576131d16000826131a5565b6001810190506131be565b5050565b601f821115613221576131f281612f68565b6131fb846130d6565b8101602085101561320a578190505b61321e613216856130d6565b8301826131bd565b50505b505050565b600082821c905092915050565b600061324460001984600802613226565b1980831691505092915050565b600061325d8383613233565b9150826002028217905092915050565b613276826126ce565b67ffffffffffffffff81111561328f5761328e6129c9565b5b6132998254612f2c565b6132a48282856131e0565b600060209050601f8311600181146132d757600084156132c5578287015190505b6132cf8582613251565b865550613337565b601f1984166132e586612f68565b60005b8281101561330d578489015182556001820191506020850194506020810190506132e8565b8683101561332a5784890151613326601f891682613233565b8355505b6001600288020188555050505b505050505050565b600061334a8261275e565b91506133558361275e565b925082820390508181111561336d5761336c613017565b5b92915050565b600061337e8261275e565b91506133898361275e565b92508282019050808211156133a1576133a0613017565b5b92915050565b6000815490506133b681612f2c565b9050919050565b60008190508160005260206000209050919050565b8181036133e05750506134b8565b6133e9826133a7565b67ffffffffffffffff811115613402576134016129c9565b5b61340c8254612f2c565b6134178282856131e0565b6000601f8311600181146134465760008415613434578287015490505b61343e8582613251565b8655506134b1565b601f198416613454876133bd565b965061345f86612f68565b60005b8281101561348757848901548255600182019150600185019450602081019050613462565b868310156134a457848901546134a0601f891682613233565b8355505b6001600288020188555050505b5050505050505b565b7f4e487b7100000000000000000000000000000000000000000000000000000000600052605160045260246000fdfea26469706673582212200b1495067b8b1abdf1c7d0f8e29854ba24dc6b6ede85fe1d0c8c1ffea592b16864736f6c63430008130033",
  "linkReferences": {},
  "deployedLinkReferences": {}
}