{
  "_format": "hh-sol-artifact-1",
  "contractName": "FPIS",
  "sourceName": "contracts/fpis.sol",
  "abi": [
    {
      "inputs": [
        {
          "internalType": "string",
          "name": "_productID",
          "type": "string"
        },
        {
          "internalType": "string",
          "name": "_oldCustomerEmail",
          "type": "string"
        },
        {
          "internalType": "string",
          "name": "_newCustomerEmail",
          "type": "string"
        },
        {
          "internalType": "string",
          "name": "_changeDate",
          "type": "string"
        }
      ],
      "name": "changeCustomer",
      "outputs": [
        {
          "internalType": "bool",
          "name": "",
          "type": "bool"
        }
      ],
      "stateMutability": "payable",
      "type": "function"
    },
    {
      "inputs": [
        {
          "internalType": "string",
          "name": "_customerEmail",
          "type": "string"
        },
        {
          "internalType": "string",
          "name": "_name",
          "type": "string"
        },
        {
          "internalType": "string",
          "name": "_location",
          "type": "string"
        },
        {
          "internalType": "string",
          "name": "_phone_number",
          "type": "string"
        }
      ],
      "name": "createCustomer",
      "outputs": [
        {
          "internalType": "bool",
          "name": "",
          "type": "bool"
        }
      ],
      "stateMutability": "payable",
      "type": "function"
    },
    {
      "inputs": [
        {
          "internalType": "string",
          "name": "_manufactorEmail",
          "type": "string"
        },
        {
          "internalType": "string",
          "name": "_manufactorName",
          "type": "string"
        },
        {
          "internalType": "string",
          "name": "_manufactorLocation",
          "type": "string"
        }
      ],
      "name": "createManufactory",
      "outputs": [
        {
          "internalType": "bool",
          "name": "",
          "type": "bool"
        }
      ],
      "stateMutability": "payable",
      "type": "function"
    },
    {
      "inputs": [
        {
          "internalType": "string",
          "name": "_productID",
          "type": "string"
        },
        {
          "internalType": "string",
          "name": "_model",
          "type": "string"
        },
        {
          "internalType": "string",
          "name": "_description",
          "type": "string"
        },
        {
          "internalType": "string",
          "name": "_manufactoryEmail",
          "type": "string"
        },
        {
          "internalType": "string",
          "name": "_manufactoryLocation",
          "type": "string"
        },
        {
          "internalType": "string",
          "name": "_productionDate",
          "type": "string"
        }
      ],
      "name": "createProduct",
      "outputs": [
        {
          "internalType": "bool",
          "name": "",
          "type": "bool"
        }
      ],
      "stateMutability": "payable",
      "type": "function"
    },
    {
      "inputs": [
        {
          "internalType": "string",
          "name": "_retailerEmail",
          "type": "string"
        },
        {
          "internalType": "string",
          "name": "_retailerName",
          "type": "string"
        },
        {
          "internalType": "string",
          "name": "_retailerLocation",
          "type": "string"
        }
      ],
      "name": "createRetailer",
      "outputs": [
        {
          "internalType": "bool",
          "name": "",
          "type": "bool"
        }
      ],
      "stateMutability": "payable",
      "type": "function"
    },
    {
      "inputs": [],
      "name": "getAllProducts",
      "outputs": [
        {
          "components": [
            {
              "internalType": "string",
              "name": "model",
              "type": "string"
            },
            {
              "internalType": "string",
              "name": "description",
              "type": "string"
            },
            {
              "internalType": "string",
              "name": "manufactoryEmail",
              "type": "string"
            },
            {
              "internalType": "string",
              "name": "retailerEmail",
              "type": "string"
            },
            {
              "internalType": "string",
              "name": "customerEmail",
              "type": "string"
            },
            {
              "internalType": "uint256",
              "name": "status",
              "type": "uint256"
            },
            {
              "components": [
                {
                  "internalType": "uint256",
                  "name": "timestamp",
                  "type": "uint256"
                },
                {
                  "internalType": "string",
                  "name": "action",
                  "type": "string"
                },
                {
                  "internalType": "string",
                  "name": "details",
                  "type": "string"
                },
                {
                  "internalType": "string",
                  "name": "date",
                  "type": "string"
                }
              ],
              "internalType": "struct FPIS.HistoryItem[]",
              "name": "history",
              "type": "tuple[]"
            }
          ],
          "internalType": "struct FPIS.Product[]",
          "name": "",
          "type": "tuple[]"
        },
        {
          "internalType": "string[]",
          "name": "",
          "type": "string[]"
        }
      ],
      "stateMutability": "view",
      "type": "function"
    },
    {
      "inputs": [
        {
          "internalType": "string",
          "name": "_customerEmail",
          "type": "string"
        }
      ],
      "name": "getCustomerDetail",
      "outputs": [
        {
          "internalType": "string",
          "name": "",
          "type": "string"
        },
        {
          "internalType": "string",
          "name": "",
          "type": "string"
        },
        {
          "internalType": "string",
          "name": "",
          "type": "string"
        }
      ],
      "stateMutability": "view",
      "type": "function"
    },
    {
      "inputs": [
        {
          "internalType": "string",
          "name": "_manufactorEmail",
          "type": "string"
        }
      ],
      "name": "getManafactorDetail",
      "outputs": [
        {
          "internalType": "string",
          "name": "",
          "type": "string"
        },
        {
          "internalType": "string",
          "name": "",
          "type": "string"
        }
      ],
      "stateMutability": "view",
      "type": "function"
    },
    {
      "inputs": [
        {
          "internalType": "string",
          "name": "_productID",
          "type": "string"
        }
      ],
      "name": "getProductDetail",
      "outputs": [
        {
          "internalType": "string",
          "name": "",
          "type": "string"
        },
        {
          "internalType": "string",
          "name": "",
          "type": "string"
        },
        {
          "internalType": "string",
          "name": "",
          "type": "string"
        },
        {
          "internalType": "string",
          "name": "",
          "type": "string"
        },
        {
          "internalType": "string",
          "name": "",
          "type": "string"
        },
        {
          "components": [
            {
              "internalType": "uint256",
              "name": "timestamp",
              "type": "uint256"
            },
            {
              "internalType": "string",
              "name": "action",
              "type": "string"
            },
            {
              "internalType": "string",
              "name": "details",
              "type": "string"
            },
            {
              "internalType": "string",
              "name": "date",
              "type": "string"
            }
          ],
          "internalType": "struct FPIS.HistoryItem[]",
          "name": "",
          "type": "tuple[]"
        }
      ],
      "stateMutability": "view",
      "type": "function"
    },
    {
      "inputs": [
        {
          "internalType": "string",
          "name": "_customerEmail",
          "type": "string"
        }
      ],
      "name": "getProductsByCustomer",
      "outputs": [
        {
          "internalType": "string[]",
          "name": "",
          "type": "string[]"
        }
      ],
      "stateMutability": "view",
      "type": "function"
    },
    {
      "inputs": [
        {
          "internalType": "string",
          "name": "_retailerEmail",
          "type": "string"
        }
      ],
      "name": "getRetailerDetail",
      "outputs": [
        {
          "internalType": "string",
          "name": "",
          "type": "string"
        },
        {
          "internalType": "string",
          "name": "",
          "type": "string"
        }
      ],
      "stateMutability": "view",
      "type": "function"
    },
    {
      "inputs": [
        {
          "internalType": "string",
          "name": "_productID",
          "type": "string"
        },
        {
          "internalType": "string",
          "name": "_retailerEmail",
          "type": "string"
        },
        {
          "internalType": "string",
          "name": "_retailLocation",
          "type": "string"
        },
        {
          "internalType": "string",
          "name": "_movingDate",
          "type": "string"
        }
      ],
      "name": "moveToRetailer",
      "outputs": [
        {
          "internalType": "bool",
          "name": "",
          "type": "bool"
        }
      ],
      "stateMutability": "payable",
      "type": "function"
    },
    {
      "inputs": [
        {
          "internalType": "string",
          "name": "_productID",
          "type": "string"
        },
        {
          "internalType": "string",
          "name": "_retailerEmail",
          "type": "string"
        },
        {
          "internalType": "string",
          "name": "_customerEmail",
          "type": "string"
        },
        {
          "internalType": "string",
          "name": "_saleDate",
          "type": "string"
        }
      ],
      "name": "sellToFirstCustomer",
      "outputs": [
        {
          "internalType": "bool",
          "name": "",
          "type": "bool"
        }
      ],
      "stateMutability": "payable",
      "type": "function"
    }
  ],
  "bytecode": "0x608060405234801561001057600080fd5b50613b0a806100206000396000f3fe6080604052600436106100c25760003560e01c8063b51ca0af1161007f578063cee4a5e511610059578063cee4a5e51461029e578063e9e5b5a2146102db578063ee7862601461030b578063f1ef413b1461034d576100c2565b8063b51ca0af146101ff578063b5bd438b1461022f578063bc26ec531461025f576100c2565b806302ee3a52146100c757806321b35573146100f357806355a53f06146101315780635a400564146101615780637c3851cd14610191578063a603efe1146101cf575b600080fd5b3480156100d357600080fd5b506100dc61037d565b6040516100ea929190612a54565b60405180910390f35b3480156100ff57600080fd5b5061011a60048036038101906101159190612bd4565b610a48565b604051610128929190612c67565b60405180910390f35b61014b60048036038101906101469190612c9e565b610bae565b6040516101589190612dee565b60405180910390f35b61017b60048036038101906101769190612e09565b610df7565b6040516101889190612dee565b60405180910390f35b34801561019d57600080fd5b506101b860048036038101906101b39190612bd4565b610e83565b6040516101c6929190612c67565b60405180910390f35b6101e960048036038101906101e49190612eb0565b610fe9565b6040516101f69190612dee565b60405180910390f35b61021960048036038101906102149190612eb0565b61130d565b6040516102269190612dee565b60405180910390f35b61024960048036038101906102449190612e09565b611445565b6040516102569190612dee565b60405180910390f35b34801561026b57600080fd5b5061028660048036038101906102819190612bd4565b6114d1565b60405161029593929190612f87565b60405180910390f35b3480156102aa57600080fd5b506102c560048036038101906102c09190612bd4565b6116ea565b6040516102d29190612fd3565b60405180910390f35b6102f560048036038101906102f09190612eb0565b6117e4565b6040516103029190612dee565b60405180910390f35b34801561031757600080fd5b50610332600480360381019061032d9190612bd4565b611926565b6040516103449695949392919061307b565b60405180910390f35b61036760048036038101906103629190612eb0565b611edf565b6040516103749190612dee565b60405180910390f35b6060806000600480549050905060008167ffffffffffffffff8111156103a6576103a5612aa9565b5b6040519080825280602002602001820160405280156103df57816020015b6103cc6123ad565b8152602001906001900390816103c45790505b50905060005b828110156109675760006004828154811061040357610402613106565b5b9060005260206000200160405161041a9190613238565b90815260200160405180910390206040518060e001604052908160008201805461044390613164565b80601f016020809104026020016040519081016040528092919081815260200182805461046f90613164565b80156104bc5780601f10610491576101008083540402835291602001916104bc565b820191906000526020600020905b81548152906001019060200180831161049f57829003601f168201915b505050505081526020016001820180546104d590613164565b80601f016020809104026020016040519081016040528092919081815260200182805461050190613164565b801561054e5780601f106105235761010080835404028352916020019161054e565b820191906000526020600020905b81548152906001019060200180831161053157829003601f168201915b5050505050815260200160028201805461056790613164565b80601f016020809104026020016040519081016040528092919081815260200182805461059390613164565b80156105e05780601f106105b5576101008083540402835291602001916105e0565b820191906000526020600020905b8154815290600101906020018083116105c357829003601f168201915b505050505081526020016003820180546105f990613164565b80601f016020809104026020016040519081016040528092919081815260200182805461062590613164565b80156106725780601f1061064757610100808354040283529160200191610672565b820191906000526020600020905b81548152906001019060200180831161065557829003601f168201915b5050505050815260200160048201805461068b90613164565b80601f01602080910402602001604051908101604052809291908181526020018280546106b790613164565b80156107045780601f106106d957610100808354040283529160200191610704565b820191906000526020600020905b8154815290600101906020018083116106e757829003601f168201915b505050505081526020016005820154815260200160068201805480602002602001604051908101604052809291908181526020016000905b8282101561092e57838290600052602060002090600402016040518060800160405290816000820154815260200160018201805461077990613164565b80601f01602080910402602001604051908101604052809291908181526020018280546107a590613164565b80156107f25780601f106107c7576101008083540402835291602001916107f2565b820191906000526020600020905b8154815290600101906020018083116107d557829003601f168201915b5050505050815260200160028201805461080b90613164565b80601f016020809104026020016040519081016040528092919081815260200182805461083790613164565b80156108845780601f1061085957610100808354040283529160200191610884565b820191906000526020600020905b81548152906001019060200180831161086757829003601f168201915b5050505050815260200160038201805461089d90613164565b80601f01602080910402602001604051908101604052809291908181526020018280546108c990613164565b80156109165780601f106108eb57610100808354040283529160200191610916565b820191906000526020600020905b8154815290600101906020018083116108f957829003601f168201915b5050505050815250508152602001906001019061073c565b505050508152505082828151811061094957610948613106565b5b6020026020010181905250808061095f9061327e565b9150506103e5565b5080600480805480602002602001604051908101604052809291908181526020016000905b82821015610a385783829060005260206000200180546109ab90613164565b80601f01602080910402602001604051908101604052809291908181526020018280546109d790613164565b8015610a245780601f106109f957610100808354040283529160200191610a24565b820191906000526020600020905b815481529060010190602001808311610a0757829003601f168201915b50505050508152602001906001019061098c565b5050505090509350935050509091565b606080600283604051610a5b91906132f7565b9081526020016040518091039020600001600284604051610a7c91906132f7565b9081526020016040518091039020600201818054610a9990613164565b80601f0160208091040260200160405190810160405280929190818152602001828054610ac590613164565b8015610b125780601f10610ae757610100808354040283529160200191610b12565b820191906000526020600020905b815481529060010190602001808311610af557829003601f168201915b50505050509150808054610b2590613164565b80601f0160208091040260200160405190810160405280929190818152602001828054610b5190613164565b8015610b9e5780601f10610b7357610100808354040283529160200191610b9e565b820191906000526020600020905b815481529060010190602001808311610b8157829003601f168201915b5050505050905091509150915091565b600080600088604051610bc191906132f7565b9081526020016040518091039020905086816000019081610be291906134a5565b5085816001019081610bf491906134a5565b5084816002019081610c0691906134a5565b50610c0f6123ea565b428160000181815250506040518060400160405280600c81526020017f4d616e756661637475726564000000000000000000000000000000000000000081525081602001819052508585604051602001610c6a92919061360f565b604051602081830303815290604052816040018190525083816060018190525081600601819080600181540180825580915050600190039060005260206000209060040201600090919091909150600082015181600001556020820151816001019081610cd791906134a5565b506040820151816002019081610ced91906134a5565b506060820151816003019081610d0391906134a5565b5050508160008a604051610d1791906132f7565b908152602001604051809103902060008201816000019081610d39919061365f565b5060018201816001019081610d4e919061365f565b5060028201816002019081610d63919061365f565b5060038201816003019081610d78919061365f565b5060048201816004019081610d8d919061365f565b50600582015481600501556006820181600601908054610dae929190612412565b50905050600489908060018154018082558091505060019003906000526020600020016000909190919091509081610de691906134a5565b506001925050509695505050505050565b6000610e016124b3565b83816000018190525082816040018190525080600286604051610e2491906132f7565b90815260200160405180910390206000820151816000019081610e4791906134a5565b506020820151816001019081610e5d91906134a5565b506040820151816002019081610e7391906134a5565b5090505060019150509392505050565b606080600283604051610e9691906132f7565b9081526020016040518091039020600001600284604051610eb791906132f7565b9081526020016040518091039020600201818054610ed490613164565b80601f0160208091040260200160405190810160405280929190818152602001828054610f0090613164565b8015610f4d5780601f10610f2257610100808354040283529160200191610f4d565b820191906000526020600020905b815481529060010190602001808311610f3057829003601f168201915b50505050509150808054610f6090613164565b80601f0160208091040260200160405190810160405280929190818152602001828054610f8c90613164565b8015610fd95780601f10610fae57610100808354040283529160200191610fd9565b820191906000526020600020905b815481529060010190602001808311610fbc57829003601f168201915b5050505050905091509150915091565b600080600086604051610ffc91906132f7565b908152602001604051809103902090506110a281600301805461101e90613164565b80601f016020809104026020016040519081016040528092919081815260200182805461104a90613164565b80156110975780601f1061106c57610100808354040283529160200191611097565b820191906000526020600020905b81548152906001019060200180831161107a57829003601f168201915b505050505086612275565b156112ff5761114c8160040180546110b990613164565b80601f01602080910402602001604051908101604052809291908181526020018280546110e590613164565b80156111325780601f1061110757610100808354040283529160200191611132565b820191906000526020600020905b81548152906001019060200180831161111557829003601f168201915b505050505060405180602001604052806000815250612275565b156112fe5760038460405161116191906132f7565b908152602001604051809103902060050160009054906101000a900460ff16156112fd578381600401908161119691906134a5565b50600181600501819055506003846040516111b191906132f7565b9081526020016040518091039020600401869080600181540180825580915050600190039060005260206000200160009091909190915090816111f491906134a5565b506111fd6123ea565b428160000181815250506040518060400160405280601081526020017f536f6c6420746f20437573746f6d6572000000000000000000000000000000008152508160200181905250846040516020016112569190613793565b6040516020818303038152906040528160400181905250838160600181905250816006018190806001815401808255809150506001900390600052602060002090600402016000909190919091506000820151816000015560208201518160010190816112c391906134a5565b5060408201518160020190816112d991906134a5565b5060608201518160030190816112ef91906134a5565b505050600192505050611305565b5b5b60009150505b949350505050565b600060038560405161131f91906132f7565b908152602001604051809103902060050160009054906101000a900460ff161561134c576000905061143d565b6113546124d4565b84816000018190525083816060018190525082816040018190525060018160a00190151590811515815250508060038760405161139191906132f7565b908152602001604051809103902060008201518160000190816113b491906134a5565b5060208201518160010190816113ca91906134a5565b5060408201518160020190816113e091906134a5565b5060608201518160030190816113f691906134a5565b50608082015181600401908051906020019061141392919061250c565b5060a08201518160050160006101000a81548160ff02191690831515021790555090505060019150505b949350505050565b600061144f6124b3565b8381600001819052508281604001819052508060028660405161147291906132f7565b9081526020016040518091039020600082015181600001908161149591906134a5565b5060208201518160010190816114ab91906134a5565b5060408201518160020190816114c191906134a5565b5090505060019150509392505050565b60608060606003846040516114e691906132f7565b908152602001604051809103902060000160038560405161150791906132f7565b908152602001604051809103902060020160038660405161152891906132f7565b908152602001604051809103902060030182805461154590613164565b80601f016020809104026020016040519081016040528092919081815260200182805461157190613164565b80156115be5780601f10611593576101008083540402835291602001916115be565b820191906000526020600020905b8154815290600101906020018083116115a157829003601f168201915b505050505092508180546115d190613164565b80601f01602080910402602001604051908101604052809291908181526020018280546115fd90613164565b801561164a5780601f1061161f5761010080835404028352916020019161164a565b820191906000526020600020905b81548152906001019060200180831161162d57829003601f168201915b5050505050915080805461165d90613164565b80601f016020809104026020016040519081016040528092919081815260200182805461168990613164565b80156116d65780601f106116ab576101008083540402835291602001916116d6565b820191906000526020600020905b8154815290600101906020018083116116b957829003601f168201915b505050505090509250925092509193909250565b60606003826040516116fc91906132f7565b9081526020016040518091039020600401805480602002602001604051908101604052809291908181526020016000905b828210156117d957838290600052602060002001805461174c90613164565b80601f016020809104026020016040519081016040528092919081815260200182805461177890613164565b80156117c55780601f1061179a576101008083540402835291602001916117c5565b820191906000526020600020905b8154815290600101906020018083116117a857829003601f168201915b50505050508152602001906001019061172d565b505050509050919050565b6000806000866040516117f791906132f7565b908152602001604051809103902090508481600301908161181891906134a5565b506118216123ea565b428160000181815250506040518060400160405280601181526020017f4d6f76656420746f2052657461696c65720000000000000000000000000000008152508160200181905250858560405160200161187c92919061384d565b6040516020818303038152906040528160400181905250838160600181905250816006018190806001815401808255809150506001900390600052602060002090600402016000909190919091506000820151816000015560208201518160010190816118e991906134a5565b5060408201518160020190816118ff91906134a5565b50606082015181600301908161191591906134a5565b505050600192505050949350505050565b60608060608060608060008760405161193f91906132f7565b908152602001604051809103902060000160008860405161196091906132f7565b908152602001604051809103902060010160008960405161198191906132f7565b908152602001604051809103902060020160008a6040516119a291906132f7565b908152602001604051809103902060030160008b6040516119c391906132f7565b908152602001604051809103902060040160008c6040516119e491906132f7565b9081526020016040518091039020600601858054611a0190613164565b80601f0160208091040260200160405190810160405280929190818152602001828054611a2d90613164565b8015611a7a5780601f10611a4f57610100808354040283529160200191611a7a565b820191906000526020600020905b815481529060010190602001808311611a5d57829003601f168201915b50505050509550848054611a8d90613164565b80601f0160208091040260200160405190810160405280929190818152602001828054611ab990613164565b8015611b065780601f10611adb57610100808354040283529160200191611b06565b820191906000526020600020905b815481529060010190602001808311611ae957829003601f168201915b50505050509450838054611b1990613164565b80601f0160208091040260200160405190810160405280929190818152602001828054611b4590613164565b8015611b925780601f10611b6757610100808354040283529160200191611b92565b820191906000526020600020905b815481529060010190602001808311611b7557829003601f168201915b50505050509350828054611ba590613164565b80601f0160208091040260200160405190810160405280929190818152602001828054611bd190613164565b8015611c1e5780601f10611bf357610100808354040283529160200191611c1e565b820191906000526020600020905b815481529060010190602001808311611c0157829003601f168201915b50505050509250818054611c3190613164565b80601f0160208091040260200160405190810160405280929190818152602001828054611c5d90613164565b8015611caa5780601f10611c7f57610100808354040283529160200191611caa565b820191906000526020600020905b815481529060010190602001808311611c8d57829003601f168201915b5050505050915080805480602002602001604051908101604052809291908181526020016000905b82821015611ec4578382906000526020600020906004020160405180608001604052908160008201548152602001600182018054611d0f90613164565b80601f0160208091040260200160405190810160405280929190818152602001828054611d3b90613164565b8015611d885780601f10611d5d57610100808354040283529160200191611d88565b820191906000526020600020905b815481529060010190602001808311611d6b57829003601f168201915b50505050508152602001600282018054611da190613164565b80601f0160208091040260200160405190810160405280929190818152602001828054611dcd90613164565b8015611e1a5780601f10611def57610100808354040283529160200191611e1a565b820191906000526020600020905b815481529060010190602001808311611dfd57829003601f168201915b50505050508152602001600382018054611e3390613164565b80601f0160208091040260200160405190810160405280929190818152602001828054611e5f90613164565b8015611eac5780601f10611e8157610100808354040283529160200191611eac565b820191906000526020600020905b815481529060010190602001808311611e8f57829003601f168201915b50505050508152505081526020019060010190611cd2565b50505050905095509550955095509550955091939550919395565b600080600086604051611ef291906132f7565b908152602001604051809103902090506000600386604051611f1491906132f7565b908152602001604051809103902090506000600386604051611f3691906132f7565b9081526020016040518091039020905060018360050154148015611f6857508160050160009054906101000a900460ff165b8015611f8257508060050160009054906101000a900460ff165b156122655760005b82600401805490508110156122635761204b836004018281548110611fb257611fb1613106565b5b906000526020600020018054611fc790613164565b80601f0160208091040260200160405190810160405280929190818152602001828054611ff390613164565b80156120405780601f1061201557610100808354040283529160200191612040565b820191906000526020600020905b81548152906001019060200180831161202357829003601f168201915b50505050508a612275565b15612250576120e684600401805461206290613164565b80601f016020809104026020016040519081016040528092919081815260200182805461208e90613164565b80156120db5780601f106120b0576101008083540402835291602001916120db565b820191906000526020600020905b8154815290600101906020018083116120be57829003601f168201915b505050505089612275565b156120fe57868460040190816120fc91906134a5565b505b6121066123ea565b428160000181815250506040518060400160405280601081526020017f4368616e67656420437573746f6d6572000000000000000000000000000000008152508160200181905250888860405160200161216192919061391f565b6040516020818303038152906040528160400181905250868160600181905250846006018190806001815401808255809150506001900390600052602060002090600402016000909190919091506000820151816000015560208201518160010190816121ce91906134a5565b5060408201518160020190816121e491906134a5565b5060608201518160030190816121fa91906134a5565b50505061220a82856004016122ce565b50826004018a90806001815401808255809150506001900390600052602060002001600090919091909150908161224191906134a5565b5060019550505050505061226d565b808061225b9061327e565b915050611f8a565b505b600093505050505b949350505050565b60008160405160200161228891906132f7565b60405160208183030381529060405280519060200120836040516020016122af91906132f7565b6040516020818303038152906040528051906020012014905092915050565b6000818054905083106122e457600090506123a7565b60008390505b600183805490506122fb9190613959565b8110156123685782600182612310919061398d565b8154811061232157612320613106565b5b9060005260206000200183828154811061233e5761233d613106565b5b90600052602060002001908161235491906139ec565b5080806123609061327e565b9150506122ea565b50816001838054905061237b9190613959565b8154811061238c5761238b613106565b5b9060005260206000200160006123a29190612565565b600190505b92915050565b6040518060e00160405280606081526020016060815260200160608152602001606081526020016060815260200160008152602001606081525090565b6040518060800160405280600081526020016060815260200160608152602001606081525090565b8280548282559060005260206000209060040281019282156124a25760005260206000209160040282015b828111156124a15782826000820154816000015560018201816001019081612465919061365f565b506002820181600201908161247a919061365f565b506003820181600301908161248f919061365f565b5050509160040191906004019061243d565b5b5090506124af91906125a5565b5090565b60405180606001604052806060815260200160608152602001606081525090565b6040518060c0016040528060608152602001606081526020016060815260200160608152602001606081526020016000151581525090565b828054828255906000526020600020908101928215612554579160200282015b8281111561255357825182908161254391906134a5565b509160200191906001019061252c565b5b50905061256191906125f4565b5090565b50805461257190613164565b6000825580601f1061258357506125a2565b601f0160209004906000526020600020908101906125a19190612618565b5b50565b5b808211156125f0576000808201600090556001820160006125c79190612565565b6002820160006125d79190612565565b6003820160006125e79190612565565b506004016125a6565b5090565b5b80821115612614576000818161260b9190612565565b506001016125f5565b5090565b5b80821115612631576000816000905550600101612619565b5090565b600081519050919050565b600082825260208201905092915050565b6000819050602082019050919050565b600081519050919050565b600082825260208201905092915050565b60005b8381101561269b578082015181840152602081019050612680565b60008484015250505050565b6000601f19601f8301169050919050565b60006126c382612661565b6126cd818561266c565b93506126dd81856020860161267d565b6126e6816126a7565b840191505092915050565b6000819050919050565b612704816126f1565b82525050565b600081519050919050565b600082825260208201905092915050565b6000819050602082019050919050565b600060808301600083015161274e60008601826126fb565b506020830151848203602086015261276682826126b8565b9150506040830151848203604086015261278082826126b8565b9150506060830151848203606086015261279a82826126b8565b9150508091505092915050565b60006127b38383612736565b905092915050565b6000602082019050919050565b60006127d38261270a565b6127dd8185612715565b9350836020820285016127ef85612726565b8060005b8581101561282b578484038952815161280c85826127a7565b9450612817836127bb565b925060208a019950506001810190506127f3565b50829750879550505050505092915050565b600060e083016000830151848203600086015261285a82826126b8565b9150506020830151848203602086015261287482826126b8565b9150506040830151848203604086015261288e82826126b8565b915050606083015184820360608601526128a882826126b8565b915050608083015184820360808601526128c282826126b8565b91505060a08301516128d760a08601826126fb565b5060c083015184820360c08601526128ef82826127c8565b9150508091505092915050565b6000612908838361283d565b905092915050565b6000602082019050919050565b600061292882612635565b6129328185612640565b93508360208202850161294485612651565b8060005b85811015612980578484038952815161296185826128fc565b945061296c83612910565b925060208a01995050600181019050612948565b50829750879550505050505092915050565b600081519050919050565b600082825260208201905092915050565b6000819050602082019050919050565b60006129ca83836126b8565b905092915050565b6000602082019050919050565b60006129ea82612992565b6129f4818561299d565b935083602082028501612a06856129ae565b8060005b85811015612a425784840389528151612a2385826129be565b9450612a2e836129d2565b925060208a01995050600181019050612a0a565b50829750879550505050505092915050565b60006040820190508181036000830152612a6e818561291d565b90508181036020830152612a8281846129df565b90509392505050565b6000604051905090565b600080fd5b600080fd5b600080fd5b600080fd5b7f4e487b7100000000000000000000000000000000000000000000000000000000600052604160045260246000fd5b612ae1826126a7565b810181811067ffffffffffffffff82111715612b0057612aff612aa9565b5b80604052505050565b6000612b13612a8b565b9050612b1f8282612ad8565b919050565b600067ffffffffffffffff821115612b3f57612b3e612aa9565b5b612b48826126a7565b9050602081019050919050565b82818337600083830152505050565b6000612b77612b7284612b24565b612b09565b905082815260208101848484011115612b9357612b92612aa4565b5b612b9e848285612b55565b509392505050565b600082601f830112612bbb57612bba612a9f565b5b8135612bcb848260208601612b64565b91505092915050565b600060208284031215612bea57612be9612a95565b5b600082013567ffffffffffffffff811115612c0857612c07612a9a565b5b612c1484828501612ba6565b91505092915050565b600082825260208201905092915050565b6000612c3982612661565b612c438185612c1d565b9350612c5381856020860161267d565b612c5c816126a7565b840191505092915050565b60006040820190508181036000830152612c818185612c2e565b90508181036020830152612c958184612c2e565b90509392505050565b60008060008060008060c08789031215612cbb57612cba612a95565b5b600087013567ffffffffffffffff811115612cd957612cd8612a9a565b5b612ce589828a01612ba6565b965050602087013567ffffffffffffffff811115612d0657612d05612a9a565b5b612d1289828a01612ba6565b955050604087013567ffffffffffffffff811115612d3357612d32612a9a565b5b612d3f89828a01612ba6565b945050606087013567ffffffffffffffff811115612d6057612d5f612a9a565b5b612d6c89828a01612ba6565b935050608087013567ffffffffffffffff811115612d8d57612d8c612a9a565b5b612d9989828a01612ba6565b92505060a087013567ffffffffffffffff811115612dba57612db9612a9a565b5b612dc689828a01612ba6565b9150509295509295509295565b60008115159050919050565b612de881612dd3565b82525050565b6000602082019050612e036000830184612ddf565b92915050565b600080600060608486031215612e2257612e21612a95565b5b600084013567ffffffffffffffff811115612e4057612e3f612a9a565b5b612e4c86828701612ba6565b935050602084013567ffffffffffffffff811115612e6d57612e6c612a9a565b5b612e7986828701612ba6565b925050604084013567ffffffffffffffff811115612e9a57612e99612a9a565b5b612ea686828701612ba6565b9150509250925092565b60008060008060808587031215612eca57612ec9612a95565b5b600085013567ffffffffffffffff811115612ee857612ee7612a9a565b5b612ef487828801612ba6565b945050602085013567ffffffffffffffff811115612f1557612f14612a9a565b5b612f2187828801612ba6565b935050604085013567ffffffffffffffff811115612f4257612f41612a9a565b5b612f4e87828801612ba6565b925050606085013567ffffffffffffffff811115612f6f57612f6e612a9a565b5b612f7b87828801612ba6565b91505092959194509250565b60006060820190508181036000830152612fa18186612c2e565b90508181036020830152612fb58185612c2e565b90508181036040830152612fc98184612c2e565b9050949350505050565b60006020820190508181036000830152612fed81846129df565b905092915050565b600082825260208201905092915050565b60006130118261270a565b61301b8185612ff5565b93508360208202850161302d85612726565b8060005b85811015613069578484038952815161304a85826127a7565b9450613055836127bb565b925060208a01995050600181019050613031565b50829750879550505050505092915050565b600060c08201905081810360008301526130958189612c2e565b905081810360208301526130a98188612c2e565b905081810360408301526130bd8187612c2e565b905081810360608301526130d18186612c2e565b905081810360808301526130e58185612c2e565b905081810360a08301526130f98184613006565b9050979650505050505050565b7f4e487b7100000000000000000000000000000000000000000000000000000000600052603260045260246000fd5b7f4e487b7100000000000000000000000000000000000000000000000000000000600052602260045260246000fd5b6000600282049050600182168061317c57607f821691505b60208210810361318f5761318e613135565b5b50919050565b600081905092915050565b60008190508160005260206000209050919050565b600081546131c281613164565b6131cc8186613195565b945060018216600081146131e757600181146131fc5761322f565b60ff198316865281151582028601935061322f565b613205856131a0565b60005b8381101561322757815481890152600182019150602081019050613208565b838801955050505b50505092915050565b600061324482846131b5565b915081905092915050565b7f4e487b7100000000000000000000000000000000000000000000000000000000600052601160045260246000fd5b6000613289826126f1565b91507fffffffffffffffffffffffffffffffffffffffffffffffffffffffffffffffff82036132bb576132ba61324f565b5b600182019050919050565b60006132d182612661565b6132db8185613195565b93506132eb81856020860161267d565b80840191505092915050565b600061330382846132c6565b915081905092915050565b60006020601f8301049050919050565b600082821b905092915050565b60006008830261335b7fffffffffffffffffffffffffffffffffffffffffffffffffffffffffffffffff8261331e565b613365868361331e565b95508019841693508086168417925050509392505050565b6000819050919050565b60006133a261339d613398846126f1565b61337d565b6126f1565b9050919050565b6000819050919050565b6133bc83613387565b6133d06133c8826133a9565b84845461332b565b825550505050565b600090565b6133e56133d8565b6133f08184846133b3565b505050565b5b81811015613414576134096000826133dd565b6001810190506133f6565b5050565b601f8211156134595761342a816131a0565b6134338461330e565b81016020851015613442578190505b61345661344e8561330e565b8301826133f5565b50505b505050565b600082821c905092915050565b600061347c6000198460080261345e565b1980831691505092915050565b6000613495838361346b565b9150826002028217905092915050565b6134ae82612661565b67ffffffffffffffff8111156134c7576134c6612aa9565b5b6134d18254613164565b6134dc828285613418565b600060209050601f83116001811461350f57600084156134fd578287015190505b6135078582613489565b86555061356f565b601f19841661351d866131a0565b60005b8281101561354557848901518255600182019150602085019450602081019050613520565b86831015613562578489015161355e601f89168261346b565b8355505b6001600288020188555050505b505050505050565b7f4d616e75666163746f727920456d61696c3a2000000000000000000000000000600082015250565b60006135ad601383613195565b91506135b882613577565b601382019050919050565b7f2c204d616e75666163746f7279204c6f636174696f6e3a200000000000000000600082015250565b60006135f9601883613195565b9150613604826135c3565b601882019050919050565b600061361a826135a0565b915061362682856132c6565b9150613631826135ec565b915061363d82846132c6565b91508190509392505050565b60008154905061365881613164565b9050919050565b81810361366d575050613745565b61367682613649565b67ffffffffffffffff81111561368f5761368e612aa9565b5b6136998254613164565b6136a4828285613418565b6000601f8311600181146136d357600084156136c1578287015490505b6136cb8582613489565b86555061373e565b601f1984166136e1876131a0565b96506136ec866131a0565b60005b82811015613714578489015482556001820191506001850194506020810190506136ef565b86831015613731578489015461372d601f89168261346b565b8355505b6001600288020188555050505b5050505050505b565b7f437573746f6d657220456d61696c3a2000000000000000000000000000000000600082015250565b600061377d601083613195565b915061378882613747565b601082019050919050565b600061379e82613770565b91506137aa82846132c6565b915081905092915050565b7f52657461696c20456d61696c3a20000000000000000000000000000000000000600082015250565b60006137eb600e83613195565b91506137f6826137b5565b600e82019050919050565b7f2c2052657461696c204c6f636174696f6e3a2000000000000000000000000000600082015250565b6000613837601383613195565b915061384282613801565b601382019050919050565b6000613858826137de565b915061386482856132c6565b915061386f8261382a565b915061387b82846132c6565b91508190509392505050565b7f4f6c6420437573746f6d65723a20000000000000000000000000000000000000600082015250565b60006138bd600e83613195565b91506138c882613887565b600e82019050919050565b7f2c204e657720437573746f6d65723a2000000000000000000000000000000000600082015250565b6000613909601083613195565b9150613914826138d3565b601082019050919050565b600061392a826138b0565b915061393682856132c6565b9150613941826138fc565b915061394d82846132c6565b91508190509392505050565b6000613964826126f1565b915061396f836126f1565b92508282039050818111156139875761398661324f565b5b92915050565b6000613998826126f1565b91506139a3836126f1565b92508282019050808211156139bb576139ba61324f565b5b92915050565b6000815490506139d081613164565b9050919050565b60008190508160005260206000209050919050565b8181036139fa575050613ad2565b613a03826139c1565b67ffffffffffffffff811115613a1c57613a1b612aa9565b5b613a268254613164565b613a31828285613418565b6000601f831160018114613a605760008415613a4e578287015490505b613a588582613489565b865550613acb565b601f198416613a6e876139d7565b9650613a79866131a0565b60005b82811015613aa157848901548255600182019150600185019450602081019050613a7c565b86831015613abe5784890154613aba601f89168261346b565b8355505b6001600288020188555050505b5050505050505b56fea264697066735822122047f9e5d29ac8dc175cd59748423106a285a0ef52c1049e7ec9f0919b61fc84c564736f6c63430008130033",
  "linkReferences": {},
  "deployedLinkReferences": {}
}