{
  "_format": "hh-sol-artifact-1",
  "contractName": "FPIS",
  "sourceName": "contracts/fpis.sol",
  "abi": [
    {
      "inputs": [
        {
          "internalType": "string",
          "name": "_productID",
          "type": "string"
        },
        {
          "internalType": "string",
          "name": "_oldCustomerEmail",
          "type": "string"
        },
        {
          "internalType": "string",
          "name": "_newCustomerEmail",
          "type": "string"
        }
      ],
      "name": "changeCustomer",
      "outputs": [
        {
          "internalType": "bool",
          "name": "",
          "type": "bool"
        }
      ],
      "stateMutability": "payable",
      "type": "function"
    },
    {
      "inputs": [
        {
          "internalType": "string",
          "name": "_customerEmail",
          "type": "string"
        },
        {
          "internalType": "string",
          "name": "_name",
          "type": "string"
        },
        {
          "internalType": "string",
          "name": "_location",
          "type": "string"
        },
        {
          "internalType": "string",
          "name": "_phone_number",
          "type": "string"
        }
      ],
      "name": "createCustomer",
      "outputs": [
        {
          "internalType": "bool",
          "name": "",
          "type": "bool"
        }
      ],
      "stateMutability": "payable",
      "type": "function"
    },
    {
      "inputs": [
        {
          "internalType": "string",
          "name": "_manufactorEmail",
          "type": "string"
        },
        {
          "internalType": "string",
          "name": "_manufactorName",
          "type": "string"
        },
        {
          "internalType": "string",
          "name": "_manufactorLocation",
          "type": "string"
        }
      ],
      "name": "createManufactory",
      "outputs": [
        {
          "internalType": "bool",
          "name": "",
          "type": "bool"
        }
      ],
      "stateMutability": "payable",
      "type": "function"
    },
    {
      "inputs": [
        {
          "internalType": "string",
          "name": "_productID",
          "type": "string"
        },
        {
          "internalType": "string",
          "name": "_model",
          "type": "string"
        },
        {
          "internalType": "string",
          "name": "_description",
          "type": "string"
        },
        {
          "internalType": "string",
          "name": "_manufactoryEmail",
          "type": "string"
        }
      ],
      "name": "createProduct",
      "outputs": [
        {
          "internalType": "bool",
          "name": "",
          "type": "bool"
        }
      ],
      "stateMutability": "payable",
      "type": "function"
    },
    {
      "inputs": [
        {
          "internalType": "string",
          "name": "_retailerEmail",
          "type": "string"
        },
        {
          "internalType": "string",
          "name": "_retailerName",
          "type": "string"
        },
        {
          "internalType": "string",
          "name": "_retailerLocation",
          "type": "string"
        }
      ],
      "name": "createRetailer",
      "outputs": [
        {
          "internalType": "bool",
          "name": "",
          "type": "bool"
        }
      ],
      "stateMutability": "payable",
      "type": "function"
    },
    {
      "inputs": [
        {
          "internalType": "string",
          "name": "_customerEmail",
          "type": "string"
        }
      ],
      "name": "getCustomerDetail",
      "outputs": [
        {
          "internalType": "string",
          "name": "",
          "type": "string"
        },
        {
          "internalType": "string",
          "name": "",
          "type": "string"
        },
        {
          "internalType": "string",
          "name": "",
          "type": "string"
        }
      ],
      "stateMutability": "view",
      "type": "function"
    },
    {
      "inputs": [
        {
          "internalType": "string",
          "name": "_manufactorEmail",
          "type": "string"
        }
      ],
      "name": "getManafactorDetail",
      "outputs": [
        {
          "internalType": "string",
          "name": "",
          "type": "string"
        },
        {
          "internalType": "string",
          "name": "",
          "type": "string"
        }
      ],
      "stateMutability": "view",
      "type": "function"
    },
    {
      "inputs": [
        {
          "internalType": "string",
          "name": "_productID",
          "type": "string"
        }
      ],
      "name": "getProductDetail",
      "outputs": [
        {
          "internalType": "string",
          "name": "",
          "type": "string"
        },
        {
          "internalType": "string",
          "name": "",
          "type": "string"
        },
        {
          "internalType": "string",
          "name": "",
          "type": "string"
        },
        {
          "internalType": "string",
          "name": "",
          "type": "string"
        }
      ],
      "stateMutability": "view",
      "type": "function"
    },
    {
      "inputs": [
        {
          "internalType": "string",
          "name": "_customerEmail",
          "type": "string"
        }
      ],
      "name": "getProductsByCustomer",
      "outputs": [
        {
          "internalType": "string[]",
          "name": "",
          "type": "string[]"
        }
      ],
      "stateMutability": "view",
      "type": "function"
    },
    {
      "inputs": [
        {
          "internalType": "string",
          "name": "_retailerEmail",
          "type": "string"
        }
      ],
      "name": "getRetailerDetail",
      "outputs": [
        {
          "internalType": "string",
          "name": "",
          "type": "string"
        },
        {
          "internalType": "string",
          "name": "",
          "type": "string"
        }
      ],
      "stateMutability": "view",
      "type": "function"
    },
    {
      "inputs": [
        {
          "internalType": "string",
          "name": "_productID",
          "type": "string"
        },
        {
          "internalType": "string",
          "name": "_retailerEmail",
          "type": "string"
        }
      ],
      "name": "moveToRetailer",
      "outputs": [
        {
          "internalType": "bool",
          "name": "",
          "type": "bool"
        }
      ],
      "stateMutability": "payable",
      "type": "function"
    },
    {
      "inputs": [
        {
          "internalType": "string",
          "name": "_productID",
          "type": "string"
        },
        {
          "internalType": "string",
          "name": "_retailerEmail",
          "type": "string"
        },
        {
          "internalType": "string",
          "name": "_customerEmail",
          "type": "string"
        }
      ],
      "name": "sellToFirstCustomer",
      "outputs": [
        {
          "internalType": "bool",
          "name": "",
          "type": "bool"
        }
      ],
      "stateMutability": "payable",
      "type": "function"
    }
  ],
  "bytecode": "0x608060405234801561001057600080fd5b50612ce7806100206000396000f3fe6080604052600436106100a75760003560e01c8063b5bd438b11610064578063b5bd438b146101e8578063bc26ec5314610218578063cc2306c914610257578063cee4a5e514610287578063eb51e3cd146102c4578063ee786260146102f4576100a7565b80630715b5f0146100ac57806321b35573146100dc5780633a7090c11461011a5780635a4005641461014a5780637c3851cd1461017a578063b51ca0af146101b8575b600080fd5b6100c660048036038101906100c19190612220565b610334565b6040516100d391906122e2565b60405180910390f35b3480156100e857600080fd5b5061010360048036038101906100fe91906122fd565b610f89565b6040516101119291906123c5565b60405180910390f35b610134600480360381019061012f91906123fc565b6110ef565b60405161014191906122e2565b60405180910390f35b610164600480360381019061015f9190612220565b61112a565b60405161017191906122e2565b60405180910390f35b34801561018657600080fd5b506101a1600480360381019061019c91906122fd565b6111b6565b6040516101af9291906123c5565b60405180910390f35b6101d260048036038101906101cd9190612474565b61131c565b6040516101df91906122e2565b60405180910390f35b61020260048036038101906101fd9190612220565b611454565b60405161020f91906122e2565b60405180910390f35b34801561022457600080fd5b5061023f600480360381019061023a91906122fd565b6114e0565b60405161024e9392919061254b565b60405180910390f35b610271600480360381019061026c9190612220565b6116f9565b60405161027e91906122e2565b60405180910390f35b34801561029357600080fd5b506102ae60048036038101906102a991906122fd565b6118a7565b6040516102bb91906126a3565b60405180910390f35b6102de60048036038101906102d99190612474565b6119a1565b6040516102eb91906122e2565b60405180910390f35b34801561030057600080fd5b5061031b600480360381019061031691906122fd565b611a6d565b60405161032b94939291906126c5565b60405180910390f35b6000610341848484611d36565b600080856040516103529190612762565b90815260200160405180910390206040518060c001604052908160008201805461037b906127a8565b80601f01602080910402602001604051908101604052809291908181526020018280546103a7906127a8565b80156103f45780601f106103c9576101008083540402835291602001916103f4565b820191906000526020600020905b8154815290600101906020018083116103d757829003601f168201915b5050505050815260200160018201805461040d906127a8565b80601f0160208091040260200160405190810160405280929190818152602001828054610439906127a8565b80156104865780601f1061045b57610100808354040283529160200191610486565b820191906000526020600020905b81548152906001019060200180831161046957829003601f168201915b5050505050815260200160028201805461049f906127a8565b80601f01602080910402602001604051908101604052809291908181526020018280546104cb906127a8565b80156105185780601f106104ed57610100808354040283529160200191610518565b820191906000526020600020905b8154815290600101906020018083116104fb57829003601f168201915b50505050508152602001600382018054610531906127a8565b80601f016020809104026020016040519081016040528092919081815260200182805461055d906127a8565b80156105aa5780601f1061057f576101008083540402835291602001916105aa565b820191906000526020600020905b81548152906001019060200180831161058d57829003601f168201915b505050505081526020016004820180546105c3906127a8565b80601f01602080910402602001604051908101604052809291908181526020018280546105ef906127a8565b801561063c5780601f106106115761010080835404028352916020019161063c565b820191906000526020600020905b81548152906001019060200180831161061f57829003601f168201915b50505050508152602001600582015481525050905060006003856040516106639190612762565b90815260200160405180910390206040518060c001604052908160008201805461068c906127a8565b80601f01602080910402602001604051908101604052809291908181526020018280546106b8906127a8565b80156107055780601f106106da57610100808354040283529160200191610705565b820191906000526020600020905b8154815290600101906020018083116106e857829003601f168201915b5050505050815260200160018201805461071e906127a8565b80601f016020809104026020016040519081016040528092919081815260200182805461074a906127a8565b80156107975780601f1061076c57610100808354040283529160200191610797565b820191906000526020600020905b81548152906001019060200180831161077a57829003601f168201915b505050505081526020016002820180546107b0906127a8565b80601f01602080910402602001604051908101604052809291908181526020018280546107dc906127a8565b80156108295780601f106107fe57610100808354040283529160200191610829565b820191906000526020600020905b81548152906001019060200180831161080c57829003601f168201915b50505050508152602001600382018054610842906127a8565b80601f016020809104026020016040519081016040528092919081815260200182805461086e906127a8565b80156108bb5780601f10610890576101008083540402835291602001916108bb565b820191906000526020600020905b81548152906001019060200180831161089e57829003601f168201915b5050505050815260200160048201805480602002602001604051908101604052809291908181526020016000905b82821015610995578382906000526020600020018054610908906127a8565b80601f0160208091040260200160405190810160405280929190818152602001828054610934906127a8565b80156109815780601f1061095657610100808354040283529160200191610981565b820191906000526020600020905b81548152906001019060200180831161096457829003601f168201915b5050505050815260200190600101906108e9565b5050505081526020016005820160009054906101000a900460ff161515151581525050905060006003866040516109cc9190612762565b908152602001604051809103902060040180549050905060006003866040516109f59190612762565b90815260200160405180910390206040518060c0016040529081600082018054610a1e906127a8565b80601f0160208091040260200160405190810160405280929190818152602001828054610a4a906127a8565b8015610a975780601f10610a6c57610100808354040283529160200191610a97565b820191906000526020600020905b815481529060010190602001808311610a7a57829003601f168201915b50505050508152602001600182018054610ab0906127a8565b80601f0160208091040260200160405190810160405280929190818152602001828054610adc906127a8565b8015610b295780601f10610afe57610100808354040283529160200191610b29565b820191906000526020600020905b815481529060010190602001808311610b0c57829003601f168201915b50505050508152602001600282018054610b42906127a8565b80601f0160208091040260200160405190810160405280929190818152602001828054610b6e906127a8565b8015610bbb5780601f10610b9057610100808354040283529160200191610bbb565b820191906000526020600020905b815481529060010190602001808311610b9e57829003601f168201915b50505050508152602001600382018054610bd4906127a8565b80601f0160208091040260200160405190810160405280929190818152602001828054610c00906127a8565b8015610c4d5780601f10610c2257610100808354040283529160200191610c4d565b820191906000526020600020905b815481529060010190602001808311610c3057829003601f168201915b5050505050815260200160048201805480602002602001604051908101604052809291908181526020016000905b82821015610d27578382906000526020600020018054610c9a906127a8565b80601f0160208091040260200160405190810160405280929190818152602001828054610cc6906127a8565b8015610d135780601f10610ce857610100808354040283529160200191610d13565b820191906000526020600020905b815481529060010190602001808311610cf657829003601f168201915b505050505081526020019060010190610c7b565b5050505081526020016005820160009054906101000a900460ff16151515158152505090508260a001518015610d5e57508060a001515b15610f795760005b82811015610f7757610d9684608001518281518110610d8857610d876127d9565b5b60200260200101518a611dd5565b15610f6457610da9856080015189611dd5565b15610dde578660008a604051610dbf9190612762565b90815260200160405180910390206004019081610ddc91906129be565b505b60005b83811015610f5e57610eb860038a604051610dfc9190612762565b90815260200160405180910390206004018281548110610e1f57610e1e6127d9565b5b906000526020600020018054610e34906127a8565b80601f0160208091040260200160405190810160405280929190818152602001828054610e60906127a8565b8015610ead5780601f10610e8257610100808354040283529160200191610ead565b820191906000526020600020905b815481529060010190602001808311610e9057829003601f168201915b50505050508b611dd5565b15610f4b57610ee78160038b604051610ed19190612762565b9081526020016040518091039020600401611e2e565b50600388604051610ef89190612762565b90815260200160405180910390206004018a908060018154018082558091505060019003906000526020600020016000909190919091509081610f3b91906129be565b5060019650505050505050610f82565b8080610f5690612abf565b915050610de1565b50610f77565b8080610f6f90612abf565b915050610d66565b505b60009450505050505b9392505050565b606080600283604051610f9c9190612762565b9081526020016040518091039020600001600284604051610fbd9190612762565b9081526020016040518091039020600201818054610fda906127a8565b80601f0160208091040260200160405190810160405280929190818152602001828054611006906127a8565b80156110535780601f1061102857610100808354040283529160200191611053565b820191906000526020600020905b81548152906001019060200180831161103657829003601f168201915b50505050509150808054611066906127a8565b80601f0160208091040260200160405190810160405280929190818152602001828054611092906127a8565b80156110df5780601f106110b4576101008083540402835291602001916110df565b820191906000526020600020905b8154815290600101906020018083116110c257829003601f168201915b5050505050905091509150915091565b6000816000846040516111029190612762565b9081526020016040518091039020600301908161111f91906129be565b506001905092915050565b6000611134611f53565b838160000181905250828160400181905250806002866040516111579190612762565b9081526020016040518091039020600082015181600001908161117a91906129be565b50602082015181600101908161119091906129be565b5060408201518160020190816111a691906129be565b5090505060019150509392505050565b6060806002836040516111c99190612762565b90815260200160405180910390206000016002846040516111ea9190612762565b9081526020016040518091039020600201818054611207906127a8565b80601f0160208091040260200160405190810160405280929190818152602001828054611233906127a8565b80156112805780601f1061125557610100808354040283529160200191611280565b820191906000526020600020905b81548152906001019060200180831161126357829003601f168201915b50505050509150808054611293906127a8565b80601f01602080910402602001604051908101604052809291908181526020018280546112bf906127a8565b801561130c5780601f106112e15761010080835404028352916020019161130c565b820191906000526020600020905b8154815290600101906020018083116112ef57829003601f168201915b5050505050905091509150915091565b600060038560405161132e9190612762565b908152602001604051809103902060050160009054906101000a900460ff161561135b576000905061144c565b611363611f74565b84816000018190525083816060018190525082816040018190525060018160a0019015159081151581525050806003876040516113a09190612762565b908152602001604051809103902060008201518160000190816113c391906129be565b5060208201518160010190816113d991906129be565b5060408201518160020190816113ef91906129be565b50606082015181600301908161140591906129be565b506080820151816004019080519060200190611422929190611fac565b5060a08201518160050160006101000a81548160ff02191690831515021790555090505060019150505b949350505050565b600061145e611f53565b838160000181905250828160400181905250806002866040516114819190612762565b908152602001604051809103902060008201518160000190816114a491906129be565b5060208201518160010190816114ba91906129be565b5060408201518160020190816114d091906129be565b5090505060019150509392505050565b60608060606003846040516114f59190612762565b90815260200160405180910390206000016003856040516115169190612762565b90815260200160405180910390206002016003866040516115379190612762565b9081526020016040518091039020600301828054611554906127a8565b80601f0160208091040260200160405190810160405280929190818152602001828054611580906127a8565b80156115cd5780601f106115a2576101008083540402835291602001916115cd565b820191906000526020600020905b8154815290600101906020018083116115b057829003601f168201915b505050505092508180546115e0906127a8565b80601f016020809104026020016040519081016040528092919081815260200182805461160c906127a8565b80156116595780601f1061162e57610100808354040283529160200191611659565b820191906000526020600020905b81548152906001019060200180831161163c57829003601f168201915b5050505050915080805461166c906127a8565b80601f0160208091040260200160405190810160405280929190818152602001828054611698906127a8565b80156116e55780601f106116ba576101008083540402835291602001916116e5565b820191906000526020600020905b8154815290600101906020018083116116c857829003601f168201915b505050505090509250925092509193909250565b60006117ae60008560405161170e9190612762565b9081526020016040518091039020600301805461172a906127a8565b80601f0160208091040260200160405190810160405280929190818152602001828054611756906127a8565b80156117a35780601f10611778576101008083540402835291602001916117a3565b820191906000526020600020905b81548152906001019060200180831161178657829003601f168201915b505050505084611dd5565b1561189b576003826040516117c39190612762565b908152602001604051809103902060050160009054906101000a900460ff161561189a57816000856040516117f89190612762565b9081526020016040518091039020600401908161181591906129be565b5060016000856040516118289190612762565b90815260200160405180910390206005018190555060038260405161184d9190612762565b90815260200160405180910390206004018490806001815401808255809150506001900390600052602060002001600090919091909150908161189091906129be565b50600190506118a0565b5b600090505b9392505050565b60606003826040516118b99190612762565b9081526020016040518091039020600401805480602002602001604051908101604052809291908181526020016000905b82821015611996578382906000526020600020018054611909906127a8565b80601f0160208091040260200160405190810160405280929190818152602001828054611935906127a8565b80156119825780601f1061195757610100808354040283529160200191611982565b820191906000526020600020905b81548152906001019060200180831161196557829003601f168201915b5050505050815260200190600101906118ea565b505050509050919050565b60006119ab612005565b848160000181905250838160200181905250828160400181905250806000876040516119d79190612762565b908152602001604051809103902060008201518160000190816119fa91906129be565b506020820151816001019081611a1091906129be565b506040820151816002019081611a2691906129be565b506060820151816003019081611a3c91906129be565b506080820151816004019081611a5291906129be565b5060a082015181600501559050506001915050949350505050565b606080606080600085604051611a839190612762565b9081526020016040518091039020600001600086604051611aa49190612762565b9081526020016040518091039020600101600087604051611ac59190612762565b9081526020016040518091039020600301600088604051611ae69190612762565b9081526020016040518091039020600401838054611b03906127a8565b80601f0160208091040260200160405190810160405280929190818152602001828054611b2f906127a8565b8015611b7c5780601f10611b5157610100808354040283529160200191611b7c565b820191906000526020600020905b815481529060010190602001808311611b5f57829003601f168201915b50505050509350828054611b8f906127a8565b80601f0160208091040260200160405190810160405280929190818152602001828054611bbb906127a8565b8015611c085780601f10611bdd57610100808354040283529160200191611c08565b820191906000526020600020905b815481529060010190602001808311611beb57829003601f168201915b50505050509250818054611c1b906127a8565b80601f0160208091040260200160405190810160405280929190818152602001828054611c47906127a8565b8015611c945780601f10611c6957610100808354040283529160200191611c94565b820191906000526020600020905b815481529060010190602001808311611c7757829003601f168201915b50505050509150808054611ca7906127a8565b80601f0160208091040260200160405190810160405280929190818152602001828054611cd3906127a8565b8015611d205780601f10611cf557610100808354040283529160200191611d20565b820191906000526020600020905b815481529060010190602001808311611d0357829003601f168201915b5050505050905093509350935093509193509193565b611dd0838383604051602401611d4e9392919061254b565b6040516020818303038152906040527f2ced7cef000000000000000000000000000000000000000000000000000000007bffffffffffffffffffffffffffffffffffffffffffffffffffffffff19166020820180517bffffffffffffffffffffffffffffffffffffffffffffffffffffffff8381831617835250505050611f0d565b505050565b600081604051602001611de89190612762565b6040516020818303038152906040528051906020012083604051602001611e0f9190612762565b6040516020818303038152906040528051906020012014905092915050565b600081805490508310611e445760009050611f07565b60008390505b60018380549050611e5b9190612b07565b811015611ec85782600182611e709190612b3b565b81548110611e8157611e806127d9565b5b90600052602060002001838281548110611e9e57611e9d6127d9565b5b906000526020600020019081611eb49190612b9a565b508080611ec090612abf565b915050611e4a565b508160018380549050611edb9190612b07565b81548110611eec57611eeb6127d9565b5b906000526020600020016000611f02919061203b565b600190505b92915050565b611f2481611f1c611f27611f48565b63ffffffff16565b50565b60006a636f6e736f6c652e6c6f679050600080835160208501845afa505050565b61207b819050919050565b60405180606001604052806060815260200160608152602001606081525090565b6040518060c0016040528060608152602001606081526020016060815260200160608152602001606081526020016000151581525090565b828054828255906000526020600020908101928215611ff4579160200282015b82811115611ff3578251829081611fe391906129be565b5091602001919060010190611fcc565b5b5090506120019190612085565b5090565b6040518060c001604052806060815260200160608152602001606081526020016060815260200160608152602001600081525090565b508054612047906127a8565b6000825580601f106120595750612078565b601f01602090049060005260206000209081019061207791906120a9565b5b50565b612083612c82565b565b5b808211156120a5576000818161209c919061203b565b50600101612086565b5090565b5b808211156120c25760008160009055506001016120aa565b5090565b6000604051905090565b600080fd5b600080fd5b600080fd5b600080fd5b6000601f19601f8301169050919050565b7f4e487b7100000000000000000000000000000000000000000000000000000000600052604160045260246000fd5b61212d826120e4565b810181811067ffffffffffffffff8211171561214c5761214b6120f5565b5b80604052505050565b600061215f6120c6565b905061216b8282612124565b919050565b600067ffffffffffffffff82111561218b5761218a6120f5565b5b612194826120e4565b9050602081019050919050565b82818337600083830152505050565b60006121c36121be84612170565b612155565b9050828152602081018484840111156121df576121de6120df565b5b6121ea8482856121a1565b509392505050565b600082601f830112612207576122066120da565b5b81356122178482602086016121b0565b91505092915050565b600080600060608486031215612239576122386120d0565b5b600084013567ffffffffffffffff811115612257576122566120d5565b5b612263868287016121f2565b935050602084013567ffffffffffffffff811115612284576122836120d5565b5b612290868287016121f2565b925050604084013567ffffffffffffffff8111156122b1576122b06120d5565b5b6122bd868287016121f2565b9150509250925092565b60008115159050919050565b6122dc816122c7565b82525050565b60006020820190506122f760008301846122d3565b92915050565b600060208284031215612313576123126120d0565b5b600082013567ffffffffffffffff811115612331576123306120d5565b5b61233d848285016121f2565b91505092915050565b600081519050919050565b600082825260208201905092915050565b60005b83811015612380578082015181840152602081019050612365565b60008484015250505050565b600061239782612346565b6123a18185612351565b93506123b1818560208601612362565b6123ba816120e4565b840191505092915050565b600060408201905081810360008301526123df818561238c565b905081810360208301526123f3818461238c565b90509392505050565b60008060408385031215612413576124126120d0565b5b600083013567ffffffffffffffff811115612431576124306120d5565b5b61243d858286016121f2565b925050602083013567ffffffffffffffff81111561245e5761245d6120d5565b5b61246a858286016121f2565b9150509250929050565b6000806000806080858703121561248e5761248d6120d0565b5b600085013567ffffffffffffffff8111156124ac576124ab6120d5565b5b6124b8878288016121f2565b945050602085013567ffffffffffffffff8111156124d9576124d86120d5565b5b6124e5878288016121f2565b935050604085013567ffffffffffffffff811115612506576125056120d5565b5b612512878288016121f2565b925050606085013567ffffffffffffffff811115612533576125326120d5565b5b61253f878288016121f2565b91505092959194509250565b60006060820190508181036000830152612565818661238c565b90508181036020830152612579818561238c565b9050818103604083015261258d818461238c565b9050949350505050565b600081519050919050565b600082825260208201905092915050565b6000819050602082019050919050565b600082825260208201905092915050565b60006125df82612346565b6125e981856125c3565b93506125f9818560208601612362565b612602816120e4565b840191505092915050565b600061261983836125d4565b905092915050565b6000602082019050919050565b600061263982612597565b61264381856125a2565b935083602082028501612655856125b3565b8060005b858110156126915784840389528151612672858261260d565b945061267d83612621565b925060208a01995050600181019050612659565b50829750879550505050505092915050565b600060208201905081810360008301526126bd818461262e565b905092915050565b600060808201905081810360008301526126df818761238c565b905081810360208301526126f3818661238c565b90508181036040830152612707818561238c565b9050818103606083015261271b818461238c565b905095945050505050565b600081905092915050565b600061273c82612346565b6127468185612726565b9350612756818560208601612362565b80840191505092915050565b600061276e8284612731565b915081905092915050565b7f4e487b7100000000000000000000000000000000000000000000000000000000600052602260045260246000fd5b600060028204905060018216806127c057607f821691505b6020821081036127d3576127d2612779565b5b50919050565b7f4e487b7100000000000000000000000000000000000000000000000000000000600052603260045260246000fd5b60008190508160005260206000209050919050565b60006020601f8301049050919050565b600082821b905092915050565b60006008830261286a7fffffffffffffffffffffffffffffffffffffffffffffffffffffffffffffffff8261282d565b612874868361282d565b95508019841693508086168417925050509392505050565b6000819050919050565b6000819050919050565b60006128bb6128b66128b18461288c565b612896565b61288c565b9050919050565b6000819050919050565b6128d5836128a0565b6128e96128e1826128c2565b84845461283a565b825550505050565b600090565b6128fe6128f1565b6129098184846128cc565b505050565b5b8181101561292d576129226000826128f6565b60018101905061290f565b5050565b601f8211156129725761294381612808565b61294c8461281d565b8101602085101561295b578190505b61296f6129678561281d565b83018261290e565b50505b505050565b600082821c905092915050565b600061299560001984600802612977565b1980831691505092915050565b60006129ae8383612984565b9150826002028217905092915050565b6129c782612346565b67ffffffffffffffff8111156129e0576129df6120f5565b5b6129ea82546127a8565b6129f5828285612931565b600060209050601f831160018114612a285760008415612a16578287015190505b612a2085826129a2565b865550612a88565b601f198416612a3686612808565b60005b82811015612a5e57848901518255600182019150602085019450602081019050612a39565b86831015612a7b5784890151612a77601f891682612984565b8355505b6001600288020188555050505b505050505050565b7f4e487b7100000000000000000000000000000000000000000000000000000000600052601160045260246000fd5b6000612aca8261288c565b91507fffffffffffffffffffffffffffffffffffffffffffffffffffffffffffffffff8203612afc57612afb612a90565b5b600182019050919050565b6000612b128261288c565b9150612b1d8361288c565b9250828203905081811115612b3557612b34612a90565b5b92915050565b6000612b468261288c565b9150612b518361288c565b9250828201905080821115612b6957612b68612a90565b5b92915050565b600081549050612b7e816127a8565b9050919050565b60008190508160005260206000209050919050565b818103612ba8575050612c80565b612bb182612b6f565b67ffffffffffffffff811115612bca57612bc96120f5565b5b612bd482546127a8565b612bdf828285612931565b6000601f831160018114612c0e5760008415612bfc578287015490505b612c0685826129a2565b865550612c79565b601f198416612c1c87612b85565b9650612c2786612808565b60005b82811015612c4f57848901548255600182019150600185019450602081019050612c2a565b86831015612c6c5784890154612c68601f891682612984565b8355505b6001600288020188555050505b5050505050505b565b7f4e487b7100000000000000000000000000000000000000000000000000000000600052605160045260246000fdfea26469706673582212207200c755a1d83f734f031651360c5d1c5b228c9958e4154e1f7d5712227dbd6264736f6c63430008130033",
  "linkReferences": {},
  "deployedLinkReferences": {}
}