{
  "_format": "hh-sol-artifact-1",
  "contractName": "FPIS",
  "sourceName": "contracts/fpis.sol",
  "abi": [
    {
      "inputs": [
        {
          "internalType": "string",
          "name": "_productID",
          "type": "string"
        },
        {
          "internalType": "string",
          "name": "_oldCustomerEmail",
          "type": "string"
        },
        {
          "internalType": "string",
          "name": "_newCustomerEmail",
          "type": "string"
        },
        {
          "internalType": "string",
          "name": "_changeDate",
          "type": "string"
        }
      ],
      "name": "changeCustomer",
      "outputs": [
        {
          "internalType": "bool",
          "name": "",
          "type": "bool"
        }
      ],
      "stateMutability": "payable",
      "type": "function"
    },
    {
      "inputs": [
        {
          "internalType": "string",
          "name": "_customerEmail",
          "type": "string"
        },
        {
          "internalType": "string",
          "name": "_name",
          "type": "string"
        },
        {
          "internalType": "string",
          "name": "_location",
          "type": "string"
        },
        {
          "internalType": "string",
          "name": "_phone_number",
          "type": "string"
        }
      ],
      "name": "createCustomer",
      "outputs": [
        {
          "internalType": "bool",
          "name": "",
          "type": "bool"
        }
      ],
      "stateMutability": "payable",
      "type": "function"
    },
    {
      "inputs": [
        {
          "internalType": "string",
          "name": "_manufactorEmail",
          "type": "string"
        },
        {
          "internalType": "string",
          "name": "_manufactorName",
          "type": "string"
        },
        {
          "internalType": "string",
          "name": "_manufactorLocation",
          "type": "string"
        }
      ],
      "name": "createManufactory",
      "outputs": [
        {
          "internalType": "bool",
          "name": "",
          "type": "bool"
        }
      ],
      "stateMutability": "payable",
      "type": "function"
    },
    {
      "inputs": [
        {
          "internalType": "string",
          "name": "_productID",
          "type": "string"
        },
        {
          "internalType": "string",
          "name": "_model",
          "type": "string"
        },
        {
          "internalType": "string",
          "name": "_description",
          "type": "string"
        },
        {
          "internalType": "string",
          "name": "_manufactoryEmail",
          "type": "string"
        },
        {
          "internalType": "string",
          "name": "_productionDate",
          "type": "string"
        },
        {
          "internalType": "string",
          "name": "_retailLocation",
          "type": "string"
        }
      ],
      "name": "createProduct",
      "outputs": [
        {
          "internalType": "bool",
          "name": "",
          "type": "bool"
        }
      ],
      "stateMutability": "payable",
      "type": "function"
    },
    {
      "inputs": [
        {
          "internalType": "string",
          "name": "_retailerEmail",
          "type": "string"
        },
        {
          "internalType": "string",
          "name": "_retailerName",
          "type": "string"
        },
        {
          "internalType": "string",
          "name": "_retailerLocation",
          "type": "string"
        }
      ],
      "name": "createRetailer",
      "outputs": [
        {
          "internalType": "bool",
          "name": "",
          "type": "bool"
        }
      ],
      "stateMutability": "payable",
      "type": "function"
    },
    {
      "inputs": [],
      "name": "getAllProducts",
      "outputs": [
        {
          "components": [
            {
              "internalType": "string",
              "name": "model",
              "type": "string"
            },
            {
              "internalType": "string",
              "name": "description",
              "type": "string"
            },
            {
              "internalType": "string",
              "name": "manufactoryEmail",
              "type": "string"
            },
            {
              "internalType": "string",
              "name": "retailerEmail",
              "type": "string"
            },
            {
              "internalType": "string",
              "name": "customerEmail",
              "type": "string"
            },
            {
              "internalType": "uint256",
              "name": "status",
              "type": "uint256"
            },
            {
              "components": [
                {
                  "internalType": "uint256",
                  "name": "timestamp",
                  "type": "uint256"
                },
                {
                  "internalType": "string",
                  "name": "action",
                  "type": "string"
                },
                {
                  "internalType": "string",
                  "name": "details",
                  "type": "string"
                }
              ],
              "internalType": "struct FPIS.HistoryItem[]",
              "name": "history",
              "type": "tuple[]"
            }
          ],
          "internalType": "struct FPIS.Product[]",
          "name": "",
          "type": "tuple[]"
        },
        {
          "internalType": "string[]",
          "name": "",
          "type": "string[]"
        }
      ],
      "stateMutability": "view",
      "type": "function"
    },
    {
      "inputs": [
        {
          "internalType": "string",
          "name": "_customerEmail",
          "type": "string"
        }
      ],
      "name": "getCustomerDetail",
      "outputs": [
        {
          "internalType": "string",
          "name": "",
          "type": "string"
        },
        {
          "internalType": "string",
          "name": "",
          "type": "string"
        },
        {
          "internalType": "string",
          "name": "",
          "type": "string"
        }
      ],
      "stateMutability": "view",
      "type": "function"
    },
    {
      "inputs": [
        {
          "internalType": "string",
          "name": "_manufactorEmail",
          "type": "string"
        }
      ],
      "name": "getManafactorDetail",
      "outputs": [
        {
          "internalType": "string",
          "name": "",
          "type": "string"
        },
        {
          "internalType": "string",
          "name": "",
          "type": "string"
        }
      ],
      "stateMutability": "view",
      "type": "function"
    },
    {
      "inputs": [
        {
          "internalType": "string",
          "name": "_productID",
          "type": "string"
        }
      ],
      "name": "getProductDetail",
      "outputs": [
        {
          "internalType": "string",
          "name": "",
          "type": "string"
        },
        {
          "internalType": "string",
          "name": "",
          "type": "string"
        },
        {
          "internalType": "string",
          "name": "",
          "type": "string"
        },
        {
          "internalType": "string",
          "name": "",
          "type": "string"
        },
        {
          "internalType": "string",
          "name": "",
          "type": "string"
        }
      ],
      "stateMutability": "view",
      "type": "function"
    },
    {
      "inputs": [
        {
          "internalType": "string",
          "name": "_customerEmail",
          "type": "string"
        }
      ],
      "name": "getProductsByCustomer",
      "outputs": [
        {
          "internalType": "string[]",
          "name": "",
          "type": "string[]"
        }
      ],
      "stateMutability": "view",
      "type": "function"
    },
    {
      "inputs": [
        {
          "internalType": "string",
          "name": "_retailerEmail",
          "type": "string"
        }
      ],
      "name": "getRetailerDetail",
      "outputs": [
        {
          "internalType": "string",
          "name": "",
          "type": "string"
        },
        {
          "internalType": "string",
          "name": "",
          "type": "string"
        }
      ],
      "stateMutability": "view",
      "type": "function"
    },
    {
      "inputs": [
        {
          "internalType": "string",
          "name": "_productID",
          "type": "string"
        },
        {
          "internalType": "string",
          "name": "_retailerEmail",
          "type": "string"
        },
        {
          "internalType": "string",
          "name": "_retailLocation",
          "type": "string"
        }
      ],
      "name": "moveToRetailer",
      "outputs": [
        {
          "internalType": "bool",
          "name": "",
          "type": "bool"
        }
      ],
      "stateMutability": "payable",
      "type": "function"
    },
    {
      "inputs": [
        {
          "internalType": "string",
          "name": "_productID",
          "type": "string"
        },
        {
          "internalType": "string",
          "name": "_retailerEmail",
          "type": "string"
        },
        {
          "internalType": "string",
          "name": "_customerEmail",
          "type": "string"
        },
        {
          "internalType": "string",
          "name": "_saleDate",
          "type": "string"
        }
      ],
      "name": "sellToFirstCustomer",
      "outputs": [
        {
          "internalType": "bool",
          "name": "",
          "type": "bool"
        }
      ],
      "stateMutability": "payable",
      "type": "function"
    }
  ],
  "bytecode": "0x608060405234801561001057600080fd5b50613742806100206000396000f3fe6080604052600436106100c25760003560e01c8063a70d06641161007f578063bc26ec5311610059578063bc26ec531461028f578063cee4a5e5146102ce578063ee7862601461030b578063f1ef413b1461034c576100c2565b8063a70d0664146101ff578063b51ca0af1461022f578063b5bd438b1461025f576100c2565b806302ee3a52146100c757806321b35573146100f357806355a53f06146101315780635a400564146101615780637c3851cd14610191578063a603efe1146101cf575b600080fd5b3480156100d357600080fd5b506100dc61037c565b6040516100ea9291906126c3565b60405180910390f35b3480156100ff57600080fd5b5061011a60048036038101906101159190612843565b6109b5565b6040516101289291906128d6565b60405180910390f35b61014b6004803603810190610146919061290d565b610b1b565b6040516101589190612a5d565b60405180910390f35b61017b60048036038101906101769190612a78565b610d45565b6040516101889190612a5d565b60405180910390f35b34801561019d57600080fd5b506101b860048036038101906101b39190612843565b610dd1565b6040516101c69291906128d6565b60405180910390f35b6101e960048036038101906101e49190612b1f565b610f37565b6040516101f69190612a5d565b60405180910390f35b61021960048036038101906102149190612a78565b61123e565b6040516102269190612a5d565b60405180910390f35b61024960048036038101906102449190612b1f565b61135e565b6040516102569190612a5d565b60405180910390f35b61027960048036038101906102749190612a78565b611496565b6040516102869190612a5d565b60405180910390f35b34801561029b57600080fd5b506102b660048036038101906102b19190612843565b611522565b6040516102c593929190612bf6565b60405180910390f35b3480156102da57600080fd5b506102f560048036038101906102f09190612843565b61173b565b6040516103029190612c42565b60405180910390f35b34801561031757600080fd5b50610332600480360381019061032d9190612843565b611835565b604051610343959493929190612c64565b60405180910390f35b61036660048036038101906103619190612b1f565b611bb1565b6040516103739190612a5d565b60405180910390f35b6060806000600480549050905060008167ffffffffffffffff8111156103a5576103a4612718565b5b6040519080825280602002602001820160405280156103de57816020015b6103cb612062565b8152602001906001900390816103c35790505b50905060005b828110156108d45760006004828154811061040257610401612cda565b5b906000526020600020016040516104199190612e0c565b90815260200160405180910390206040518060e001604052908160008201805461044290612d38565b80601f016020809104026020016040519081016040528092919081815260200182805461046e90612d38565b80156104bb5780601f10610490576101008083540402835291602001916104bb565b820191906000526020600020905b81548152906001019060200180831161049e57829003601f168201915b505050505081526020016001820180546104d490612d38565b80601f016020809104026020016040519081016040528092919081815260200182805461050090612d38565b801561054d5780601f106105225761010080835404028352916020019161054d565b820191906000526020600020905b81548152906001019060200180831161053057829003601f168201915b5050505050815260200160028201805461056690612d38565b80601f016020809104026020016040519081016040528092919081815260200182805461059290612d38565b80156105df5780601f106105b4576101008083540402835291602001916105df565b820191906000526020600020905b8154815290600101906020018083116105c257829003601f168201915b505050505081526020016003820180546105f890612d38565b80601f016020809104026020016040519081016040528092919081815260200182805461062490612d38565b80156106715780601f1061064657610100808354040283529160200191610671565b820191906000526020600020905b81548152906001019060200180831161065457829003601f168201915b5050505050815260200160048201805461068a90612d38565b80601f01602080910402602001604051908101604052809291908181526020018280546106b690612d38565b80156107035780601f106106d857610100808354040283529160200191610703565b820191906000526020600020905b8154815290600101906020018083116106e657829003601f168201915b505050505081526020016005820154815260200160068201805480602002602001604051908101604052809291908181526020016000905b8282101561089b57838290600052602060002090600302016040518060600160405290816000820154815260200160018201805461077890612d38565b80601f01602080910402602001604051908101604052809291908181526020018280546107a490612d38565b80156107f15780601f106107c6576101008083540402835291602001916107f1565b820191906000526020600020905b8154815290600101906020018083116107d457829003601f168201915b5050505050815260200160028201805461080a90612d38565b80601f016020809104026020016040519081016040528092919081815260200182805461083690612d38565b80156108835780601f1061085857610100808354040283529160200191610883565b820191906000526020600020905b81548152906001019060200180831161086657829003601f168201915b5050505050815250508152602001906001019061073b565b50505050815250508282815181106108b6576108b5612cda565b5b602002602001018190525080806108cc90612e52565b9150506103e4565b5080600480805480602002602001604051908101604052809291908181526020016000905b828210156109a557838290600052602060002001805461091890612d38565b80601f016020809104026020016040519081016040528092919081815260200182805461094490612d38565b80156109915780601f1061096657610100808354040283529160200191610991565b820191906000526020600020905b81548152906001019060200180831161097457829003601f168201915b5050505050815260200190600101906108f9565b5050505090509350935050509091565b6060806002836040516109c89190612ecb565b90815260200160405180910390206000016002846040516109e99190612ecb565b9081526020016040518091039020600201818054610a0690612d38565b80601f0160208091040260200160405190810160405280929190818152602001828054610a3290612d38565b8015610a7f5780601f10610a5457610100808354040283529160200191610a7f565b820191906000526020600020905b815481529060010190602001808311610a6257829003601f168201915b50505050509150808054610a9290612d38565b80601f0160208091040260200160405190810160405280929190818152602001828054610abe90612d38565b8015610b0b5780601f10610ae057610100808354040283529160200191610b0b565b820191906000526020600020905b815481529060010190602001808311610aee57829003601f168201915b5050505050905091509150915091565b600080600088604051610b2e9190612ecb565b9081526020016040518091039020905086816000019081610b4f9190613079565b5085816001019081610b619190613079565b5084816002019081610b739190613079565b50610b7c61209f565b428160000181815250506040518060400160405280600c81526020017f4d616e756661637475726564000000000000000000000000000000000000000081525081602001819052508484604051602001610bd79291906131e3565b604051602081830303815290604052816040018190525081600601819080600181540180825580915050600190039060005260206000209060030201600090919091909150600082015181600001556020820151816001019081610c3b9190613079565b506040820151816002019081610c519190613079565b5050508160008a604051610c659190612ecb565b908152602001604051809103902060008201816000019081610c879190613233565b5060018201816001019081610c9c9190613233565b5060028201816002019081610cb19190613233565b5060038201816003019081610cc69190613233565b5060048201816004019081610cdb9190613233565b50600582015481600501556006820181600601908054610cfc9291906120c0565b50905050600489908060018154018082558091505060019003906000526020600020016000909190919091509081610d349190613079565b506001925050509695505050505050565b6000610d4f61214c565b83816000018190525082816040018190525080600286604051610d729190612ecb565b90815260200160405180910390206000820151816000019081610d959190613079565b506020820151816001019081610dab9190613079565b506040820151816002019081610dc19190613079565b5090505060019150509392505050565b606080600283604051610de49190612ecb565b9081526020016040518091039020600001600284604051610e059190612ecb565b9081526020016040518091039020600201818054610e2290612d38565b80601f0160208091040260200160405190810160405280929190818152602001828054610e4e90612d38565b8015610e9b5780601f10610e7057610100808354040283529160200191610e9b565b820191906000526020600020905b815481529060010190602001808311610e7e57829003601f168201915b50505050509150808054610eae90612d38565b80601f0160208091040260200160405190810160405280929190818152602001828054610eda90612d38565b8015610f275780601f10610efc57610100808354040283529160200191610f27565b820191906000526020600020905b815481529060010190602001808311610f0a57829003601f168201915b5050505050905091509150915091565b600080600086604051610f4a9190612ecb565b90815260200160405180910390209050610ff0816003018054610f6c90612d38565b80601f0160208091040260200160405190810160405280929190818152602001828054610f9890612d38565b8015610fe55780601f10610fba57610100808354040283529160200191610fe5565b820191906000526020600020905b815481529060010190602001808311610fc857829003601f168201915b505050505086611f2a565b156112305761109a81600401805461100790612d38565b80601f016020809104026020016040519081016040528092919081815260200182805461103390612d38565b80156110805780601f1061105557610100808354040283529160200191611080565b820191906000526020600020905b81548152906001019060200180831161106357829003601f168201915b505050505060405180602001604052806000815250611f2a565b1561122f576003846040516110af9190612ecb565b908152602001604051809103902060050160009054906101000a900460ff161561122e57838160040190816110e49190613079565b50600181600501819055506003846040516110ff9190612ecb565b9081526020016040518091039020600401869080600181540180825580915050600190039060005260206000200160009091909190915090816111429190613079565b5061114b61209f565b428160000181815250506040518060400160405280601081526020017f536f6c6420746f20437573746f6d657200000000000000000000000000000000815250816020018190525084846040516020016111a69291906133b3565b60405160208183030381529060405281604001819052508160060181908060018154018082558091505060019003906000526020600020906003020160009091909190915060008201518160000155602082015181600101908161120a9190613079565b5060408201518160020190816112209190613079565b505050600192505050611236565b5b5b60009150505b949350505050565b6000806000856040516112519190612ecb565b90815260200160405180910390209050838160030190816112729190613079565b5061127b61209f565b428160000181815250506040518060400160405280601181526020017f4d6f76656420746f2052657461696c65720000000000000000000000000000008152508160200181905250836040516020016112d49190613439565b6040516020818303038152906040528160400181905250816006018190806001815401808255809150506001900390600052602060002090600302016000909190919091506000820151816000015560208201518160010190816113389190613079565b50604082015181600201908161134e9190613079565b5050506001925050509392505050565b60006003856040516113709190612ecb565b908152602001604051809103902060050160009054906101000a900460ff161561139d576000905061148e565b6113a561216d565b84816000018190525083816060018190525082816040018190525060018160a0019015159081151581525050806003876040516113e29190612ecb565b908152602001604051809103902060008201518160000190816114059190613079565b50602082015181600101908161141b9190613079565b5060408201518160020190816114319190613079565b5060608201518160030190816114479190613079565b5060808201518160040190805190602001906114649291906121a5565b5060a08201518160050160006101000a81548160ff02191690831515021790555090505060019150505b949350505050565b60006114a061214c565b838160000181905250828160400181905250806002866040516114c39190612ecb565b908152602001604051809103902060008201518160000190816114e69190613079565b5060208201518160010190816114fc9190613079565b5060408201518160020190816115129190613079565b5090505060019150509392505050565b60608060606003846040516115379190612ecb565b90815260200160405180910390206000016003856040516115589190612ecb565b90815260200160405180910390206002016003866040516115799190612ecb565b908152602001604051809103902060030182805461159690612d38565b80601f01602080910402602001604051908101604052809291908181526020018280546115c290612d38565b801561160f5780601f106115e45761010080835404028352916020019161160f565b820191906000526020600020905b8154815290600101906020018083116115f257829003601f168201915b5050505050925081805461162290612d38565b80601f016020809104026020016040519081016040528092919081815260200182805461164e90612d38565b801561169b5780601f106116705761010080835404028352916020019161169b565b820191906000526020600020905b81548152906001019060200180831161167e57829003601f168201915b505050505091508080546116ae90612d38565b80601f01602080910402602001604051908101604052809291908181526020018280546116da90612d38565b80156117275780601f106116fc57610100808354040283529160200191611727565b820191906000526020600020905b81548152906001019060200180831161170a57829003601f168201915b505050505090509250925092509193909250565b606060038260405161174d9190612ecb565b9081526020016040518091039020600401805480602002602001604051908101604052809291908181526020016000905b8282101561182a57838290600052602060002001805461179d90612d38565b80601f01602080910402602001604051908101604052809291908181526020018280546117c990612d38565b80156118165780601f106117eb57610100808354040283529160200191611816565b820191906000526020600020905b8154815290600101906020018083116117f957829003601f168201915b50505050508152602001906001019061177e565b505050509050919050565b606080606080606060008660405161184d9190612ecb565b908152602001604051809103902060000160008760405161186e9190612ecb565b908152602001604051809103902060010160008860405161188f9190612ecb565b90815260200160405180910390206002016000896040516118b09190612ecb565b908152602001604051809103902060030160008a6040516118d19190612ecb565b90815260200160405180910390206004018480546118ee90612d38565b80601f016020809104026020016040519081016040528092919081815260200182805461191a90612d38565b80156119675780601f1061193c57610100808354040283529160200191611967565b820191906000526020600020905b81548152906001019060200180831161194a57829003601f168201915b5050505050945083805461197a90612d38565b80601f01602080910402602001604051908101604052809291908181526020018280546119a690612d38565b80156119f35780601f106119c8576101008083540402835291602001916119f3565b820191906000526020600020905b8154815290600101906020018083116119d657829003601f168201915b50505050509350828054611a0690612d38565b80601f0160208091040260200160405190810160405280929190818152602001828054611a3290612d38565b8015611a7f5780601f10611a5457610100808354040283529160200191611a7f565b820191906000526020600020905b815481529060010190602001808311611a6257829003601f168201915b50505050509250818054611a9290612d38565b80601f0160208091040260200160405190810160405280929190818152602001828054611abe90612d38565b8015611b0b5780601f10611ae057610100808354040283529160200191611b0b565b820191906000526020600020905b815481529060010190602001808311611aee57829003601f168201915b50505050509150808054611b1e90612d38565b80601f0160208091040260200160405190810160405280929190818152602001828054611b4a90612d38565b8015611b975780601f10611b6c57610100808354040283529160200191611b97565b820191906000526020600020905b815481529060010190602001808311611b7a57829003601f168201915b505050505090509450945094509450945091939590929450565b600080600086604051611bc49190612ecb565b908152602001604051809103902090506000600386604051611be69190612ecb565b908152602001604051809103902090506000600386604051611c089190612ecb565b9081526020016040518091039020905060018360050154148015611c3a57508160050160009054906101000a900460ff165b8015611c5457508060050160009054906101000a900460ff165b15611f1a5760005b8260040180549050811015611f1857611d1d836004018281548110611c8457611c83612cda565b5b906000526020600020018054611c9990612d38565b80601f0160208091040260200160405190810160405280929190818152602001828054611cc590612d38565b8015611d125780601f10611ce757610100808354040283529160200191611d12565b820191906000526020600020905b815481529060010190602001808311611cf557829003601f168201915b50505050508a611f2a565b15611f0557611db8846004018054611d3490612d38565b80601f0160208091040260200160405190810160405280929190818152602001828054611d6090612d38565b8015611dad5780601f10611d8257610100808354040283529160200191611dad565b820191906000526020600020905b815481529060010190602001808311611d9057829003601f168201915b505050505089611f2a565b15611dd05786846004019081611dce9190613079565b505b611dd861209f565b428160000181815250506040518060400160405280601081526020017f4368616e67656420437573746f6d6572000000000000000000000000000000008152508160200181905250888888604051602001611e359392919061353f565b604051602081830303815290604052816040018190525084600601819080600181540180825580915050600190039060005260206000209060030201600090919091909150600082015181600001556020820151816001019081611e999190613079565b506040820151816002019081611eaf9190613079565b505050611ebf8285600401611f83565b50826004018a908060018154018082558091505060019003906000526020600020016000909190919091509081611ef69190613079565b50600195505050505050611f22565b8080611f1090612e52565b915050611c5c565b505b600093505050505b949350505050565b600081604051602001611f3d9190612ecb565b6040516020818303038152906040528051906020012083604051602001611f649190612ecb565b6040516020818303038152906040528051906020012014905092915050565b600081805490508310611f99576000905061205c565b60008390505b60018380549050611fb09190613591565b81101561201d5782600182611fc591906135c5565b81548110611fd657611fd5612cda565b5b90600052602060002001838281548110611ff357611ff2612cda565b5b9060005260206000200190816120099190613624565b50808061201590612e52565b915050611f9f565b5081600183805490506120309190613591565b8154811061204157612040612cda565b5b90600052602060002001600061205791906121fe565b600190505b92915050565b6040518060e00160405280606081526020016060815260200160608152602001606081526020016060815260200160008152602001606081525090565b60405180606001604052806000815260200160608152602001606081525090565b82805482825590600052602060002090600302810192821561213b5760005260206000209160030282015b8281111561213a57828260008201548160000155600182018160010190816121139190613233565b50600282018160020190816121289190613233565b505050916003019190600301906120eb565b5b509050612148919061223e565b5090565b60405180606001604052806060815260200160608152602001606081525090565b6040518060c0016040528060608152602001606081526020016060815260200160608152602001606081526020016000151581525090565b8280548282559060005260206000209081019282156121ed579160200282015b828111156121ec5782518290816121dc9190613079565b50916020019190600101906121c5565b5b5090506121fa919061227d565b5090565b50805461220a90612d38565b6000825580601f1061221c575061223b565b601f01602090049060005260206000209081019061223a91906122a1565b5b50565b5b808211156122795760008082016000905560018201600061226091906121fe565b60028201600061227091906121fe565b5060030161223f565b5090565b5b8082111561229d576000818161229491906121fe565b5060010161227e565b5090565b5b808211156122ba5760008160009055506001016122a2565b5090565b600081519050919050565b600082825260208201905092915050565b6000819050602082019050919050565b600081519050919050565b600082825260208201905092915050565b60005b83811015612324578082015181840152602081019050612309565b60008484015250505050565b6000601f19601f8301169050919050565b600061234c826122ea565b61235681856122f5565b9350612366818560208601612306565b61236f81612330565b840191505092915050565b6000819050919050565b61238d8161237a565b82525050565b600081519050919050565b600082825260208201905092915050565b6000819050602082019050919050565b60006060830160008301516123d76000860182612384565b50602083015184820360208601526123ef8282612341565b915050604083015184820360408601526124098282612341565b9150508091505092915050565b600061242283836123bf565b905092915050565b6000602082019050919050565b600061244282612393565b61244c818561239e565b93508360208202850161245e856123af565b8060005b8581101561249a578484038952815161247b8582612416565b94506124868361242a565b925060208a01995050600181019050612462565b50829750879550505050505092915050565b600060e08301600083015184820360008601526124c98282612341565b915050602083015184820360208601526124e38282612341565b915050604083015184820360408601526124fd8282612341565b915050606083015184820360608601526125178282612341565b915050608083015184820360808601526125318282612341565b91505060a083015161254660a0860182612384565b5060c083015184820360c086015261255e8282612437565b9150508091505092915050565b600061257783836124ac565b905092915050565b6000602082019050919050565b6000612597826122be565b6125a181856122c9565b9350836020820285016125b3856122da565b8060005b858110156125ef57848403895281516125d0858261256b565b94506125db8361257f565b925060208a019950506001810190506125b7565b50829750879550505050505092915050565b600081519050919050565b600082825260208201905092915050565b6000819050602082019050919050565b60006126398383612341565b905092915050565b6000602082019050919050565b600061265982612601565b612663818561260c565b9350836020820285016126758561261d565b8060005b858110156126b15784840389528151612692858261262d565b945061269d83612641565b925060208a01995050600181019050612679565b50829750879550505050505092915050565b600060408201905081810360008301526126dd818561258c565b905081810360208301526126f1818461264e565b90509392505050565b6000604051905090565b600080fd5b600080fd5b600080fd5b600080fd5b7f4e487b7100000000000000000000000000000000000000000000000000000000600052604160045260246000fd5b61275082612330565b810181811067ffffffffffffffff8211171561276f5761276e612718565b5b80604052505050565b60006127826126fa565b905061278e8282612747565b919050565b600067ffffffffffffffff8211156127ae576127ad612718565b5b6127b782612330565b9050602081019050919050565b82818337600083830152505050565b60006127e66127e184612793565b612778565b90508281526020810184848401111561280257612801612713565b5b61280d8482856127c4565b509392505050565b600082601f83011261282a5761282961270e565b5b813561283a8482602086016127d3565b91505092915050565b60006020828403121561285957612858612704565b5b600082013567ffffffffffffffff81111561287757612876612709565b5b61288384828501612815565b91505092915050565b600082825260208201905092915050565b60006128a8826122ea565b6128b2818561288c565b93506128c2818560208601612306565b6128cb81612330565b840191505092915050565b600060408201905081810360008301526128f0818561289d565b90508181036020830152612904818461289d565b90509392505050565b60008060008060008060c0878903121561292a57612929612704565b5b600087013567ffffffffffffffff81111561294857612947612709565b5b61295489828a01612815565b965050602087013567ffffffffffffffff81111561297557612974612709565b5b61298189828a01612815565b955050604087013567ffffffffffffffff8111156129a2576129a1612709565b5b6129ae89828a01612815565b945050606087013567ffffffffffffffff8111156129cf576129ce612709565b5b6129db89828a01612815565b935050608087013567ffffffffffffffff8111156129fc576129fb612709565b5b612a0889828a01612815565b92505060a087013567ffffffffffffffff811115612a2957612a28612709565b5b612a3589828a01612815565b9150509295509295509295565b60008115159050919050565b612a5781612a42565b82525050565b6000602082019050612a726000830184612a4e565b92915050565b600080600060608486031215612a9157612a90612704565b5b600084013567ffffffffffffffff811115612aaf57612aae612709565b5b612abb86828701612815565b935050602084013567ffffffffffffffff811115612adc57612adb612709565b5b612ae886828701612815565b925050604084013567ffffffffffffffff811115612b0957612b08612709565b5b612b1586828701612815565b9150509250925092565b60008060008060808587031215612b3957612b38612704565b5b600085013567ffffffffffffffff811115612b5757612b56612709565b5b612b6387828801612815565b945050602085013567ffffffffffffffff811115612b8457612b83612709565b5b612b9087828801612815565b935050604085013567ffffffffffffffff811115612bb157612bb0612709565b5b612bbd87828801612815565b925050606085013567ffffffffffffffff811115612bde57612bdd612709565b5b612bea87828801612815565b91505092959194509250565b60006060820190508181036000830152612c10818661289d565b90508181036020830152612c24818561289d565b90508181036040830152612c38818461289d565b9050949350505050565b60006020820190508181036000830152612c5c818461264e565b905092915050565b600060a0820190508181036000830152612c7e818861289d565b90508181036020830152612c92818761289d565b90508181036040830152612ca6818661289d565b90508181036060830152612cba818561289d565b90508181036080830152612cce818461289d565b90509695505050505050565b7f4e487b7100000000000000000000000000000000000000000000000000000000600052603260045260246000fd5b7f4e487b7100000000000000000000000000000000000000000000000000000000600052602260045260246000fd5b60006002820490506001821680612d5057607f821691505b602082108103612d6357612d62612d09565b5b50919050565b600081905092915050565b60008190508160005260206000209050919050565b60008154612d9681612d38565b612da08186612d69565b94506001821660008114612dbb5760018114612dd057612e03565b60ff1983168652811515820286019350612e03565b612dd985612d74565b60005b83811015612dfb57815481890152600182019150602081019050612ddc565b838801955050505b50505092915050565b6000612e188284612d89565b915081905092915050565b7f4e487b7100000000000000000000000000000000000000000000000000000000600052601160045260246000fd5b6000612e5d8261237a565b91507fffffffffffffffffffffffffffffffffffffffffffffffffffffffffffffffff8203612e8f57612e8e612e23565b5b600182019050919050565b6000612ea5826122ea565b612eaf8185612d69565b9350612ebf818560208601612306565b80840191505092915050565b6000612ed78284612e9a565b915081905092915050565b60006020601f8301049050919050565b600082821b905092915050565b600060088302612f2f7fffffffffffffffffffffffffffffffffffffffffffffffffffffffffffffffff82612ef2565b612f398683612ef2565b95508019841693508086168417925050509392505050565b6000819050919050565b6000612f76612f71612f6c8461237a565b612f51565b61237a565b9050919050565b6000819050919050565b612f9083612f5b565b612fa4612f9c82612f7d565b848454612eff565b825550505050565b600090565b612fb9612fac565b612fc4818484612f87565b505050565b5b81811015612fe857612fdd600082612fb1565b600181019050612fca565b5050565b601f82111561302d57612ffe81612d74565b61300784612ee2565b81016020851015613016578190505b61302a61302285612ee2565b830182612fc9565b50505b505050565b600082821c905092915050565b600061305060001984600802613032565b1980831691505092915050565b6000613069838361303f565b9150826002028217905092915050565b613082826122ea565b67ffffffffffffffff81111561309b5761309a612718565b5b6130a58254612d38565b6130b0828285612fec565b600060209050601f8311600181146130e357600084156130d1578287015190505b6130db858261305d565b865550613143565b601f1984166130f186612d74565b60005b82811015613119578489015182556001820191506020850194506020810190506130f4565b868310156131365784890151613132601f89168261303f565b8355505b6001600288020188555050505b505050505050565b7f50726f64756374696f6e20446174653a20000000000000000000000000000000600082015250565b6000613181601183612d69565b915061318c8261314b565b601182019050919050565b7f2c2052657461696c204c6f636174696f6e3a2000000000000000000000000000600082015250565b60006131cd601383612d69565b91506131d882613197565b601382019050919050565b60006131ee82613174565b91506131fa8285612e9a565b9150613205826131c0565b91506132118284612e9a565b91508190509392505050565b60008154905061322c81612d38565b9050919050565b818103613241575050613319565b61324a8261321d565b67ffffffffffffffff81111561326357613262612718565b5b61326d8254612d38565b613278828285612fec565b6000601f8311600181146132a75760008415613295578287015490505b61329f858261305d565b865550613312565b601f1984166132b587612d74565b96506132c086612d74565b60005b828110156132e8578489015482556001820191506001850194506020810190506132c3565b868310156133055784890154613301601f89168261303f565b8355505b6001600288020188555050505b5050505050505b565b7f437573746f6d657220456d61696c3a2000000000000000000000000000000000600082015250565b6000613351601083612d69565b915061335c8261331b565b601082019050919050565b7f2c2053616c6520446174653a2000000000000000000000000000000000000000600082015250565b600061339d600d83612d69565b91506133a882613367565b600d82019050919050565b60006133be82613344565b91506133ca8285612e9a565b91506133d582613390565b91506133e18284612e9a565b91508190509392505050565b7f52657461696c204c6f636174696f6e3a20000000000000000000000000000000600082015250565b6000613423601183612d69565b915061342e826133ed565b601182019050919050565b600061344482613416565b91506134508284612e9a565b915081905092915050565b7f4f6c6420437573746f6d65723a20000000000000000000000000000000000000600082015250565b6000613491600e83612d69565b915061349c8261345b565b600e82019050919050565b7f2c204e657720437573746f6d65723a2000000000000000000000000000000000600082015250565b60006134dd601083612d69565b91506134e8826134a7565b601082019050919050565b7f2c204368616e676520446174653a200000000000000000000000000000000000600082015250565b6000613529600f83612d69565b9150613534826134f3565b600f82019050919050565b600061354a82613484565b91506135568286612e9a565b9150613561826134d0565b915061356d8285612e9a565b91506135788261351c565b91506135848284612e9a565b9150819050949350505050565b600061359c8261237a565b91506135a78361237a565b92508282039050818111156135bf576135be612e23565b5b92915050565b60006135d08261237a565b91506135db8361237a565b92508282019050808211156135f3576135f2612e23565b5b92915050565b60008154905061360881612d38565b9050919050565b60008190508160005260206000209050919050565b81810361363257505061370a565b61363b826135f9565b67ffffffffffffffff81111561365457613653612718565b5b61365e8254612d38565b613669828285612fec565b6000601f8311600181146136985760008415613686578287015490505b613690858261305d565b865550613703565b601f1984166136a68761360f565b96506136b186612d74565b60005b828110156136d9578489015482556001820191506001850194506020810190506136b4565b868310156136f657848901546136f2601f89168261303f565b8355505b6001600288020188555050505b5050505050505b56fea2646970667358221220b6c433256c83579814791ca88b2ed63687380b6a0f5d16be0a996c1e6ca7158664736f6c63430008130033",
  "linkReferences": {},
  "deployedLinkReferences": {}
}