{
  "_format": "hh-sol-artifact-1",
  "contractName": "FPIS",
  "sourceName": "contracts/fpis.sol",
  "abi": [
    {
      "inputs": [
        {
          "internalType": "string",
          "name": "_id",
          "type": "string"
        },
        {
          "internalType": "string",
          "name": "_model",
          "type": "string"
        },
        {
          "internalType": "string",
          "name": "_description",
          "type": "string"
        }
      ],
      "name": "createProduct",
      "outputs": [
        {
          "internalType": "bool",
          "name": "",
          "type": "bool"
        }
      ],
      "stateMutability": "payable",
      "type": "function"
    }
  ],
  "bytecode": "0x608060405234801561001057600080fd5b506107f8806100206000396000f3fe60806040526004361061001e5760003560e01c8063d768468b14610023575b600080fd5b61003d60048036038101906100389190610375565b610053565b60405161004a9190610437565b60405180910390f35b600061005d610112565b8381600001819052508281602001819052508060008660405161008091906104c3565b908152602001604051809103902060008201518160000190816100a391906106f0565b5060208201518160010190816100b991906106f0565b5060408201518160020190816100cf91906106f0565b5060608201518160030190816100e591906106f0565b506080820151816004019080519060200190610102929190610141565b5090505060019150509392505050565b6040518060a0016040528060608152602001606081526020016060815260200160608152602001606081525090565b828054828255906000526020600020908101928215610189579160200282015b8281111561018857825182908161017891906106f0565b5091602001919060010190610161565b5b509050610196919061019a565b5090565b5b808211156101ba57600081816101b191906101be565b5060010161019b565b5090565b5080546101ca90610509565b6000825580601f106101dc57506101fb565b601f0160209004906000526020600020908101906101fa91906101fe565b5b50565b5b808211156102175760008160009055506001016101ff565b5090565b6000604051905090565b600080fd5b600080fd5b600080fd5b600080fd5b6000601f19601f8301169050919050565b7f4e487b7100000000000000000000000000000000000000000000000000000000600052604160045260246000fd5b61028282610239565b810181811067ffffffffffffffff821117156102a1576102a061024a565b5b80604052505050565b60006102b461021b565b90506102c08282610279565b919050565b600067ffffffffffffffff8211156102e0576102df61024a565b5b6102e982610239565b9050602081019050919050565b82818337600083830152505050565b6000610318610313846102c5565b6102aa565b90508281526020810184848401111561033457610333610234565b5b61033f8482856102f6565b509392505050565b600082601f83011261035c5761035b61022f565b5b813561036c848260208601610305565b91505092915050565b60008060006060848603121561038e5761038d610225565b5b600084013567ffffffffffffffff8111156103ac576103ab61022a565b5b6103b886828701610347565b935050602084013567ffffffffffffffff8111156103d9576103d861022a565b5b6103e586828701610347565b925050604084013567ffffffffffffffff8111156104065761040561022a565b5b61041286828701610347565b9150509250925092565b60008115159050919050565b6104318161041c565b82525050565b600060208201905061044c6000830184610428565b92915050565b600081519050919050565b600081905092915050565b60005b8381101561048657808201518184015260208101905061046b565b60008484015250505050565b600061049d82610452565b6104a7818561045d565b93506104b7818560208601610468565b80840191505092915050565b60006104cf8284610492565b915081905092915050565b7f4e487b7100000000000000000000000000000000000000000000000000000000600052602260045260246000fd5b6000600282049050600182168061052157607f821691505b602082108103610534576105336104da565b5b50919050565b60008190508160005260206000209050919050565b60006020601f8301049050919050565b600082821b905092915050565b60006008830261059c7fffffffffffffffffffffffffffffffffffffffffffffffffffffffffffffffff8261055f565b6105a6868361055f565b95508019841693508086168417925050509392505050565b6000819050919050565b6000819050919050565b60006105ed6105e86105e3846105be565b6105c8565b6105be565b9050919050565b6000819050919050565b610607836105d2565b61061b610613826105f4565b84845461056c565b825550505050565b600090565b610630610623565b61063b8184846105fe565b505050565b5b8181101561065f57610654600082610628565b600181019050610641565b5050565b601f8211156106a4576106758161053a565b61067e8461054f565b8101602085101561068d578190505b6106a16106998561054f565b830182610640565b50505b505050565b600082821c905092915050565b60006106c7600019846008026106a9565b1980831691505092915050565b60006106e083836106b6565b9150826002028217905092915050565b6106f982610452565b67ffffffffffffffff8111156107125761071161024a565b5b61071c8254610509565b610727828285610663565b600060209050601f83116001811461075a5760008415610748578287015190505b61075285826106d4565b8655506107ba565b601f1984166107688661053a565b60005b828110156107905784890151825560018201915060208501945060208101905061076b565b868310156107ad57848901516107a9601f8916826106b6565b8355505b6001600288020188555050505b50505050505056fea26469706673582212203902f7510f8867943893a8c0f0206a37f26ba6a74c1ad2931a6d36863b303cca64736f6c63430008130033",
  "linkReferences": {},
  "deployedLinkReferences": {}
}