{
  "_format": "hh-sol-artifact-1",
  "contractName": "FPIS",
  "sourceName": "contracts/fpis.sol",
  "abi": [
    {
      "inputs": [
        {
          "internalType": "string",
          "name": "_productID",
          "type": "string"
        },
        {
          "internalType": "string",
          "name": "_oldCustomerEmail",
          "type": "string"
        },
        {
          "internalType": "string",
          "name": "_newCustomerEmail",
          "type": "string"
        }
      ],
      "name": "changeCustomer",
      "outputs": [
        {
          "internalType": "bool",
          "name": "",
          "type": "bool"
        }
      ],
      "stateMutability": "payable",
      "type": "function"
    },
    {
      "inputs": [
        {
          "internalType": "string",
          "name": "_customerEmail",
          "type": "string"
        },
        {
          "internalType": "string",
          "name": "_name",
          "type": "string"
        },
        {
          "internalType": "string",
          "name": "_location",
          "type": "string"
        },
        {
          "internalType": "string",
          "name": "_phone_number",
          "type": "string"
        }
      ],
      "name": "createCustomer",
      "outputs": [
        {
          "internalType": "bool",
          "name": "",
          "type": "bool"
        }
      ],
      "stateMutability": "payable",
      "type": "function"
    },
    {
      "inputs": [
        {
          "internalType": "string",
          "name": "_manufactorEmail",
          "type": "string"
        },
        {
          "internalType": "string",
          "name": "_manufactorName",
          "type": "string"
        },
        {
          "internalType": "string",
          "name": "_manufactorLocation",
          "type": "string"
        }
      ],
      "name": "createManufactor",
      "outputs": [
        {
          "internalType": "bool",
          "name": "",
          "type": "bool"
        }
      ],
      "stateMutability": "payable",
      "type": "function"
    },
    {
      "inputs": [
        {
          "internalType": "string",
          "name": "_productID",
          "type": "string"
        },
        {
          "internalType": "string",
          "name": "_model",
          "type": "string"
        },
        {
          "internalType": "string",
          "name": "_description",
          "type": "string"
        },
        {
          "internalType": "string",
          "name": "_manufactoryEmail",
          "type": "string"
        }
      ],
      "name": "createProduct",
      "outputs": [
        {
          "internalType": "bool",
          "name": "",
          "type": "bool"
        }
      ],
      "stateMutability": "payable",
      "type": "function"
    },
    {
      "inputs": [
        {
          "internalType": "string",
          "name": "_retailerEmail",
          "type": "string"
        },
        {
          "internalType": "string",
          "name": "_retailerName",
          "type": "string"
        },
        {
          "internalType": "string",
          "name": "_retailerLocation",
          "type": "string"
        }
      ],
      "name": "createRetailer",
      "outputs": [
        {
          "internalType": "bool",
          "name": "",
          "type": "bool"
        }
      ],
      "stateMutability": "payable",
      "type": "function"
    },
    {
      "inputs": [
        {
          "internalType": "string",
          "name": "_customerEmail",
          "type": "string"
        }
      ],
      "name": "getCustomerDetail",
      "outputs": [
        {
          "internalType": "string",
          "name": "",
          "type": "string"
        },
        {
          "internalType": "string",
          "name": "",
          "type": "string"
        },
        {
          "internalType": "string",
          "name": "",
          "type": "string"
        }
      ],
      "stateMutability": "view",
      "type": "function"
    },
    {
      "inputs": [
        {
          "internalType": "string",
          "name": "_manufactorEmail",
          "type": "string"
        }
      ],
      "name": "getManafactorDetail",
      "outputs": [
        {
          "internalType": "string",
          "name": "",
          "type": "string"
        },
        {
          "internalType": "string",
          "name": "",
          "type": "string"
        }
      ],
      "stateMutability": "view",
      "type": "function"
    },
    {
      "inputs": [
        {
          "internalType": "string",
          "name": "_productID",
          "type": "string"
        }
      ],
      "name": "getProductDetail",
      "outputs": [
        {
          "internalType": "string",
          "name": "",
          "type": "string"
        },
        {
          "internalType": "string",
          "name": "",
          "type": "string"
        },
        {
          "internalType": "string",
          "name": "",
          "type": "string"
        },
        {
          "internalType": "string",
          "name": "",
          "type": "string"
        }
      ],
      "stateMutability": "view",
      "type": "function"
    },
    {
      "inputs": [
        {
          "internalType": "string",
          "name": "_customerEmail",
          "type": "string"
        }
      ],
      "name": "getProductsByCustomer",
      "outputs": [
        {
          "internalType": "string[]",
          "name": "",
          "type": "string[]"
        }
      ],
      "stateMutability": "view",
      "type": "function"
    },
    {
      "inputs": [
        {
          "internalType": "string",
          "name": "_retailerEmail",
          "type": "string"
        }
      ],
      "name": "getRetailerDetail",
      "outputs": [
        {
          "internalType": "string",
          "name": "",
          "type": "string"
        },
        {
          "internalType": "string",
          "name": "",
          "type": "string"
        }
      ],
      "stateMutability": "view",
      "type": "function"
    },
    {
      "inputs": [
        {
          "internalType": "string",
          "name": "_productID",
          "type": "string"
        },
        {
          "internalType": "string",
          "name": "_retailerEmail",
          "type": "string"
        }
      ],
      "name": "moveToRetailer",
      "outputs": [
        {
          "internalType": "bool",
          "name": "",
          "type": "bool"
        }
      ],
      "stateMutability": "payable",
      "type": "function"
    },
    {
      "inputs": [
        {
          "internalType": "string",
          "name": "_productID",
          "type": "string"
        },
        {
          "internalType": "string",
          "name": "_retailerEmail",
          "type": "string"
        },
        {
          "internalType": "string",
          "name": "_customerEmail",
          "type": "string"
        }
      ],
      "name": "sellToFirstCustomer",
      "outputs": [
        {
          "internalType": "bool",
          "name": "",
          "type": "bool"
        }
      ],
      "stateMutability": "payable",
      "type": "function"
    }
  ],
  "bytecode": "0x608060405234801561001057600080fd5b50612bbe806100206000396000f3fe6080604052600436106100a75760003560e01c8063b97da49411610064578063b97da494146101e8578063bc26ec5314610218578063cc2306c914610257578063cee4a5e514610287578063eb51e3cd146102c4578063ee786260146102f4576100a7565b80630715b5f0146100ac57806321b35573146100dc5780633a7090c11461011a5780637c3851cd1461014a578063b51ca0af14610188578063b5bd438b146101b8575b600080fd5b6100c660048036038101906100c19190612126565b610334565b6040516100d391906121e8565b60405180910390f35b3480156100e857600080fd5b5061010360048036038101906100fe9190612203565b610f7e565b6040516101119291906122cb565b60405180910390f35b610134600480360381019061012f9190612302565b6110e4565b60405161014191906121e8565b60405180910390f35b34801561015657600080fd5b50610171600480360381019061016c9190612203565b61111f565b60405161017f9291906122cb565b60405180910390f35b6101a2600480360381019061019d919061237a565b611285565b6040516101af91906121e8565b60405180910390f35b6101d260048036038101906101cd9190612126565b6113bd565b6040516101df91906121e8565b60405180910390f35b61020260048036038101906101fd9190612126565b611449565b60405161020f91906121e8565b60405180910390f35b34801561022457600080fd5b5061023f600480360381019061023a9190612203565b6114d5565b60405161024e93929190612451565b60405180910390f35b610271600480360381019061026c9190612126565b6116ee565b60405161027e91906121e8565b60405180910390f35b34801561029357600080fd5b506102ae60048036038101906102a99190612203565b61189c565b6040516102bb91906125a9565b60405180910390f35b6102de60048036038101906102d9919061237a565b611996565b6040516102eb91906121e8565b60405180910390f35b34801561030057600080fd5b5061031b60048036038101906103169190612203565b611a62565b60405161032b94939291906125cb565b60405180910390f35b6000806000856040516103479190612668565b90815260200160405180910390206040518060c0016040529081600082018054610370906126ae565b80601f016020809104026020016040519081016040528092919081815260200182805461039c906126ae565b80156103e95780601f106103be576101008083540402835291602001916103e9565b820191906000526020600020905b8154815290600101906020018083116103cc57829003601f168201915b50505050508152602001600182018054610402906126ae565b80601f016020809104026020016040519081016040528092919081815260200182805461042e906126ae565b801561047b5780601f106104505761010080835404028352916020019161047b565b820191906000526020600020905b81548152906001019060200180831161045e57829003601f168201915b50505050508152602001600282018054610494906126ae565b80601f01602080910402602001604051908101604052809291908181526020018280546104c0906126ae565b801561050d5780601f106104e25761010080835404028352916020019161050d565b820191906000526020600020905b8154815290600101906020018083116104f057829003601f168201915b50505050508152602001600382018054610526906126ae565b80601f0160208091040260200160405190810160405280929190818152602001828054610552906126ae565b801561059f5780601f106105745761010080835404028352916020019161059f565b820191906000526020600020905b81548152906001019060200180831161058257829003601f168201915b505050505081526020016004820180546105b8906126ae565b80601f01602080910402602001604051908101604052809291908181526020018280546105e4906126ae565b80156106315780601f1061060657610100808354040283529160200191610631565b820191906000526020600020905b81548152906001019060200180831161061457829003601f168201915b50505050508152602001600582015481525050905060006003856040516106589190612668565b90815260200160405180910390206040518060c0016040529081600082018054610681906126ae565b80601f01602080910402602001604051908101604052809291908181526020018280546106ad906126ae565b80156106fa5780601f106106cf576101008083540402835291602001916106fa565b820191906000526020600020905b8154815290600101906020018083116106dd57829003601f168201915b50505050508152602001600182018054610713906126ae565b80601f016020809104026020016040519081016040528092919081815260200182805461073f906126ae565b801561078c5780601f106107615761010080835404028352916020019161078c565b820191906000526020600020905b81548152906001019060200180831161076f57829003601f168201915b505050505081526020016002820180546107a5906126ae565b80601f01602080910402602001604051908101604052809291908181526020018280546107d1906126ae565b801561081e5780601f106107f35761010080835404028352916020019161081e565b820191906000526020600020905b81548152906001019060200180831161080157829003601f168201915b50505050508152602001600382018054610837906126ae565b80601f0160208091040260200160405190810160405280929190818152602001828054610863906126ae565b80156108b05780601f10610885576101008083540402835291602001916108b0565b820191906000526020600020905b81548152906001019060200180831161089357829003601f168201915b5050505050815260200160048201805480602002602001604051908101604052809291908181526020016000905b8282101561098a5783829060005260206000200180546108fd906126ae565b80601f0160208091040260200160405190810160405280929190818152602001828054610929906126ae565b80156109765780601f1061094b57610100808354040283529160200191610976565b820191906000526020600020905b81548152906001019060200180831161095957829003601f168201915b5050505050815260200190600101906108de565b5050505081526020016005820160009054906101000a900460ff161515151581525050905060006003866040516109c19190612668565b908152602001604051809103902060040180549050905060006003866040516109ea9190612668565b90815260200160405180910390206040518060c0016040529081600082018054610a13906126ae565b80601f0160208091040260200160405190810160405280929190818152602001828054610a3f906126ae565b8015610a8c5780601f10610a6157610100808354040283529160200191610a8c565b820191906000526020600020905b815481529060010190602001808311610a6f57829003601f168201915b50505050508152602001600182018054610aa5906126ae565b80601f0160208091040260200160405190810160405280929190818152602001828054610ad1906126ae565b8015610b1e5780601f10610af357610100808354040283529160200191610b1e565b820191906000526020600020905b815481529060010190602001808311610b0157829003601f168201915b50505050508152602001600282018054610b37906126ae565b80601f0160208091040260200160405190810160405280929190818152602001828054610b63906126ae565b8015610bb05780601f10610b8557610100808354040283529160200191610bb0565b820191906000526020600020905b815481529060010190602001808311610b9357829003601f168201915b50505050508152602001600382018054610bc9906126ae565b80601f0160208091040260200160405190810160405280929190818152602001828054610bf5906126ae565b8015610c425780601f10610c1757610100808354040283529160200191610c42565b820191906000526020600020905b815481529060010190602001808311610c2557829003601f168201915b5050505050815260200160048201805480602002602001604051908101604052809291908181526020016000905b82821015610d1c578382906000526020600020018054610c8f906126ae565b80601f0160208091040260200160405190810160405280929190818152602001828054610cbb906126ae565b8015610d085780601f10610cdd57610100808354040283529160200191610d08565b820191906000526020600020905b815481529060010190602001808311610ceb57829003601f168201915b505050505081526020019060010190610c70565b5050505081526020016005820160009054906101000a900460ff16151515158152505090508260a001518015610d5357508060a001515b15610f6e5760005b82811015610f6c57610d8b84608001518281518110610d7d57610d7c6126df565b5b60200260200101518a611d2b565b15610f5957610d9e856080015189611d2b565b15610dd3578660008a604051610db49190612668565b90815260200160405180910390206004019081610dd191906128c4565b505b60005b83811015610f5357610ead60038a604051610df19190612668565b90815260200160405180910390206004018281548110610e1457610e136126df565b5b906000526020600020018054610e29906126ae565b80601f0160208091040260200160405190810160405280929190818152602001828054610e55906126ae565b8015610ea25780601f10610e7757610100808354040283529160200191610ea2565b820191906000526020600020905b815481529060010190602001808311610e8557829003601f168201915b50505050508b611d2b565b15610f4057610edc8160038b604051610ec69190612668565b9081526020016040518091039020600401611d84565b50600388604051610eed9190612668565b90815260200160405180910390206004018a908060018154018082558091505060019003906000526020600020016000909190919091509081610f3091906128c4565b5060019650505050505050610f77565b8080610f4b906129c5565b915050610dd6565b50610f6c565b8080610f64906129c5565b915050610d5b565b505b60009450505050505b9392505050565b606080600283604051610f919190612668565b9081526020016040518091039020600001600284604051610fb29190612668565b9081526020016040518091039020600201818054610fcf906126ae565b80601f0160208091040260200160405190810160405280929190818152602001828054610ffb906126ae565b80156110485780601f1061101d57610100808354040283529160200191611048565b820191906000526020600020905b81548152906001019060200180831161102b57829003601f168201915b5050505050915080805461105b906126ae565b80601f0160208091040260200160405190810160405280929190818152602001828054611087906126ae565b80156110d45780601f106110a9576101008083540402835291602001916110d4565b820191906000526020600020905b8154815290600101906020018083116110b757829003601f168201915b5050505050905091509150915091565b6000816000846040516110f79190612668565b9081526020016040518091039020600301908161111491906128c4565b506001905092915050565b6060806002836040516111329190612668565b90815260200160405180910390206000016002846040516111539190612668565b9081526020016040518091039020600201818054611170906126ae565b80601f016020809104026020016040519081016040528092919081815260200182805461119c906126ae565b80156111e95780601f106111be576101008083540402835291602001916111e9565b820191906000526020600020905b8154815290600101906020018083116111cc57829003601f168201915b505050505091508080546111fc906126ae565b80601f0160208091040260200160405190810160405280929190818152602001828054611228906126ae565b80156112755780601f1061124a57610100808354040283529160200191611275565b820191906000526020600020905b81548152906001019060200180831161125857829003601f168201915b5050505050905091509150915091565b60006003856040516112979190612668565b908152602001604051809103902060050160009054906101000a900460ff16156112c457600090506113b5565b6112cc611e63565b84816000018190525083816060018190525082816040018190525060018160a0019015159081151581525050806003876040516113099190612668565b9081526020016040518091039020600082015181600001908161132c91906128c4565b50602082015181600101908161134291906128c4565b50604082015181600201908161135891906128c4565b50606082015181600301908161136e91906128c4565b50608082015181600401908051906020019061138b929190611e9b565b5060a08201518160050160006101000a81548160ff02191690831515021790555090505060019150505b949350505050565b60006113c7611ef4565b838160000181905250828160400181905250806002866040516113ea9190612668565b9081526020016040518091039020600082015181600001908161140d91906128c4565b50602082015181600101908161142391906128c4565b50604082015181600201908161143991906128c4565b5090505060019150509392505050565b6000611453611ef4565b838160000181905250828160400181905250806002866040516114769190612668565b9081526020016040518091039020600082015181600001908161149991906128c4565b5060208201518160010190816114af91906128c4565b5060408201518160020190816114c591906128c4565b5090505060019150509392505050565b60608060606003846040516114ea9190612668565b908152602001604051809103902060000160038560405161150b9190612668565b908152602001604051809103902060020160038660405161152c9190612668565b9081526020016040518091039020600301828054611549906126ae565b80601f0160208091040260200160405190810160405280929190818152602001828054611575906126ae565b80156115c25780601f10611597576101008083540402835291602001916115c2565b820191906000526020600020905b8154815290600101906020018083116115a557829003601f168201915b505050505092508180546115d5906126ae565b80601f0160208091040260200160405190810160405280929190818152602001828054611601906126ae565b801561164e5780601f106116235761010080835404028352916020019161164e565b820191906000526020600020905b81548152906001019060200180831161163157829003601f168201915b50505050509150808054611661906126ae565b80601f016020809104026020016040519081016040528092919081815260200182805461168d906126ae565b80156116da5780601f106116af576101008083540402835291602001916116da565b820191906000526020600020905b8154815290600101906020018083116116bd57829003601f168201915b505050505090509250925092509193909250565b60006117a36000856040516117039190612668565b9081526020016040518091039020600301805461171f906126ae565b80601f016020809104026020016040519081016040528092919081815260200182805461174b906126ae565b80156117985780601f1061176d57610100808354040283529160200191611798565b820191906000526020600020905b81548152906001019060200180831161177b57829003601f168201915b505050505084611d2b565b15611890576003826040516117b89190612668565b908152602001604051809103902060050160009054906101000a900460ff161561188f57816000856040516117ed9190612668565b9081526020016040518091039020600401908161180a91906128c4565b50600160008560405161181d9190612668565b9081526020016040518091039020600501819055506003826040516118429190612668565b90815260200160405180910390206004018490806001815401808255809150506001900390600052602060002001600090919091909150908161188591906128c4565b5060019050611895565b5b600090505b9392505050565b60606003826040516118ae9190612668565b9081526020016040518091039020600401805480602002602001604051908101604052809291908181526020016000905b8282101561198b5783829060005260206000200180546118fe906126ae565b80601f016020809104026020016040519081016040528092919081815260200182805461192a906126ae565b80156119775780601f1061194c57610100808354040283529160200191611977565b820191906000526020600020905b81548152906001019060200180831161195a57829003601f168201915b5050505050815260200190600101906118df565b505050509050919050565b60006119a0611f15565b848160000181905250838160200181905250828160400181905250806000876040516119cc9190612668565b908152602001604051809103902060008201518160000190816119ef91906128c4565b506020820151816001019081611a0591906128c4565b506040820151816002019081611a1b91906128c4565b506060820151816003019081611a3191906128c4565b506080820151816004019081611a4791906128c4565b5060a082015181600501559050506001915050949350505050565b606080606080600085604051611a789190612668565b9081526020016040518091039020600001600086604051611a999190612668565b9081526020016040518091039020600101600087604051611aba9190612668565b9081526020016040518091039020600301600088604051611adb9190612668565b9081526020016040518091039020600401838054611af8906126ae565b80601f0160208091040260200160405190810160405280929190818152602001828054611b24906126ae565b8015611b715780601f10611b4657610100808354040283529160200191611b71565b820191906000526020600020905b815481529060010190602001808311611b5457829003601f168201915b50505050509350828054611b84906126ae565b80601f0160208091040260200160405190810160405280929190818152602001828054611bb0906126ae565b8015611bfd5780601f10611bd257610100808354040283529160200191611bfd565b820191906000526020600020905b815481529060010190602001808311611be057829003601f168201915b50505050509250818054611c10906126ae565b80601f0160208091040260200160405190810160405280929190818152602001828054611c3c906126ae565b8015611c895780601f10611c5e57610100808354040283529160200191611c89565b820191906000526020600020905b815481529060010190602001808311611c6c57829003601f168201915b50505050509150808054611c9c906126ae565b80601f0160208091040260200160405190810160405280929190818152602001828054611cc8906126ae565b8015611d155780601f10611cea57610100808354040283529160200191611d15565b820191906000526020600020905b815481529060010190602001808311611cf857829003601f168201915b5050505050905093509350935093509193509193565b600081604051602001611d3e9190612668565b6040516020818303038152906040528051906020012083604051602001611d659190612668565b6040516020818303038152906040528051906020012014905092915050565b600081805490508310611d9a5760009050611e5d565b60008390505b60018380549050611db19190612a0d565b811015611e1e5782600182611dc69190612a41565b81548110611dd757611dd66126df565b5b90600052602060002001838281548110611df457611df36126df565b5b906000526020600020019081611e0a9190612aa0565b508080611e16906129c5565b915050611da0565b508160018380549050611e319190612a0d565b81548110611e4257611e416126df565b5b906000526020600020016000611e589190611f4b565b600190505b92915050565b6040518060c0016040528060608152602001606081526020016060815260200160608152602001606081526020016000151581525090565b828054828255906000526020600020908101928215611ee3579160200282015b82811115611ee2578251829081611ed291906128c4565b5091602001919060010190611ebb565b5b509050611ef09190611f8b565b5090565b60405180606001604052806060815260200160608152602001606081525090565b6040518060c001604052806060815260200160608152602001606081526020016060815260200160608152602001600081525090565b508054611f57906126ae565b6000825580601f10611f695750611f88565b601f016020900490600052602060002090810190611f879190611faf565b5b50565b5b80821115611fab5760008181611fa29190611f4b565b50600101611f8c565b5090565b5b80821115611fc8576000816000905550600101611fb0565b5090565b6000604051905090565b600080fd5b600080fd5b600080fd5b600080fd5b6000601f19601f8301169050919050565b7f4e487b7100000000000000000000000000000000000000000000000000000000600052604160045260246000fd5b61203382611fea565b810181811067ffffffffffffffff8211171561205257612051611ffb565b5b80604052505050565b6000612065611fcc565b9050612071828261202a565b919050565b600067ffffffffffffffff82111561209157612090611ffb565b5b61209a82611fea565b9050602081019050919050565b82818337600083830152505050565b60006120c96120c484612076565b61205b565b9050828152602081018484840111156120e5576120e4611fe5565b5b6120f08482856120a7565b509392505050565b600082601f83011261210d5761210c611fe0565b5b813561211d8482602086016120b6565b91505092915050565b60008060006060848603121561213f5761213e611fd6565b5b600084013567ffffffffffffffff81111561215d5761215c611fdb565b5b612169868287016120f8565b935050602084013567ffffffffffffffff81111561218a57612189611fdb565b5b612196868287016120f8565b925050604084013567ffffffffffffffff8111156121b7576121b6611fdb565b5b6121c3868287016120f8565b9150509250925092565b60008115159050919050565b6121e2816121cd565b82525050565b60006020820190506121fd60008301846121d9565b92915050565b60006020828403121561221957612218611fd6565b5b600082013567ffffffffffffffff81111561223757612236611fdb565b5b612243848285016120f8565b91505092915050565b600081519050919050565b600082825260208201905092915050565b60005b8381101561228657808201518184015260208101905061226b565b60008484015250505050565b600061229d8261224c565b6122a78185612257565b93506122b7818560208601612268565b6122c081611fea565b840191505092915050565b600060408201905081810360008301526122e58185612292565b905081810360208301526122f98184612292565b90509392505050565b6000806040838503121561231957612318611fd6565b5b600083013567ffffffffffffffff81111561233757612336611fdb565b5b612343858286016120f8565b925050602083013567ffffffffffffffff81111561236457612363611fdb565b5b612370858286016120f8565b9150509250929050565b6000806000806080858703121561239457612393611fd6565b5b600085013567ffffffffffffffff8111156123b2576123b1611fdb565b5b6123be878288016120f8565b945050602085013567ffffffffffffffff8111156123df576123de611fdb565b5b6123eb878288016120f8565b935050604085013567ffffffffffffffff81111561240c5761240b611fdb565b5b612418878288016120f8565b925050606085013567ffffffffffffffff81111561243957612438611fdb565b5b612445878288016120f8565b91505092959194509250565b6000606082019050818103600083015261246b8186612292565b9050818103602083015261247f8185612292565b905081810360408301526124938184612292565b9050949350505050565b600081519050919050565b600082825260208201905092915050565b6000819050602082019050919050565b600082825260208201905092915050565b60006124e58261224c565b6124ef81856124c9565b93506124ff818560208601612268565b61250881611fea565b840191505092915050565b600061251f83836124da565b905092915050565b6000602082019050919050565b600061253f8261249d565b61254981856124a8565b93508360208202850161255b856124b9565b8060005b8581101561259757848403895281516125788582612513565b945061258383612527565b925060208a0199505060018101905061255f565b50829750879550505050505092915050565b600060208201905081810360008301526125c38184612534565b905092915050565b600060808201905081810360008301526125e58187612292565b905081810360208301526125f98186612292565b9050818103604083015261260d8185612292565b905081810360608301526126218184612292565b905095945050505050565b600081905092915050565b60006126428261224c565b61264c818561262c565b935061265c818560208601612268565b80840191505092915050565b60006126748284612637565b915081905092915050565b7f4e487b7100000000000000000000000000000000000000000000000000000000600052602260045260246000fd5b600060028204905060018216806126c657607f821691505b6020821081036126d9576126d861267f565b5b50919050565b7f4e487b7100000000000000000000000000000000000000000000000000000000600052603260045260246000fd5b60008190508160005260206000209050919050565b60006020601f8301049050919050565b600082821b905092915050565b6000600883026127707fffffffffffffffffffffffffffffffffffffffffffffffffffffffffffffffff82612733565b61277a8683612733565b95508019841693508086168417925050509392505050565b6000819050919050565b6000819050919050565b60006127c16127bc6127b784612792565b61279c565b612792565b9050919050565b6000819050919050565b6127db836127a6565b6127ef6127e7826127c8565b848454612740565b825550505050565b600090565b6128046127f7565b61280f8184846127d2565b505050565b5b81811015612833576128286000826127fc565b600181019050612815565b5050565b601f821115612878576128498161270e565b61285284612723565b81016020851015612861578190505b61287561286d85612723565b830182612814565b50505b505050565b600082821c905092915050565b600061289b6000198460080261287d565b1980831691505092915050565b60006128b4838361288a565b9150826002028217905092915050565b6128cd8261224c565b67ffffffffffffffff8111156128e6576128e5611ffb565b5b6128f082546126ae565b6128fb828285612837565b600060209050601f83116001811461292e576000841561291c578287015190505b61292685826128a8565b86555061298e565b601f19841661293c8661270e565b60005b828110156129645784890151825560018201915060208501945060208101905061293f565b86831015612981578489015161297d601f89168261288a565b8355505b6001600288020188555050505b505050505050565b7f4e487b7100000000000000000000000000000000000000000000000000000000600052601160045260246000fd5b60006129d082612792565b91507fffffffffffffffffffffffffffffffffffffffffffffffffffffffffffffffff8203612a0257612a01612996565b5b600182019050919050565b6000612a1882612792565b9150612a2383612792565b9250828203905081811115612a3b57612a3a612996565b5b92915050565b6000612a4c82612792565b9150612a5783612792565b9250828201905080821115612a6f57612a6e612996565b5b92915050565b600081549050612a84816126ae565b9050919050565b60008190508160005260206000209050919050565b818103612aae575050612b86565b612ab782612a75565b67ffffffffffffffff811115612ad057612acf611ffb565b5b612ada82546126ae565b612ae5828285612837565b6000601f831160018114612b145760008415612b02578287015490505b612b0c85826128a8565b865550612b7f565b601f198416612b2287612a8b565b9650612b2d8661270e565b60005b82811015612b5557848901548255600182019150600185019450602081019050612b30565b86831015612b725784890154612b6e601f89168261288a565b8355505b6001600288020188555050505b5050505050505b56fea2646970667358221220e42d5a99a6ee1e2991db6d446853595fcde0dc41116494f96c10afd8e0ae95cb64736f6c63430008130033",
  "linkReferences": {},
  "deployedLinkReferences": {}
}